{
  "_format": "hh-sol-artifact-1",
  "contractName": "IdentityRegistryStorage",
  "sourceName": "contracts/registry/IdentityRegistryStorage.sol",
  "abi": [
    {
      "inputs": [],
      "stateMutability": "nonpayable",
      "type": "constructor"
    },
    {
      "anonymous": false,
      "inputs": [
        {
          "indexed": true,
          "internalType": "address",
          "name": "investorAddress",
          "type": "address"
        },
        {
          "indexed": true,
          "internalType": "uint16",
          "name": "country",
          "type": "uint16"
        }
      ],
      "name": "CountryModified",
      "type": "event"
    },
    {
      "anonymous": false,
      "inputs": [
        {
          "indexed": true,
          "internalType": "contract IIdentity",
          "name": "oldIdentity",
          "type": "address"
        },
        {
          "indexed": true,
          "internalType": "contract IIdentity",
          "name": "newIdentity",
          "type": "address"
        }
      ],
      "name": "IdentityModified",
      "type": "event"
    },
    {
      "anonymous": false,
      "inputs": [
        {
          "indexed": true,
          "internalType": "address",
          "name": "identityRegistry",
          "type": "address"
        }
      ],
      "name": "IdentityRegistryBound",
      "type": "event"
    },
    {
      "anonymous": false,
      "inputs": [
        {
          "indexed": true,
          "internalType": "address",
          "name": "identityRegistry",
          "type": "address"
        }
      ],
      "name": "IdentityRegistryUnbound",
      "type": "event"
    },
    {
      "anonymous": false,
      "inputs": [
        {
          "indexed": true,
          "internalType": "address",
          "name": "investorAddress",
          "type": "address"
        },
        {
          "indexed": true,
          "internalType": "contract IIdentity",
          "name": "identity",
          "type": "address"
        }
      ],
      "name": "IdentityStored",
      "type": "event"
    },
    {
      "anonymous": false,
      "inputs": [
        {
          "indexed": true,
          "internalType": "address",
          "name": "investorAddress",
          "type": "address"
        },
        {
          "indexed": true,
          "internalType": "contract IIdentity",
          "name": "identity",
          "type": "address"
        }
      ],
      "name": "IdentityUnstored",
      "type": "event"
    },
    {
      "anonymous": false,
      "inputs": [
        {
          "indexed": true,
          "internalType": "bytes32",
          "name": "role",
          "type": "bytes32"
        },
        {
          "indexed": true,
          "internalType": "bytes32",
          "name": "previousAdminRole",
          "type": "bytes32"
        },
        {
          "indexed": true,
          "internalType": "bytes32",
          "name": "newAdminRole",
          "type": "bytes32"
        }
      ],
      "name": "RoleAdminChanged",
      "type": "event"
    },
    {
      "anonymous": false,
      "inputs": [
        {
          "indexed": true,
          "internalType": "bytes32",
          "name": "role",
          "type": "bytes32"
        },
        {
          "indexed": true,
          "internalType": "address",
          "name": "account",
          "type": "address"
        },
        {
          "indexed": true,
          "internalType": "address",
          "name": "sender",
          "type": "address"
        }
      ],
      "name": "RoleGranted",
      "type": "event"
    },
    {
      "anonymous": false,
      "inputs": [
        {
          "indexed": true,
          "internalType": "bytes32",
          "name": "role",
          "type": "bytes32"
        },
        {
          "indexed": true,
          "internalType": "address",
          "name": "account",
          "type": "address"
        },
        {
          "indexed": true,
          "internalType": "address",
          "name": "sender",
          "type": "address"
        }
      ],
      "name": "RoleRevoked",
      "type": "event"
    },
    {
      "inputs": [],
      "name": "AGENT_ROLE",
      "outputs": [
        {
          "internalType": "bytes32",
          "name": "",
          "type": "bytes32"
        }
      ],
      "stateMutability": "view",
      "type": "function"
    },
    {
      "inputs": [],
      "name": "DEFAULT_ADMIN_ROLE",
      "outputs": [
        {
          "internalType": "bytes32",
          "name": "",
          "type": "bytes32"
        }
      ],
      "stateMutability": "view",
      "type": "function"
    },
    {
      "inputs": [],
      "name": "OWNER_ROLE",
      "outputs": [
        {
          "internalType": "bytes32",
          "name": "",
          "type": "bytes32"
        }
      ],
      "stateMutability": "view",
      "type": "function"
    },
    {
      "inputs": [
        {
          "internalType": "address",
          "name": "_userAddress",
          "type": "address"
        },
        {
          "internalType": "contract IIdentity",
          "name": "_identity",
          "type": "address"
        },
        {
          "internalType": "uint16",
          "name": "_country",
          "type": "uint16"
        }
      ],
      "name": "addIdentityToStorage",
      "outputs": [],
      "stateMutability": "nonpayable",
      "type": "function"
    },
    {
      "inputs": [
        {
          "internalType": "address",
          "name": "_identityRegistry",
          "type": "address"
        }
      ],
      "name": "bindIdentityRegistry",
      "outputs": [],
      "stateMutability": "nonpayable",
      "type": "function"
    },
    {
      "inputs": [
        {
          "internalType": "bytes32",
          "name": "role",
          "type": "bytes32"
        }
      ],
      "name": "getRoleAdmin",
      "outputs": [
        {
          "internalType": "bytes32",
          "name": "",
          "type": "bytes32"
        }
      ],
      "stateMutability": "view",
      "type": "function"
    },
    {
      "inputs": [
        {
          "internalType": "bytes32",
          "name": "role",
          "type": "bytes32"
        },
        {
          "internalType": "address",
          "name": "account",
          "type": "address"
        }
      ],
      "name": "grantRole",
      "outputs": [],
      "stateMutability": "nonpayable",
      "type": "function"
    },
    {
      "inputs": [
        {
          "internalType": "bytes32",
          "name": "role",
          "type": "bytes32"
        },
        {
          "internalType": "address",
          "name": "account",
          "type": "address"
        }
      ],
      "name": "hasRole",
      "outputs": [
        {
          "internalType": "bool",
          "name": "",
          "type": "bool"
        }
      ],
      "stateMutability": "view",
      "type": "function"
    },
    {
      "inputs": [],
      "name": "linkedIdentityRegistries",
      "outputs": [
        {
          "internalType": "address[]",
          "name": "",
          "type": "address[]"
        }
      ],
      "stateMutability": "view",
      "type": "function"
    },
    {
      "inputs": [
        {
          "internalType": "address",
          "name": "_userAddress",
          "type": "address"
        },
        {
          "internalType": "contract IIdentity",
          "name": "_identity",
          "type": "address"
        }
      ],
      "name": "modifyStoredIdentity",
      "outputs": [],
      "stateMutability": "nonpayable",
      "type": "function"
    },
    {
      "inputs": [
        {
          "internalType": "address",
          "name": "_userAddress",
          "type": "address"
        },
        {
          "internalType": "uint16",
          "name": "_country",
          "type": "uint16"
        }
      ],
      "name": "modifyStoredInvestorCountry",
      "outputs": [],
      "stateMutability": "nonpayable",
      "type": "function"
    },
    {
      "inputs": [
        {
          "internalType": "address",
          "name": "_userAddress",
          "type": "address"
        }
      ],
      "name": "removeIdentityFromStorage",
      "outputs": [],
      "stateMutability": "nonpayable",
      "type": "function"
    },
    {
      "inputs": [
        {
          "internalType": "bytes32",
          "name": "role",
          "type": "bytes32"
        },
        {
          "internalType": "address",
          "name": "account",
          "type": "address"
        }
      ],
      "name": "renounceRole",
      "outputs": [],
      "stateMutability": "nonpayable",
      "type": "function"
    },
    {
      "inputs": [
        {
          "internalType": "bytes32",
          "name": "role",
          "type": "bytes32"
        },
        {
          "internalType": "address",
          "name": "account",
          "type": "address"
        }
      ],
      "name": "revokeRole",
      "outputs": [],
      "stateMutability": "nonpayable",
      "type": "function"
    },
    {
      "inputs": [
        {
          "internalType": "address",
          "name": "_userAddress",
          "type": "address"
        }
      ],
      "name": "storedIdentity",
      "outputs": [
        {
          "internalType": "contract IIdentity",
          "name": "",
          "type": "address"
        }
      ],
      "stateMutability": "view",
      "type": "function"
    },
    {
      "inputs": [
        {
          "internalType": "address",
          "name": "_userAddress",
          "type": "address"
        }
      ],
      "name": "storedInvestorCountry",
      "outputs": [
        {
          "internalType": "uint16",
          "name": "",
          "type": "uint16"
        }
      ],
      "stateMutability": "view",
      "type": "function"
    },
    {
      "inputs": [
        {
          "internalType": "bytes4",
          "name": "interfaceId",
          "type": "bytes4"
        }
      ],
      "name": "supportsInterface",
      "outputs": [
        {
          "internalType": "bool",
          "name": "",
          "type": "bool"
        }
      ],
      "stateMutability": "view",
      "type": "function"
    },
    {
      "inputs": [
        {
          "internalType": "address",
          "name": "_identityRegistry",
          "type": "address"
        }
      ],
      "name": "unbindIdentityRegistry",
      "outputs": [],
      "stateMutability": "nonpayable",
      "type": "function"
    }
  ],
  "bytecode": "0x608060405234801561001057600080fd5b5061001c600033610075565b6100467fcab5a0bfe0b79d2c4b1c2e02599fa044d115b7511f9659307cb427695096770933610075565b6100707fb19546dff01e856fb3f010c267a7b1c60363cf8a4664e21cc89c26224620214e33610075565b610114565b6000828152602081815260408083206001600160a01b038516845290915290205460ff16610110576000828152602081815260408083206001600160a01b03851684529091529020805460ff191660011790556100cf3390565b6001600160a01b0316816001600160a01b0316837f2f8788117e7eff1d82e926ec794901d17c78024a50270940304540a733656f0d60405160405180910390a45b5050565b611227806101236000396000f3fe608060405234801561001057600080fd5b50600436106101165760003560e01c806397a012f7116100a2578063bf9eb95911610071578063bf9eb959146102a3578063cf191bcd146102b8578063d547741f146102cb578063e58378bb146102de578063e805cf861461030557600080fd5b806397a012f7146102625780639f3418d514610275578063a217fddf14610288578063a53410dd1461029057600080fd5b806336568abe116100e957806336568abe1461019e578063690a49f9146101b1578063727e13bc146101c45780637988d3a51461020b57806391d148541461024f57600080fd5b806301ffc9a71461011b57806322459e1814610143578063248a9ca3146101665780632f2ff15d14610189575b600080fd5b61012e610129366004610e38565b610318565b60405190151581526020015b60405180910390f35b6101586000805160206111d283398151915281565b60405190815260200161013a565b610158610174366004610e62565b60009081526020819052604090206001015490565b61019c610197366004610e90565b61034f565b005b61019c6101ac366004610e90565b610379565b61019c6101bf366004610ec0565b6103fc565b6101f86101d2366004610ec0565b6001600160a01b0316600090815260016020526040902054600160a01b900461ffff1690565b60405161ffff909116815260200161013a565b610237610219366004610ec0565b6001600160a01b039081166000908152600160205260409020541690565b6040516001600160a01b03909116815260200161013a565b61012e61025d366004610e90565b6104dd565b61019c610270366004610ec0565b610506565b61019c610283366004610ef4565b6106f6565b610158600081565b61019c61029e366004610f29565b6107cf565b6102ab6108f0565b60405161013a9190610f70565b61019c6102c6366004610ec0565b610952565b61019c6102d9366004610e90565b610a21565b6101587fb19546dff01e856fb3f010c267a7b1c60363cf8a4664e21cc89c26224620214e81565b61019c610313366004610fbd565b610a46565b60006001600160e01b03198216637965db0b60e01b148061034957506301ffc9a760e01b6001600160e01b03198316145b92915050565b60008281526020819052604090206001015461036a81610b34565b6103748383610b41565b505050565b6001600160a01b03811633146103ee5760405162461bcd60e51b815260206004820152602f60248201527f416363657373436f6e74726f6c3a2063616e206f6e6c792072656e6f756e636560448201526e103937b632b9903337b91039b2b63360891b60648201526084015b60405180910390fd5b6103f88282610bc5565b5050565b7fb19546dff01e856fb3f010c267a7b1c60363cf8a4664e21cc89c26224620214e61042681610b34565b6001600160a01b03821661044c5760405162461bcd60e51b81526004016103e590610feb565b6104646000805160206111d283398151915283610b41565b6002805460018101825560009182527f405787fa12a823e0f2b7631cc41b3ba8828b3321ca811111fa75cd3aa3bb5ace0180546001600160a01b0319166001600160a01b03851690811790915560405190917f500c250171aa20e861b680f93502547b9d436eda7d4c537fc360db6e0c6eedfb91a25050565b6000918252602082815260408084206001600160a01b0393909316845291905290205460ff1690565b7fb19546dff01e856fb3f010c267a7b1c60363cf8a4664e21cc89c26224620214e61053081610b34565b6001600160a01b0382166105565760405162461bcd60e51b81526004016103e590610feb565b6002546000036105a85760405162461bcd60e51b815260206004820152601e60248201527f4552432d333634333a204e6f206964656e74697479207265676973747279000060448201526064016103e5565b60025460005b818110156106a457836001600160a01b0316600282815481106105d3576105d3611022565b6000918252602090912001546001600160a01b03160361069c5760026105fa60018461104e565b8154811061060a5761060a611022565b600091825260209091200154600280546001600160a01b03909216918390811061063657610636611022565b9060005260206000200160006101000a8154816001600160a01b0302191690836001600160a01b03160217905550600280548061067557610675611061565b600082815260209020810160001990810180546001600160a01b03191690550190556106a4565b6001016105ae565b506106bd6000805160206111d283398151915284610bc5565b6040516001600160a01b038416907f51f353eb5801583fdf2706e43c045b62fdf6b1566820b349390616363ecf72c990600090a2505050565b6000805160206111d283398151915261070e81610b34565b6001600160a01b0383166107345760405162461bcd60e51b81526004016103e590610feb565b6001600160a01b038381166000908152600160205260409020541661076b5760405162461bcd60e51b81526004016103e590611077565b6001600160a01b038316600081815260016020526040808220805461ffff60a01b1916600160a01b61ffff88169081029190911790915590519092917f20965fcdc6eed7ae398065b40ece4e732ba667992ca819fc54e80e9f2047c4cf91a3505050565b6000805160206111d28339815191526107e781610b34565b6001600160a01b0384161580159061080757506001600160a01b03831615155b6108235760405162461bcd60e51b81526004016103e590610feb565b6001600160a01b03848116600090815260016020526040902054161561088b5760405162461bcd60e51b815260206004820152601860248201527f4552432d333634333a20416c72656164792073746f726564000000000000000060448201526064016103e5565b6001600160a01b0384811660008181526001602052604080822080549488166001600160b01b03199095168517600160a01b61ffff891602179055517e30dea7e9c9afaa2e3c9810f2fc9b5181f1bad74ca5a8db85f746a33585e7479190a350505050565b6060600280548060200260200160405190810160405280929190818152602001828054801561094857602002820191906000526020600020905b81546001600160a01b0316815260019091019060200180831161092a575b5050505050905090565b6000805160206111d283398151915261096a81610b34565b6001600160a01b0382166109905760405162461bcd60e51b81526004016103e590610feb565b6001600160a01b03828116600090815260016020526040902054166109c75760405162461bcd60e51b81526004016103e590611077565b6001600160a01b0380831660008181526001602052604080822080546001600160b01b0319811690915590519316928392917fca6a4c3370b859312246e7f086284076e557997e10d856b716c23ab67067790b91a3505050565b600082815260208190526040902060010154610a3c81610b34565b6103748383610bc5565b6000805160206111d2833981519152610a5e81610b34565b6001600160a01b03831615801590610a7e57506001600160a01b03821615155b610a9a5760405162461bcd60e51b81526004016103e590610feb565b6001600160a01b0383811660009081526001602052604090205416610ad15760405162461bcd60e51b81526004016103e590611077565b6001600160a01b0380841660009081526001602052604080822080548685166001600160a01b031982168117909255915191909316929183917f556ce885dfcea52155c773f1ed2e58781c51945c13030ab8f793c61f51d1b8089190a350505050565b610b3e8133610c2a565b50565b610b4b82826104dd565b6103f8576000828152602081815260408083206001600160a01b03851684529091529020805460ff19166001179055610b813390565b6001600160a01b0316816001600160a01b0316837f2f8788117e7eff1d82e926ec794901d17c78024a50270940304540a733656f0d60405160405180910390a45050565b610bcf82826104dd565b156103f8576000828152602081815260408083206001600160a01b0385168085529252808320805460ff1916905551339285917ff6391f5c32d9c69d2a47ea670b442974b53935d1edc7fd64eb21e047a839171b9190a45050565b610c3482826104dd565b6103f857610c4181610c83565b610c4c836020610c95565b604051602001610c5d9291906110d2565b60408051601f198184030181529082905262461bcd60e51b82526103e591600401611147565b60606103496001600160a01b03831660145b60606000610ca483600261117a565b610caf906002611191565b67ffffffffffffffff811115610cc757610cc76111a4565b6040519080825280601f01601f191660200182016040528015610cf1576020820181803683370190505b509050600360fc1b81600081518110610d0c57610d0c611022565b60200101906001600160f81b031916908160001a905350600f60fb1b81600181518110610d3b57610d3b611022565b60200101906001600160f81b031916908160001a9053506000610d5f84600261117a565b610d6a906001611191565b90505b6001811115610de2576f181899199a1a9b1b9c1cb0b131b232b360811b85600f1660108110610d9e57610d9e611022565b1a60f81b828281518110610db457610db4611022565b60200101906001600160f81b031916908160001a90535060049490941c93610ddb816111ba565b9050610d6d565b508315610e315760405162461bcd60e51b815260206004820181905260248201527f537472696e67733a20686578206c656e67746820696e73756666696369656e7460448201526064016103e5565b9392505050565b600060208284031215610e4a57600080fd5b81356001600160e01b031981168114610e3157600080fd5b600060208284031215610e7457600080fd5b5035919050565b6001600160a01b0381168114610b3e57600080fd5b60008060408385031215610ea357600080fd5b823591506020830135610eb581610e7b565b809150509250929050565b600060208284031215610ed257600080fd5b8135610e3181610e7b565b803561ffff81168114610eef57600080fd5b919050565b60008060408385031215610f0757600080fd5b8235610f1281610e7b565b9150610f2060208401610edd565b90509250929050565b600080600060608486031215610f3e57600080fd5b8335610f4981610e7b565b92506020840135610f5981610e7b565b9150610f6760408501610edd565b90509250925092565b6020808252825182820181905260009190848201906040850190845b81811015610fb15783516001600160a01b031683529284019291840191600101610f8c565b50909695505050505050565b60008060408385031215610fd057600080fd5b8235610fdb81610e7b565b91506020830135610eb581610e7b565b6020808252601e908201527f4552432d333634333a20496e76616c6964207a65726f20616464726573730000604082015260600190565b634e487b7160e01b600052603260045260246000fd5b634e487b7160e01b600052601160045260246000fd5b8181038181111561034957610349611038565b634e487b7160e01b600052603160045260246000fd5b6020808252601c908201527f4552432d333634333a2041646472657373206e6f742073746f72656400000000604082015260600190565b60005b838110156110c95781810151838201526020016110b1565b50506000910152565b7f416363657373436f6e74726f6c3a206163636f756e742000000000000000000081526000835161110a8160178501602088016110ae565b7001034b99036b4b9b9b4b733903937b6329607d1b601791840191820152835161113b8160288401602088016110ae565b01602801949350505050565b60208152600082518060208401526111668160408501602087016110ae565b601f01601f19169190910160400192915050565b808202811582820484141761034957610349611038565b8082018082111561034957610349611038565b634e487b7160e01b600052604160045260246000fd5b6000816111c9576111c9611038565b50600019019056fecab5a0bfe0b79d2c4b1c2e02599fa044d115b7511f9659307cb4276950967709a26469706673582212202dc5fd2bef6bc1184a8de6e3e1fb02cd1dbbb5ca2a1061815624debdac5d5c8c64736f6c63430008110033",
  "linkReferences": {},
  "deployedLinkReferences": {}
}