{"abi":[{"type":"function","name":"addClaimTopic","inputs":[{"name":"_claimTopic","type":"uint256","internalType":"uint256"}],"outputs":[],"stateMutability":"nonpayable"},{"type":"function","name":"getClaimTopics","inputs":[],"outputs":[{"name":"","type":"uint256[]","internalType":"uint256[]"}],"stateMutability":"view"},{"type":"function","name":"init","inputs":[],"outputs":[],"stateMutability":"nonpayable"},{"type":"function","name":"owner","inputs":[],"outputs":[{"name":"","type":"address","internalType":"address"}],"stateMutability":"view"},{"type":"function","name":"removeClaimTopic","inputs":[{"name":"_claimTopic","type":"uint256","internalType":"uint256"}],"outputs":[],"stateMutability":"nonpayable"},{"type":"function","name":"renounceOwnership","inputs":[],"outputs":[],"stateMutability":"nonpayable"},{"type":"function","name":"transferOwnership","inputs":[{"name":"newOwner","type":"address","internalType":"address"}],"outputs":[],"stateMutability":"nonpayable"},{"type":"event","name":"ClaimTopicAdded","inputs":[{"name":"claimTopic","type":"uint256","indexed":true,"internalType":"uint256"}],"anonymous":false},{"type":"event","name":"ClaimTopicRemoved","inputs":[{"name":"claimTopic","type":"uint256","indexed":true,"internalType":"uint256"}],"anonymous":false},{"type":"event","name":"Initialized","inputs":[{"name":"version","type":"uint8","indexed":false,"internalType":"uint8"}],"anonymous":false},{"type":"event","name":"OwnershipTransferred","inputs":[{"name":"previousOwner","type":"address","indexed":true,"internalType":"address"},{"name":"newOwner","type":"address","indexed":true,"internalType":"address"}],"anonymous":false}],"bytecode":{"object":"0x60808060405234610016576107b0908161001c8239f35b600080fdfe6040608081526004908136101561001557600080fd5b600091823560e01c8063082978461461050c578063715018a6146104af5780638da5cb5b14610482578063c7b2255114610319578063df09d60414610238578063e1c7392a146101075763f2fde38b1461006e57600080fd5b34610103576020366003190112610103578035916001600160a01b0383168084036100ff5761009b6106d9565b156100ad57836100aa84610731565b80f35b906020608492519162461bcd60e51b8352820152602660248201527f4f776e61626c653a206e6577206f776e657220697320746865207a65726f206160448201526564647265737360d01b6064820152fd5b8480fd5b8280fd5b5034610103578260031936011261010357825460ff8160081c16159182809361022b575b8015610214575b156101ba575060ff1981166001178455816101a9575b5061016260ff845460081c1661015d81610679565b610679565b61016b33610731565b610173575080f35b60207f7f26b83ff96e1f2b6a682f133852f6798a09c465da95921460cefb38474024989161ff001984541684555160018152a180f35b61ffff191661010117835538610148565b608490602085519162461bcd60e51b8352820152602e60248201527f496e697469616c697a61626c653a20636f6e747261637420697320616c72656160448201526d191e481a5b9a5d1a585b1a5e995960921b6064820152fd5b50303b1580156101325750600160ff831614610132565b50600160ff83161061012b565b509134610316578060031936011261031657815180916065549384835260208093018095606584527f8ff97419363ffd7000167f130ef7168fbea05faf9251824ca5043f113cc6a7c790845b868282106103025750505050849003601f01601f191684019567ffffffffffffffff8711858810176102ef575085815282865292518583018190528594938501939290915b8281106102d857505050500390f35b8351855286955093810193928101926001016102c9565b634e487b7160e01b835260419052602482fd5b835485529093019260019283019201610284565b80fd5b5034610103576020908160031936011261047e578035926103386106d9565b60655492600f84101561043257855b8481106103cc57505050680100000000000000008210156103b9575081610377826001610392940160655561062c565b90919082549060031b600019811b9283911b16911916179055565b7f01c928b7f7ade2949e92366aa9454dbef3a416b731cf6ec786ba9595bbd814d68280a280f35b634e487b7160e01b845260419052602483fd5b856103d68261062c565b90549060031b1c146103f0576103eb90610607565b610347565b50905162461bcd60e51b815291820152601960248201527f636c61696d546f70696320616c726561647920657869737473000000000000006044820152606490fd5b905162461bcd60e51b815291820152602260248201527f63616e6e6f742072657175697265206d6f7265207468616e20313520746f7069604482015261637360f01b6064820152608490fd5b8380fd5b5050346104ab57816003193601126104ab5760335490516001600160a01b039091168152602090f35b5080fd5b83346103165780600319360112610316576104c86106d9565b603380546001600160a01b0319811690915581906001600160a01b03167f8be0079c531659141344cd1fd0a4f28419497f9722a3daafe3b4186f6b6457e08280a380f35b8382346104ab5760203660031901126104ab5780356105296106d9565b606591825492845b84811061053c578580f35b836105468261062c565b919054600392831b1c14610563575061055e90610607565b610531565b9394919290600019928381019081116105f457906103776105866105929361062c565b905490881b1c9161062c565b82549081156105e157508101926105a88461062c565b81939154921b1b19169055557f0b1381093c776453c1bbe54fd68be1b235c65db61d099cb50d194b2991e0eec58280a281808080808580f35b634e487b7160e01b875260319052602486fd5b634e487b7160e01b885260118352602488fd5b60001981146106165760010190565b634e487b7160e01b600052601160045260246000fd5b6065548110156106635760656000527f8ff97419363ffd7000167f130ef7168fbea05faf9251824ca5043f113cc6a7c70190600090565b634e487b7160e01b600052603260045260246000fd5b1561068057565b60405162461bcd60e51b815260206004820152602b60248201527f496e697469616c697a61626c653a20636f6e7472616374206973206e6f74206960448201526a6e697469616c697a696e6760a81b6064820152608490fd5b6033546001600160a01b031633036106ed57565b606460405162461bcd60e51b815260206004820152602060248201527f4f776e61626c653a2063616c6c6572206973206e6f7420746865206f776e65726044820152fd5b603380546001600160a01b039283166001600160a01b0319821681179092559091167f8be0079c531659141344cd1fd0a4f28419497f9722a3daafe3b4186f6b6457e0600080a356fea26469706673582212204bb6f518f85b79a1783c045c480df678451a93fa748c98ff5d515af7d3e6a11d64736f6c63430008110033","linkReferences":{}},"methodIdentifiers":{"addClaimTopic(uint256)":"c7b22551","getClaimTopics()":"df09d604","init()":"e1c7392a","owner()":"8da5cb5b","removeClaimTopic(uint256)":"08297846","renounceOwnership()":"715018a6","transferOwnership(address)":"f2fde38b"},"id":18}