{
  "_format": "hh-sol-artifact-1",
  "contractName": "Identity",
  "sourceName": "contracts/@onchain-id/solidity/contracts/Identity.sol",
  "abi": [
    {
      "inputs": [
        {
          "internalType": "address",
          "name": "initialManagementKey",
          "type": "address"
        },
        {
          "internalType": "bool",
          "name": "_isLibrary",
          "type": "bool"
        }
      ],
      "stateMutability": "nonpayable",
      "type": "constructor"
    },
    {
      "anonymous": false,
      "inputs": [
        {
          "indexed": true,
          "internalType": "uint256",
          "name": "executionId",
          "type": "uint256"
        },
        {
          "indexed": false,
          "internalType": "bool",
          "name": "approved",
          "type": "bool"
        }
      ],
      "name": "Approved",
      "type": "event"
    },
    {
      "anonymous": false,
      "inputs": [
        {
          "indexed": true,
          "internalType": "bytes32",
          "name": "claimId",
          "type": "bytes32"
        },
        {
          "indexed": true,
          "internalType": "uint256",
          "name": "topic",
          "type": "uint256"
        },
        {
          "indexed": false,
          "internalType": "uint256",
          "name": "scheme",
          "type": "uint256"
        },
        {
          "indexed": true,
          "internalType": "address",
          "name": "issuer",
          "type": "address"
        },
        {
          "indexed": false,
          "internalType": "bytes",
          "name": "signature",
          "type": "bytes"
        },
        {
          "indexed": false,
          "internalType": "bytes",
          "name": "data",
          "type": "bytes"
        },
        {
          "indexed": false,
          "internalType": "string",
          "name": "uri",
          "type": "string"
        }
      ],
      "name": "ClaimAdded",
      "type": "event"
    },
    {
      "anonymous": false,
      "inputs": [
        {
          "indexed": true,
          "internalType": "bytes32",
          "name": "claimId",
          "type": "bytes32"
        },
        {
          "indexed": true,
          "internalType": "uint256",
          "name": "topic",
          "type": "uint256"
        },
        {
          "indexed": false,
          "internalType": "uint256",
          "name": "scheme",
          "type": "uint256"
        },
        {
          "indexed": true,
          "internalType": "address",
          "name": "issuer",
          "type": "address"
        },
        {
          "indexed": false,
          "internalType": "bytes",
          "name": "signature",
          "type": "bytes"
        },
        {
          "indexed": false,
          "internalType": "bytes",
          "name": "data",
          "type": "bytes"
        },
        {
          "indexed": false,
          "internalType": "string",
          "name": "uri",
          "type": "string"
        }
      ],
      "name": "ClaimChanged",
      "type": "event"
    },
    {
      "anonymous": false,
      "inputs": [
        {
          "indexed": true,
          "internalType": "bytes32",
          "name": "claimId",
          "type": "bytes32"
        },
        {
          "indexed": true,
          "internalType": "uint256",
          "name": "topic",
          "type": "uint256"
        },
        {
          "indexed": false,
          "internalType": "uint256",
          "name": "scheme",
          "type": "uint256"
        },
        {
          "indexed": true,
          "internalType": "address",
          "name": "issuer",
          "type": "address"
        },
        {
          "indexed": false,
          "internalType": "bytes",
          "name": "signature",
          "type": "bytes"
        },
        {
          "indexed": false,
          "internalType": "bytes",
          "name": "data",
          "type": "bytes"
        },
        {
          "indexed": false,
          "internalType": "string",
          "name": "uri",
          "type": "string"
        }
      ],
      "name": "ClaimRemoved",
      "type": "event"
    },
    {
      "anonymous": false,
      "inputs": [
        {
          "indexed": true,
          "internalType": "uint256",
          "name": "executionId",
          "type": "uint256"
        },
        {
          "indexed": true,
          "internalType": "address",
          "name": "to",
          "type": "address"
        },
        {
          "indexed": true,
          "internalType": "uint256",
          "name": "value",
          "type": "uint256"
        },
        {
          "indexed": false,
          "internalType": "bytes",
          "name": "data",
          "type": "bytes"
        }
      ],
      "name": "Executed",
      "type": "event"
    },
    {
      "anonymous": false,
      "inputs": [
        {
          "indexed": true,
          "internalType": "uint256",
          "name": "executionId",
          "type": "uint256"
        },
        {
          "indexed": true,
          "internalType": "address",
          "name": "to",
          "type": "address"
        },
        {
          "indexed": true,
          "internalType": "uint256",
          "name": "value",
          "type": "uint256"
        },
        {
          "indexed": false,
          "internalType": "bytes",
          "name": "data",
          "type": "bytes"
        }
      ],
      "name": "ExecutionFailed",
      "type": "event"
    },
    {
      "anonymous": false,
      "inputs": [
        {
          "indexed": true,
          "internalType": "uint256",
          "name": "executionId",
          "type": "uint256"
        },
        {
          "indexed": true,
          "internalType": "address",
          "name": "to",
          "type": "address"
        },
        {
          "indexed": true,
          "internalType": "uint256",
          "name": "value",
          "type": "uint256"
        },
        {
          "indexed": false,
          "internalType": "bytes",
          "name": "data",
          "type": "bytes"
        }
      ],
      "name": "ExecutionRequested",
      "type": "event"
    },
    {
      "anonymous": false,
      "inputs": [
        {
          "indexed": true,
          "internalType": "bytes32",
          "name": "key",
          "type": "bytes32"
        },
        {
          "indexed": true,
          "internalType": "uint256",
          "name": "purpose",
          "type": "uint256"
        },
        {
          "indexed": true,
          "internalType": "uint256",
          "name": "keyType",
          "type": "uint256"
        }
      ],
      "name": "KeyAdded",
      "type": "event"
    },
    {
      "anonymous": false,
      "inputs": [
        {
          "indexed": true,
          "internalType": "bytes32",
          "name": "key",
          "type": "bytes32"
        },
        {
          "indexed": true,
          "internalType": "uint256",
          "name": "purpose",
          "type": "uint256"
        },
        {
          "indexed": true,
          "internalType": "uint256",
          "name": "keyType",
          "type": "uint256"
        }
      ],
      "name": "KeyRemoved",
      "type": "event"
    },
    {
      "inputs": [
        {
          "internalType": "uint256",
          "name": "_topic",
          "type": "uint256"
        },
        {
          "internalType": "uint256",
          "name": "_scheme",
          "type": "uint256"
        },
        {
          "internalType": "address",
          "name": "_issuer",
          "type": "address"
        },
        {
          "internalType": "bytes",
          "name": "_signature",
          "type": "bytes"
        },
        {
          "internalType": "bytes",
          "name": "_data",
          "type": "bytes"
        },
        {
          "internalType": "string",
          "name": "_uri",
          "type": "string"
        }
      ],
      "name": "addClaim",
      "outputs": [
        {
          "internalType": "bytes32",
          "name": "claimRequestId",
          "type": "bytes32"
        }
      ],
      "stateMutability": "nonpayable",
      "type": "function"
    },
    {
      "inputs": [
        {
          "internalType": "bytes32",
          "name": "_key",
          "type": "bytes32"
        },
        {
          "internalType": "uint256",
          "name": "_purpose",
          "type": "uint256"
        },
        {
          "internalType": "uint256",
          "name": "_type",
          "type": "uint256"
        }
      ],
      "name": "addKey",
      "outputs": [
        {
          "internalType": "bool",
          "name": "success",
          "type": "bool"
        }
      ],
      "stateMutability": "nonpayable",
      "type": "function"
    },
    {
      "inputs": [
        {
          "internalType": "uint256",
          "name": "_id",
          "type": "uint256"
        },
        {
          "internalType": "bool",
          "name": "_approve",
          "type": "bool"
        }
      ],
      "name": "approve",
      "outputs": [
        {
          "internalType": "bool",
          "name": "success",
          "type": "bool"
        }
      ],
      "stateMutability": "nonpayable",
      "type": "function"
    },
    {
      "inputs": [
        {
          "internalType": "address",
          "name": "_to",
          "type": "address"
        },
        {
          "internalType": "uint256",
          "name": "_value",
          "type": "uint256"
        },
        {
          "internalType": "bytes",
          "name": "_data",
          "type": "bytes"
        }
      ],
      "name": "execute",
      "outputs": [
        {
          "internalType": "uint256",
          "name": "executionId",
          "type": "uint256"
        }
      ],
      "stateMutability": "payable",
      "type": "function"
    },
    {
      "inputs": [
        {
          "internalType": "bytes32",
          "name": "_claimId",
          "type": "bytes32"
        }
      ],
      "name": "getClaim",
      "outputs": [
        {
          "internalType": "uint256",
          "name": "topic",
          "type": "uint256"
        },
        {
          "internalType": "uint256",
          "name": "scheme",
          "type": "uint256"
        },
        {
          "internalType": "address",
          "name": "issuer",
          "type": "address"
        },
        {
          "internalType": "bytes",
          "name": "signature",
          "type": "bytes"
        },
        {
          "internalType": "bytes",
          "name": "data",
          "type": "bytes"
        },
        {
          "internalType": "string",
          "name": "uri",
          "type": "string"
        }
      ],
      "stateMutability": "view",
      "type": "function"
    },
    {
      "inputs": [
        {
          "internalType": "uint256",
          "name": "_topic",
          "type": "uint256"
        }
      ],
      "name": "getClaimIdsByTopic",
      "outputs": [
        {
          "internalType": "bytes32[]",
          "name": "claimIds",
          "type": "bytes32[]"
        }
      ],
      "stateMutability": "view",
      "type": "function"
    },
    {
      "inputs": [
        {
          "internalType": "bytes32",
          "name": "_key",
          "type": "bytes32"
        }
      ],
      "name": "getKey",
      "outputs": [
        {
          "internalType": "uint256[]",
          "name": "purposes",
          "type": "uint256[]"
        },
        {
          "internalType": "uint256",
          "name": "keyType",
          "type": "uint256"
        },
        {
          "internalType": "bytes32",
          "name": "key",
          "type": "bytes32"
        }
      ],
      "stateMutability": "view",
      "type": "function"
    },
    {
      "inputs": [
        {
          "internalType": "bytes32",
          "name": "_key",
          "type": "bytes32"
        }
      ],
      "name": "getKeyPurposes",
      "outputs": [
        {
          "internalType": "uint256[]",
          "name": "_purposes",
          "type": "uint256[]"
        }
      ],
      "stateMutability": "view",
      "type": "function"
    },
    {
      "inputs": [
        {
          "internalType": "uint256",
          "name": "_purpose",
          "type": "uint256"
        }
      ],
      "name": "getKeysByPurpose",
      "outputs": [
        {
          "internalType": "bytes32[]",
          "name": "keys",
          "type": "bytes32[]"
        }
      ],
      "stateMutability": "view",
      "type": "function"
    },
    {
      "inputs": [
        {
          "internalType": "address",
          "name": "initialManagementKey",
          "type": "address"
        }
      ],
      "name": "initialize",
      "outputs": [],
      "stateMutability": "nonpayable",
      "type": "function"
    },
    {
      "inputs": [
        {
          "internalType": "bytes32",
          "name": "_key",
          "type": "bytes32"
        },
        {
          "internalType": "uint256",
          "name": "_purpose",
          "type": "uint256"
        }
      ],
      "name": "keyHasPurpose",
      "outputs": [
        {
          "internalType": "bool",
          "name": "result",
          "type": "bool"
        }
      ],
      "stateMutability": "view",
      "type": "function"
    },
    {
      "inputs": [
        {
          "internalType": "bytes32",
          "name": "_claimId",
          "type": "bytes32"
        }
      ],
      "name": "removeClaim",
      "outputs": [
        {
          "internalType": "bool",
          "name": "success",
          "type": "bool"
        }
      ],
      "stateMutability": "nonpayable",
      "type": "function"
    },
    {
      "inputs": [
        {
          "internalType": "bytes32",
          "name": "_key",
          "type": "bytes32"
        },
        {
          "internalType": "uint256",
          "name": "_purpose",
          "type": "uint256"
        }
      ],
      "name": "removeKey",
      "outputs": [
        {
          "internalType": "bool",
          "name": "success",
          "type": "bool"
        }
      ],
      "stateMutability": "nonpayable",
      "type": "function"
    },
    {
      "inputs": [],
      "name": "version",
      "outputs": [
        {
          "internalType": "string",
          "name": "",
          "type": "string"
        }
      ],
      "stateMutability": "pure",
      "type": "function"
    }
  ],
  "bytecode": "0x60806040526006805461ffff191690553480156200001c57600080fd5b5060405162002722380380620027228339810160408190526200003f916200029f565b6001600160a01b0382166200009b5760405162461bcd60e51b815260206004820152601f60248201527f696e76616c696420617267756d656e74202d207a65726f20616464726573730060448201526064015b60405180910390fd5b80620000b257620000ac82620000c8565b620000c0565b6006805460ff191660011790555b5050620002ed565b60065460ff161580620000da5750303b155b620001285760405162461bcd60e51b815260206004820152601e60248201527f496e697469616c206b65792077617320616c72656164792073657475702e0000604482015260640162000092565b6006805461ffff1916610101179055604080516001600160a01b03831660208201526000910160408051601f19818403018152828252805160209182012060008181526001808452848220600281018490558685019095528086529082905291829052935062000199929062000233565b506000818152600160208181526040808420830183905560029091527fe90b7bceb6e7df5418fb78d8ee546e97c83a08bbccc01a0644d599ccd2a7c2e0805480840182559084527f7fef4bf8f63cf9dd467136c679c02b5c17fcf6322d9562512bf5eb952cf7cc5301849055519091829184917f480000bb1edad8ca1470381cc334b1917fbd51c6531f3a623ea8e0ec7e38a6e991a45050565b82805482825590600052602060002090810192821562000276579160200282015b8281111562000276578251829060ff1690559160200191906001019062000254565b506200028492915062000288565b5090565b5b8082111562000284576000815560010162000289565b60008060408385031215620002b357600080fd5b82516001600160a01b0381168114620002cb57600080fd5b60208401519092508015158114620002e257600080fd5b809150509250929050565b61242580620002fd6000396000f3fe6080604052600436106100dd5760003560e01c80639010f7261161007f578063c4d66de811610059578063c4d66de81461026c578063c9100bcb1461028e578063d202158d146102c0578063fb307b34146102e057600080fd5b80639010f7261461020b578063b1a34e0d1461022b578063b61d27f61461025957600080fd5b806353d413c5116100bb57806353d413c51461016a57806354fd4d501461018a578063747442d3146101be57806380e9e9e1146101de57600080fd5b806312aaac70146100e25780631d3812401461011a5780634eee424a1461014a575b600080fd5b3480156100ee57600080fd5b506101026100fd366004611b59565b61030d565b60405161011193929190611bad565b60405180910390f35b34801561012657600080fd5b5061013a610135366004611bd2565b610386565b6040519015158152602001610111565b34801561015657600080fd5b5061013a610165366004611b59565b6105e9565b34801561017657600080fd5b5061013a610185366004611bfe565b6108aa565b34801561019657600080fd5b5060408051808201825260058152640322e302e360dc1b602082015290516101119190611c66565b3480156101ca57600080fd5b5061013a6101d9366004611c8e565b610c9a565b3480156101ea57600080fd5b506101fe6101f9366004611b59565b611077565b6040516101119190611cbe565b34801561021757600080fd5b506101fe610226366004611b59565b6110d9565b34801561023757600080fd5b5061024b610246366004611dc5565b611139565b604051908152602001610111565b61024b610267366004611e84565b611405565b34801561027857600080fd5b5061028c610287366004611edb565b611537565b005b34801561029a57600080fd5b506102ae6102a9366004611b59565b611599565b60405161011196959493929190611ef6565b3480156102cc57600080fd5b5061013a6102db366004611bfe565b61179a565b3480156102ec57600080fd5b506103006102fb366004611b59565b61189b565b6040516101119190611f56565b60008181526001602081815260408084209283015460028401548454835181860281018601909452808452606096958695909491859183018282801561037257602002820191906000526020600020905b81548152602001906001019080831161035e575b505050505092509250925092509193909250565b60065460009060ff6101009091041615156001146103bf5760405162461bcd60e51b81526004016103b690611f69565b60405180910390fd5b333014806103f55750604080513360208201526103f591015b60405160208183030381529060405280519060200120600161179a565b6104115760405162461bcd60e51b81526004016103b690611fbc565b6000848152600160205260409020600201548490036105445760008481526001602090815260408083208054825181850281018501909352808352919290919083018282801561048057602002820191906000526020600020905b81548152602001906001019080831161046c575b5050505050905060005b815181101561051d5760008282815181106104a7576104a761200c565b6020026020010151905085810361050a5760405162461bcd60e51b815260206004820152602160248201527f436f6e666c6963743a204b657920616c72656164792068617320707572706f736044820152606560f81b60648201526084016103b6565b508061051581612038565b91505061048a565b50506000848152600160208181526040832080549283018155835290912001839055610590565b600084815260016020818152604080842060028101899055815180840190925287825293889052908290526105799291611a61565b506000848152600160208190526040909120018290555b60008381526002602090815260408083208054600181018255908452918320909101869055518391859187917f480000bb1edad8ca1470381cc334b1917fbd51c6531f3a623ea8e0ec7e38a6e991a45060019392505050565b60065460009060ff6101009091041615156001146106195760405162461bcd60e51b81526004016103b690611f69565b3330148061064f57506040805133602082015261064f91015b60405160208183030381529060405280519060200120600361179a565b61066b5760405162461bcd60e51b81526004016103b690612051565b600082815260046020526040812054908190036106de5760405162461bcd60e51b815260206004820152602b60248201527f4e6f6e4578697374696e673a205468657265206973206e6f20636c61696d207760448201526a1a5d1a081d1a1a5cc8125160aa1b60648201526084016103b6565b6000818152600560205260408120545b60008381526005602052604090208054869190849081106107115761071161200c565b906000526020600020015414610736578161072b81612038565b9250508082106106ee575b600083815260056020526040902061074f6001836120a3565b8154811061075f5761075f61200c565b906000526020600020015460056000858152602001908152602001600020838154811061078e5761078e61200c565b9060005260206000200181905550600560008481526020019081526020016000208054806107be576107be6120b6565b6000828152602080822083016000199081018390559092019092558682526004908190526040918290206002810154600182015493516001600160a01b039091169387938a937f3cf57863a89432c61c4a27073c6ee39e8a764bff5a05aebfbcdcdc80b2e6130a9361083f9392600383019290810191600590910190612183565b60405180910390a46000858152600460205260408120818155600181018290556002810180546001600160a01b03191690559061087f6003830182611aac565b61088d600483016000611aac565b61089b600583016000611aac565b5050600193505050505b919050565b60065460009060ff6101009091041615156001146108da5760405162461bcd60e51b81526004016103b690611f69565b333014806108f75750604080513360208201526108f791016103d8565b6109135760405162461bcd60e51b81526004016103b690611fbc565b600083815260016020526040902060020154831461097d5760405162461bcd60e51b815260206004820152602160248201527f4e6f6e4578697374696e673a204b65792069736e2774207265676973746572656044820152601960fa1b60648201526084016103b6565b6000838152600160209081526040808320805482518185028101850190935280835291929091908301828280156109d357602002820191906000526020600020905b8154815260200190600101908083116109bf575b5050505050905060005b838282815181106109f0576109f061200c565b602002602001015114610a725780610a0781612038565b91505081518103610a6d5760405162461bcd60e51b815260206004820152602a60248201527f4e6f6e4578697374696e673a204b657920646f65736e27742068617665207375604482015269636820707572706f736560b01b60648201526084016103b6565b6109dd565b8160018351610a8191906120a3565b81518110610a9157610a9161200c565b6020026020010151828281518110610aab57610aab61200c565b602090810291909101810191909152600086815260018252604090208351610ad592850190611a61565b506000858152600160205260409020805480610af357610af36120b6565b6000828152602080822083016000199081018390559092019092558582526002905260408120545b6000868152600260205260409020805488919084908110610b3e57610b3e61200c565b906000526020600020015414610b635781610b5881612038565b925050808210610b1b575b6000868152600260205260409020610b7c6001836120a3565b81548110610b8c57610b8c61200c565b9060005260206000200154600260008881526020019081526020016000208381548110610bbb57610bbb61200c565b906000526020600020018190555060026000878152602001908152602001600020805480610beb57610beb6120b6565b6001900381819060005260206000200160009055905560006001600089815260200190815260200160002060010154905060018551610c2a91906120a3565b600003610c5b57600088815260016020526040812090610c4a8282611ae6565b506000600182018190556002909101555b8087897f585a4aef50f8267a92b32412b331b20f7f8b96f2245b253b9cc50dcc621d339760405160405180910390a46001955050505050505b92915050565b60065460009060ff610100909104161515600114610cca5760405162461bcd60e51b81526004016103b690611f69565b6000548310610d2b5760405162461bcd60e51b815260206004820152602760248201527f43616e6e6f7420617070726f76652061206e6f6e2d6578697374696e6720657860448201526632b1baba34b7b760c91b60648201526084016103b6565b60008381526003602081905260409091200154610100900460ff1615610d935760405162461bcd60e51b815260206004820152601860248201527f5265717565737420616c7265616479206578656375746564000000000000000060448201526064016103b6565b600083815260036020526040902054306001600160a01b0390911603610e245760408051336020820152610dc791016103d8565b610e1f5760405162461bcd60e51b815260206004820152602360248201527f53656e64657220646f6573206e6f742068617665206d616e6167656d656e74206044820152626b657960e81b60648201526084016103b6565b610e9d565b60408051336020820152610e5191015b60405160208183030381529060405280519060200120600261179a565b610e9d5760405162461bcd60e51b815260206004820152601f60248201527f53656e64657220646f6573206e6f74206861766520616374696f6e206b65790060448201526064016103b6565b827fb3932da477fe5d6c8ff2eafef050c0f3a1af18fc07121001482600f36f3715d883604051610ed1911515815260200190565b60405180910390a281151560010361105957600083815260036020819052604091829020908101805460ff1916600190811790915581549082015492516001600160a01b039091169291610f2a916002909101906121c2565b60006040518083038185875af1925050503d8060008114610f67576040519150601f19603f3d011682016040523d82523d6000602084013e610f6c565b606091505b50909150508015610ff157600083815260036020819052604091829020908101805461ff00191661010017905560018101548154925190926001600160a01b03169186917f1f920dbda597d7bf95035464170fa58d0a4b57f13a1c315ace6793b9f63688b891610fe191600290910190612238565b60405180910390a4506001610c94565b6000838152600360205260409081902060018101548154925190926001600160a01b03169186917fe10c49d9f7c71da23262367013434763cfdb2332267641728d25cd712c5c6a689161104991600290910190612238565b60405180910390a4506000610c94565b50506000908152600360208190526040822001805460ff1916905590565b6000818152600560209081526040918290208054835181840281018401909452808452606093928301828280156110cd57602002820191906000526020600020905b8154815260200190600101908083116110b9575b50505050509050919050565b6000818152600260209081526040918290208054835181840281018401909452808452606093928301828280156110cd57602002820191906000526020600020908154815260200190600101908083116110b95750505050509050919050565b60065460009060ff6101009091041615156001146111695760405162461bcd60e51b81526004016103b690611f69565b333014806111865750604080513360208201526111869101610632565b6111a25760405162461bcd60e51b81526004016103b690612051565b6001600160a01b03851630146112615760405163604b4d3760e11b81526001600160a01b0386169063c0969a6e906111e49030908b908990899060040161224b565b602060405180830381865afa158015611201573d6000803e3d6000fd5b505050506040513d601f19601f820116820180604052508101906112259190612284565b6112615760405162461bcd60e51b815260206004820152600d60248201526c696e76616c696420636c61696d60981b60448201526064016103b6565b604080516001600160a01b038716602082015290810188905260009060600160408051601f198184030181529181528151602092830120600081815260049093529120898155600181018990559091506003016112be86826122f0565b506000818152600460208190526040909120016112db85826122f0565b5060008181526004602052604090206005016112f784826122f0565b506000818152600460205260409020600201546001600160a01b038781169116146113b057600088815260056020908152604080832080546001810182559084528284200184905583835260049091529081902060020180546001600160a01b0319166001600160a01b0389169081179091559051899083907f46149b18aa084502c3f12bc75e19eda8bda8d102b82cce8474677a6d0d5f43c5906113a3908c908b908b908b906123b0565b60405180910390a46113fa565b856001600160a01b031688827f3bab293fc00db832d7619a9299914251b8747c036867ec056cbd506f60135b138a8989896040516113f194939291906123b0565b60405180910390a45b979650505050505050565b60065460009060ff6101009091041615156001146114355760405162461bcd60e51b81526004016103b690611f69565b600080548082526003602052604090912080546001600160a01b0319166001600160a01b0387161781556001810185905560020161147384826122f0565b5060008054908061148383612038565b919050555083856001600160a01b0316827f8afcfabcb00e47a53a8fc3e9f23ff47ee1926194bb1350dd007c50b412a6cee8866040516114c39190611c66565b60405180910390a4604080513360208201526114df91016103d8565b156114f5576114ef816001610c9a565b5061152f565b6001600160a01b038516301480159061151d57506040805133602082015261151d9101610e34565b1561152f5761152d816001610c9a565b505b949350505050565b6001600160a01b03811661158d5760405162461bcd60e51b815260206004820152601f60248201527f696e76616c696420617267756d656e74202d207a65726f20616464726573730060448201526064016103b6565b611596816118fb565b50565b600081815260046020819052604082208054600182015460028301546003840180548796879660609687968796919590946001600160a01b039092169390929081019160059091019083906115ed906120cc565b80601f0160208091040260200160405190810160405280929190818152602001828054611619906120cc565b80156116665780601f1061163b57610100808354040283529160200191611666565b820191906000526020600020905b81548152906001019060200180831161164957829003601f168201915b50505050509250818054611679906120cc565b80601f01602080910402602001604051908101604052809291908181526020018280546116a5906120cc565b80156116f25780601f106116c7576101008083540402835291602001916116f2565b820191906000526020600020905b8154815290600101906020018083116116d557829003601f168201915b50505050509150808054611705906120cc565b80601f0160208091040260200160405190810160405280929190818152602001828054611731906120cc565b801561177e5780601f106117535761010080835404028352916020019161177e565b820191906000526020600020905b81548152906001019060200180831161176157829003601f168201915b5050505050905095509550955095509550955091939550919395565b600082815260016020908152604080832081518154608094810282018501909352606081018381528594919384928491908401828280156117fa57602002820191906000526020600020905b8154815260200190600101908083116117e6575b50505091835250506001820154602082015260029091015460409182015281015190915060000361182f576000915050610c94565b60005b815151811015611890576000826000015182815181106118545761185461200c565b60200260200101519050806001148061186c57508481145b1561187d5760019350505050610c94565b508061188881612038565b915050611832565b506000949350505050565b6000818152600160209081526040918290208054835181840281018401909452808452606093928301828280156110cd57602002820191906000526020600020908154815260200190600101908083116110b95750505050509050919050565b60065460ff16158061190c5750303b155b6119585760405162461bcd60e51b815260206004820152601e60248201527f496e697469616c206b65792077617320616c72656164792073657475702e000060448201526064016103b6565b6006805461ffff1916610101179055604080516001600160a01b03831660208201526000910160408051601f1981840301815282825280516020918201206000818152600180845284822060028101849055868501909552808652908290529182905293506119c79290611b04565b506000818152600160208181526040808420830183905560029091527fe90b7bceb6e7df5418fb78d8ee546e97c83a08bbccc01a0644d599ccd2a7c2e0805480840182559084527f7fef4bf8f63cf9dd467136c679c02b5c17fcf6322d9562512bf5eb952cf7cc5301849055519091829184917f480000bb1edad8ca1470381cc334b1917fbd51c6531f3a623ea8e0ec7e38a6e991a45050565b828054828255906000526020600020908101928215611a9c579160200282015b82811115611a9c578251825591602001919060010190611a81565b50611aa8929150611b44565b5090565b508054611ab8906120cc565b6000825580601f10611ac8575050565b601f0160209004906000526020600020908101906115969190611b44565b50805460008255906000526020600020908101906115969190611b44565b828054828255906000526020600020908101928215611a9c579160200282015b82811115611a9c578251829060ff16905591602001919060010190611b24565b5b80821115611aa85760008155600101611b45565b600060208284031215611b6b57600080fd5b5035919050565b600081518084526020808501945080840160005b83811015611ba257815187529582019590820190600101611b86565b509495945050505050565b606081526000611bc06060830186611b72565b60208301949094525060400152919050565b600080600060608486031215611be757600080fd5b505081359360208301359350604090920135919050565b60008060408385031215611c1157600080fd5b50508035926020909101359150565b6000815180845260005b81811015611c4657602081850181015186830182015201611c2a565b506000602082860101526020601f19601f83011685010191505092915050565b602081526000611c796020830184611c20565b9392505050565b801515811461159657600080fd5b60008060408385031215611ca157600080fd5b823591506020830135611cb381611c80565b809150509250929050565b6020808252825182820181905260009190848201906040850190845b81811015611cf657835183529284019291840191600101611cda565b50909695505050505050565b80356001600160a01b03811681146108a557600080fd5b634e487b7160e01b600052604160045260246000fd5b600067ffffffffffffffff80841115611d4a57611d4a611d19565b604051601f8501601f19908116603f01168101908282118183101715611d7257611d72611d19565b81604052809350858152868686011115611d8b57600080fd5b858560208301376000602087830101525050509392505050565b600082601f830112611db657600080fd5b611c7983833560208501611d2f565b60008060008060008060c08789031215611dde57600080fd5b8635955060208701359450611df560408801611d02565b9350606087013567ffffffffffffffff80821115611e1257600080fd5b611e1e8a838b01611da5565b94506080890135915080821115611e3457600080fd5b611e408a838b01611da5565b935060a0890135915080821115611e5657600080fd5b508701601f81018913611e6857600080fd5b611e7789823560208401611d2f565b9150509295509295509295565b600080600060608486031215611e9957600080fd5b611ea284611d02565b925060208401359150604084013567ffffffffffffffff811115611ec557600080fd5b611ed186828701611da5565b9150509250925092565b600060208284031215611eed57600080fd5b611c7982611d02565b86815285602082015260018060a01b038516604082015260c060608201526000611f2360c0830186611c20565b8281036080840152611f358186611c20565b905082810360a0840152611f498185611c20565b9998505050505050505050565b602081526000611c796020830184611b72565b60208082526033908201527f496e746572616374696e67207769746820746865206c69627261727920636f6e6040820152723a3930b1ba1034b9903337b93134b23232b71760691b606082015260800190565b60208082526030908201527f5065726d697373696f6e733a2053656e64657220646f6573206e6f742068617660408201526f65206d616e6167656d656e74206b657960801b606082015260800190565b634e487b7160e01b600052603260045260246000fd5b634e487b7160e01b600052601160045260246000fd5b60006001820161204a5761204a612022565b5060010190565b60208082526032908201527f5065726d697373696f6e733a2053656e64657220646f6573206e6f74206861766040820152716520636c61696d207369676e6572206b657960701b606082015260800190565b81810381811115610c9457610c94612022565b634e487b7160e01b600052603160045260246000fd5b600181811c908216806120e057607f821691505b60208210810361210057634e487b7160e01b600052602260045260246000fd5b50919050565b60008154612113816120cc565b808552602060018381168015612130576001811461214a57612178565b60ff1985168884015283151560051b880183019550612178565b866000528260002060005b858110156121705781548a8201860152908301908401612155565b890184019650505b505050505092915050565b84815260806020820152600061219c6080830186612106565b82810360408401526121ae8186612106565b905082810360608401526113fa8185612106565b60008083546121d0816120cc565b600182811680156121e857600181146121fd5761222c565b60ff198416875282151583028701945061222c565b8760005260208060002060005b858110156122235781548a82015290840190820161220a565b50505082870194505b50929695505050505050565b602081526000611c796020830184612106565b60018060a01b03851681528360208201526080604082015260006122726080830185611c20565b82810360608401526113fa8185611c20565b60006020828403121561229657600080fd5b8151611c7981611c80565b601f8211156122eb57600081815260208120601f850160051c810160208610156122c85750805b601f850160051c820191505b818110156122e7578281556001016122d4565b5050505b505050565b815167ffffffffffffffff81111561230a5761230a611d19565b61231e8161231884546120cc565b846122a1565b602080601f831160018114612353576000841561233b5750858301515b600019600386901b1c1916600185901b1785556122e7565b600085815260208120601f198616915b8281101561238257888601518255948401946001909101908401612363565b50858210156123a05787850151600019600388901b60f8161c191681555b5050505050600190811b01905550565b8481526080602082015260006123c96080830186611c20565b82810360408401526123db8186611c20565b905082810360608401526113fa8185611c2056fea264697066735822122004d74ae1ba14749a01118965be17cb754316217cda55a6b28f5ec34ac944c35e64736f6c63430008110033",
  "linkReferences": {},
  "deployedLinkReferences": {}
}