{"abi":[{"type":"function","name":"addAgent","inputs":[{"name":"_agent","type":"address","internalType":"address"}],"outputs":[],"stateMutability":"nonpayable"},{"type":"function","name":"addIdentityToStorage","inputs":[{"name":"_userAddress","type":"address","internalType":"address"},{"name":"_identity","type":"address","internalType":"contract IIdentity"},{"name":"_country","type":"uint16","internalType":"uint16"}],"outputs":[],"stateMutability":"nonpayable"},{"type":"function","name":"bindIdentityRegistry","inputs":[{"name":"_identityRegistry","type":"address","internalType":"address"}],"outputs":[],"stateMutability":"nonpayable"},{"type":"function","name":"init","inputs":[],"outputs":[],"stateMutability":"nonpayable"},{"type":"function","name":"isAgent","inputs":[{"name":"_agent","type":"address","internalType":"address"}],"outputs":[{"name":"","type":"bool","internalType":"bool"}],"stateMutability":"view"},{"type":"function","name":"linkedIdentityRegistries","inputs":[],"outputs":[{"name":"","type":"address[]","internalType":"address[]"}],"stateMutability":"view"},{"type":"function","name":"modifyStoredIdentity","inputs":[{"name":"_userAddress","type":"address","internalType":"address"},{"name":"_identity","type":"address","internalType":"contract IIdentity"}],"outputs":[],"stateMutability":"nonpayable"},{"type":"function","name":"modifyStoredInvestorCountry","inputs":[{"name":"_userAddress","type":"address","internalType":"address"},{"name":"_country","type":"uint16","internalType":"uint16"}],"outputs":[],"stateMutability":"nonpayable"},{"type":"function","name":"owner","inputs":[],"outputs":[{"name":"","type":"address","internalType":"address"}],"stateMutability":"view"},{"type":"function","name":"removeAgent","inputs":[{"name":"_agent","type":"address","internalType":"address"}],"outputs":[],"stateMutability":"nonpayable"},{"type":"function","name":"removeIdentityFromStorage","inputs":[{"name":"_userAddress","type":"address","internalType":"address"}],"outputs":[],"stateMutability":"nonpayable"},{"type":"function","name":"renounceOwnership","inputs":[],"outputs":[],"stateMutability":"nonpayable"},{"type":"function","name":"storedIdentity","inputs":[{"name":"_userAddress","type":"address","internalType":"address"}],"outputs":[{"name":"","type":"address","internalType":"contract IIdentity"}],"stateMutability":"view"},{"type":"function","name":"storedInvestorCountry","inputs":[{"name":"_userAddress","type":"address","internalType":"address"}],"outputs":[{"name":"","type":"uint16","internalType":"uint16"}],"stateMutability":"view"},{"type":"function","name":"transferOwnership","inputs":[{"name":"newOwner","type":"address","internalType":"address"}],"outputs":[],"stateMutability":"nonpayable"},{"type":"function","name":"unbindIdentityRegistry","inputs":[{"name":"_identityRegistry","type":"address","internalType":"address"}],"outputs":[],"stateMutability":"nonpayable"},{"type":"event","name":"AgentAdded","inputs":[{"name":"_agent","type":"address","indexed":true,"internalType":"address"}],"anonymous":false},{"type":"event","name":"AgentRemoved","inputs":[{"name":"_agent","type":"address","indexed":true,"internalType":"address"}],"anonymous":false},{"type":"event","name":"CountryModified","inputs":[{"name":"investorAddress","type":"address","indexed":true,"internalType":"address"},{"name":"country","type":"uint16","indexed":true,"internalType":"uint16"}],"anonymous":false},{"type":"event","name":"IdentityModified","inputs":[{"name":"oldIdentity","type":"address","indexed":true,"internalType":"contract IIdentity"},{"name":"newIdentity","type":"address","indexed":true,"internalType":"contract IIdentity"}],"anonymous":false},{"type":"event","name":"IdentityRegistryBound","inputs":[{"name":"identityRegistry","type":"address","indexed":true,"internalType":"address"}],"anonymous":false},{"type":"event","name":"IdentityRegistryUnbound","inputs":[{"name":"identityRegistry","type":"address","indexed":true,"internalType":"address"}],"anonymous":false},{"type":"event","name":"IdentityStored","inputs":[{"name":"investorAddress","type":"address","indexed":true,"internalType":"address"},{"name":"identity","type":"address","indexed":true,"internalType":"contract IIdentity"}],"anonymous":false},{"type":"event","name":"IdentityUnstored","inputs":[{"name":"investorAddress","type":"address","indexed":true,"internalType":"address"},{"name":"identity","type":"address","indexed":true,"internalType":"contract IIdentity"}],"anonymous":false},{"type":"event","name":"Initialized","inputs":[{"name":"version","type":"uint8","indexed":false,"internalType":"uint8"}],"anonymous":false},{"type":"event","name":"OwnershipTransferred","inputs":[{"name":"previousOwner","type":"address","indexed":true,"internalType":"address"},{"name":"newOwner","type":"address","indexed":true,"internalType":"address"}],"anonymous":false}],"bytecode":{"object":"0x6080806040523461001657611053908161001c8239f35b600080fdfe6040608081526004908136101561001557600080fd5b600091823560e01c80631ffbb06414610d08578063690a49f914610b72578063715018a614610b15578063727e13bc14610ad55780637988d3a514610a9a57806384e79842146109c65780638da5cb5b1461099d57806397a012f71461079357806397a6278e146106b75780639f3418d5146105f9578063a53410dd146104da578063bf9eb959146103e7578063cf191bcd14610357578063e1c7392a14610226578063e805cf86146101655763f2fde38b146100d157600080fd5b34610161576020366003190112610161576100ea610d37565b916100f3610f7c565b6001600160a01b0383161561010f578361010c84610fd4565b80f35b906020608492519162461bcd60e51b8352820152602660248201527f4f776e61626c653a206e6577206f776e657220697320746865207a65726f206160448201526564647265737360d01b6064820152fd5b8280fd5b50503461022257806003193601126102225761017f610d37565b90610188610d52565b9161019a61019533610ea9565b610d68565b6001600160a01b0390811680151580610217575b6101b790610dcb565b80855260666020526101cf8284872054161515610e17565b8452606660205290832080546001600160a01b03198116938316938417909155167f556ce885dfcea52155c773f1ed2e58781c51945c13030ab8f793c61f51d1b8088380a380f35b5083821615156101ae565b5080fd5b5034610161578260031936011261016157825460ff8160081c16159182809361034a575b8015610333575b156102d9575060ff1981166001178455816102c8575b5061028160ff845460081c1661027c81610f1c565b610f1c565b61028a33610fd4565b610292575080f35b60207f7f26b83ff96e1f2b6a682f133852f6798a09c465da95921460cefb38474024989161ff001984541684555160018152a180f35b61ffff191661010117835538610267565b608490602085519162461bcd60e51b8352820152602e60248201527f496e697469616c697a61626c653a20636f6e747261637420697320616c72656160448201526d191e481a5b9a5d1a585b1a5e995960921b6064820152fd5b50303b1580156102515750600160ff831614610251565b50600160ff83161061024a565b50503461022257602036600319011261022257610372610d37565b61037e61019533610ea9565b6001600160a01b03908116908390610397831515610dcb565b82825260666020526103af8185842054161515610e17565b82825260666020528382205416928120557fca6a4c3370b859312246e7f086284076e557997e10d856b716c23ab67067790b8380a380f35b5091346104d757806003193601126104d757815180916067549384835260208093018095606784527f9787eeb91fe3101235e4a76063c7023ecb40f923f97916639c598592fa30d6ae90845b868282106104ba5750505050849003601f01601f191684019567ffffffffffffffff8711858810176104a7575085815282865292518583018190528594938501939290915b82811061048757505050500390f35b83516001600160a01b031685528695509381019392810192600101610478565b634e487b7160e01b835260419052602482fd5b83546001600160a01b031685529093019260019283019201610433565b80fd5b5034610161576060366003190112610161576104f4610d37565b6104fc610d52565b926044359161ffff831683036105f55761051861019533610ea9565b6001600160a01b0390811693841515806105ea575b61053690610dcb565b84875260666020528183882054166105ae5750838652606660205281862080546001600160a01b0319169590911694851790558420805461ffff60a01b191660a09290921b61ffff60a01b169190911790557e30dea7e9c9afaa2e3c9810f2fc9b5181f1bad74ca5a8db85f746a33585e7478380a380f35b606490602084519162461bcd60e51b83528201526016602482015275616464726573732073746f72656420616c726561647960501b6044820152fd5b50858216151561052d565b8580fd5b505034610222578060031936011261022257610613610d37565b6024359161ffff8316928381036106b35761068c9161063461019533610ea9565b6001600160a01b03938416936106639061064f861515610dcb565b858852606660205282882054161515610e17565b83865260666020528520805461ffff60a01b191660a09290921b61ffff60a01b16919091179055565b7f20965fcdc6eed7ae398065b40ece4e732ba667992ca819fc54e80e9f2047c4cf8380a380f35b8480fd5b5034610161576020366003190112610161576106d1610d37565b906106da610f7c565b6001600160a01b038216926106f0841515610dcb565b6106f983610ea9565b156107465750506001600160a01b03166000908152606560205260409020805460ff191690557fed9c8ad8d5a0a66898ea49d2956929c93ae2e8bd50281b2ed897c5d1a6737e0b8280a280f35b906020608492519162461bcd60e51b8352820152602160248201527f526f6c65733a206163636f756e7420646f6573206e6f74206861766520726f6c6044820152606560f81b6064820152fd5b5034610161576020366003190112610161576107ad610d37565b6001600160a01b038082169391929190841515906107ca82610dcb565b606790815491821561095a57885b838110610870575b505050506107f5906107f0610f7c565b610dcb565b6107fe83610ea9565b156107465750506001600160a01b03166000908152606560205260409020805460ff19169055807fed9c8ad8d5a0a66898ea49d2956929c93ae2e8bd50281b2ed897c5d1a6737e0b8380a27f51f353eb5801583fdf2706e43c045b62fdf6b1566820b349390616363ecf72c98280a280f35b828961087b83610e5c565b929054600393841b1c16146108af5750600019811461089c576001016107d8565b634e487b7160e01b8a526011875260248afd5b93919291600019919082810190811161094757906108e0846108d361090494610e5c565b905490891b1c1691610e5c565b90919082549060031b9160018060a01b039283811b93849216901b16911916179055565b82548015610934576107f59594910192919061091f84610e5c565b81939154921b1b1916905555903880806107e0565b634e487b7160e01b8b526031885260248bfd5b634e487b7160e01b8c526011895260248cfd5b845162461bcd60e51b8152602081880152601f60248201527f6964656e74697479207265676973747279206973206e6f742073746f726564006044820152606490fd5b50503461022257816003193601126102225760335490516001600160a01b039091168152602090f35b5034610161576020366003190112610161576109e0610d37565b906109e9610f7c565b6001600160a01b038216926109ff841515610dcb565b610a0883610ea9565b610a575750506001600160a01b03166000908152606560205260409020805460ff191660011790557ff68e73cec97f2d70aa641fb26e87a4383686e2efacb648f2165aeb02ac562ec58280a280f35b906020606492519162461bcd60e51b8352820152601f60248201527f526f6c65733a206163636f756e7420616c72656164792068617320726f6c65006044820152fd5b505034610222576020366003190112610222576020916001600160a01b0390829082610ac4610d37565b168152606685522054169051908152f35b5050346102225760203660031901126102225760209161ffff9082906001600160a01b03610b01610d37565b16815260668552205460a01c169051908152f35b83346104d757806003193601126104d757610b2e610f7c565b603380546001600160a01b0319811690915581906001600160a01b03167f8be0079c531659141344cd1fd0a4f28419497f9722a3daafe3b4186f6b6457e08280a380f35b5091903461022257602036600319011261022257610b8e610d37565b6001600160a01b03811691821515610ba581610dcb565b61012c6067541015610cb757610bbd906107f0610f7c565b610bc682610ea9565b610c7557506001600160a01b0381166000908152606560205260409020805460ff19166001179055817ff68e73cec97f2d70aa641fb26e87a4383686e2efacb648f2165aeb02ac562ec58480a260675468010000000000000000811015610c6257906108e0826001610c3b9401606755610e5c565b7f500c250171aa20e861b680f93502547b9d436eda7d4c537fc360db6e0c6eedfb8280a280f35b634e487b7160e01b845260418552602484fd5b5162461bcd60e51b8152602081860152601f60248201527f526f6c65733a206163636f756e7420616c72656164792068617320726f6c65006044820152606490fd5b815162461bcd60e51b8152602081880152602560248201527f63616e6e6f742062696e64206d6f7265207468616e2033303020495220746f20604482015264312049525360d81b6064820152608490fd5b50503461022257602036600319011261022257602090610d2e610d29610d37565b610ea9565b90519015158152f35b600435906001600160a01b0382168203610d4d57565b600080fd5b602435906001600160a01b0382168203610d4d57565b15610d6f57565b60405162461bcd60e51b815260206004820152602e60248201527f4167656e74526f6c653a2063616c6c657220646f6573206e6f7420686176652060448201526d746865204167656e7420726f6c6560901b6064820152608490fd5b15610dd257565b60405162461bcd60e51b815260206004820152601f60248201527f696e76616c696420617267756d656e74202d207a65726f2061646472657373006044820152606490fd5b15610e1e57565b60405162461bcd60e51b81526020600482015260166024820152751859191c995cdcc81b9bdd081cdd1bdc9959081e595d60521b6044820152606490fd5b606754811015610e935760676000527f9787eeb91fe3101235e4a76063c7023ecb40f923f97916639c598592fa30d6ae0190600090565b634e487b7160e01b600052603260045260246000fd5b6001600160a01b03168015610ecc57600052606560205260ff6040600020541690565b60405162461bcd60e51b815260206004820152602260248201527f526f6c65733a206163636f756e7420697320746865207a65726f206164647265604482015261737360f01b6064820152608490fd5b15610f2357565b60405162461bcd60e51b815260206004820152602b60248201527f496e697469616c697a61626c653a20636f6e7472616374206973206e6f74206960448201526a6e697469616c697a696e6760a81b6064820152608490fd5b6033546001600160a01b03163303610f9057565b606460405162461bcd60e51b815260206004820152602060248201527f4f776e61626c653a2063616c6c6572206973206e6f7420746865206f776e65726044820152fd5b603380546001600160a01b039283166001600160a01b0319821681179092559091167f8be0079c531659141344cd1fd0a4f28419497f9722a3daafe3b4186f6b6457e0600080a356fea264697066735822122076de08cbe2f0e0cc6917dbf392e9d66892c8df697917911fe171a7c30c795cc364736f6c63430008110033","linkReferences":{}},"methodIdentifiers":{"addAgent(address)":"84e79842","addIdentityToStorage(address,address,uint16)":"a53410dd","bindIdentityRegistry(address)":"690a49f9","init()":"e1c7392a","isAgent(address)":"1ffbb064","linkedIdentityRegistries()":"bf9eb959","modifyStoredIdentity(address,address)":"e805cf86","modifyStoredInvestorCountry(address,uint16)":"9f3418d5","owner()":"8da5cb5b","removeAgent(address)":"97a6278e","removeIdentityFromStorage(address)":"cf191bcd","renounceOwnership()":"715018a6","storedIdentity(address)":"7988d3a5","storedInvestorCountry(address)":"727e13bc","transferOwnership(address)":"f2fde38b","unbindIdentityRegistry(address)":"97a012f7"},"id":20}