{
  "_format": "hh-sol-artifact-1",
  "contractName": "ClaimIssuersRegistry",
  "sourceName": "contracts/registry/ClaimIssuersRegistry.sol",
  "abi": [
    {
      "anonymous": false,
      "inputs": [
        {
          "indexed": true,
          "internalType": "contract IClaimIssuer",
          "name": "claimIssuer",
          "type": "address"
        },
        {
          "indexed": false,
          "internalType": "uint256[]",
          "name": "claimTopics",
          "type": "uint256[]"
        }
      ],
      "name": "ClaimIssuerAdded",
      "type": "event"
    },
    {
      "anonymous": false,
      "inputs": [
        {
          "indexed": true,
          "internalType": "contract IClaimIssuer",
          "name": "claimIssuer",
          "type": "address"
        }
      ],
      "name": "ClaimIssuerRemoved",
      "type": "event"
    },
    {
      "anonymous": false,
      "inputs": [
        {
          "indexed": true,
          "internalType": "contract IClaimIssuer",
          "name": "claimIssuer",
          "type": "address"
        },
        {
          "indexed": false,
          "internalType": "uint256[]",
          "name": "claimTopics",
          "type": "uint256[]"
        }
      ],
      "name": "ClaimTopicsUpdated",
      "type": "event"
    },
    {
      "anonymous": false,
      "inputs": [
        {
          "indexed": true,
          "internalType": "address",
          "name": "previousOwner",
          "type": "address"
        },
        {
          "indexed": true,
          "internalType": "address",
          "name": "newOwner",
          "type": "address"
        }
      ],
      "name": "OwnershipTransferred",
      "type": "event"
    },
    {
      "inputs": [
        {
          "internalType": "contract IClaimIssuer",
          "name": "_claimIssuer",
          "type": "address"
        },
        {
          "internalType": "uint256[]",
          "name": "_claimTopics",
          "type": "uint256[]"
        }
      ],
      "name": "addClaimIssuer",
      "outputs": [],
      "stateMutability": "nonpayable",
      "type": "function"
    },
    {
      "inputs": [
        {
          "internalType": "contract IClaimIssuer",
          "name": "_claimIssuer",
          "type": "address"
        }
      ],
      "name": "getClaimIssuerClaimTopics",
      "outputs": [
        {
          "internalType": "uint256[]",
          "name": "",
          "type": "uint256[]"
        }
      ],
      "stateMutability": "view",
      "type": "function"
    },
    {
      "inputs": [],
      "name": "getClaimIssuers",
      "outputs": [
        {
          "internalType": "contract IClaimIssuer[]",
          "name": "",
          "type": "address[]"
        }
      ],
      "stateMutability": "view",
      "type": "function"
    },
    {
      "inputs": [
        {
          "internalType": "uint256",
          "name": "claimTopic",
          "type": "uint256"
        }
      ],
      "name": "getClaimIssuersForClaimTopic",
      "outputs": [
        {
          "internalType": "contract IClaimIssuer[]",
          "name": "",
          "type": "address[]"
        }
      ],
      "stateMutability": "view",
      "type": "function"
    },
    {
      "inputs": [
        {
          "internalType": "contract IClaimIssuer",
          "name": "_issuer",
          "type": "address"
        },
        {
          "internalType": "uint256",
          "name": "_claimTopic",
          "type": "uint256"
        }
      ],
      "name": "hasClaimTopic",
      "outputs": [
        {
          "internalType": "bool",
          "name": "",
          "type": "bool"
        }
      ],
      "stateMutability": "view",
      "type": "function"
    },
    {
      "inputs": [
        {
          "internalType": "contract IClaimIssuer",
          "name": "_issuer",
          "type": "address"
        }
      ],
      "name": "isClaimIssuer",
      "outputs": [
        {
          "internalType": "bool",
          "name": "",
          "type": "bool"
        }
      ],
      "stateMutability": "view",
      "type": "function"
    },
    {
      "inputs": [],
      "name": "owner",
      "outputs": [
        {
          "internalType": "address",
          "name": "",
          "type": "address"
        }
      ],
      "stateMutability": "view",
      "type": "function"
    },
    {
      "inputs": [
        {
          "internalType": "contract IClaimIssuer",
          "name": "_claimIssuer",
          "type": "address"
        }
      ],
      "name": "removeClaimIssuer",
      "outputs": [],
      "stateMutability": "nonpayable",
      "type": "function"
    },
    {
      "inputs": [],
      "name": "renounceOwnership",
      "outputs": [],
      "stateMutability": "nonpayable",
      "type": "function"
    },
    {
      "inputs": [
        {
          "internalType": "address",
          "name": "newOwner",
          "type": "address"
        }
      ],
      "name": "transferOwnership",
      "outputs": [],
      "stateMutability": "nonpayable",
      "type": "function"
    },
    {
      "inputs": [
        {
          "internalType": "contract IClaimIssuer",
          "name": "_claimIssuer",
          "type": "address"
        },
        {
          "internalType": "uint256[]",
          "name": "_claimTopics",
          "type": "uint256[]"
        }
      ],
      "name": "updateIssuerClaimTopics",
      "outputs": [],
      "stateMutability": "nonpayable",
      "type": "function"
    }
  ],
  "bytecode": "0x608060405234801561001057600080fd5b5061001a3361001f565b61006f565b600080546001600160a01b038381166001600160a01b0319831681178455604051919092169283917f8be0079c531659141344cd1fd0a4f28419497f9722a3daafe3b4186f6b6457e09190a35050565b6110218061007e6000396000f3fe608060405234801561001057600080fd5b50600436106100a95760003560e01c80636b2c56bd116100715780636b2c56bd146101355780636de4870814610155578063715018a6146101685780638da5cb5b14610170578063d4f4ac4e1461018b578063f2fde38b1461019357600080fd5b806304bc7e84146100ae5780630b4b764c146100c3578063122dade8146100d657806334a89987146100ff57806338d742a414610122575b600080fd5b6100c16100bc366004610def565b6101a6565b005b6100c16100d1366004610e77565b6102e3565b6100e96100e4366004610e77565b6104b4565b6040516100f69190610e9b565b60405180910390f35b61011261010d366004610edf565b61058d565b60405190151581526020016100f6565b6100c1610130366004610def565b610643565b610148610143366004610f0b565b610866565b6040516100f69190610f24565b610112610163366004610e77565b6108d1565b6100c16108f1565b6000546040516001600160a01b0390911681526020016100f6565b610148610905565b6100c16101a1366004610e77565b610967565b6101ae6109e0565b60008190036102045760405162461bcd60e51b815260206004820152601960248201527f4552432d333634333a204e6f20636c61696d20746f706963730000000000000060448201526064015b60405180910390fd5b6001600160a01b0383166000908152600260205260408120549081900361026d5760405162461bcd60e51b815260206004820152601c60248201527f4552432d333634333a204e6f74206120636c61696d206973737565720000000060448201526064016101fb565b61027684610a3a565b6001600160a01b0384166000908152600260205260409020610299908484610d60565b50836001600160a01b03167fec753cfc52044f61676f18a11e500093a9f2b1cd5e4942bc476f2b0438159bcf84846040516102d5929190610f65565b60405180910390a250505050565b6102eb6109e0565b6001600160a01b038116600090815260026020526040812054908190036103545760405162461bcd60e51b815260206004820152601c60248201527f4552432d333634333a204e6f74206120636c61696d206973737565720000000060448201526064016101fb565b60015460005b8181101561044f57836001600160a01b03166001828154811061037f5761037f610f9e565b6000918252602090912001546001600160a01b0316036104475760016103a58184610fb4565b815481106103b5576103b5610f9e565b600091825260209091200154600180546001600160a01b0390921691839081106103e1576103e1610f9e565b9060005260206000200160006101000a8154816001600160a01b0302191690836001600160a01b03160217905550600180548061042057610420610fd5565b600082815260209020810160001990810180546001600160a01b031916905501905561044f565b60010161035a565b5061045a8383610b48565b6001600160a01b038316600090815260026020526040812061047b91610dab565b6040516001600160a01b038416907f8432c8693d2550c2eb52d3f0a803b38eb8c3c0e62234fa1b6b8b35cc3866785490600090a2505050565b60606104d7826001600160a01b0316600090815260026020526040902054151590565b6105235760405162461bcd60e51b815260206004820152601e60248201527f4552432d333634333a2049737375657220646f65736e2774206578697374000060448201526064016101fb565b6001600160a01b0382166000908152600260209081526040918290208054835181840281018401909452808452909183018282801561058157602002820191906000526020600020905b81548152602001906001019080831161056d575b50505050509050919050565b6001600160a01b03821660009081526002602090815260408083208054825181850281018501909352808352928492919084908301828280156105ef57602002820191906000526020600020905b8154815260200190600101908083116105db575b5050505050905060005b82811015610635578482828151811061061457610614610f9e565b60200260200101510361062d576001935050505061063d565b6001016105f9565b506000925050505b92915050565b61064b6109e0565b6001600160a01b0383166106a15760405162461bcd60e51b815260206004820152601e60248201527f4552432d333634333a20496e76616c6964207a65726f2061646472657373000060448201526064016101fb565b6001600160a01b038316600090815260026020526040902054156107075760405162461bcd60e51b815260206004820152601f60248201527f4552432d333634333a2049737375657220616c7265616479206578697374730060448201526064016101fb565b8060008190036107595760405162461bcd60e51b815260206004820152601c60248201527f4552432d333634333a20456d70747920636c61696d20746f706963730000000060448201526064016101fb565b600180548082019091557fb10e2d527612073b26eecdfd717e6a320cf44b4afac2b0732d9fcbe2b7fa0cf60180546001600160a01b0319166001600160a01b03861690811790915560009081526002602052604090206107ba908484610d60565b5060005b8181101561082a57600360008585848181106107dc576107dc610f9e565b602090810292909201358352508181019290925260400160009081208054600180820183559183529290912090910180546001600160a01b0319166001600160a01b038816179055016107be565b50836001600160a01b03167f375851630239b005eafd9230e43a9a9d4a5d7b96a4956fc8e9d2ab3ff4583d1684846040516102d5929190610f65565b60008181526003602090815260409182902080548351818402810184019094528084526060939283018282801561058157602002820191906000526020600020905b81546001600160a01b031681526001909101906020018083116108a85750505050509050919050565b6001600160a01b038116600090815260026020526040812054151561063d565b6108f96109e0565b6109036000610ba2565b565b6060600180548060200260200160405190810160405280929190818152602001828054801561095d57602002820191906000526020600020905b81546001600160a01b0316815260019091019060200180831161093f575b5050505050905090565b61096f6109e0565b6001600160a01b0381166109d45760405162461bcd60e51b815260206004820152602660248201527f4f776e61626c653a206e6577206f776e657220697320746865207a65726f206160448201526564647265737360d01b60648201526084016101fb565b6109dd81610ba2565b50565b6000546001600160a01b031633146109035760405162461bcd60e51b815260206004820181905260248201527f4f776e61626c653a2063616c6c6572206973206e6f7420746865206f776e657260448201526064016101fb565b6001600160a01b038116600090815260026020908152604080832080548251818502810185019093528083529192909190830182828015610a9a57602002820191906000526020600020905b815481526020019060010190808311610a86575b505083519394506000925050505b81811015610b42576000838281518110610ac457610ac4610f9e565b60200260200101519050610ad88582610bf2565b60036000858481518110610aee57610aee610f9e565b60209081029190910181015182528181019290925260400160009081208054600180820183559183529290912090910180546001600160a01b0319166001600160a01b038816179055919091019050610aa8565b50505050565b60005b81811015610b9d576001600160a01b0383166000908152600260205260408120805483908110610b7d57610b7d610f9e565b90600052602060002001549050610b948482610bf2565b50600101610b4b565b505050565b600080546001600160a01b038381166001600160a01b0319831681178455604051919092169283917f8be0079c531659141344cd1fd0a4f28419497f9722a3daafe3b4186f6b6457e09190a35050565b600081815260036020908152604080832080548251818502810185019093528083529192909190830182828015610c5257602002820191906000526020600020905b81546001600160a01b03168152600190910190602001808311610c34575b505083519394506000925050505b81811015610d5957846001600160a01b0316838281518110610c8457610c84610f9e565b60200260200101516001600160a01b031603610d515782610ca6600184610fb4565b81518110610cb657610cb6610f9e565b6020026020010151600360008681526020019081526020016000208281548110610ce257610ce2610f9e565b600091825260208083209190910180546001600160a01b0319166001600160a01b039490941693909317909255858152600390915260409020805480610d2a57610d2a610fd5565b600082815260209020810160001990810180546001600160a01b0319169055019055610d59565b600101610c60565b5050505050565b828054828255906000526020600020908101928215610d9b579160200282015b82811115610d9b578235825591602001919060010190610d80565b50610da7929150610dc5565b5090565b50805460008255906000526020600020908101906109dd91905b5b80821115610da75760008155600101610dc6565b6001600160a01b03811681146109dd57600080fd5b600080600060408486031215610e0457600080fd5b8335610e0f81610dda565b9250602084013567ffffffffffffffff80821115610e2c57600080fd5b818601915086601f830112610e4057600080fd5b813581811115610e4f57600080fd5b8760208260051b8501011115610e6457600080fd5b6020830194508093505050509250925092565b600060208284031215610e8957600080fd5b8135610e9481610dda565b9392505050565b6020808252825182820181905260009190848201906040850190845b81811015610ed357835183529284019291840191600101610eb7565b50909695505050505050565b60008060408385031215610ef257600080fd5b8235610efd81610dda565b946020939093013593505050565b600060208284031215610f1d57600080fd5b5035919050565b6020808252825182820181905260009190848201906040850190845b81811015610ed35783516001600160a01b031683529284019291840191600101610f40565b6020808252810182905260006001600160fb1b03831115610f8557600080fd5b8260051b80856040850137919091016040019392505050565b634e487b7160e01b600052603260045260246000fd5b8181038181111561063d57634e487b7160e01b600052601160045260246000fd5b634e487b7160e01b600052603160045260246000fdfea26469706673582212205db479e5bcd31f76debeb20392285a3e401bdee91ac415a6e37ca85fd3ebf07764736f6c63430008110033",
  "linkReferences": {},
  "deployedLinkReferences": {}
}