{
    "abi": [
        {
            "type": "constructor",
            "inputs": [
                {
                    "name": "initialManagementKey",
                    "type": "address",
                    "internalType": "address"
                },
                {
                    "name": "_isLibrary",
                    "type": "bool",
                    "internalType": "bool"
                }
            ],
            "stateMutability": "nonpayable"
        },
        {
            "type": "function",
            "name": "addClaim",
            "inputs": [
                {
                    "name": "_topic",
                    "type": "uint256",
                    "internalType": "uint256"
                },
                {
                    "name": "_scheme",
                    "type": "uint256",
                    "internalType": "uint256"
                },
                {
                    "name": "_issuer",
                    "type": "address",
                    "internalType": "address"
                },
                {
                    "name": "_signature",
                    "type": "bytes",
                    "internalType": "bytes"
                },
                {
                    "name": "_data",
                    "type": "bytes",
                    "internalType": "bytes"
                },
                {
                    "name": "_uri",
                    "type": "string",
                    "internalType": "string"
                }
            ],
            "outputs": [
                {
                    "name": "claimRequestId",
                    "type": "bytes32",
                    "internalType": "bytes32"
                }
            ],
            "stateMutability": "nonpayable"
        },
        {
            "type": "function",
            "name": "addKey",
            "inputs": [
                {
                    "name": "_key",
                    "type": "bytes32",
                    "internalType": "bytes32"
                },
                {
                    "name": "_purpose",
                    "type": "uint256",
                    "internalType": "uint256"
                },
                {
                    "name": "_type",
                    "type": "uint256",
                    "internalType": "uint256"
                }
            ],
            "outputs": [
                {
                    "name": "success",
                    "type": "bool",
                    "internalType": "bool"
                }
            ],
            "stateMutability": "nonpayable"
        },
        {
            "type": "function",
            "name": "approve",
            "inputs": [
                {
                    "name": "_id",
                    "type": "uint256",
                    "internalType": "uint256"
                },
                {
                    "name": "_approve",
                    "type": "bool",
                    "internalType": "bool"
                }
            ],
            "outputs": [
                {
                    "name": "success",
                    "type": "bool",
                    "internalType": "bool"
                }
            ],
            "stateMutability": "nonpayable"
        },
        {
            "type": "function",
            "name": "execute",
            "inputs": [
                {
                    "name": "_to",
                    "type": "address",
                    "internalType": "address"
                },
                {
                    "name": "_value",
                    "type": "uint256",
                    "internalType": "uint256"
                },
                {
                    "name": "_data",
                    "type": "bytes",
                    "internalType": "bytes"
                }
            ],
            "outputs": [
                {
                    "name": "executionId",
                    "type": "uint256",
                    "internalType": "uint256"
                }
            ],
            "stateMutability": "payable"
        },
        {
            "type": "function",
            "name": "getClaim",
            "inputs": [
                {
                    "name": "_claimId",
                    "type": "bytes32",
                    "internalType": "bytes32"
                }
            ],
            "outputs": [
                {
                    "name": "topic",
                    "type": "uint256",
                    "internalType": "uint256"
                },
                {
                    "name": "scheme",
                    "type": "uint256",
                    "internalType": "uint256"
                },
                {
                    "name": "issuer",
                    "type": "address",
                    "internalType": "address"
                },
                {
                    "name": "signature",
                    "type": "bytes",
                    "internalType": "bytes"
                },
                {
                    "name": "data",
                    "type": "bytes",
                    "internalType": "bytes"
                },
                {
                    "name": "uri",
                    "type": "string",
                    "internalType": "string"
                }
            ],
            "stateMutability": "view"
        },
        {
            "type": "function",
            "name": "getClaimIdsByTopic",
            "inputs": [
                {
                    "name": "_topic",
                    "type": "uint256",
                    "internalType": "uint256"
                }
            ],
            "outputs": [
                {
                    "name": "claimIds",
                    "type": "bytes32[]",
                    "internalType": "bytes32[]"
                }
            ],
            "stateMutability": "view"
        },
        {
            "type": "function",
            "name": "getKey",
            "inputs": [
                {
                    "name": "_key",
                    "type": "bytes32",
                    "internalType": "bytes32"
                }
            ],
            "outputs": [
                {
                    "name": "purposes",
                    "type": "uint256[]",
                    "internalType": "uint256[]"
                },
                {
                    "name": "keyType",
                    "type": "uint256",
                    "internalType": "uint256"
                },
                {
                    "name": "key",
                    "type": "bytes32",
                    "internalType": "bytes32"
                }
            ],
            "stateMutability": "view"
        },
        {
            "type": "function",
            "name": "getKeyPurposes",
            "inputs": [
                {
                    "name": "_key",
                    "type": "bytes32",
                    "internalType": "bytes32"
                }
            ],
            "outputs": [
                {
                    "name": "_purposes",
                    "type": "uint256[]",
                    "internalType": "uint256[]"
                }
            ],
            "stateMutability": "view"
        },
        {
            "type": "function",
            "name": "getKeysByPurpose",
            "inputs": [
                {
                    "name": "_purpose",
                    "type": "uint256",
                    "internalType": "uint256"
                }
            ],
            "outputs": [
                {
                    "name": "keys",
                    "type": "bytes32[]",
                    "internalType": "bytes32[]"
                }
            ],
            "stateMutability": "view"
        },
        {
            "type": "function",
            "name": "getRecoveredAddress",
            "inputs": [
                {
                    "name": "sig",
                    "type": "bytes",
                    "internalType": "bytes"
                },
                {
                    "name": "dataHash",
                    "type": "bytes32",
                    "internalType": "bytes32"
                }
            ],
            "outputs": [
                {
                    "name": "addr",
                    "type": "address",
                    "internalType": "address"
                }
            ],
            "stateMutability": "pure"
        },
        {
            "type": "function",
            "name": "initialize",
            "inputs": [
                {
                    "name": "initialManagementKey",
                    "type": "address",
                    "internalType": "address"
                }
            ],
            "outputs": [],
            "stateMutability": "nonpayable"
        },
        {
            "type": "function",
            "name": "isClaimValid",
            "inputs": [
                {
                    "name": "_identity",
                    "type": "address",
                    "internalType": "contract IIdentity"
                },
                {
                    "name": "claimTopic",
                    "type": "uint256",
                    "internalType": "uint256"
                },
                {
                    "name": "sig",
                    "type": "bytes",
                    "internalType": "bytes"
                },
                {
                    "name": "data",
                    "type": "bytes",
                    "internalType": "bytes"
                }
            ],
            "outputs": [
                {
                    "name": "claimValid",
                    "type": "bool",
                    "internalType": "bool"
                }
            ],
            "stateMutability": "view"
        },
        {
            "type": "function",
            "name": "keyHasPurpose",
            "inputs": [
                {
                    "name": "_key",
                    "type": "bytes32",
                    "internalType": "bytes32"
                },
                {
                    "name": "_purpose",
                    "type": "uint256",
                    "internalType": "uint256"
                }
            ],
            "outputs": [
                {
                    "name": "result",
                    "type": "bool",
                    "internalType": "bool"
                }
            ],
            "stateMutability": "view"
        },
        {
            "type": "function",
            "name": "removeClaim",
            "inputs": [
                {
                    "name": "_claimId",
                    "type": "bytes32",
                    "internalType": "bytes32"
                }
            ],
            "outputs": [
                {
                    "name": "success",
                    "type": "bool",
                    "internalType": "bool"
                }
            ],
            "stateMutability": "nonpayable"
        },
        {
            "type": "function",
            "name": "removeKey",
            "inputs": [
                {
                    "name": "_key",
                    "type": "bytes32",
                    "internalType": "bytes32"
                },
                {
                    "name": "_purpose",
                    "type": "uint256",
                    "internalType": "uint256"
                }
            ],
            "outputs": [
                {
                    "name": "success",
                    "type": "bool",
                    "internalType": "bool"
                }
            ],
            "stateMutability": "nonpayable"
        },
        {
            "type": "function",
            "name": "version",
            "inputs": [],
            "outputs": [
                {
                    "name": "",
                    "type": "string",
                    "internalType": "string"
                }
            ],
            "stateMutability": "pure"
        },
        {
            "type": "event",
            "name": "Approved",
            "inputs": [
                {
                    "name": "executionId",
                    "type": "uint256",
                    "indexed": true,
                    "internalType": "uint256"
                },
                {
                    "name": "approved",
                    "type": "bool",
                    "indexed": false,
                    "internalType": "bool"
                }
            ],
            "anonymous": false
        },
        {
            "type": "event",
            "name": "ClaimAdded",
            "inputs": [
                {
                    "name": "claimId",
                    "type": "bytes32",
                    "indexed": true,
                    "internalType": "bytes32"
                },
                {
                    "name": "topic",
                    "type": "uint256",
                    "indexed": true,
                    "internalType": "uint256"
                },
                {
                    "name": "scheme",
                    "type": "uint256",
                    "indexed": false,
                    "internalType": "uint256"
                },
                {
                    "name": "issuer",
                    "type": "address",
                    "indexed": true,
                    "internalType": "address"
                },
                {
                    "name": "signature",
                    "type": "bytes",
                    "indexed": false,
                    "internalType": "bytes"
                },
                {
                    "name": "data",
                    "type": "bytes",
                    "indexed": false,
                    "internalType": "bytes"
                },
                {
                    "name": "uri",
                    "type": "string",
                    "indexed": false,
                    "internalType": "string"
                }
            ],
            "anonymous": false
        },
        {
            "type": "event",
            "name": "ClaimChanged",
            "inputs": [
                {
                    "name": "claimId",
                    "type": "bytes32",
                    "indexed": true,
                    "internalType": "bytes32"
                },
                {
                    "name": "topic",
                    "type": "uint256",
                    "indexed": true,
                    "internalType": "uint256"
                },
                {
                    "name": "scheme",
                    "type": "uint256",
                    "indexed": false,
                    "internalType": "uint256"
                },
                {
                    "name": "issuer",
                    "type": "address",
                    "indexed": true,
                    "internalType": "address"
                },
                {
                    "name": "signature",
                    "type": "bytes",
                    "indexed": false,
                    "internalType": "bytes"
                },
                {
                    "name": "data",
                    "type": "bytes",
                    "indexed": false,
                    "internalType": "bytes"
                },
                {
                    "name": "uri",
                    "type": "string",
                    "indexed": false,
                    "internalType": "string"
                }
            ],
            "anonymous": false
        },
        {
            "type": "event",
            "name": "ClaimRemoved",
            "inputs": [
                {
                    "name": "claimId",
                    "type": "bytes32",
                    "indexed": true,
                    "internalType": "bytes32"
                },
                {
                    "name": "topic",
                    "type": "uint256",
                    "indexed": true,
                    "internalType": "uint256"
                },
                {
                    "name": "scheme",
                    "type": "uint256",
                    "indexed": false,
                    "internalType": "uint256"
                },
                {
                    "name": "issuer",
                    "type": "address",
                    "indexed": true,
                    "internalType": "address"
                },
                {
                    "name": "signature",
                    "type": "bytes",
                    "indexed": false,
                    "internalType": "bytes"
                },
                {
                    "name": "data",
                    "type": "bytes",
                    "indexed": false,
                    "internalType": "bytes"
                },
                {
                    "name": "uri",
                    "type": "string",
                    "indexed": false,
                    "internalType": "string"
                }
            ],
            "anonymous": false
        },
        {
            "type": "event",
            "name": "Executed",
            "inputs": [
                {
                    "name": "executionId",
                    "type": "uint256",
                    "indexed": true,
                    "internalType": "uint256"
                },
                {
                    "name": "to",
                    "type": "address",
                    "indexed": true,
                    "internalType": "address"
                },
                {
                    "name": "value",
                    "type": "uint256",
                    "indexed": true,
                    "internalType": "uint256"
                },
                {
                    "name": "data",
                    "type": "bytes",
                    "indexed": false,
                    "internalType": "bytes"
                }
            ],
            "anonymous": false
        },
        {
            "type": "event",
            "name": "ExecutionFailed",
            "inputs": [
                {
                    "name": "executionId",
                    "type": "uint256",
                    "indexed": true,
                    "internalType": "uint256"
                },
                {
                    "name": "to",
                    "type": "address",
                    "indexed": true,
                    "internalType": "address"
                },
                {
                    "name": "value",
                    "type": "uint256",
                    "indexed": true,
                    "internalType": "uint256"
                },
                {
                    "name": "data",
                    "type": "bytes",
                    "indexed": false,
                    "internalType": "bytes"
                }
            ],
            "anonymous": false
        },
        {
            "type": "event",
            "name": "ExecutionRequested",
            "inputs": [
                {
                    "name": "executionId",
                    "type": "uint256",
                    "indexed": true,
                    "internalType": "uint256"
                },
                {
                    "name": "to",
                    "type": "address",
                    "indexed": true,
                    "internalType": "address"
                },
                {
                    "name": "value",
                    "type": "uint256",
                    "indexed": true,
                    "internalType": "uint256"
                },
                {
                    "name": "data",
                    "type": "bytes",
                    "indexed": false,
                    "internalType": "bytes"
                }
            ],
            "anonymous": false
        },
        {
            "type": "event",
            "name": "KeyAdded",
            "inputs": [
                {
                    "name": "key",
                    "type": "bytes32",
                    "indexed": true,
                    "internalType": "bytes32"
                },
                {
                    "name": "purpose",
                    "type": "uint256",
                    "indexed": true,
                    "internalType": "uint256"
                },
                {
                    "name": "keyType",
                    "type": "uint256",
                    "indexed": true,
                    "internalType": "uint256"
                }
            ],
            "anonymous": false
        },
        {
            "type": "event",
            "name": "KeyRemoved",
            "inputs": [
                {
                    "name": "key",
                    "type": "bytes32",
                    "indexed": true,
                    "internalType": "bytes32"
                },
                {
                    "name": "purpose",
                    "type": "uint256",
                    "indexed": true,
                    "internalType": "uint256"
                },
                {
                    "name": "keyType",
                    "type": "uint256",
                    "indexed": true,
                    "internalType": "uint256"
                }
            ],
            "anonymous": false
        }
    ],
    "bytecode": {
        "object": "0x608034620002d4576001600160401b039062002b3190601f38839003908101601f191682019084821183831017620002195780839160409586948552833981010312620002d45780516001600160a01b03811690819003620002d45760208092015191821592831503620002d45761ffff19928360065416908160065583156200029057156200027d57506006549260ff9384811615801562000273575b156200022f57166101011760065583518181019283528181529283850192868411858510176200021957838652845190209260009684885260606001968786528660028a8c20015501908282109082111762000205578652848152838752848352858720908154868355808710620001db575b5090875282872085885b818110620001c657505050505081855282808587200155828552600281528385209081549168010000000000000000831015620001b2578483018082558310156200019e577f480000bb1edad8ca1470381cc334b1917fbd51c6531f3a623ea8e0ec7e38a6e99287928592879899528320015580a45b516128579081620002da8239f35b634e487b7160e01b87526032600452602487fd5b634e487b7160e01b87526041600452602487fd5b8585855116940193818401550186906200011a565b8289528680868b2092830192015b828110620001f957505062000110565b8a8155018790620001e9565b634e487b7160e01b88526041600452602488fd5b634e487b7160e01b600052604160045260246000fd5b855162461bcd60e51b815260048101849052601e60248201527f496e697469616c206b65792077617320616c72656164792073657475702e00006044820152606490fd5b50303b156200009d565b9250505060019192501760065562000190565b855162461bcd60e51b815260048101849052601f60248201527f696e76616c696420617267756d656e74202d207a65726f2061646472657373006044820152606490fd5b600080fdfe60806040526004361015610013575b600080fd5b60003560e01c806312aaac70146101535780631d3812401461014a5780634eee424a1461014157806353d413c51461013857806354fd4d501461012f578063747442d31461012657806380e9e9e11461011d5780639010f72614610114578063b1a34e0d1461010b578063b61d27f614610102578063c0969a6e146100f9578063c3b129e3146100f0578063c4d66de8146100e7578063c9100bcb146100de578063d202158d146100d55763fb307b34146100cd57600080fd5b61000e61124d565b5061000e61122b565b5061000e6111a0565b5061000e610fa5565b5061000e610f53565b5061000e610eeb565b5061000e610d31565b5061000e610c8d565b5061000e610af3565b5061000e610a7c565b5061000e6109f6565b5061000e6109a5565b5061000e6106af565b5061000e610406565b5061000e6101f4565b5061000e610190565b90815180825260208080930193019160005b82811061017c575050505090565b83518552938101939281019260010161016e565b503461000e57602036600319011261000e5760043560005260016020526101e560406000206001604060002001546101d0600260406000200154926114cf565b9160405193849360608552606085019061015c565b91602084015260408301520390f35b503461000e57606036600319011261000e5760048035906024356044359160019061022a8260ff60065460081c1615151461128e565b30331480156103d8575b61023d9061151e565b83856002610255826000526001602052604060002090565b01540361037a5750610279610274866000526001602052604060002090565b6114cf565b6000835b6102f1575b505050506102a38161029e856000526001602052604060002090565b611644565b6102bb8361029e836000526002602052604060002090565b604051927f480000bb1edad8ca1470381cc334b1917fbd51c6531f3a623ea8e0ec7e38a6e9600080a460018152602090f35b0390f35b8151811015610375578461030582846115fc565b511461031a57610314906114a2565b8361027d565b6103718360405191829162461bcd60e51b8352820160809060208152602160208201527f436f6e666c6963743a204b657920616c72656164792068617320707572706f736040820152606560f81b60608201520190565b0390fd5b610282565b919050846002610394826000526001602052604060002090565b01556103bd6103a1610bed565b8481526103b8876000526001602052604060002090565b6115ad565b6103d1856000526001602052604060002090565b01556102a3565b5061023d6103ff6040516020810190338252602081526103f781610baf565b519020612348565b9050610234565b503461000e57602036600319011261000e5760043560016104328160ff60065460081c1615151461128e565b3033148015610681575b6104459061212a565b610459826000526004602052604060002090565b5490811561062857600081610478846000526005602052604060002090565b54905b6105e3575b916104e484926104de6104c46104ba6105d799976104b46104ae6105d29b6000526005602052604060002090565b91611d8c565b9061161e565b90549060031b1c90565b916104d9866000526005602052604060002090565b61161e565b90611330565b6105006104fb836000526005602052604060002090565b611e39565b610514836000526004602052604060002090565b015490827f3cf57863a89432c61c4a27073c6ee39e8a764bff5a05aebfbcdcdc80b2e6130a6105606002610552846000526004602052604060002090565b01546001600160a01b031690565b6003610576846000526004602052604060002090565b01906105bf6004610591866000526004602052604060002090565b0160056105a8876000526004602052604060002090565b019060405194859460018060a01b03169985612255565b0390a46000526004602052604060002090565b6122dd565b60405160018152602090f35b90846106006104ba836104d9886000526005602052604060002090565b146106225761060e906114a2565b908082101561061d578261047b565b610480565b90610480565b60405162461bcd60e51b815260206004820152602b60248201527f4e6f6e4578697374696e673a205468657265206973206e6f20636c61696d207760448201526a1a5d1a081d1a1a5cc8125160aa1b6064820152608490fd5b506104456106a86040516020810190338252602081526106a081610baf565b5190206123e4565b905061043c565b503461000e5760408060031936011261000e5760048035916024359060016106e28160ff60065460081c1615151461128e565b3033148015610940575b6106f59061151e565b61071785600261070f826000526001602052604060002090565b015414611d36565b8061072f610274876000526001602052604060002090565b946000915b6108b1575b5061075861075061074a8751611d8c565b876115fc565b5191866115fc565b5261077684610771876000526001602052604060002090565b611da3565b61078d6104fb866000526001602052604060002090565b8060006107a4856000526002602052604060002090565b54925b610874575b6107e9906104de6107d46104ba61081d966104b46104ae8b6000526002602052604060002090565b916104d9886000526002602052604060002090565b6108006104fb856000526002602052604060002090565b610814866000526001602052604060002090565b01549351611d8c565b15610853575b51927f585a4aef50f8267a92b32412b331b20f7f8b96f2245b253b9cc50dcc621d3397600080a460018152602090f35b61086f61086a856000526001602052604060002090565b611e79565b610823565b866108906104ba836104d9896000526002602052604060002090565b146108ac5761089e906114a2565b828110156108ac57816107a7565b6107ac565b90846108bd82886115fc565b511461093a576108cc906114a2565b90818651146108db5782610734565b61037190845191829162461bcd60e51b8352820160809060208152602a60208201527f4e6f6e4578697374696e673a204b657920646f65736e27742068617665207375604082015269636820707572706f736560b01b60608201520190565b90610739565b506106f561095e83516020810190338252602081526103f781610baf565b90506106ec565b919082519283825260005b848110610991575050826000602080949584010152601f8019910116010190565b602081830181015184830182015201610970565b503461000e57600036600319011261000e576102ed6040516109c681610baf565b6005815264322e322e3160d81b6020820152604051918291602083526020830190610965565b8015150361000e57565b503461000e57604036600319011261000e576020610a37602435610a19816109ec565b610a2f600160ff60065460081c1615151461128e565b600435611c19565b6040519015158152f35b6020908160408183019282815285518094520193019160005b828110610a68575050505090565b835185529381019392810192600101610a5a565b503461000e5760208060031936011261000e5760043560005260058152604060002090604051908181845491828152019360005281600020916000905b828210610adc576102ed85610ad081890382610bcb565b60405191829182610a41565b835486529485019460019384019390910190610ab9565b503461000e5760208060031936011261000e5760043560005260028152604060002090604051908181845491828152019360005281600020916000905b828210610b47576102ed85610ad081890382610bcb565b835486529485019460019384019390910190610b30565b6001600160a01b0381160361000e57565b50634e487b7160e01b600052604160045260246000fd5b6060810190811067ffffffffffffffff821117610ba257604052565b610baa610b6f565b604052565b6040810190811067ffffffffffffffff821117610ba257604052565b90601f8019910116810190811067ffffffffffffffff821117610ba257604052565b604051906020820182811067ffffffffffffffff821117610ba257604052565b60209067ffffffffffffffff8111610c2b575b601f01601f19160190565b610c33610b6f565b610c20565b929192610c4482610c0d565b91610c526040519384610bcb565b82948184528183011161000e578281602093846000960137010152565b9080601f8301121561000e57816020610c8a93359101610c38565b90565b503461000e5760c036600319011261000e57604435610cab81610b5e565b67ffffffffffffffff60643581811161000e57610ccc903690600401610c6f565b9160843582811161000e57610ce5903690600401610c6f565b60a43592831161000e573660238401121561000e576102ed93610d15610d21943690602481600401359101610c38565b92602435600435611ead565b6040519081529081906020820190565b50606036600319011261000e57600435610d4a81610b5e565b6024359060443567ffffffffffffffff811161000e576102ed927f8afcfabcb00e47a53a8fc3e9f23ff47ee1926194bb1350dd007c50b412a6cee892610d97610e4d933690600401610c6f565b90610dae600160ff60065460081c1615151461128e565b6000549481610deb8793610dcc856000526003602052604060002090565b80546001600160a01b0319166001600160a01b03909216919091179055565b846001610e02856000526003602052604060002090565b0155610e24846002610e1e866000526003602052604060002090565b016113ae565b610e2f6000546114a2565b6000556040516001600160a01b0391909116958694829190826114be565b0390a4604080513360208083019182528252601f199392610e7392906103f79082610bcb565b15610e94575050610e838161168c565b506040519081529081906020820190565b3014159081610eb3575b5015610d2157610ead8161168c565b50610d21565b604080513360208201908152610ee59450929091610edd9190839081015b03908101835282610bcb565b519020612475565b38610e9e565b503461000e57608036600319011261000e57600435610f0981610b5e565b67ffffffffffffffff60443581811161000e57610f2a903690600401610c6f565b9160643591821161000e57602092610f49610a37933690600401610c6f565b9160243590612642565b503461000e57604036600319011261000e5760043567ffffffffffffffff811161000e57610f93610f8a6020923690600401610c6f565b60243590612716565b6040516001600160a01b039091168152f35b503461000e57602036600319011261000e57600435610fc381610b5e565b6001600160a01b0381161561110a57600654600191829160ff16158015611101575b610fee9061279a565b611000600160ff196006541617600655565b61101461010061ff00196006541617600655565b604080516001600160a01b0390921660208301908152919061104390829081015b03601f198101835282610bcb565b51902080600261105d826000526001602052604060002090565b015561108761106a610bed565b60018152611082836000526001602052604060002090565b6127e6565b6110a68261109f836000526001602052604060002090565b0160019055565b600160005260026020526110da817fe90b7bceb6e7df5418fb78d8ee546e97c83a08bbccc01a0644d599ccd2a7c2e0611644565b7f480000bb1edad8ca1470381cc334b1917fbd51c6531f3a623ea8e0ec7e38a6e9600080a4005b50303b15610fe5565b60405162461bcd60e51b815260206004820152601f60248201527f696e76616c696420617267756d656e74202d207a65726f2061646472657373006044820152606490fd5b94919361119293610c8a9795611184938852602088015260018060a01b0316604087015260c0606087015260c0860190610965565b908482036080860152610965565b9160a0818403910152610965565b503461000e57602036600319011261000e5760048035600090815260208290526040908190208054600182015460028301548451919592946102ed9490936005820193926001600160a01b0316916112209161121a919081019061121590869061120e9082906003016118aa565b0386610bcb565b61232d565b9361232d565b93519687968761114f565b503461000e57604036600319011261000e576020610a376024356004356125ad565b503461000e57602036600319011261000e5760043560005260016020526102ed61127a60406000206114cf565b60405191829160208352602083019061015c565b1561129557565b60405162461bcd60e51b815260206004820152603360248201527f496e746572616374696e67207769746820746865206c69627261727920636f6e6044820152723a3930b1ba1034b9903337b93134b23232b71760691b6064820152608490fd5b90600182811c92168015611326575b602083101461131057565b634e487b7160e01b600052602260045260246000fd5b91607f1691611305565b9161134c9183549060031b600019811b9283911b169119161790565b9055565b81811061135b575050565b60008155600101611350565b9190601f811161137657505050565b6113a2926000526020600020906020601f840160051c830193106113a4575b601f0160051c0190611350565b565b9091508190611395565b919091825167ffffffffffffffff811161147e575b6113d7816113d184546112f6565b84611367565b602080601f8311600114611413575081929394600092611408575b50508160011b916000199060031b1c1916179055565b0151905038806113f2565b90601f1983169561142985600052602060002090565b926000905b8882106114665750508360019596971061144d575b505050811b019055565b015160001960f88460031b161c19169055388080611443565b8060018596829496860151815501950193019061142e565b611486610b6f565b6113c3565b50634e487b7160e01b600052601160045260246000fd5b60019060001981146114b2570190565b6114ba61148b565b0190565b906020610c8a928181520190610965565b9060405191828154918282526020928383019160005283600020936000905b828210611504575050506113a292500383610bcb565b8554845260019586019588955093810193909101906114ee565b1561152557565b60405162461bcd60e51b815260206004820152603060248201527f5065726d697373696f6e733a2053656e64657220646f6573206e6f742068617660448201526f65206d616e6167656d656e74206b657960801b6064820152608490fd5b80546001825580600110611595575050565b6113a291600052600160206000209182019101611350565b906115b782611583565b906000526020908160002060005b600181106115d35750505050565b825182820155918301916001016115c5565b50634e487b7160e01b600052603260045260246000fd5b6020918151811015611611575b60051b010190565b6116196115e5565b611609565b8054821015611637575b60005260206000200190600090565b61163f6115e5565b611628565b61166661134c91805490600160401b82101561167f575b60018201815561161e565b819391549060031b600019811b9283911b169119161790565b611687610b6f565b61165b565b610c8a906116a6600160ff60065460081c1615151461128e565b611950565b156116b257565b60405162461bcd60e51b815260206004820152602760248201527f43616e6e6f7420617070726f76652061206e6f6e2d6578697374696e6720657860448201526632b1baba34b7b760c91b6064820152608490fd5b1561170e57565b60405162461bcd60e51b815260206004820152601860248201527f5265717565737420616c726561647920657865637574656400000000000000006044820152606490fd5b1561175a57565b60405162461bcd60e51b815260206004820152601f60248201527f53656e64657220646f6573206e6f74206861766520616374696f6e206b6579006044820152606490fd5b156117a657565b60405162461bcd60e51b815260206004820152602360248201527f53656e64657220646f6573206e6f742068617665206d616e6167656d656e74206044820152626b657960e81b6064820152608490fd5b600092918154611806816112f6565b9260019180831690811561185f5750600114611823575b50505050565b90919293945060005260209081600020906000915b85831061184e575050505001903880808061181d565b805485840152918301918101611838565b60ff191684525050508115159091020191503880808061181d565b3d156118a5573d9061188b82610c0d565b916118996040519384610bcb565b82523d6000602084013e565b606090565b90600092918054916118bb836112f6565b91828252600193848116908160001461191c57506001146118dc5750505050565b90919394506000526020928360002092846000945b83861061190857505050500101903880808061181d565b8054858701830152940193859082016118f1565b9294505050602093945060ff191683830152151560051b0101903880808061181d565b906020610c8a9281815201906118aa565b61195d60005482106116ab565b61199061198b611987600361197c856000526003602052604060002090565b015460081c60ff1690565b1590565b611707565b6119b46119a7826000526003602052604060002090565b546001600160a01b031690565b6001600160a01b03919082163003611be5576040805133602082019081526119ed926119e892906103f79082908101611035565b61179f565b807fb3932da477fe5d6c8ff2eafef050c0f3a1af18fc07121001482600f36f3715d860405180611a2281906001602083019252565b0390a2611a4c6003611a3e836000526003602052604060002090565b01805460ff19166001179055565b600080611a666119a7846000526003602052604060002090565b611aa46001611a7f866000526003602052604060002090565b01546002611a97876000526003602052604060002090565b01604051928380926117f7565b03925af1611ab061187a565b5015611b6257611adf6003611acf836000526003602052604060002090565b01805461ff001916610100179055565b611af66119a7826000526003602052604060002090565b907f1f920dbda597d7bf95035464170fa58d0a4b57f13a1c315ace6793b9f63688b86001611b2e836000526003602052604060002090565b0154936002611b47846000526003602052604060002090565b0193611b5a60405192839216958261193f565b0390a4600190565b611b796119a7826000526003602052604060002090565b907fe10c49d9f7c71da23262367013434763cfdb2332267641728d25cd712c5c6a686001611bb1836000526003602052604060002090565b0154936002611bca846000526003602052604060002090565b0193611bdd60405192839216958261193f565b0390a4600090565b604080513360208201908152611c1492611c0f9290611c079082908101611035565b519020612518565b611753565b6119ed565b611c2660005482106116ab565b611c4561198b611987600361197c856000526003602052604060002090565b6001611c5e6119a7836000526003602052604060002090565b92818060a01b03938430911614600014611d0f57604080513360208201908152611c94926119e892906103f79082908101611035565b604051811515815283907fb3932da477fe5d6c8ff2eafef050c0f3a1af18fc07121001482600f36f3715d890602090a2151503611ce457611a4c6003611a3e836000526003602052604060002090565b611d0a9150611cff6003916000526003602052604060002090565b01805460ff19169055565b600090565b604080513360208201908152611d3192611c0f9290611c079082908101611035565b611c94565b15611d3d57565b60405162461bcd60e51b815260206004820152602160248201527f4e6f6e4578697374696e673a204b65792069736e2774207265676973746572656044820152601960fa1b6064820152608490fd5b600019810191908211611d9b57565b6113a261148b565b81519167ffffffffffffffff8311611e2c575b600160401b8311611e1f575b8154838355808410611e01575b50602080910191600052806000209060005b848110611def575050505050565b83518382015592810192600101611de1565b611e1990836000528460206000209182019101611350565b38611dcf565b611e27610b6f565b611dc2565b611e34610b6f565b611db6565b8054908115611e635760001991820191611e53838361161e565b909182549160031b1b1916905555565b634e487b7160e01b600052603160045260246000fd5b6002600091805483825580611e94575b508260018201550155565b81845260208420611ea791810190611350565b38611e89565b9294909394611ec8600160ff60065460081c1615151461128e565b3033148015612104575b611edb9061212a565b6001600160a01b03831694308603612084575b604080516001600160a01b03861660208201908152918101879052611f168160608101611035565b51902096879486611f31876000526004602052604060002090565b55826001611f49886000526004602052604060002090565b0155611f65846003610e1e896000526004602052604060002090565b611f7f826004610e1e896000526004602052604060002090565b611f99856005610e1e896000526004602052604060002090565b87611fc2611fb660026105528a6000526004602052604060002090565b6001600160a01b031690565b14612051579361204b9161203f7f46149b18aa084502c3f12bc75e19eda8bda8d102b82cce8474677a6d0d5f43c5966120098961029e8c6000526005602052604060002090565b600261201f8a6000526004602052604060002090565b0180546001600160a01b0319166001600160a01b03909216919091179055565b60405194859485612227565b0390a490565b507f3bab293fc00db832d7619a9299914251b8747c036867ec056cbd506f60135b139361204b9160405194859485612227565b60405163604b4d3760e11b81526120c490602081806120a98c888c30600486016121a6565b03818b5afa9081156120f7575b6000916120c9575b506121eb565b611eee565b6120ea915060203d81116120f0575b6120e28183610bcb565b810190612191565b386120be565b503d6120d8565b6120ff6121de565b6120b6565b50611edb6121236040516020810190338252602081526106a081610baf565b9050611ed2565b1561213157565b60405162461bcd60e51b815260206004820152603260248201527f5065726d697373696f6e733a2053656e64657220646f6573206e6f74206861766044820152716520636c61696d207369676e6572206b657960701b6064820152608490fd5b9081602091031261000e5751610c8a816109ec565b92610c8a94926121d09260018060a01b031685526020850152608060408501526080840190610965565b916060818403910152610965565b506040513d6000823e3d90fd5b156121f257565b60405162461bcd60e51b815260206004820152600d60248201526c696e76616c696420636c61696d60981b6044820152606490fd5b92612247610c8a95936121d0938652608060208701526080860190610965565b908482036040860152610965565b92612275610c8a95936122839386526080602087015260808601906118aa565b9084820360408601526118aa565b9160608184039101526118aa565b61229b81546112f6565b90816122a5575050565b81601f600093116001146122b7575055565b818352602083206122d391601f0160051c810190600101611350565b8160208120915555565b60056000918281558260018201558260028201556122fd60038201612291565b61230960048201612291565b0161231481546112f6565b8061231e57505050565b601f81116001146122b7575055565b906113a261234192604051938480926118aa565b0383610bcb565b600052600180602052604060002060026040519161236583610b86565b61236e816114cf565b83528381015460208401520154806040830152156123dd57600090825b612398575b505050600090565b80519182518110156123d757836123b08282956115fc565b511480156123d2575b6123cc576123c6906114a2565b9161238b565b50505090565b6123b9565b50612390565b5050600090565b600052600180602052604060002060026040519161240183610b86565b61240a816114cf565b83528381015460208401520154806040830152156123dd57600090825b61243357505050600090565b80519182518110156123d75761244a8185946115fc565b5183811490811561246a575b506123cc57612464906114a2565b91612427565b600391501438612456565b60005260018060205260406000206040519061249082610b86565b612499816114cf565b82528281015460208301526002809101548060408401521561239057600091835b6124c8575b50505050600090565b8051928351811015612512576124df8186956115fc565b5183858214918215612508575b5050612501576124fb906114a2565b926124ba565b5050505090565b14905083386124ec565b506124bf565b60005260018060205260406000206040519061253382610b86565b61253c816114cf565b82528281015460208301526002809101548060408401521561239057600091835b61256a5750505050600090565b8051928351811015612512576125818186956115fc565b51838582149182156125a3575b50506125015761259d906114a2565b9261255d565b149050833861258e565b600052600190816020526040600020906002604051926125cc84610b86565b6125d5816114cf565b845284810154602085015201548060408401521561239057600091835b6125ff5750505050600090565b8051928351811015612512576126168186956115fc565b5183858214918215612638575b505061250157612632906114a2565b926125f2565b1490508338612623565b9161270893926126e492612679604051958692602084019460018060a01b0316855260408401526060808401526080830190610965565b039361268d601f1995868101835282610bcb565b5190206040516126db816126cf602082019485603c917f19457468657265756d205369676e6564204d6573736167653a0a3332000000008252601c8201520190565b03868101835282610bcb565b51902090612716565b604080516001600160a01b0390921660208301908152926106a09183908101610ed1565b61271157600090565b600190565b906000916041815103612795576000918160209460ff8660809501519160606040850151940151901a601b811061277d575b60405194855216868401526040830152606082015282805260015afa15612770575b60005190565b6127786121de565b61276a565b601b01818111156127485761279061148b565b612748565b505090565b156127a157565b60405162461bcd60e51b815260206004820152601e60248201527f496e697469616c206b65792077617320616c72656164792073657475702e00006044820152606490fd5b906127f082611583565b906000526020908160002060005b6001811061280c5750505050565b825160ff1682820155918301916001016127fe56fea26469706673582212200d38c86a92f50e770737640edc9b470d317d245688e2204f54e145b08735165464736f6c63430008110033",
        "linkReferences": {}
    },
    "methodIdentifiers": {
        "addClaim(uint256,uint256,address,bytes,bytes,string)": "b1a34e0d",
        "addKey(bytes32,uint256,uint256)": "1d381240",
        "approve(uint256,bool)": "747442d3",
        "execute(address,uint256,bytes)": "b61d27f6",
        "getClaim(bytes32)": "c9100bcb",
        "getClaimIdsByTopic(uint256)": "80e9e9e1",
        "getKey(bytes32)": "12aaac70",
        "getKeyPurposes(bytes32)": "fb307b34",
        "getKeysByPurpose(uint256)": "9010f726",
        "getRecoveredAddress(bytes,bytes32)": "c3b129e3",
        "initialize(address)": "c4d66de8",
        "isClaimValid(address,uint256,bytes,bytes)": "c0969a6e",
        "keyHasPurpose(bytes32,uint256)": "d202158d",
        "removeClaim(bytes32)": "4eee424a",
        "removeKey(bytes32,uint256)": "53d413c5",
        "version()": "54fd4d50"
    },
    "id": 17
}