{
  "_format": "hh-sol-artifact-1",
  "contractName": "ClaimTopicsRegistry",
  "sourceName": "contracts/registry/ClaimTopicsRegistry.sol",
  "abi": [
    {
      "anonymous": false,
      "inputs": [
        {
          "indexed": true,
          "internalType": "uint256",
          "name": "claimTopic",
          "type": "uint256"
        }
      ],
      "name": "ClaimTopicAdded",
      "type": "event"
    },
    {
      "anonymous": false,
      "inputs": [
        {
          "indexed": true,
          "internalType": "uint256",
          "name": "claimTopic",
          "type": "uint256"
        }
      ],
      "name": "ClaimTopicRemoved",
      "type": "event"
    },
    {
      "anonymous": false,
      "inputs": [
        {
          "indexed": true,
          "internalType": "address",
          "name": "previousOwner",
          "type": "address"
        },
        {
          "indexed": true,
          "internalType": "address",
          "name": "newOwner",
          "type": "address"
        }
      ],
      "name": "OwnershipTransferred",
      "type": "event"
    },
    {
      "inputs": [
        {
          "internalType": "uint256",
          "name": "_claimTopic",
          "type": "uint256"
        }
      ],
      "name": "addClaimTopic",
      "outputs": [],
      "stateMutability": "nonpayable",
      "type": "function"
    },
    {
      "inputs": [],
      "name": "getClaimTopics",
      "outputs": [
        {
          "internalType": "uint256[]",
          "name": "",
          "type": "uint256[]"
        }
      ],
      "stateMutability": "view",
      "type": "function"
    },
    {
      "inputs": [],
      "name": "owner",
      "outputs": [
        {
          "internalType": "address",
          "name": "",
          "type": "address"
        }
      ],
      "stateMutability": "view",
      "type": "function"
    },
    {
      "inputs": [
        {
          "internalType": "uint256",
          "name": "_claimTopic",
          "type": "uint256"
        }
      ],
      "name": "removeClaimTopic",
      "outputs": [],
      "stateMutability": "nonpayable",
      "type": "function"
    },
    {
      "inputs": [],
      "name": "renounceOwnership",
      "outputs": [],
      "stateMutability": "nonpayable",
      "type": "function"
    },
    {
      "inputs": [
        {
          "internalType": "address",
          "name": "newOwner",
          "type": "address"
        }
      ],
      "name": "transferOwnership",
      "outputs": [],
      "stateMutability": "nonpayable",
      "type": "function"
    }
  ],
  "bytecode": "0x608060405234801561001057600080fd5b5061001a3361001f565b61006f565b600080546001600160a01b038381166001600160a01b0319831681178455604051919092169283917f8be0079c531659141344cd1fd0a4f28419497f9722a3daafe3b4186f6b6457e09190a35050565b6105f28061007e6000396000f3fe608060405234801561001057600080fd5b50600436106100625760003560e01c80630829784614610067578063715018a61461007c5780638da5cb5b14610084578063c7b22551146100a4578063df09d604146100b7578063f2fde38b146100cc575b600080fd5b61007a6100753660046104bb565b6100df565b005b61007a6101cf565b6000546040516001600160a01b0390911681526020015b60405180910390f35b61007a6100b23660046104bb565b6101e3565b6100bf61029c565b60405161009b91906104d4565b61007a6100da366004610518565b6102f4565b6100e761036d565b60015460005b818110156101ca57826001828154811061010957610109610548565b9060005260206000200154036101b85760016101258184610574565b8154811061013557610135610548565b90600052602060002001546001828154811061015357610153610548565b60009182526020909120015560018054806101705761017061058d565b60019003818190600052602060002001600090559055827f0b1381093c776453c1bbe54fd68be1b235c65db61d099cb50d194b2991e0eec560405160405180910390a2505050565b806101c2816105a3565b9150506100ed565b505050565b6101d761036d565b6101e160006103c7565b565b6101eb61036d565b6101f481610417565b61023e5760405162461bcd60e51b81526020600482015260166024820152754552432d333634333a20546f7069632065786973747360501b60448201526064015b60405180910390fd5b60018054808201825560009182527fb10e2d527612073b26eecdfd717e6a320cf44b4afac2b0732d9fcbe2b7fa0cf60182905560405182917f01c928b7f7ade2949e92366aa9454dbef3a416b731cf6ec786ba9595bbd814d691a250565b606060018054806020026020016040519081016040528092919081815260200182805480156102ea57602002820191906000526020600020905b8154815260200190600101908083116102d6575b5050505050905090565b6102fc61036d565b6001600160a01b0381166103615760405162461bcd60e51b815260206004820152602660248201527f4f776e61626c653a206e6577206f776e657220697320746865207a65726f206160448201526564647265737360d01b6064820152608401610235565b61036a816103c7565b50565b6000546001600160a01b031633146101e15760405162461bcd60e51b815260206004820181905260248201527f4f776e61626c653a2063616c6c6572206973206e6f7420746865206f776e65726044820152606401610235565b600080546001600160a01b038381166001600160a01b0319831681178455604051919092169283917f8be0079c531659141344cd1fd0a4f28419497f9722a3daafe3b4186f6b6457e09190a35050565b600080600180548060200260200160405190810160405280929190818152602001828054801561046657602002820191906000526020600020905b815481526020019060010190808311610452575b50506001549394506000925050505b818110156104b0578483828151811061049057610490610548565b6020026020010151036104a857506000949350505050565b600101610475565b506001949350505050565b6000602082840312156104cd57600080fd5b5035919050565b6020808252825182820181905260009190848201906040850190845b8181101561050c578351835292840192918401916001016104f0565b50909695505050505050565b60006020828403121561052a57600080fd5b81356001600160a01b038116811461054157600080fd5b9392505050565b634e487b7160e01b600052603260045260246000fd5b634e487b7160e01b600052601160045260246000fd5b818103818111156105875761058761055e565b92915050565b634e487b7160e01b600052603160045260246000fd5b6000600182016105b5576105b561055e565b506001019056fea2646970667358221220a76e2e0ed0d70573d2ab81b3a29e7776494b7a8ff2969191c015fd3cb60f998e64736f6c63430008110033",
  "linkReferences": {},
  "deployedLinkReferences": {}
}