{
  "_format": "hh-sol-artifact-1",
  "contractName": "IdFactory",
  "sourceName": "contracts/@onchain-id/solidity/contracts/factory/IdFactory.sol",
  "abi": [
    {
      "inputs": [
        {
          "internalType": "address",
          "name": "implementationAuthority",
          "type": "address"
        }
      ],
      "stateMutability": "nonpayable",
      "type": "constructor"
    },
    {
      "anonymous": false,
      "inputs": [
        {
          "indexed": true,
          "internalType": "address",
          "name": "_addr",
          "type": "address"
        }
      ],
      "name": "Deployed",
      "type": "event"
    },
    {
      "anonymous": false,
      "inputs": [
        {
          "indexed": true,
          "internalType": "address",
          "name": "previousOwner",
          "type": "address"
        },
        {
          "indexed": true,
          "internalType": "address",
          "name": "newOwner",
          "type": "address"
        }
      ],
      "name": "OwnershipTransferred",
      "type": "event"
    },
    {
      "anonymous": false,
      "inputs": [
        {
          "indexed": true,
          "internalType": "address",
          "name": "factory",
          "type": "address"
        }
      ],
      "name": "TokenFactoryAdded",
      "type": "event"
    },
    {
      "anonymous": false,
      "inputs": [
        {
          "indexed": true,
          "internalType": "address",
          "name": "factory",
          "type": "address"
        }
      ],
      "name": "TokenFactoryRemoved",
      "type": "event"
    },
    {
      "anonymous": false,
      "inputs": [
        {
          "indexed": true,
          "internalType": "address",
          "name": "token",
          "type": "address"
        },
        {
          "indexed": true,
          "internalType": "address",
          "name": "identity",
          "type": "address"
        }
      ],
      "name": "TokenLinked",
      "type": "event"
    },
    {
      "anonymous": false,
      "inputs": [
        {
          "indexed": true,
          "internalType": "address",
          "name": "wallet",
          "type": "address"
        },
        {
          "indexed": true,
          "internalType": "address",
          "name": "identity",
          "type": "address"
        }
      ],
      "name": "WalletLinked",
      "type": "event"
    },
    {
      "anonymous": false,
      "inputs": [
        {
          "indexed": true,
          "internalType": "address",
          "name": "wallet",
          "type": "address"
        },
        {
          "indexed": true,
          "internalType": "address",
          "name": "identity",
          "type": "address"
        }
      ],
      "name": "WalletUnlinked",
      "type": "event"
    },
    {
      "inputs": [
        {
          "internalType": "address",
          "name": "_factory",
          "type": "address"
        }
      ],
      "name": "addTokenFactory",
      "outputs": [],
      "stateMutability": "nonpayable",
      "type": "function"
    },
    {
      "inputs": [
        {
          "internalType": "address",
          "name": "_wallet",
          "type": "address"
        },
        {
          "internalType": "string",
          "name": "_salt",
          "type": "string"
        }
      ],
      "name": "createIdentity",
      "outputs": [
        {
          "internalType": "address",
          "name": "",
          "type": "address"
        }
      ],
      "stateMutability": "nonpayable",
      "type": "function"
    },
    {
      "inputs": [
        {
          "internalType": "address",
          "name": "_token",
          "type": "address"
        },
        {
          "internalType": "address",
          "name": "_tokenOwner",
          "type": "address"
        },
        {
          "internalType": "string",
          "name": "_salt",
          "type": "string"
        }
      ],
      "name": "createTokenIdentity",
      "outputs": [
        {
          "internalType": "address",
          "name": "",
          "type": "address"
        }
      ],
      "stateMutability": "nonpayable",
      "type": "function"
    },
    {
      "inputs": [
        {
          "internalType": "address",
          "name": "_wallet",
          "type": "address"
        }
      ],
      "name": "getIdentity",
      "outputs": [
        {
          "internalType": "address",
          "name": "",
          "type": "address"
        }
      ],
      "stateMutability": "view",
      "type": "function"
    },
    {
      "inputs": [
        {
          "internalType": "address",
          "name": "_identity",
          "type": "address"
        }
      ],
      "name": "getToken",
      "outputs": [
        {
          "internalType": "address",
          "name": "",
          "type": "address"
        }
      ],
      "stateMutability": "view",
      "type": "function"
    },
    {
      "inputs": [
        {
          "internalType": "address",
          "name": "_identity",
          "type": "address"
        }
      ],
      "name": "getWallets",
      "outputs": [
        {
          "internalType": "address[]",
          "name": "",
          "type": "address[]"
        }
      ],
      "stateMutability": "view",
      "type": "function"
    },
    {
      "inputs": [
        {
          "internalType": "string",
          "name": "_salt",
          "type": "string"
        }
      ],
      "name": "isSaltTaken",
      "outputs": [
        {
          "internalType": "bool",
          "name": "",
          "type": "bool"
        }
      ],
      "stateMutability": "view",
      "type": "function"
    },
    {
      "inputs": [
        {
          "internalType": "address",
          "name": "_factory",
          "type": "address"
        }
      ],
      "name": "isTokenFactory",
      "outputs": [
        {
          "internalType": "bool",
          "name": "",
          "type": "bool"
        }
      ],
      "stateMutability": "view",
      "type": "function"
    },
    {
      "inputs": [
        {
          "internalType": "address",
          "name": "_newWallet",
          "type": "address"
        }
      ],
      "name": "linkWallet",
      "outputs": [],
      "stateMutability": "nonpayable",
      "type": "function"
    },
    {
      "inputs": [],
      "name": "owner",
      "outputs": [
        {
          "internalType": "address",
          "name": "",
          "type": "address"
        }
      ],
      "stateMutability": "view",
      "type": "function"
    },
    {
      "inputs": [
        {
          "internalType": "address",
          "name": "_factory",
          "type": "address"
        }
      ],
      "name": "removeTokenFactory",
      "outputs": [],
      "stateMutability": "nonpayable",
      "type": "function"
    },
    {
      "inputs": [],
      "name": "renounceOwnership",
      "outputs": [],
      "stateMutability": "nonpayable",
      "type": "function"
    },
    {
      "inputs": [
        {
          "internalType": "address",
          "name": "newOwner",
          "type": "address"
        }
      ],
      "name": "transferOwnership",
      "outputs": [],
      "stateMutability": "nonpayable",
      "type": "function"
    },
    {
      "inputs": [
        {
          "internalType": "address",
          "name": "_oldWallet",
          "type": "address"
        }
      ],
      "name": "unlinkWallet",
      "outputs": [],
      "stateMutability": "nonpayable",
      "type": "function"
    }
  ],
  "bytecode": "0x60a060405234801561001057600080fd5b5060405162001d7738038062001d77833981016040819052610031916100f5565b61003a336100a5565b6001600160a01b0381166100945760405162461bcd60e51b815260206004820152601f60248201527f696e76616c696420617267756d656e74202d207a65726f206164647265737300604482015260640160405180910390fd5b6001600160a01b0316608052610125565b600080546001600160a01b038381166001600160a01b0319831681178455604051919092169283917f8be0079c531659141344cd1fd0a4f28419497f9722a3daafe3b4186f6b6457e09190a35050565b60006020828403121561010757600080fd5b81516001600160a01b038116811461011e57600080fd5b9392505050565b608051611c2f62000148600039600081816105be0152610be10152611c2f6000f3fe60806040523480156200001157600080fd5b5060043610620000fd5760003560e01c8063715018a61162000097578063937529ef116200006e578063937529ef14620002455780639ce19365146200025c578063b8bb81261462000273578063f2fde38b146200028a57600080fd5b8063715018a614620002125780638da5cb5b146200021c5780638e952bfe146200022e57600080fd5b80633e3bc3d711620000d85780633e3bc3d71462000175578063422c29a414620001a45780635027dbe214620001ca5780635977043814620001e357600080fd5b80632fea7b8114620001025780633a50045114620001365780633d56ff66146200015e575b600080fd5b62000119620001133660046200135d565b620002a1565b6040516001600160a01b0390911681526020015b60405180910390f35b6200014d6200014736600462001382565b62000307565b60405190151581526020016200012d565b620001196200016f366004620014a4565b62000339565b6200014d620001863660046200135d565b6001600160a01b031660009081526001602052604090205460ff1690565b620001bb620001b53660046200135d565b6200068c565b6040516200012d91906200150a565b620001e1620001db3660046200135d565b62000704565b005b62000119620001f43660046200135d565b6001600160a01b039081166000908152600660205260409020541690565b620001e1620009dc565b6000546001600160a01b031662000119565b620001196200023f36600462001559565b620009f4565b620001e1620002563660046200135d565b62000cbf565b620001e16200026d3660046200135d565b62000d95565b620001e1620002843660046200135d565b62000e76565b620001e16200029b3660046200135d565b620010f4565b6001600160a01b0381811660009081526005602052604081205490911615620002e357506001600160a01b039081166000908152600560205260409020541690565b506001600160a01b039081166000908152600360205260409020541690565b919050565b6000600283836040516200031d929190620015ad565b9081526040519081900360200190205460ff1690505b92915050565b3360009081526001602052604081205460ff16806200036257506000546001600160a01b031633145b620003b45760405162461bcd60e51b815260206004820152601e60248201527f6f6e6c7920466163746f7279206f72206f776e65722063616e2063616c6c000060448201526064015b60405180910390fd5b6001600160a01b038416620003dd5760405162461bcd60e51b8152600401620003ab90620015bd565b6001600160a01b038316620004065760405162461bcd60e51b8152600401620003ab90620015bd565b6040516020016200042290602080825260009082015260400190565b60405160208183030381529060405280519060200120826040516020016200044b91906200161a565b6040516020818303038152906040528051906020012003620004b05760405162461bcd60e51b815260206004820152601f60248201527f696e76616c696420617267756d656e74202d20656d70747920737472696e67006044820152606401620003ab565b600082604051602001620004c591906200164f565b6040516020818303038152906040529050600281604051620004e891906200167e565b9081526040519081900360200190205460ff16156200053f5760405162461bcd60e51b815260206004820152601260248201527139b0b63a1030b63932b0b23c903a30b5b2b760711b6044820152606401620003ab565b6001600160a01b038581166000908152600560205260409020541615620005b55760405162461bcd60e51b815260206004820152602360248201527f746f6b656e20616c7265616479206c696e6b656420746f20616e206964656e7460448201526269747960e81b6064820152608401620003ab565b6000620005e4827f00000000000000000000000000000000000000000000000000000000000000008762001173565b90506001600283604051620005fa91906200167e565b9081526040805160209281900383018120805460ff1916941515949094179093556001600160a01b0389811660008181526005855283812080546001600160a01b0319908116948916948517909155838252600690955292832080549094168117909355927fa8261d398ddc63db24cc53cd0c63c9464cabad1bc478ede2107b32c1c4010b7a9190a395945050505050565b6001600160a01b038116600090815260046020908152604091829020805483518184028101840190945280845260609392830182828015620006f857602002820191906000526020600020905b81546001600160a01b03168152600190910190602001808311620006d9575b50505050509050919050565b6001600160a01b0381166200072d5760405162461bcd60e51b8152600401620003ab90620015bd565b336001600160a01b03821603620007925760405162461bcd60e51b815260206004820152602260248201527f63616e6e6f742062652063616c6c6564206f6e2073656e646572206164647265604482015261737360f01b6064820152608401620003ab565b6001600160a01b03808216600090815260036020526040808220543383529120548216911614620008065760405162461bcd60e51b815260206004820152601f60248201527f6f6e6c792061206c696e6b65642077616c6c65742063616e20756e6c696e6b006044820152606401620003ab565b6001600160a01b03808216600090815260036020908152604080832080546001600160a01b03198116909155909316808352600490915291812054905b8181101562000996576001600160a01b038381166000908152600460205260409020805491861691839081106200087e576200087e6200169c565b6000918252602090912001546001600160a01b03160362000981576001600160a01b0383166000908152600460205260409020620008be600184620016c8565b81548110620008d157620008d16200169c565b60009182526020808320909101546001600160a01b038681168452600490925260409092208054919092169190839081106200091157620009116200169c565b600091825260208083209190910180546001600160a01b0319166001600160a01b039485161790559185168152600490915260409020805480620009595762000959620016de565b600082815260209020810160001990810180546001600160a01b031916905501905562000996565b806200098d81620016f4565b91505062000843565b50816001600160a01b0316836001600160a01b03167f35e6fc363a4bf723d53b26c1a751674aca9c3ead425f0591f84f5540ede86f1260405160405180910390a3505050565b620009e662001203565b620009f260006200125f565b565b600062000a0062001203565b6001600160a01b03831662000a295760405162461bcd60e51b8152600401620003ab90620015bd565b60405160200162000a4590602080825260009082015260400190565b604051602081830303815290604052805190602001208260405160200162000a6e91906200161a565b604051602081830303815290604052805190602001200362000ad35760405162461bcd60e51b815260206004820152601f60248201527f696e76616c696420617267756d656e74202d20656d70747920737472696e67006044820152606401620003ab565b60008260405160200162000ae8919062001710565b604051602081830303815290604052905060028160405162000b0b91906200167e565b9081526040519081900360200190205460ff161562000b625760405162461bcd60e51b815260206004820152601260248201527139b0b63a1030b63932b0b23c903a30b5b2b760711b6044820152606401620003ab565b6001600160a01b03848116600090815260036020526040902054161562000bd85760405162461bcd60e51b8152602060048201526024808201527f77616c6c657420616c7265616479206c696e6b656420746f20616e206964656e6044820152637469747960e01b6064820152608401620003ab565b600062000c07827f00000000000000000000000000000000000000000000000000000000000000008762001173565b9050600160028360405162000c1d91906200167e565b9081526040805160209281900383018120805460ff1916941515949094179093556001600160a01b0388811660008181526003855283812080546001600160a01b0319908116948916948517909155838252600486529381208054600181018255908252948120909401805490931681179092559290917f8e0c709111388f5480579514d86663489ab1f206fe6da1a0c4d03ac8c318b3c691a3949350505050565b62000cc962001203565b6001600160a01b03811662000cf25760405162461bcd60e51b8152600401620003ab90620015bd565b6001600160a01b03811660009081526001602052604090205460ff1662000d4c5760405162461bcd60e51b815260206004820152600d60248201526c6e6f74206120666163746f727960981b6044820152606401620003ab565b6001600160a01b038116600081815260016020526040808220805460ff19169055517fd1fd5274f793d20291c0abfe42e1ef63213a11b34996d485f7afb8fe014248519190a250565b62000d9f62001203565b6001600160a01b03811662000dc85760405162461bcd60e51b8152600401620003ab90620015bd565b6001600160a01b03811660009081526001602052604090205460ff161562000e275760405162461bcd60e51b8152602060048201526011602482015270616c7265616479206120666163746f727960781b6044820152606401620003ab565b6001600160a01b0381166000818152600160208190526040808320805460ff1916909217909155517f45eb8ac5344d2d3f306550fe6e969ca4190526313c512afed851d052bf2ab2fd9190a250565b6001600160a01b03811662000e9f5760405162461bcd60e51b8152600401620003ab90620015bd565b336000908152600360205260409020546001600160a01b031662000f185760405162461bcd60e51b815260206004820152602960248201527f77616c6c6574206e6f74206c696e6b656420746f20616e206964656e746974796044820152680818dbdb9d1c9858dd60ba1b6064820152608401620003ab565b6001600160a01b03818116600090815260036020526040902054161562000f825760405162461bcd60e51b815260206004820152601960248201527f6e65772077616c6c657420616c7265616479206c696e6b6564000000000000006044820152606401620003ab565b6001600160a01b03818116600090815260056020526040902054161562000fec5760405162461bcd60e51b815260206004820181905260248201527f696e76616c696420617267756d656e74202d20746f6b656e20616464726573736044820152606401620003ab565b336000908152600360209081526040808320546001600160a01b0316808452600490925290912054606511620010735760405162461bcd60e51b815260206004820152602560248201527f6d617820616d6f756e74206f662077616c6c6574732070657220494420657863604482015264195959195960da1b6064820152608401620003ab565b6001600160a01b03808316600081815260036020908152604080832080549587166001600160a01b031996871681179091558084526004835281842080546001810182559085529284209092018054909516841790945592517f8e0c709111388f5480579514d86663489ab1f206fe6da1a0c4d03ac8c318b3c69190a35050565b620010fe62001203565b6001600160a01b038116620011655760405162461bcd60e51b815260206004820152602660248201527f4f776e61626c653a206e6577206f776e657220697320746865207a65726f206160448201526564647265737360d01b6064820152608401620003ab565b62001170816200125f565b50565b60008060405180602001620011889062001337565b601f1982820381018352601f9091011660408181526001600160a01b03878116602084015286168183015280518083038201815260608301909152919250600090620011db90849084906080016200173d565b6040516020818303038152906040529050620011f88782620012af565b979650505050505050565b6000546001600160a01b03163314620009f25760405162461bcd60e51b815260206004820181905260248201527f4f776e61626c653a2063616c6c6572206973206e6f7420746865206f776e65726044820152606401620003ab565b600080546001600160a01b038381166001600160a01b0319831681178455604051919092169283917f8be0079c531659141344cd1fd0a4f28419497f9722a3daafe3b4186f6b6457e09190a35050565b60008083604051602001620012c591906200167e565b60405160208183030381529060405280519060200120905060008360200184518381836000f592505050803b620012fb57600080fd5b6040516001600160a01b038216907ff40fcec21964ffb566044d083b4073f29f7f7929110ea19e1b3ebe375d89055e90600090a2949350505050565b610489806200177183390190565b80356001600160a01b03811681146200030257600080fd5b6000602082840312156200137057600080fd5b6200137b8262001345565b9392505050565b600080602083850312156200139657600080fd5b823567ffffffffffffffff80821115620013af57600080fd5b818501915085601f830112620013c457600080fd5b813581811115620013d457600080fd5b866020828501011115620013e757600080fd5b60209290920196919550909350505050565b634e487b7160e01b600052604160045260246000fd5b600082601f8301126200142157600080fd5b813567ffffffffffffffff808211156200143f576200143f620013f9565b604051601f8301601f19908116603f011681019082821181831017156200146a576200146a620013f9565b816040528381528660208588010111156200148457600080fd5b836020870160208301376000602085830101528094505050505092915050565b600080600060608486031215620014ba57600080fd5b620014c58462001345565b9250620014d56020850162001345565b9150604084013567ffffffffffffffff811115620014f257600080fd5b62001500868287016200140f565b9150509250925092565b6020808252825182820181905260009190848201906040850190845b818110156200154d5783516001600160a01b03168352928401929184019160010162001526565b50909695505050505050565b600080604083850312156200156d57600080fd5b620015788362001345565b9150602083013567ffffffffffffffff8111156200159557600080fd5b620015a3858286016200140f565b9150509250929050565b8183823760009101908152919050565b6020808252601f908201527f696e76616c696420617267756d656e74202d207a65726f206164647265737300604082015260600190565b60005b8381101562001611578181015183820152602001620015f7565b50506000910152565b60208152600082518060208401526200163b816040850160208701620015f4565b601f01601f19169190910160400192915050565b642a37b5b2b760d91b81526000825162001671816005850160208701620015f4565b9190910160050192915050565b6000825162001692818460208701620015f4565b9190910192915050565b634e487b7160e01b600052603260045260246000fd5b634e487b7160e01b600052601160045260246000fd5b81810381811115620003335762000333620016b2565b634e487b7160e01b600052603160045260246000fd5b600060018201620017095762001709620016b2565b5060010190565b6213d25160ea1b81526000825162001730816003850160208701620015f4565b9190910160030192915050565b6000835162001751818460208801620015f4565b83519083019062001767818360208801620015f4565b0194935050505056fe608060405234801561001057600080fd5b5060405161048938038061048983398101604081905261002f91610271565b6001600160a01b03821661008a5760405162461bcd60e51b815260206004820152601f60248201527f696e76616c696420617267756d656e74202d207a65726f20616464726573730060448201526064015b60405180910390fd5b6001600160a01b0381166100e05760405162461bcd60e51b815260206004820152601f60248201527f696e76616c696420617267756d656e74202d207a65726f2061646472657373006044820152606401610081565b817fc5f16f0fcc639fa48a6947836d9850f504798523bf8c9a3a87d5876cf622bcf7556000826001600160a01b031663aaf10f426040518163ffffffff1660e01b8152600401602060405180830381865afa158015610143573d6000803e3d6000fd5b505050506040513d601f19601f8201168201806040525081019061016791906102a4565b6040516001600160a01b03848116602483015291925060009183169060440160408051601f198184030181529181526020820180516001600160e01b031663189acdbd60e31b179052516101bb91906102c6565b600060405180830381855af49150503d80600081146101f6576040519150601f19603f3d011682016040523d82523d6000602084013e6101fb565b606091505b505090508061024c5760405162461bcd60e51b815260206004820152601660248201527f496e697469616c697a6174696f6e206661696c65642e000000000000000000006044820152606401610081565b505050506102f5565b80516001600160a01b038116811461026c57600080fd5b919050565b6000806040838503121561028457600080fd5b61028d83610255565b915061029b60208401610255565b90509250929050565b6000602082840312156102b657600080fd5b6102bf82610255565b9392505050565b6000825160005b818110156102e757602081860181015185830152016102cd565b506000920191825250919050565b610185806103046000396000f3fe60806040526004361061001e5760003560e01c80632307f882146100d4575b60006100487fc5f16f0fcc639fa48a6947836d9850f504798523bf8c9a3a87d5876cf622bcf75490565b6001600160a01b031663aaf10f426040518163ffffffff1660e01b8152600401602060405180830381865afa158015610085573d6000803e3d6000fd5b505050506040513d601f19601f820116820180604052508101906100a9919061011f565b90503660008037600080366000846127105a03f43d806000803e8180156100cf57816000f35b816000fd5b3480156100e057600080fd5b507fc5f16f0fcc639fa48a6947836d9850f504798523bf8c9a3a87d5876cf622bcf7546040516001600160a01b03909116815260200160405180910390f35b60006020828403121561013157600080fd5b81516001600160a01b038116811461014857600080fd5b939250505056fea2646970667358221220bab956779e8a0dce05c84e21280cb0d03fa0dc61bcc8a4e01711fd3da590a52a64736f6c63430008110033a2646970667358221220b685788c763ef0990b498c014c261d05c16c55789f9d725974b870dd91052ca864736f6c63430008110033",
  "linkReferences": {},
  "deployedLinkReferences": {}
}