{
  "_format": "hh-sol-artifact-1",
  "contractName": "Token",
  "sourceName": "contracts/token/Token.sol",
  "abi": [
    {
      "inputs": [
        {
          "internalType": "address",
          "name": "identityRegistry_",
          "type": "address"
        },
        {
          "internalType": "address",
          "name": "compliance_",
          "type": "address"
        },
        {
          "internalType": "string",
          "name": "name_",
          "type": "string"
        },
        {
          "internalType": "string",
          "name": "symbol_",
          "type": "string"
        },
        {
          "internalType": "uint8",
          "name": "decimals_",
          "type": "uint8"
        },
        {
          "internalType": "address",
          "name": "onchainID_",
          "type": "address"
        }
      ],
      "stateMutability": "nonpayable",
      "type": "constructor"
    },
    {
      "anonymous": false,
      "inputs": [
        {
          "indexed": true,
          "internalType": "address",
          "name": "_userAddress",
          "type": "address"
        },
        {
          "indexed": true,
          "internalType": "bool",
          "name": "_isFrozen",
          "type": "bool"
        },
        {
          "indexed": true,
          "internalType": "address",
          "name": "_owner",
          "type": "address"
        }
      ],
      "name": "AddressFrozen",
      "type": "event"
    },
    {
      "anonymous": false,
      "inputs": [
        {
          "indexed": true,
          "internalType": "address",
          "name": "owner",
          "type": "address"
        },
        {
          "indexed": true,
          "internalType": "address",
          "name": "spender",
          "type": "address"
        },
        {
          "indexed": false,
          "internalType": "uint256",
          "name": "value",
          "type": "uint256"
        }
      ],
      "name": "Approval",
      "type": "event"
    },
    {
      "anonymous": false,
      "inputs": [
        {
          "indexed": true,
          "internalType": "address",
          "name": "_compliance",
          "type": "address"
        }
      ],
      "name": "ComplianceAdded",
      "type": "event"
    },
    {
      "anonymous": false,
      "inputs": [
        {
          "indexed": true,
          "internalType": "address",
          "name": "_identityRegistry",
          "type": "address"
        }
      ],
      "name": "IdentityRegistryAdded",
      "type": "event"
    },
    {
      "anonymous": false,
      "inputs": [
        {
          "indexed": false,
          "internalType": "address",
          "name": "account",
          "type": "address"
        }
      ],
      "name": "Paused",
      "type": "event"
    },
    {
      "anonymous": false,
      "inputs": [
        {
          "indexed": true,
          "internalType": "address",
          "name": "_lostWallet",
          "type": "address"
        },
        {
          "indexed": true,
          "internalType": "address",
          "name": "_newWallet",
          "type": "address"
        },
        {
          "indexed": true,
          "internalType": "address",
          "name": "_investorOnchainID",
          "type": "address"
        }
      ],
      "name": "RecoverySuccess",
      "type": "event"
    },
    {
      "anonymous": false,
      "inputs": [
        {
          "indexed": true,
          "internalType": "bytes32",
          "name": "role",
          "type": "bytes32"
        },
        {
          "indexed": true,
          "internalType": "bytes32",
          "name": "previousAdminRole",
          "type": "bytes32"
        },
        {
          "indexed": true,
          "internalType": "bytes32",
          "name": "newAdminRole",
          "type": "bytes32"
        }
      ],
      "name": "RoleAdminChanged",
      "type": "event"
    },
    {
      "anonymous": false,
      "inputs": [
        {
          "indexed": true,
          "internalType": "bytes32",
          "name": "role",
          "type": "bytes32"
        },
        {
          "indexed": true,
          "internalType": "address",
          "name": "account",
          "type": "address"
        },
        {
          "indexed": true,
          "internalType": "address",
          "name": "sender",
          "type": "address"
        }
      ],
      "name": "RoleGranted",
      "type": "event"
    },
    {
      "anonymous": false,
      "inputs": [
        {
          "indexed": true,
          "internalType": "bytes32",
          "name": "role",
          "type": "bytes32"
        },
        {
          "indexed": true,
          "internalType": "address",
          "name": "account",
          "type": "address"
        },
        {
          "indexed": true,
          "internalType": "address",
          "name": "sender",
          "type": "address"
        }
      ],
      "name": "RoleRevoked",
      "type": "event"
    },
    {
      "anonymous": false,
      "inputs": [
        {
          "indexed": true,
          "internalType": "address",
          "name": "_userAddress",
          "type": "address"
        },
        {
          "indexed": false,
          "internalType": "uint256",
          "name": "_amount",
          "type": "uint256"
        }
      ],
      "name": "TokensFrozen",
      "type": "event"
    },
    {
      "anonymous": false,
      "inputs": [
        {
          "indexed": true,
          "internalType": "address",
          "name": "_userAddress",
          "type": "address"
        },
        {
          "indexed": false,
          "internalType": "uint256",
          "name": "_amount",
          "type": "uint256"
        }
      ],
      "name": "TokensUnfrozen",
      "type": "event"
    },
    {
      "anonymous": false,
      "inputs": [
        {
          "indexed": true,
          "internalType": "address",
          "name": "from",
          "type": "address"
        },
        {
          "indexed": true,
          "internalType": "address",
          "name": "to",
          "type": "address"
        },
        {
          "indexed": false,
          "internalType": "uint256",
          "name": "value",
          "type": "uint256"
        }
      ],
      "name": "Transfer",
      "type": "event"
    },
    {
      "anonymous": false,
      "inputs": [
        {
          "indexed": false,
          "internalType": "address",
          "name": "account",
          "type": "address"
        }
      ],
      "name": "Unpaused",
      "type": "event"
    },
    {
      "anonymous": false,
      "inputs": [
        {
          "indexed": true,
          "internalType": "address",
          "name": "_newOnchainID",
          "type": "address"
        }
      ],
      "name": "UpdatedOnchainID",
      "type": "event"
    },
    {
      "inputs": [],
      "name": "AGENT_ROLE",
      "outputs": [
        {
          "internalType": "bytes32",
          "name": "",
          "type": "bytes32"
        }
      ],
      "stateMutability": "view",
      "type": "function"
    },
    {
      "inputs": [],
      "name": "DEFAULT_ADMIN_ROLE",
      "outputs": [
        {
          "internalType": "bytes32",
          "name": "",
          "type": "bytes32"
        }
      ],
      "stateMutability": "view",
      "type": "function"
    },
    {
      "inputs": [],
      "name": "OWNER_ROLE",
      "outputs": [
        {
          "internalType": "bytes32",
          "name": "",
          "type": "bytes32"
        }
      ],
      "stateMutability": "view",
      "type": "function"
    },
    {
      "inputs": [
        {
          "internalType": "address",
          "name": "owner",
          "type": "address"
        },
        {
          "internalType": "address",
          "name": "spender",
          "type": "address"
        }
      ],
      "name": "allowance",
      "outputs": [
        {
          "internalType": "uint256",
          "name": "",
          "type": "uint256"
        }
      ],
      "stateMutability": "view",
      "type": "function"
    },
    {
      "inputs": [
        {
          "internalType": "address",
          "name": "spender",
          "type": "address"
        },
        {
          "internalType": "uint256",
          "name": "amount",
          "type": "uint256"
        }
      ],
      "name": "approve",
      "outputs": [
        {
          "internalType": "bool",
          "name": "",
          "type": "bool"
        }
      ],
      "stateMutability": "nonpayable",
      "type": "function"
    },
    {
      "inputs": [
        {
          "internalType": "address",
          "name": "account",
          "type": "address"
        }
      ],
      "name": "balanceOf",
      "outputs": [
        {
          "internalType": "uint256",
          "name": "",
          "type": "uint256"
        }
      ],
      "stateMutability": "view",
      "type": "function"
    },
    {
      "inputs": [
        {
          "internalType": "address[]",
          "name": "accounts",
          "type": "address[]"
        },
        {
          "internalType": "uint256[]",
          "name": "amounts",
          "type": "uint256[]"
        }
      ],
      "name": "batchBurn",
      "outputs": [],
      "stateMutability": "nonpayable",
      "type": "function"
    },
    {
      "inputs": [
        {
          "internalType": "address[]",
          "name": "fromList",
          "type": "address[]"
        },
        {
          "internalType": "address[]",
          "name": "toList",
          "type": "address[]"
        },
        {
          "internalType": "uint256[]",
          "name": "amounts",
          "type": "uint256[]"
        }
      ],
      "name": "batchForcedTransfer",
      "outputs": [],
      "stateMutability": "nonpayable",
      "type": "function"
    },
    {
      "inputs": [
        {
          "internalType": "address[]",
          "name": "accounts",
          "type": "address[]"
        },
        {
          "internalType": "uint256[]",
          "name": "amounts",
          "type": "uint256[]"
        }
      ],
      "name": "batchFreezePartialTokens",
      "outputs": [],
      "stateMutability": "nonpayable",
      "type": "function"
    },
    {
      "inputs": [
        {
          "internalType": "address[]",
          "name": "toList",
          "type": "address[]"
        },
        {
          "internalType": "uint256[]",
          "name": "amounts",
          "type": "uint256[]"
        }
      ],
      "name": "batchMint",
      "outputs": [],
      "stateMutability": "nonpayable",
      "type": "function"
    },
    {
      "inputs": [
        {
          "internalType": "address[]",
          "name": "accounts",
          "type": "address[]"
        },
        {
          "internalType": "bool[]",
          "name": "freeze",
          "type": "bool[]"
        }
      ],
      "name": "batchSetAddressFrozen",
      "outputs": [],
      "stateMutability": "nonpayable",
      "type": "function"
    },
    {
      "inputs": [
        {
          "internalType": "address[]",
          "name": "toList",
          "type": "address[]"
        },
        {
          "internalType": "uint256[]",
          "name": "amounts",
          "type": "uint256[]"
        }
      ],
      "name": "batchTransfer",
      "outputs": [],
      "stateMutability": "nonpayable",
      "type": "function"
    },
    {
      "inputs": [
        {
          "internalType": "address[]",
          "name": "fromList",
          "type": "address[]"
        },
        {
          "internalType": "address[]",
          "name": "toList",
          "type": "address[]"
        },
        {
          "internalType": "uint256[]",
          "name": "amounts",
          "type": "uint256[]"
        }
      ],
      "name": "batchTransferFrom",
      "outputs": [],
      "stateMutability": "nonpayable",
      "type": "function"
    },
    {
      "inputs": [
        {
          "internalType": "address[]",
          "name": "accounts",
          "type": "address[]"
        },
        {
          "internalType": "uint256[]",
          "name": "amounts",
          "type": "uint256[]"
        }
      ],
      "name": "batchUnfreezePartialTokens",
      "outputs": [],
      "stateMutability": "nonpayable",
      "type": "function"
    },
    {
      "inputs": [
        {
          "internalType": "address",
          "name": "account",
          "type": "address"
        },
        {
          "internalType": "uint256",
          "name": "amount",
          "type": "uint256"
        }
      ],
      "name": "burn",
      "outputs": [],
      "stateMutability": "nonpayable",
      "type": "function"
    },
    {
      "inputs": [],
      "name": "compliance",
      "outputs": [
        {
          "internalType": "address",
          "name": "",
          "type": "address"
        }
      ],
      "stateMutability": "view",
      "type": "function"
    },
    {
      "inputs": [],
      "name": "decimals",
      "outputs": [
        {
          "internalType": "uint8",
          "name": "",
          "type": "uint8"
        }
      ],
      "stateMutability": "view",
      "type": "function"
    },
    {
      "inputs": [
        {
          "internalType": "address",
          "name": "spender",
          "type": "address"
        },
        {
          "internalType": "uint256",
          "name": "_subtractedValue",
          "type": "uint256"
        }
      ],
      "name": "decreaseAllowance",
      "outputs": [
        {
          "internalType": "bool",
          "name": "",
          "type": "bool"
        }
      ],
      "stateMutability": "nonpayable",
      "type": "function"
    },
    {
      "inputs": [
        {
          "internalType": "address",
          "name": "from",
          "type": "address"
        },
        {
          "internalType": "address",
          "name": "to",
          "type": "address"
        },
        {
          "internalType": "uint256",
          "name": "amount",
          "type": "uint256"
        }
      ],
      "name": "forcedTransfer",
      "outputs": [
        {
          "internalType": "bool",
          "name": "",
          "type": "bool"
        }
      ],
      "stateMutability": "nonpayable",
      "type": "function"
    },
    {
      "inputs": [
        {
          "internalType": "address",
          "name": "account",
          "type": "address"
        },
        {
          "internalType": "uint256",
          "name": "amount",
          "type": "uint256"
        }
      ],
      "name": "freezePartialTokens",
      "outputs": [],
      "stateMutability": "nonpayable",
      "type": "function"
    },
    {
      "inputs": [
        {
          "internalType": "address",
          "name": "account",
          "type": "address"
        }
      ],
      "name": "getFrozenTokens",
      "outputs": [
        {
          "internalType": "uint256",
          "name": "",
          "type": "uint256"
        }
      ],
      "stateMutability": "view",
      "type": "function"
    },
    {
      "inputs": [
        {
          "internalType": "bytes32",
          "name": "role",
          "type": "bytes32"
        }
      ],
      "name": "getRoleAdmin",
      "outputs": [
        {
          "internalType": "bytes32",
          "name": "",
          "type": "bytes32"
        }
      ],
      "stateMutability": "view",
      "type": "function"
    },
    {
      "inputs": [
        {
          "internalType": "bytes32",
          "name": "role",
          "type": "bytes32"
        },
        {
          "internalType": "address",
          "name": "account",
          "type": "address"
        }
      ],
      "name": "grantRole",
      "outputs": [],
      "stateMutability": "nonpayable",
      "type": "function"
    },
    {
      "inputs": [
        {
          "internalType": "bytes32",
          "name": "role",
          "type": "bytes32"
        },
        {
          "internalType": "address",
          "name": "account",
          "type": "address"
        }
      ],
      "name": "hasRole",
      "outputs": [
        {
          "internalType": "bool",
          "name": "",
          "type": "bool"
        }
      ],
      "stateMutability": "view",
      "type": "function"
    },
    {
      "inputs": [],
      "name": "identityRegistry",
      "outputs": [
        {
          "internalType": "contract IIdentityRegistry",
          "name": "",
          "type": "address"
        }
      ],
      "stateMutability": "view",
      "type": "function"
    },
    {
      "inputs": [
        {
          "internalType": "address",
          "name": "spender",
          "type": "address"
        },
        {
          "internalType": "uint256",
          "name": "_addedValue",
          "type": "uint256"
        }
      ],
      "name": "increaseAllowance",
      "outputs": [
        {
          "internalType": "bool",
          "name": "",
          "type": "bool"
        }
      ],
      "stateMutability": "nonpayable",
      "type": "function"
    },
    {
      "inputs": [
        {
          "internalType": "address",
          "name": "account",
          "type": "address"
        }
      ],
      "name": "isFrozen",
      "outputs": [
        {
          "internalType": "bool",
          "name": "",
          "type": "bool"
        }
      ],
      "stateMutability": "view",
      "type": "function"
    },
    {
      "inputs": [
        {
          "internalType": "address",
          "name": "_to",
          "type": "address"
        },
        {
          "internalType": "uint256",
          "name": "amount",
          "type": "uint256"
        }
      ],
      "name": "mint",
      "outputs": [],
      "stateMutability": "nonpayable",
      "type": "function"
    },
    {
      "inputs": [],
      "name": "name",
      "outputs": [
        {
          "internalType": "string",
          "name": "",
          "type": "string"
        }
      ],
      "stateMutability": "view",
      "type": "function"
    },
    {
      "inputs": [],
      "name": "onchainID",
      "outputs": [
        {
          "internalType": "address",
          "name": "",
          "type": "address"
        }
      ],
      "stateMutability": "view",
      "type": "function"
    },
    {
      "inputs": [],
      "name": "pause",
      "outputs": [],
      "stateMutability": "nonpayable",
      "type": "function"
    },
    {
      "inputs": [],
      "name": "paused",
      "outputs": [
        {
          "internalType": "bool",
          "name": "",
          "type": "bool"
        }
      ],
      "stateMutability": "view",
      "type": "function"
    },
    {
      "inputs": [
        {
          "internalType": "address",
          "name": "lostWallet",
          "type": "address"
        },
        {
          "internalType": "address",
          "name": "newWallet",
          "type": "address"
        },
        {
          "internalType": "address",
          "name": "investorOnchainID",
          "type": "address"
        }
      ],
      "name": "recoveryAddress",
      "outputs": [
        {
          "internalType": "bool",
          "name": "",
          "type": "bool"
        }
      ],
      "stateMutability": "nonpayable",
      "type": "function"
    },
    {
      "inputs": [
        {
          "internalType": "bytes32",
          "name": "role",
          "type": "bytes32"
        },
        {
          "internalType": "address",
          "name": "account",
          "type": "address"
        }
      ],
      "name": "renounceRole",
      "outputs": [],
      "stateMutability": "nonpayable",
      "type": "function"
    },
    {
      "inputs": [
        {
          "internalType": "bytes32",
          "name": "role",
          "type": "bytes32"
        },
        {
          "internalType": "address",
          "name": "account",
          "type": "address"
        }
      ],
      "name": "revokeRole",
      "outputs": [],
      "stateMutability": "nonpayable",
      "type": "function"
    },
    {
      "inputs": [
        {
          "internalType": "address",
          "name": "account",
          "type": "address"
        },
        {
          "internalType": "bool",
          "name": "freeze",
          "type": "bool"
        }
      ],
      "name": "setAddressFrozen",
      "outputs": [],
      "stateMutability": "nonpayable",
      "type": "function"
    },
    {
      "inputs": [
        {
          "internalType": "address",
          "name": "newCompliance",
          "type": "address"
        }
      ],
      "name": "setCompliance",
      "outputs": [],
      "stateMutability": "nonpayable",
      "type": "function"
    },
    {
      "inputs": [
        {
          "internalType": "address",
          "name": "newIdentityRegistry",
          "type": "address"
        }
      ],
      "name": "setIdentityRegistry",
      "outputs": [],
      "stateMutability": "nonpayable",
      "type": "function"
    },
    {
      "inputs": [
        {
          "internalType": "address",
          "name": "onchainID_",
          "type": "address"
        }
      ],
      "name": "setOnchainID",
      "outputs": [],
      "stateMutability": "nonpayable",
      "type": "function"
    },
    {
      "inputs": [
        {
          "internalType": "bytes4",
          "name": "interfaceId",
          "type": "bytes4"
        }
      ],
      "name": "supportsInterface",
      "outputs": [
        {
          "internalType": "bool",
          "name": "",
          "type": "bool"
        }
      ],
      "stateMutability": "view",
      "type": "function"
    },
    {
      "inputs": [],
      "name": "symbol",
      "outputs": [
        {
          "internalType": "string",
          "name": "",
          "type": "string"
        }
      ],
      "stateMutability": "view",
      "type": "function"
    },
    {
      "inputs": [],
      "name": "totalSupply",
      "outputs": [
        {
          "internalType": "uint256",
          "name": "",
          "type": "uint256"
        }
      ],
      "stateMutability": "view",
      "type": "function"
    },
    {
      "inputs": [
        {
          "internalType": "address",
          "name": "to",
          "type": "address"
        },
        {
          "internalType": "uint256",
          "name": "amount",
          "type": "uint256"
        }
      ],
      "name": "transfer",
      "outputs": [
        {
          "internalType": "bool",
          "name": "",
          "type": "bool"
        }
      ],
      "stateMutability": "nonpayable",
      "type": "function"
    },
    {
      "inputs": [
        {
          "internalType": "address",
          "name": "from",
          "type": "address"
        },
        {
          "internalType": "address",
          "name": "to",
          "type": "address"
        },
        {
          "internalType": "uint256",
          "name": "amount",
          "type": "uint256"
        }
      ],
      "name": "transferFrom",
      "outputs": [
        {
          "internalType": "bool",
          "name": "",
          "type": "bool"
        }
      ],
      "stateMutability": "nonpayable",
      "type": "function"
    },
    {
      "inputs": [
        {
          "internalType": "address",
          "name": "account",
          "type": "address"
        },
        {
          "internalType": "uint256",
          "name": "amount",
          "type": "uint256"
        }
      ],
      "name": "unfreezePartialTokens",
      "outputs": [],
      "stateMutability": "nonpayable",
      "type": "function"
    },
    {
      "inputs": [],
      "name": "unpause",
      "outputs": [],
      "stateMutability": "nonpayable",
      "type": "function"
    },
    {
      "inputs": [],
      "name": "version",
      "outputs": [
        {
          "internalType": "string",
          "name": "",
          "type": "string"
        }
      ],
      "stateMutability": "pure",
      "type": "function"
    }
  ],
  "bytecode": "0x60a06040523480156200001157600080fd5b506040516200345938038062003459833981016040819052620000349162000409565b6001805460ff191690556001600160a01b038616158015906200005f57506001600160a01b03851615155b620000b05760405162461bcd60e51b815260206004820152601e60248201527f4552432d333634333a20496e76616c6964207a65726f20616464726573730000604482015260640160405180910390fd5b6007620000be858262000553565b506008620000cd848262000553565b5060ff8216608052600980546001600160a01b0319166001600160a01b038316179055620001046000620000fe3390565b62000286565b620001307fb19546dff01e856fb3f010c267a7b1c60363cf8a4664e21cc89c26224620214e3362000286565b6200015c7fcab5a0bfe0b79d2c4b1c2e02599fa044d115b7511f9659307cb42769509677093362000286565b600a80546001600160a01b038881166001600160a01b031992831617909255600b80549288169290911682179055604051631ffad50160e11b8152306004820152633ff5aa0290602401600060405180830381600087803b158015620001c157600080fd5b505af1158015620001d6573d6000803e3d6000fd5b50506040516001600160a01b03891692507fd2be862d755bca7e0d39772b2cab3a5578da9c285f69199f4c063c2294a7f36c9150600090a26040516001600160a01b038616907f7f3a888862559648ec01d97deb7b5012bff86dc91e654a1de397170db40e35b690600090a26009546040516001600160a01b03909116907fb940e1b0e9139123c237455ad6e58e547d9c648af37c0a5d7fa9a885a5adf50f90600090a25050505050506200061f565b6000828152602081815260408083206001600160a01b038516845290915290205460ff1662000323576000828152602081815260408083206001600160a01b03851684529091529020805460ff19166001179055620002e23390565b6001600160a01b0316816001600160a01b0316837f2f8788117e7eff1d82e926ec794901d17c78024a50270940304540a733656f0d60405160405180910390a45b5050565b80516001600160a01b03811681146200033f57600080fd5b919050565b634e487b7160e01b600052604160045260246000fd5b600082601f8301126200036c57600080fd5b81516001600160401b038082111562000389576200038962000344565b604051601f8301601f19908116603f01168101908282118183101715620003b457620003b462000344565b81604052838152602092508683858801011115620003d157600080fd5b600091505b83821015620003f55785820183015181830184015290820190620003d6565b600093810190920192909252949350505050565b60008060008060008060c087890312156200042357600080fd5b6200042e8762000327565b95506200043e6020880162000327565b60408801519095506001600160401b03808211156200045c57600080fd5b6200046a8a838b016200035a565b955060608901519150808211156200048157600080fd5b506200049089828a016200035a565b935050608087015160ff81168114620004a857600080fd5b9150620004b860a0880162000327565b90509295509295509295565b600181811c90821680620004d957607f821691505b602082108103620004fa57634e487b7160e01b600052602260045260246000fd5b50919050565b601f8211156200054e57600081815260208120601f850160051c81016020861015620005295750805b601f850160051c820191505b818110156200054a5782815560010162000535565b5050505b505050565b81516001600160401b038111156200056f576200056f62000344565b6200058781620005808454620004c4565b8462000500565b602080601f831160018114620005bf5760008415620005a65750858301515b600019600386901b1c1916600185901b1785556200054a565b600085815260208120601f198616915b82811015620005f057888601518255948401946001909101908401620005cf565b50858210156200060f5787850151600019600388901b60f8161c191681555b5050505050600190811b01905550565b608051612e1e6200063b60003960006103ee0152612e1e6000f3fe608060405234801561001057600080fd5b50600436106102955760003560e01c80635c975abb11610167578063a457c2d7116100ce578063d547741f11610087578063d547741f1461060c578063dd62ed3e1461061f578063e58378bb14610658578063e58398361461066d578063f898178914610699578063fc7e5fa8146106ac57600080fd5b8063a457c2d71461059c578063a9059cbb146105af578063aba63705146105c2578063b818f9e4146105d3578063c69c09cf146105e6578063cbf3f861146105f957600080fd5b806391d148541161012057806391d14854146105405780639285948a1461055357806395d89b41146105665780639dc29fac1461056e5780639fc1d0e714610581578063a217fddf1461059457600080fd5b80635c975abb146104cd5780636290865d146104d857806368573107146104e957806370a08231146104fc5780638456cb591461052557806388d695b21461052d57600080fd5b8063248a9ca31161020b5780633f4ba83a116101c45780633f4ba83a1461045157806340c10f191461045957806342a47abc1461046c5780634710362d1461047f5780634a6cc6771461049257806354fd4d50146104a557600080fd5b8063248a9ca3146103b15780632f2ff15d146103d4578063313ce567146103e757806336568abe14610418578063395093511461042b5780633d1ddc5b1461043e57600080fd5b8063158b1a571161025d578063158b1a571461032457806318160ddd1461035b5780631a7af379146103635780631fe56f7d1461037657806322459e181461038957806323b872dd1461039e57600080fd5b806301ffc9a71461029a57806306fdde03146102c2578063095ea7b3146102d7578063125c4a33146102ea578063134e18f4146102ff575b600080fd5b6102ad6102a8366004612867565b6106bf565b60405190151581526020015b60405180910390f35b6102ca6106f6565b6040516102b991906128b5565b6102ad6102e5366004612904565b610788565b6102fd6102f8366004612904565b61079e565b005b600a546001600160a01b03165b6040516001600160a01b0390911681526020016102b9565b61034d61033236600461292e565b6001600160a01b031660009081526005602052604090205490565b6040519081526020016102b9565b60065461034d565b6102fd610371366004612995565b6107c5565b6102fd610384366004612904565b610878565b61034d600080516020612dc983398151915281565b6102ad6103ac366004612a01565b61089a565b61034d6103bf366004612a3d565b60009081526020819052604090206001015490565b6102fd6103e2366004612a56565b6108c4565b60405160ff7f00000000000000000000000000000000000000000000000000000000000000001681526020016102b9565b6102fd610426366004612a56565b6108e9565b6102ad610439366004612904565b610967565b6102fd61044c36600461292e565b6109a3565b6102fd610a06565b6102fd610467366004612904565b610a29565b6102fd61047a366004612a82565b610a4b565b6102fd61048d366004612995565b610b30565b6102fd6104a0366004612995565b610bc3565b60408051808201909152600c81526b0524150544f522d352e302e360a41b60208201526102ca565b60015460ff166102ad565b600b546001600160a01b031661030c565b6102fd6104f7366004612995565b610c56565b61034d61050a36600461292e565b6001600160a01b031660009081526002602052604090205490565b6102fd610ce9565b6102fd61053b366004612995565b610d09565b6102ad61054e366004612a56565b610d96565b6102ad610561366004612b1c565b610dbf565b6102ca611151565b6102fd61057c366004612904565b611160565b6102ad61058f366004612a01565b611182565b61034d600081565b6102ad6105aa366004612904565b6111b0565b6102ad6105bd366004612904565b6111e7565b6009546001600160a01b031661030c565b6102fd6105e1366004612a82565b6111fc565b6102fd6105f4366004612b6d565b6112d3565b6102fd61060736600461292e565b611341565b6102fd61061a366004612a56565b6113a4565b61034d61062d366004612ba4565b6001600160a01b03918216600090815260036020908152604080832093909416825291909152205490565b61034d600080516020612da983398151915281565b6102ad61067b36600461292e565b6001600160a01b031660009081526004602052604090205460ff1690565b6102fd6106a736600461292e565b6113c9565b6102fd6106ba366004612995565b61153a565b60006001600160e01b03198216637965db0b60e01b14806106f057506301ffc9a760e01b6001600160e01b03198316145b92915050565b60606007805461070590612bce565b80601f016020809104026020016040519081016040528092919081815260200182805461073190612bce565b801561077e5780601f106107535761010080835404028352916020019161077e565b820191906000526020600020905b81548152906001019060200180831161076157829003601f168201915b5050505050905090565b60006107953384846115cd565b50600192915050565b600080516020612dc98339815191526107b6816116f0565b6107c083836116fa565b505050565b600080516020612dc98339815191526107dd816116f0565b838281146108065760405162461bcd60e51b81526004016107fd90612c08565b60405180910390fd5b60005b8181101561086f5761086787878381811061082657610826612c3f565b905060200201602081019061083b919061292e565b86868481811061084d5761084d612c3f565b90506020020160208101906108629190612c55565b6117f9565b600101610809565b50505050505050565b600080516020612dc9833981519152610890816116f0565b6107c0838361184e565b60006108a4611930565b6108af843384611978565b6108ba848484611a0a565b5060019392505050565b6000828152602081905260409020600101546108df816116f0565b6107c08383611e8a565b6001600160a01b03811633146109595760405162461bcd60e51b815260206004820152602f60248201527f416363657373436f6e74726f6c3a2063616e206f6e6c792072656e6f756e636560448201526e103937b632b9903337b91039b2b63360891b60648201526084016107fd565b6109638282611f0e565b5050565b3360008181526003602090815260408083206001600160a01b0387168452909152812054909161079591859061099e908690612c88565b6115cd565b600080516020612da98339815191526109bb816116f0565b600980546001600160a01b0319166001600160a01b0384169081179091556040517fb940e1b0e9139123c237455ad6e58e547d9c648af37c0a5d7fa9a885a5adf50f90600090a25050565b600080516020612dc9833981519152610a1e816116f0565b610a26611f73565b50565b600080516020612dc9833981519152610a41816116f0565b6107c08383611fc5565b600080516020612dc9833981519152610a63816116f0565b85848114610a835760405162461bcd60e51b81526004016107fd90612c08565b808314610aa25760405162461bcd60e51b81526004016107fd90612c08565b60005b81811015610b2557610b1c898983818110610ac257610ac2612c3f565b9050602002016020810190610ad7919061292e565b888884818110610ae957610ae9612c3f565b9050602002016020810190610afe919061292e565b878785818110610b1057610b10612c3f565b90506020020135612284565b50600101610aa5565b505050505050505050565b600080516020612dc9833981519152610b48816116f0565b83828114610b685760405162461bcd60e51b81526004016107fd90612c08565b60005b8181101561086f57610bbb878783818110610b8857610b88612c3f565b9050602002016020810190610b9d919061292e565b868684818110610baf57610baf612c3f565b9050602002013561184e565b600101610b6b565b600080516020612dc9833981519152610bdb816116f0565b83828114610bfb5760405162461bcd60e51b81526004016107fd90612c08565b60005b8181101561086f57610c4e878783818110610c1b57610c1b612c3f565b9050602002016020810190610c30919061292e565b868684818110610c4257610c42612c3f565b905060200201356123bd565b600101610bfe565b600080516020612dc9833981519152610c6e816116f0565b83828114610c8e5760405162461bcd60e51b81526004016107fd90612c08565b60005b8181101561086f57610ce1878783818110610cae57610cae612c3f565b9050602002016020810190610cc3919061292e565b868684818110610cd557610cd5612c3f565b90506020020135611fc5565b600101610c91565b600080516020612dc9833981519152610d01816116f0565b610a266125d5565b610d11611930565b82818114610d315760405162461bcd60e51b81526004016107fd90612c08565b60005b81811015610d8e57610d86335b878784818110610d5357610d53612c3f565b9050602002016020810190610d68919061292e565b868685818110610d7a57610d7a612c3f565b90506020020135611a0a565b600101610d34565b505050505050565b6000918252602082815260408084206001600160a01b0393909316845291905290205460ff1690565b6000600080516020612dc9833981519152610dd9816116f0565b6001600160a01b03851660009081526002602052604081205490819003610e425760405162461bcd60e51b815260206004820152601e60248201527f4552432d333634333a204e6f20746f6b656e7320746f207265636f766572000060448201526064016107fd565b6001600160a01b038681166000908152600460209081526040808320548151948a1692850192909252879360ff90921692910160408051808303601f1901815290829052805160209091012063d202158d60e01b8252600482018190526001602483015291506001600160a01b0384169063d202158d90604401602060405180830381865afa158015610ed9573d6000803e3d6000fd5b505050506040513d601f19601f82011682018060405250810190610efd9190612c9b565b610f495760405162461bcd60e51b815260206004820152601f60248201527f4552432d333634333a205265636f76657279206e6f7420706f737369626c650060448201526064016107fd565b6001600160a01b03808a166000818152600560205260409081902054600a549151637e42683b60e01b8152600481019390935292169063454a03e0908b9087908490637e42683b90602401602060405180830381865afa158015610fb1573d6000803e3d6000fd5b505050506040513d601f19601f82011682018060405250810190610fd59190612cb8565b6040516001600160e01b031960e086901b1681526001600160a01b03938416600482015292909116602483015261ffff166044820152606401600060405180830381600087803b15801561102857600080fd5b505af115801561103c573d6000803e3d6000fd5b505050508215611067576001600160a01b038a166000908152600460205260409020805460ff191690555b6110728a8a87612284565b5080156110835761108389826116fa565b821515600103611098576110988960016117f9565b600a5460405163a8d29d1d60e01b81526001600160a01b038c811660048301529091169063a8d29d1d90602401600060405180830381600087803b1580156110df57600080fd5b505af11580156110f3573d6000803e3d6000fd5b50505050876001600160a01b0316896001600160a01b03168b6001600160a01b03167ff0c9129a94f30f1caaceb63e44b9811d0a3edf1d6c23757f346093af5553fed060405160405180910390a45060019998505050505050505050565b60606008805461070590612bce565b600080516020612dc9833981519152611178816116f0565b6107c083836123bd565b6000600080516020612dc983398151915261119c816116f0565b6111a7858585612284565b95945050505050565b3360008181526003602090815260408083206001600160a01b0387168452909152812054909161079591859061099e908690612cdc565b60006111f1611930565b610795338484611a0a565b611204611930565b848381146112245760405162461bcd60e51b81526004016107fd90612c08565b8082146112435760405162461bcd60e51b81526004016107fd90612c08565b60005b818110156112c95761129788888381811061126357611263612c3f565b9050602002016020810190611278919061292e565b3386868581811061128b5761128b612c3f565b90506020020135611978565b6112c18888838181106112ac576112ac612c3f565b9050602002016020810190610d41919061292e565b600101611246565b5050505050505050565b600080516020612dc98339815191526112eb816116f0565b6001600160a01b038316600081815260046020526040808220805460ff19168615159081179091559051339391927f7fa523c84ab8d7fc5b72f08b9e46dbbf10c39e119a075b3e317002d14bc9f43691a4505050565b600080516020612da9833981519152611359816116f0565b600a80546001600160a01b0319166001600160a01b0384169081179091556040517fd2be862d755bca7e0d39772b2cab3a5578da9c285f69199f4c063c2294a7f36c90600090a25050565b6000828152602081905260409020600101546113bf816116f0565b6107c08383611f0e565b600080516020612da98339815191526113e1816116f0565b6001600160a01b0382166114375760405162461bcd60e51b815260206004820152601e60248201527f4552432d333634333a20496e76616c6964207a65726f2061646472657373000060448201526064016107fd565b600b5460405163040db3b560e41b81523060048201526001600160a01b03909116906340db3b5090602401600060405180830381600087803b15801561147c57600080fd5b505af1158015611490573d6000803e3d6000fd5b5050600b80546001600160a01b0319166001600160a01b038616908117909155604051631ffad50160e11b8152306004820152909250633ff5aa029150602401600060405180830381600087803b1580156114ea57600080fd5b505af11580156114fe573d6000803e3d6000fd5b50506040516001600160a01b03851692507f7f3a888862559648ec01d97deb7b5012bff86dc91e654a1de397170db40e35b69150600090a25050565b600080516020612dc9833981519152611552816116f0565b838281146115725760405162461bcd60e51b81526004016107fd90612c08565b60005b8181101561086f576115c587878381811061159257611592612c3f565b90506020020160208101906115a7919061292e565b8686848181106115b9576115b9612c3f565b905060200201356116fa565b600101611575565b6001600160a01b03831661162f5760405162461bcd60e51b815260206004820152602360248201527f4552432d333634333a20617070726f76652066726f6d207a65726f206164647260448201526265737360e81b60648201526084016107fd565b6001600160a01b03821661168f5760405162461bcd60e51b815260206004820152602160248201527f4552432d333634333a20617070726f766520746f207a65726f206164647265736044820152607360f81b60648201526084016107fd565b6001600160a01b0383811660008181526003602090815260408083209487168084529482529182902085905590518481527f8c5be1e5ebec7d5bd14f71427d1e84f3dd0314c0f7b2291e5b200ac8c7c3b925910160405180910390a3505050565b610a268133612610565b6001600160a01b03821660009081526002602090815260408083205460059092529091205461172a908390612c88565b8110156117795760405162461bcd60e51b815260206004820181905260248201527f416d6f756e74206578636565647320617661696c61626c652062616c616e636560448201526064016107fd565b6001600160a01b03831660009081526005602052604090205461179d908390612c88565b6001600160a01b038416600081815260056020526040908190209290925590517fa065e63c631c86f1b9f66a4a2f63f2093bf1c2168d23290259dbd969e0222a45906117ec9085815260200190565b60405180910390a2505050565b6001600160a01b038216600081815260046020526040808220805460ff19168515159081179091559051339391927f7fa523c84ab8d7fc5b72f08b9e46dbbf10c39e119a075b3e317002d14bc9f43691a45050565b6001600160a01b0382166000908152600560205260409020548111156118d35760405162461bcd60e51b815260206004820152603460248201527f416d6f756e742073686f756c64206265206c657373207468616e206f7220657160448201527375616c20746f2066726f7a656e20746f6b656e7360601b60648201526084016107fd565b6001600160a01b0382166000818152600560205260409081902080548490039055517f9bed35cb62ad0dba04f9d5bfee4b5bc91443e77da8a65c4c84834c51bb08b0d6906119249084815260200190565b60405180910390a25050565b60015460ff16156119765760405162461bcd60e51b815260206004820152601060248201526f14185d5cd8589b194e881c185d5cd95960821b60448201526064016107fd565b565b6001600160a01b038084166000908152600360209081526040808320938616835292905220546000198114611a0457818110156119f75760405162461bcd60e51b815260206004820152601f60248201527f455243333634333a20496e73756666696369656e7420616c6c6f77616e63650060448201526064016107fd565b611a0484848484036115cd565b50505050565b6001600160a01b038316611a6c5760405162461bcd60e51b8152602060048201526024808201527f4552432d333634333a207472616e736665722066726f6d207a65726f206164646044820152637265737360e01b60648201526084016107fd565b6001600160a01b038216611acd5760405162461bcd60e51b815260206004820152602260248201527f4552432d333634333a207472616e7366657220746f207a65726f206164647265604482015261737360f01b60648201526084016107fd565b6001600160a01b03821660009081526004602052604090205460ff16158015611b0f57506001600160a01b03831660009081526004602052604090205460ff16155b611b5b5760405162461bcd60e51b815260206004820152601760248201527f4552432d333634333a2057616c6c65742066726f7a656e00000000000000000060448201526064016107fd565b6001600160a01b03831660009081526002602052604090205481811015611bc45760405162461bcd60e51b815260206004820181905260248201527f4552432d333634333a20616d6f756e7420657863656564732062616c616e636560448201526064016107fd565b6001600160a01b038416600090815260056020526040902054611be79082612cdc565b821115611c365760405162461bcd60e51b815260206004820152601960248201527f4552432d333634333a20467265657a65642062616c616e63650000000000000060448201526064016107fd565b600a5460405163b9209e3360e01b81526001600160a01b0385811660048301529091169063b9209e3390602401602060405180830381865afa158015611c80573d6000803e3d6000fd5b505050506040513d601f19601f82011682018060405250810190611ca49190612c9b565b611cf05760405162461bcd60e51b815260206004820152601d60248201527f4552432d333634333a20556e7665726966696564206964656e7469747900000060448201526064016107fd565b600b546040516372331c7360e11b81526001600160a01b0386811660048301528581166024830152604482018590529091169063e46638e690606401602060405180830381865afa158015611d49573d6000803e3d6000fd5b505050506040513d601f19601f82011682018060405250810190611d6d9190612c9b565b611db95760405162461bcd60e51b815260206004820152601c60248201527f4552432d333634333a20436f6d706c69616e6365206661696c7572650000000060448201526064016107fd565b6001600160a01b0380851660008181526002602052604080822086860390559286168082529083902080548601905591517fddf252ad1be2c89b69c2b068fc378daa952ba7f163c4a11628f55a4df523b3ef90611e199086815260200190565b60405180910390a3600b546040516322ebca6d60e21b81523360048201526001600160a01b0385811660248301526044820185905290911690638baf29b4906064015b600060405180830381600087803b158015611e7657600080fd5b505af11580156112c9573d6000803e3d6000fd5b611e948282610d96565b610963576000828152602081815260408083206001600160a01b03851684529091529020805460ff19166001179055611eca3390565b6001600160a01b0316816001600160a01b0316837f2f8788117e7eff1d82e926ec794901d17c78024a50270940304540a733656f0d60405160405180910390a45050565b611f188282610d96565b15610963576000828152602081815260408083206001600160a01b0385168085529252808320805460ff1916905551339285917ff6391f5c32d9c69d2a47ea670b442974b53935d1edc7fd64eb21e047a839171b9190a45050565b611f7b612669565b6001805460ff191690557f5db9ee0a495bf2e6ff9c91a7834c1ba4fdd244a5e8aa4e537bd38aeae4b073aa335b6040516001600160a01b03909116815260200160405180910390a1565b6001600160a01b03821661201b5760405162461bcd60e51b815260206004820152601e60248201527f4552432d333634333a206d696e7420746f207a65726f2061646472657373000060448201526064016107fd565b600a5460405163b9209e3360e01b81526001600160a01b0384811660048301529091169063b9209e3390602401602060405180830381865afa158015612065573d6000803e3d6000fd5b505050506040513d601f19601f820116820180604052508101906120899190612c9b565b6120d55760405162461bcd60e51b815260206004820152601d60248201527f4552432d333634333a20556e7665726966696564206964656e7469747900000060448201526064016107fd565b600b546040516372331c7360e11b8152600060048201526001600160a01b038481166024830152604482018490529091169063e46638e690606401602060405180830381865afa15801561212d573d6000803e3d6000fd5b505050506040513d601f19601f820116820180604052508101906121519190612c9b565b61219d5760405162461bcd60e51b815260206004820152601c60248201527f4552432d333634333a20436f6d706c69616e6365206661696c7572650000000060448201526064016107fd565b80600660008282546121af9190612c88565b90915550506001600160a01b038216600090815260026020526040812080548392906121dc908490612c88565b90915550506040518181526001600160a01b038316906000907fddf252ad1be2c89b69c2b068fc378daa952ba7f163c4a11628f55a4df523b3ef9060200160405180910390a3600b54604051635f8dead360e01b81526001600160a01b0384811660048301526024820184905290911690635f8dead390604401600060405180830381600087803b15801561227057600080fd5b505af1158015610d8e573d6000803e3d6000fd5b6001600160a01b038316600090815260026020526040812054828110156122ed5760405162461bcd60e51b815260206004820152601c60248201527f4552432d333634333a2053656e646572206c6f772062616c616e63650000000060448201526064016107fd565b6001600160a01b0385166000908152600560205260408120546123109083612cdc565b9050808411156123a65760006123268286612cdc565b6001600160a01b03881660009081526005602052604090205490915061234d908290612cdc565b6001600160a01b038816600081815260056020526040908190209290925590517f9bed35cb62ad0dba04f9d5bfee4b5bc91443e77da8a65c4c84834c51bb08b0d69061239c9084815260200190565b60405180910390a2505b6123b1868686611a0a565b50600195945050505050565b6001600160a01b03821661241f5760405162461bcd60e51b8152602060048201526024808201527f4552432d333634333a206275726e2066726f6d20746865207a65726f206164646044820152637265737360e01b60648201526084016107fd565b6001600160a01b038216600090815260026020526040902054818110156124885760405162461bcd60e51b815260206004820152601e60248201527f4552432d333634333a206275726e20657863656564732062616c616e6365000060448201526064016107fd565b6001600160a01b0383166000908152600560205260408120546124ab9083612cdc565b9050808311156125415760006124c18285612cdc565b6001600160a01b0386166000908152600560205260409020549091506124e8908290612cdc565b6001600160a01b038616600081815260056020526040908190209290925590517f9bed35cb62ad0dba04f9d5bfee4b5bc91443e77da8a65c4c84834c51bb08b0d6906125379084815260200190565b60405180910390a2505b6001600160a01b03841660008181526002602090815260408083208787039055600680548890039055518681529192917fddf252ad1be2c89b69c2b068fc378daa952ba7f163c4a11628f55a4df523b3ef910160405180910390a3600b5460405163469753b960e11b81526001600160a01b0386811660048301526024820186905290911690638d2ea77290604401611e5c565b6125dd611930565b6001805460ff1916811790557f62e78cea01bee320cd4e420270b5ea74000d11b0c9f74754ebdbfc544b05a25833611fa8565b61261a8282610d96565b61096357612627816126b2565b6126328360206126c4565b604051602001612643929190612cef565b60408051601f198184030181529082905262461bcd60e51b82526107fd916004016128b5565b60015460ff166119765760405162461bcd60e51b815260206004820152601460248201527314185d5cd8589b194e881b9bdd081c185d5cd95960621b60448201526064016107fd565b60606106f06001600160a01b03831660145b606060006126d3836002612d64565b6126de906002612c88565b67ffffffffffffffff8111156126f6576126f6612d7b565b6040519080825280601f01601f191660200182016040528015612720576020820181803683370190505b509050600360fc1b8160008151811061273b5761273b612c3f565b60200101906001600160f81b031916908160001a905350600f60fb1b8160018151811061276a5761276a612c3f565b60200101906001600160f81b031916908160001a905350600061278e846002612d64565b612799906001612c88565b90505b6001811115612811576f181899199a1a9b1b9c1cb0b131b232b360811b85600f16601081106127cd576127cd612c3f565b1a60f81b8282815181106127e3576127e3612c3f565b60200101906001600160f81b031916908160001a90535060049490941c9361280a81612d91565b905061279c565b5083156128605760405162461bcd60e51b815260206004820181905260248201527f537472696e67733a20686578206c656e67746820696e73756666696369656e7460448201526064016107fd565b9392505050565b60006020828403121561287957600080fd5b81356001600160e01b03198116811461286057600080fd5b60005b838110156128ac578181015183820152602001612894565b50506000910152565b60208152600082518060208401526128d4816040850160208701612891565b601f01601f19169190910160400192915050565b80356001600160a01b03811681146128ff57600080fd5b919050565b6000806040838503121561291757600080fd5b612920836128e8565b946020939093013593505050565b60006020828403121561294057600080fd5b612860826128e8565b60008083601f84011261295b57600080fd5b50813567ffffffffffffffff81111561297357600080fd5b6020830191508360208260051b850101111561298e57600080fd5b9250929050565b600080600080604085870312156129ab57600080fd5b843567ffffffffffffffff808211156129c357600080fd5b6129cf88838901612949565b909650945060208701359150808211156129e857600080fd5b506129f587828801612949565b95989497509550505050565b600080600060608486031215612a1657600080fd5b612a1f846128e8565b9250612a2d602085016128e8565b9150604084013590509250925092565b600060208284031215612a4f57600080fd5b5035919050565b60008060408385031215612a6957600080fd5b82359150612a79602084016128e8565b90509250929050565b60008060008060008060608789031215612a9b57600080fd5b863567ffffffffffffffff80821115612ab357600080fd5b612abf8a838b01612949565b90985096506020890135915080821115612ad857600080fd5b612ae48a838b01612949565b90965094506040890135915080821115612afd57600080fd5b50612b0a89828a01612949565b979a9699509497509295939492505050565b600080600060608486031215612b3157600080fd5b612b3a846128e8565b9250612b48602085016128e8565b9150612b56604085016128e8565b90509250925092565b8015158114610a2657600080fd5b60008060408385031215612b8057600080fd5b612b89836128e8565b91506020830135612b9981612b5f565b809150509250929050565b60008060408385031215612bb757600080fd5b612bc0836128e8565b9150612a79602084016128e8565b600181811c90821680612be257607f821691505b602082108103612c0257634e487b7160e01b600052602260045260246000fd5b50919050565b6020808252601d908201527f4552432d333634333a2041727261792073697a65206d69736d61746368000000604082015260600190565b634e487b7160e01b600052603260045260246000fd5b600060208284031215612c6757600080fd5b813561286081612b5f565b634e487b7160e01b600052601160045260246000fd5b808201808211156106f0576106f0612c72565b600060208284031215612cad57600080fd5b815161286081612b5f565b600060208284031215612cca57600080fd5b815161ffff8116811461286057600080fd5b818103818111156106f0576106f0612c72565b7f416363657373436f6e74726f6c3a206163636f756e7420000000000000000000815260008351612d27816017850160208801612891565b7001034b99036b4b9b9b4b733903937b6329607d1b6017918401918201528351612d58816028840160208801612891565b01602801949350505050565b80820281158282048414176106f0576106f0612c72565b634e487b7160e01b600052604160045260246000fd5b600081612da057612da0612c72565b50600019019056feb19546dff01e856fb3f010c267a7b1c60363cf8a4664e21cc89c26224620214ecab5a0bfe0b79d2c4b1c2e02599fa044d115b7511f9659307cb4276950967709a26469706673582212209ec5bdf73b750cde818b92136cc1c71e59e1ac60e8ad382768a036aad67e5fc764736f6c63430008110033",
  "linkReferences": {},
  "deployedLinkReferences": {}
}