{
  "_format": "hh-sol-artifact-1",
  "contractName": "BasicCompliance",
  "sourceName": "contracts/compliance/BasicCompliance.sol",
  "abi": [
    {
      "inputs": [],
      "stateMutability": "nonpayable",
      "type": "constructor"
    },
    {
      "anonymous": false,
      "inputs": [
        {
          "indexed": true,
          "internalType": "bytes32",
          "name": "role",
          "type": "bytes32"
        },
        {
          "indexed": true,
          "internalType": "bytes32",
          "name": "previousAdminRole",
          "type": "bytes32"
        },
        {
          "indexed": true,
          "internalType": "bytes32",
          "name": "newAdminRole",
          "type": "bytes32"
        }
      ],
      "name": "RoleAdminChanged",
      "type": "event"
    },
    {
      "anonymous": false,
      "inputs": [
        {
          "indexed": true,
          "internalType": "bytes32",
          "name": "role",
          "type": "bytes32"
        },
        {
          "indexed": true,
          "internalType": "address",
          "name": "account",
          "type": "address"
        },
        {
          "indexed": true,
          "internalType": "address",
          "name": "sender",
          "type": "address"
        }
      ],
      "name": "RoleGranted",
      "type": "event"
    },
    {
      "anonymous": false,
      "inputs": [
        {
          "indexed": true,
          "internalType": "bytes32",
          "name": "role",
          "type": "bytes32"
        },
        {
          "indexed": true,
          "internalType": "address",
          "name": "account",
          "type": "address"
        },
        {
          "indexed": true,
          "internalType": "address",
          "name": "sender",
          "type": "address"
        }
      ],
      "name": "RoleRevoked",
      "type": "event"
    },
    {
      "anonymous": false,
      "inputs": [
        {
          "indexed": false,
          "internalType": "address",
          "name": "_token",
          "type": "address"
        }
      ],
      "name": "TokenBound",
      "type": "event"
    },
    {
      "anonymous": false,
      "inputs": [
        {
          "indexed": false,
          "internalType": "address",
          "name": "_token",
          "type": "address"
        }
      ],
      "name": "TokenUnbound",
      "type": "event"
    },
    {
      "inputs": [],
      "name": "ADMIN_ROLE",
      "outputs": [
        {
          "internalType": "bytes32",
          "name": "",
          "type": "bytes32"
        }
      ],
      "stateMutability": "view",
      "type": "function"
    },
    {
      "inputs": [],
      "name": "DEFAULT_ADMIN_ROLE",
      "outputs": [
        {
          "internalType": "bytes32",
          "name": "",
          "type": "bytes32"
        }
      ],
      "stateMutability": "view",
      "type": "function"
    },
    {
      "inputs": [],
      "name": "TOKEN_ROLE",
      "outputs": [
        {
          "internalType": "bytes32",
          "name": "",
          "type": "bytes32"
        }
      ],
      "stateMutability": "view",
      "type": "function"
    },
    {
      "inputs": [
        {
          "internalType": "address",
          "name": "_token",
          "type": "address"
        }
      ],
      "name": "bindToken",
      "outputs": [],
      "stateMutability": "nonpayable",
      "type": "function"
    },
    {
      "inputs": [
        {
          "internalType": "address",
          "name": "",
          "type": "address"
        },
        {
          "internalType": "address",
          "name": "",
          "type": "address"
        },
        {
          "internalType": "uint256",
          "name": "",
          "type": "uint256"
        }
      ],
      "name": "canTransfer",
      "outputs": [
        {
          "internalType": "bool",
          "name": "",
          "type": "bool"
        }
      ],
      "stateMutability": "view",
      "type": "function"
    },
    {
      "inputs": [
        {
          "internalType": "address",
          "name": "_to",
          "type": "address"
        },
        {
          "internalType": "uint256",
          "name": "_value",
          "type": "uint256"
        }
      ],
      "name": "created",
      "outputs": [],
      "stateMutability": "nonpayable",
      "type": "function"
    },
    {
      "inputs": [
        {
          "internalType": "address",
          "name": "_from",
          "type": "address"
        },
        {
          "internalType": "uint256",
          "name": "_value",
          "type": "uint256"
        }
      ],
      "name": "destroyed",
      "outputs": [],
      "stateMutability": "nonpayable",
      "type": "function"
    },
    {
      "inputs": [
        {
          "internalType": "bytes32",
          "name": "role",
          "type": "bytes32"
        }
      ],
      "name": "getRoleAdmin",
      "outputs": [
        {
          "internalType": "bytes32",
          "name": "",
          "type": "bytes32"
        }
      ],
      "stateMutability": "view",
      "type": "function"
    },
    {
      "inputs": [
        {
          "internalType": "bytes32",
          "name": "role",
          "type": "bytes32"
        },
        {
          "internalType": "address",
          "name": "account",
          "type": "address"
        }
      ],
      "name": "grantRole",
      "outputs": [],
      "stateMutability": "nonpayable",
      "type": "function"
    },
    {
      "inputs": [
        {
          "internalType": "bytes32",
          "name": "role",
          "type": "bytes32"
        },
        {
          "internalType": "address",
          "name": "account",
          "type": "address"
        }
      ],
      "name": "hasRole",
      "outputs": [
        {
          "internalType": "bool",
          "name": "",
          "type": "bool"
        }
      ],
      "stateMutability": "view",
      "type": "function"
    },
    {
      "inputs": [
        {
          "internalType": "address",
          "name": "_token",
          "type": "address"
        }
      ],
      "name": "isTokenBound",
      "outputs": [
        {
          "internalType": "bool",
          "name": "",
          "type": "bool"
        }
      ],
      "stateMutability": "view",
      "type": "function"
    },
    {
      "inputs": [
        {
          "internalType": "bytes32",
          "name": "role",
          "type": "bytes32"
        },
        {
          "internalType": "address",
          "name": "account",
          "type": "address"
        }
      ],
      "name": "renounceRole",
      "outputs": [],
      "stateMutability": "nonpayable",
      "type": "function"
    },
    {
      "inputs": [
        {
          "internalType": "bytes32",
          "name": "role",
          "type": "bytes32"
        },
        {
          "internalType": "address",
          "name": "account",
          "type": "address"
        }
      ],
      "name": "revokeRole",
      "outputs": [],
      "stateMutability": "nonpayable",
      "type": "function"
    },
    {
      "inputs": [
        {
          "internalType": "bytes4",
          "name": "interfaceId",
          "type": "bytes4"
        }
      ],
      "name": "supportsInterface",
      "outputs": [
        {
          "internalType": "bool",
          "name": "",
          "type": "bool"
        }
      ],
      "stateMutability": "view",
      "type": "function"
    },
    {
      "inputs": [],
      "name": "tokenBound",
      "outputs": [
        {
          "internalType": "contract IToken",
          "name": "",
          "type": "address"
        }
      ],
      "stateMutability": "view",
      "type": "function"
    },
    {
      "inputs": [
        {
          "internalType": "address",
          "name": "_from",
          "type": "address"
        },
        {
          "internalType": "address",
          "name": "_to",
          "type": "address"
        },
        {
          "internalType": "uint256",
          "name": "_value",
          "type": "uint256"
        }
      ],
      "name": "transferred",
      "outputs": [],
      "stateMutability": "nonpayable",
      "type": "function"
    },
    {
      "inputs": [
        {
          "internalType": "address",
          "name": "_token",
          "type": "address"
        }
      ],
      "name": "unbindToken",
      "outputs": [],
      "stateMutability": "nonpayable",
      "type": "function"
    }
  ],
  "bytecode": "0x608060405234801561001057600080fd5b5061001c60003361004b565b6100467fa49807205ce4d355092ef5a8a18f56e8913cf4a201fbe287825b095693c217753361004b565b6100ea565b6000828152602081815260408083206001600160a01b038516845290915290205460ff166100e6576000828152602081815260408083206001600160a01b03851684529091529020805460ff191660011790556100a53390565b6001600160a01b0316816001600160a01b0316837f2f8788117e7eff1d82e926ec794901d17c78024a50270940304540a733656f0d60405160405180910390a45b5050565b610ba5806100f96000396000f3fe608060405234801561001057600080fd5b506004361061010b5760003560e01c80638301057b116100a257806393e62f071161007157806393e62f071461023d578063993e8b9514610268578063a217fddf1461028a578063d547741f14610292578063e46638e6146102a557600080fd5b80638301057b146101f05780638baf29b4146102175780638d2ea772146101b757806391d148541461022a57600080fd5b80633ff5aa02116100de5780633ff5aa021461019157806340db3b50146101a45780635f8dead3146101b757806375b238fc146101c957600080fd5b806301ffc9a714610110578063248a9ca3146101385780632f2ff15d1461016957806336568abe1461017e575b600080fd5b61012361011e366004610914565b6102bc565b60405190151581526020015b60405180910390f35b61015b61014636600461093e565b60009081526020819052604090206001015490565b60405190815260200161012f565b61017c610177366004610973565b6102f3565b005b61017c61018c366004610973565b610318565b61017c61019f36600461099f565b610397565b61017c6101b236600461099f565b610476565b61017c6101c53660046109ba565b5050565b61015b7fa49807205ce4d355092ef5a8a18f56e8913cf4a201fbe287825b095693c2177581565b61015b7fa7197c38d9c4c7450c7f2cd20d0a17cbe7c344190d6c82a6b49a146e62439ae481565b61017c6102253660046109e4565b505050565b610123610238366004610973565b6105c2565b600254610250906001600160a01b031681565b6040516001600160a01b03909116815260200161012f565b61012361027636600461099f565b6002546001600160a01b0391821691161490565b61015b600081565b61017c6102a0366004610973565b6105eb565b6101236102b33660046109e4565b60019392505050565b60006001600160e01b03198216637965db0b60e01b14806102ed57506301ffc9a760e01b6001600160e01b03198316145b92915050565b60008281526020819052604090206001015461030e81610610565b610225838361061d565b6001600160a01b038116331461038d5760405162461bcd60e51b815260206004820152602f60248201527f416363657373436f6e74726f6c3a2063616e206f6e6c792072656e6f756e636560448201526e103937b632b9903337b91039b2b63360891b60648201526084015b60405180910390fd5b6101c582826106a1565b6103c17fa49807205ce4d355092ef5a8a18f56e8913cf4a201fbe287825b095693c21775336105c2565b806103d557506002546001600160a01b0316155b6104215760405162461bcd60e51b815260206004820152601f60248201527f4552432d333634333a2043616c6c6572206e6f7420617574686f72697a6564006044820152606401610384565b600280546001600160a01b0319166001600160a01b0383169081179091556040519081527f2de35142b19ed5a07796cf30791959c592018f70b1d2d7c460eef8ffe713692b906020015b60405180910390a150565b6104a07fa49807205ce4d355092ef5a8a18f56e8913cf4a201fbe287825b095693c21775336105c2565b806104d057506104d07fa7197c38d9c4c7450c7f2cd20d0a17cbe7c344190d6c82a6b49a146e62439ae4336105c2565b61051c5760405162461bcd60e51b815260206004820152601f60248201527f4552432d333634333a2043616c6c6572206e6f7420617574686f72697a6564006044820152606401610384565b6002546001600160a01b038281169116146105795760405162461bcd60e51b815260206004820152601960248201527f4552432d333634333a20546f6b656e206e6f7420626f756e64000000000000006044820152606401610384565b600280546001600160a01b03191690556040516001600160a01b03821681527f28a4ca7134a3b3f9aff286e79ad3daadb4a06d1b43d037a3a98bdc074edd9b7a9060200161046b565b6000918252602082815260408084206001600160a01b0393909316845291905290205460ff1690565b60008281526020819052604090206001015461060681610610565b61022583836106a1565b61061a8133610706565b50565b61062782826105c2565b6101c5576000828152602081815260408083206001600160a01b03851684529091529020805460ff1916600117905561065d3390565b6001600160a01b0316816001600160a01b0316837f2f8788117e7eff1d82e926ec794901d17c78024a50270940304540a733656f0d60405160405180910390a45050565b6106ab82826105c2565b156101c5576000828152602081815260408083206001600160a01b0385168085529252808320805460ff1916905551339285917ff6391f5c32d9c69d2a47ea670b442974b53935d1edc7fd64eb21e047a839171b9190a45050565b61071082826105c2565b6101c55761071d8161075f565b610728836020610771565b604051602001610739929190610a44565b60408051601f198184030181529082905262461bcd60e51b825261038491600401610ab9565b60606102ed6001600160a01b03831660145b60606000610780836002610b02565b61078b906002610b19565b67ffffffffffffffff8111156107a3576107a3610b2c565b6040519080825280601f01601f1916602001820160405280156107cd576020820181803683370190505b509050600360fc1b816000815181106107e8576107e8610b42565b60200101906001600160f81b031916908160001a905350600f60fb1b8160018151811061081757610817610b42565b60200101906001600160f81b031916908160001a905350600061083b846002610b02565b610846906001610b19565b90505b60018111156108be576f181899199a1a9b1b9c1cb0b131b232b360811b85600f166010811061087a5761087a610b42565b1a60f81b82828151811061089057610890610b42565b60200101906001600160f81b031916908160001a90535060049490941c936108b781610b58565b9050610849565b50831561090d5760405162461bcd60e51b815260206004820181905260248201527f537472696e67733a20686578206c656e67746820696e73756666696369656e746044820152606401610384565b9392505050565b60006020828403121561092657600080fd5b81356001600160e01b03198116811461090d57600080fd5b60006020828403121561095057600080fd5b5035919050565b80356001600160a01b038116811461096e57600080fd5b919050565b6000806040838503121561098657600080fd5b8235915061099660208401610957565b90509250929050565b6000602082840312156109b157600080fd5b61090d82610957565b600080604083850312156109cd57600080fd5b6109d683610957565b946020939093013593505050565b6000806000606084860312156109f957600080fd5b610a0284610957565b9250610a1060208501610957565b9150604084013590509250925092565b60005b83811015610a3b578181015183820152602001610a23565b50506000910152565b7f416363657373436f6e74726f6c3a206163636f756e7420000000000000000000815260008351610a7c816017850160208801610a20565b7001034b99036b4b9b9b4b733903937b6329607d1b6017918401918201528351610aad816028840160208801610a20565b01602801949350505050565b6020815260008251806020840152610ad8816040850160208701610a20565b601f01601f19169190910160400192915050565b634e487b7160e01b600052601160045260246000fd5b80820281158282048414176102ed576102ed610aec565b808201808211156102ed576102ed610aec565b634e487b7160e01b600052604160045260246000fd5b634e487b7160e01b600052603260045260246000fd5b600081610b6757610b67610aec565b50600019019056fea2646970667358221220a8ce03e44eea25850b513676575a3b51f7a503c5b009519c5f2d9e2a45aed9e264736f6c63430008110033",
  "linkReferences": {},
  "deployedLinkReferences": {}
}