{
    "abi": [
        {
            "type": "constructor",
            "inputs": [
                {
                    "name": "implementation",
                    "type": "address",
                    "internalType": "address"
                }
            ],
            "stateMutability": "nonpayable"
        },
        {
            "type": "function",
            "name": "getImplementation",
            "inputs": [],
            "outputs": [
                {
                    "name": "",
                    "type": "address",
                    "internalType": "address"
                }
            ],
            "stateMutability": "view"
        },
        {
            "type": "function",
            "name": "owner",
            "inputs": [],
            "outputs": [
                {
                    "name": "",
                    "type": "address",
                    "internalType": "address"
                }
            ],
            "stateMutability": "view"
        },
        {
            "type": "function",
            "name": "renounceOwnership",
            "inputs": [],
            "outputs": [],
            "stateMutability": "nonpayable"
        },
        {
            "type": "function",
            "name": "transferOwnership",
            "inputs": [
                {
                    "name": "newOwner",
                    "type": "address",
                    "internalType": "address"
                }
            ],
            "outputs": [],
            "stateMutability": "nonpayable"
        },
        {
            "type": "function",
            "name": "updateImplementation",
            "inputs": [
                {
                    "name": "_newImplementation",
                    "type": "address",
                    "internalType": "address"
                }
            ],
            "outputs": [],
            "stateMutability": "nonpayable"
        },
        {
            "type": "event",
            "name": "OwnershipTransferred",
            "inputs": [
                {
                    "name": "previousOwner",
                    "type": "address",
                    "indexed": true,
                    "internalType": "address"
                },
                {
                    "name": "newOwner",
                    "type": "address",
                    "indexed": true,
                    "internalType": "address"
                }
            ],
            "anonymous": false
        },
        {
            "type": "event",
            "name": "UpdatedImplementation",
            "inputs": [
                {
                    "name": "newAddress",
                    "type": "address",
                    "indexed": false,
                    "internalType": "address"
                }
            ],
            "anonymous": false
        }
    ],
    "bytecode": {
        "object": "0x60803461011f57601f61045138819003918201601f19168301916001600160401b038311848410176101245780849260209460405283398101031261011f57516001600160a01b038082169182900361011f576000549060018060a01b0319913383821617600055604051913391167f8be0079c531659141344cd1fd0a4f28419497f9722a3daafe3b4186f6b6457e0600080a382156100dd577f87c4e67a766ffddda27f441d63853a36ae64fbb07775a7c59d395e064b204eeb60208480856001541617600155604051908152a1604051610316908161013b8239f35b62461bcd60e51b815260206004820152601f60248201527f696e76616c696420617267756d656e74202d207a65726f2061646472657373006044820152606490fd5b600080fd5b634e487b7160e01b600052604160045260246000fdfe604060808152600436101561001357600080fd5b600090813560e01c8063025b22bc146101cc578063715018a61461016f5780638da5cb5b14610148578063aaf10f42146101205763f2fde38b1461005657600080fd5b3461011c57602036600319011261011c576001600160a01b03600435818116929083900361011857610086610288565b82156100c6575082546001600160a01b0319811683178455167f8be0079c531659141344cd1fd0a4f28419497f9722a3daafe3b4186f6b6457e08380a380f35b5162461bcd60e51b815260206004820152602660248201527f4f776e61626c653a206e6577206f776e657220697320746865207a65726f206160448201526564647265737360d01b6064820152608490fd5b8380fd5b5080fd5b503461011c578160031936011261011c5760015490516001600160a01b039091168152602090f35b503461011c578160031936011261011c57905490516001600160a01b039091168152602090f35b82346101c957806003193601126101c957610188610288565b80546001600160a01b03198116825581906001600160a01b03167f8be0079c531659141344cd1fd0a4f28419497f9722a3daafe3b4186f6b6457e08280a380f35b80fd5b503461011c57602036600319011261011c576004356001600160a01b0381169190829003610284576101fc610288565b811561024157600180546001600160a01b03191683179055519081527f87c4e67a766ffddda27f441d63853a36ae64fbb07775a7c59d395e064b204eeb90602090a180f35b5162461bcd60e51b815260206004820152601f60248201527f696e76616c696420617267756d656e74202d207a65726f2061646472657373006044820152606490fd5b8280fd5b6000546001600160a01b0316330361029c57565b606460405162461bcd60e51b815260206004820152602060248201527f4f776e61626c653a2063616c6c6572206973206e6f7420746865206f776e65726044820152fdfea26469706673582212205ee56ac5e5ff538a55ab6917c8d83c21b0fcf9c023f09abf0f128080187f456f64736f6c63430008110033",
        "linkReferences": {}
    },
    "methodIdentifiers": {
        "getImplementation()": "aaf10f42",
        "owner()": "8da5cb5b",
        "renounceOwnership()": "715018a6",
        "transferOwnership(address)": "f2fde38b",
        "updateImplementation(address)": "025b22bc"
    },
    "id": 23
}