{"abi":[{"type":"constructor","inputs":[{"name":"implementationAuthority","type":"address","internalType":"address"}],"stateMutability":"nonpayable"},{"type":"function","name":"addTokenFactory","inputs":[{"name":"_factory","type":"address","internalType":"address"}],"outputs":[],"stateMutability":"nonpayable"},{"type":"function","name":"createIdentity","inputs":[{"name":"_wallet","type":"address","internalType":"address"},{"name":"_salt","type":"string","internalType":"string"}],"outputs":[{"name":"","type":"address","internalType":"address"}],"stateMutability":"nonpayable"},{"type":"function","name":"createIdentityWithManagementKeys","inputs":[{"name":"_wallet","type":"address","internalType":"address"},{"name":"_salt","type":"string","internalType":"string"},{"name":"_managementKeys","type":"bytes32[]","internalType":"bytes32[]"}],"outputs":[{"name":"","type":"address","internalType":"address"}],"stateMutability":"nonpayable"},{"type":"function","name":"createTokenIdentity","inputs":[{"name":"_token","type":"address","internalType":"address"},{"name":"_tokenOwner","type":"address","internalType":"address"},{"name":"_salt","type":"string","internalType":"string"}],"outputs":[{"name":"","type":"address","internalType":"address"}],"stateMutability":"nonpayable"},{"type":"function","name":"getIdentity","inputs":[{"name":"_wallet","type":"address","internalType":"address"}],"outputs":[{"name":"","type":"address","internalType":"address"}],"stateMutability":"view"},{"type":"function","name":"getToken","inputs":[{"name":"_identity","type":"address","internalType":"address"}],"outputs":[{"name":"","type":"address","internalType":"address"}],"stateMutability":"view"},{"type":"function","name":"getWallets","inputs":[{"name":"_identity","type":"address","internalType":"address"}],"outputs":[{"name":"","type":"address[]","internalType":"address[]"}],"stateMutability":"view"},{"type":"function","name":"implementationAuthority","inputs":[],"outputs":[{"name":"","type":"address","internalType":"address"}],"stateMutability":"view"},{"type":"function","name":"isSaltTaken","inputs":[{"name":"_salt","type":"string","internalType":"string"}],"outputs":[{"name":"","type":"bool","internalType":"bool"}],"stateMutability":"view"},{"type":"function","name":"isTokenFactory","inputs":[{"name":"_factory","type":"address","internalType":"address"}],"outputs":[{"name":"","type":"bool","internalType":"bool"}],"stateMutability":"view"},{"type":"function","name":"linkWallet","inputs":[{"name":"_newWallet","type":"address","internalType":"address"}],"outputs":[],"stateMutability":"nonpayable"},{"type":"function","name":"owner","inputs":[],"outputs":[{"name":"","type":"address","internalType":"address"}],"stateMutability":"view"},{"type":"function","name":"removeTokenFactory","inputs":[{"name":"_factory","type":"address","internalType":"address"}],"outputs":[],"stateMutability":"nonpayable"},{"type":"function","name":"renounceOwnership","inputs":[],"outputs":[],"stateMutability":"nonpayable"},{"type":"function","name":"transferOwnership","inputs":[{"name":"newOwner","type":"address","internalType":"address"}],"outputs":[],"stateMutability":"nonpayable"},{"type":"function","name":"unlinkWallet","inputs":[{"name":"_oldWallet","type":"address","internalType":"address"}],"outputs":[],"stateMutability":"nonpayable"},{"type":"event","name":"Deployed","inputs":[{"name":"_addr","type":"address","indexed":true,"internalType":"address"}],"anonymous":false},{"type":"event","name":"OwnershipTransferred","inputs":[{"name":"previousOwner","type":"address","indexed":true,"internalType":"address"},{"name":"newOwner","type":"address","indexed":true,"internalType":"address"}],"anonymous":false},{"type":"event","name":"TokenFactoryAdded","inputs":[{"name":"factory","type":"address","indexed":true,"internalType":"address"}],"anonymous":false},{"type":"event","name":"TokenFactoryRemoved","inputs":[{"name":"factory","type":"address","indexed":true,"internalType":"address"}],"anonymous":false},{"type":"event","name":"TokenLinked","inputs":[{"name":"token","type":"address","indexed":true,"internalType":"address"},{"name":"identity","type":"address","indexed":true,"internalType":"address"}],"anonymous":false},{"type":"event","name":"WalletLinked","inputs":[{"name":"wallet","type":"address","indexed":true,"internalType":"address"},{"name":"identity","type":"address","indexed":true,"internalType":"address"}],"anonymous":false},{"type":"event","name":"WalletUnlinked","inputs":[{"name":"wallet","type":"address","indexed":true,"internalType":"address"},{"name":"identity","type":"address","indexed":true,"internalType":"address"}],"anonymous":false}],"bytecode":{"object":"0x60a03461010757601f6121df38819003918201601f19168301916001600160401b0383118484101761010c5780849260209460405283398101031261010757516001600160a01b03808216808303610107576000543360018060a01b0319821617600055604051923391167f8be0079c531659141344cd1fd0a4f28419497f9722a3daafe3b4186f6b6457e0600080a3156100c557506080526040516120bc9081610123823960805181818161019b0152818161052601528181610b3f01526114330152f35b62461bcd60e51b815260206004820152601f60248201527f696e76616c696420617267756d656e74202d207a65726f2061646472657373006044820152606490fd5b600080fd5b634e487b7160e01b600052604160045260246000fdfe6080604052600436101562000014575b600080fd5b60003560e01c80632307f88214620001825780632fea7b8114620001775780633a500451146200016c5780633d56ff6614620001615780633e3bc3d71462000156578063422c29a4146200014b5780635027dbe21462000140578063597704381462000135578063715018a6146200012a5780638da5cb5b146200011f5780638e952bfe1462000114578063937529ef14620001095780639ce1936514620000fe578063b8bb812614620000f3578063f2fde38b14620000e85763fe5cd59a14620000de57600080fd5b6200000f62000f96565b506200000f62000ecb565b506200000f62000d94565b506200000f62000cbb565b506200000f62000be8565b506200000f62000a59565b506200000f62000a2d565b506200000f620009ca565b506200000f6200098a565b506200000f62000740565b506200000f620006ae565b506200000f62000624565b506200000f62000389565b506200000f62000234565b506200000f620001f8565b50346200000f5760003660031901126200000f576040517f00000000000000000000000000000000000000000000000000000000000000006001600160a01b03168152602090f35b600435906001600160a01b03821682036200000f57565b602435906001600160a01b03821682036200000f57565b50346200000f5760203660031901126200000f576020620002226200021c620001ca565b62001b14565b6040516001600160a01b039091168152f35b50346200000f5760203660031901126200000f5760043567ffffffffffffffff8082116200000f57366023830112156200000f5781600401359081116200000f5736602482840101116200000f5762000299620002a0916024620002b2940162001b58565b5460ff1690565b60405190151581529081906020820190565b0390f35b50634e487b7160e01b600052604160045260246000fd5b6060810190811067ffffffffffffffff821117620002ea57604052565b620002f4620002b6565b604052565b90601f8019910116810190811067ffffffffffffffff821117620002ea57604052565b81601f820112156200000f5780359067ffffffffffffffff821162000379575b6040519262000356601f8401601f191660200185620002f9565b828452602083830101116200000f57816000926020809301838601378301015290565b62000383620002b6565b6200033c565b50346200000f5760603660031901126200000f57620003a7620001ca565b620003b1620001e1565b9060443567ffffffffffffffff81116200000f57620003d9620002b29136906004016200031c565b336000908152600160205260409020909390620003f69062000299565b8015620005fd575b6200040990620017d6565b620005bd60018060a01b039362000560620005536200054c620004b988851699620004368b1515620010df565b620004458a89161515620010df565b620004b360405160208101816200045d858362001151565b039162000473601f1993848101835282620002f9565b51902090604051620004a86020820192826200049b8560409060208152600060208201520190565b03908101835282620002f9565b51902014156200117f565b62001823565b95620004db620004d5620004d1620002998a6200120c565b1590565b62001234565b620005246200051d62000511620005048860018060a01b03166000526005602052604060002090565b546001600160a01b031690565b6001600160a01b031690565b1562001863565b7f00000000000000000000000000000000000000000000000000000000000000008762001b71565b946200120c565b805460ff19166001179055565b6001600160a01b03811660009081526005602052604090206200059f9084905b80546001600160a01b0319166001600160a01b03909216919091179055565b6001600160a01b038316600090815260066020526040902062000580565b6040519384938216907fa8261d398ddc63db24cc53cd0c63c9464cabad1bc478ede2107b32c1c4010b7a600080a36001600160a01b031682526020820190565b5060005462000409906200061a906001600160a01b031662000511565b33149050620003fe565b50346200000f5760203660031901126200000f576001600160a01b036200064a620001ca565b166000526001602052602060ff604060002054166040519015158152f35b6020908160408183019282815285518094520193019160005b82811062000690575050505090565b83516001600160a01b03168552938101939281019260010162000681565b50346200000f576020806003193601126200000f576001600160a01b0380620006d6620001ca565b1660005260048252604060002091604051809282855492838152019460005282600020926000915b8383106200072657620002b28662000719818a0382620002f9565b6040519182918262000668565b8454811687529581019560019485019490920191620006fe565b50346200000f5760203660031901126200000f576200075e620001ca565b6001600160a01b03818116919062000778831515620010df565b620007863384141562001a0f565b336000908152600360205260409020620007d490620007a59062000504565b82620007cb62000511620005048760018060a01b03166000526003602052604060002090565b91161462001a67565b6200082962000819620007fd620005048560018060a01b03166000526003602052604060002090565b6001600160a01b03909416600090815260036020526040902090565b80546001600160a01b0319169055565b6001600160a01b0382166000908152600460205260409020549160005b8381106200087a575b818316857f35e6fc363a4bf723d53b26c1a751674aca9c3ead425f0591f84f5540ede86f12600080a3005b84620008c062000511620008ab84620008a58760018060a01b03166000526004602052604060002090565b620012e6565b905460039190911b1c6001600160a01b031690565b14620008d757620008d190620016f7565b62000846565b6200093a62000919620008ab849596620009126200090b6200095e9760018060a01b03166000526004602052604060002090565b9162001ab4565b90620012e6565b6001600160a01b0385166000908152600460205260409020909290620012e6565b90919082549060031b9160018060a01b039283811b93849216901b16911916179055565b6001600160a01b0381166000908152600460205260409020620009819062001ace565b8190386200084f565b50346200000f5760203660031901126200000f5760206001600160a01b0380620009b3620001ca565b166000526006825260406000205416604051908152f35b50346200000f5760008060031936011262000a2a57620009e962001086565b80546001600160a01b03198116825581906001600160a01b03167f8be0079c531659141344cd1fd0a4f28419497f9722a3daafe3b4186f6b6457e08280a380f35b80fd5b50346200000f5760003660031901126200000f576000546040516001600160a01b039091168152602090f35b50346200000f5760403660031901126200000f5762000a77620001ca565b60243567ffffffffffffffff81116200000f5762000a9a9036906004016200031c565b9062000aa562001086565b620002b260018060a01b039162000ba862000ae88483169562000aca871515620010df565b62000ae260405160208101816200045d858362001151565b620011cc565b9162000b00620004d5620004d162000299866200120c565b62000b3062000b2962000511620005048460018060a01b03166000526003602052604060002090565b1562001276565b62000b65620005536200054c837f00000000000000000000000000000000000000000000000000000000000000008762001b71565b6001600160a01b038116600090815260036020526040902062000b8a90849062000580565b6001600160a01b038316600090815260046020526040902062001310565b6040519384938216907f8e0c709111388f5480579514d86663489ab1f206fe6da1a0c4d03ac8c318b3c6600080a36001600160a01b031682526020820190565b50346200000f5760203660031901126200000f5762000c06620001ca565b62000c1062001086565b6001600160a01b03811662000c27811515620010df565b600091818352600160205260ff6040842054161562000c86576001600160a01b03166000908152600160205260409020805460ff191690557fd1fd5274f793d20291c0abfe42e1ef63213a11b34996d485f7afb8fe014248518280a280f35b60405162461bcd60e51b815260206004820152600d60248201526c6e6f74206120666163746f727960981b6044820152606490fd5b50346200000f5760203660031901126200000f5762000cd9620001ca565b62000ce362001086565b6001600160a01b03811662000cfa811515620010df565b600091818352600160205260ff60408420541662000d5b576001600160a01b0316600090815260016020526040902062000d349062000553565b7f45eb8ac5344d2d3f306550fe6e969ca4190526313c512afed851d052bf2ab2fd8280a280f35b60405162461bcd60e51b8152602060048201526011602482015270616c7265616479206120666163746f727960781b6044820152606490fd5b50346200000f5760203660031901126200000f5762000db2620001ca565b6001600160a01b038181169162000dcb831515620010df565b33600090815260036020526040902062000df79062000def90620005119062000504565b1515620018bc565b62000e2762000e2062000511620005048460018060a01b03166000526003602052604060002090565b156200191b565b62000e5762000e5062000511620005048460018060a01b03166000526005602052604060002090565b1562001968565b33600090815260036020526040902062000ea29062000e769062000504565b9162000b65606562000e9a8560018060a01b03166000526004602052604060002090565b5410620019b4565b16907f8e0c709111388f5480579514d86663489ab1f206fe6da1a0c4d03ac8c318b3c6600080a3005b50346200000f5760203660031901126200000f5762000ee9620001ca565b62000ef362001086565b6001600160a01b03908116801562000f4257600080546001600160a01b03198116831782559092167f8be0079c531659141344cd1fd0a4f28419497f9722a3daafe3b4186f6b6457e08380a380f35b60405162461bcd60e51b815260206004820152602660248201527f4f776e61626c653a206e6577206f776e657220697320746865207a65726f206160448201526564647265737360d01b6064820152608490fd5b50346200000f5760603660031901126200000f5762000fb4620001ca565b67ffffffffffffffff906024358281116200000f5762000fd99036906004016200031c565b90604435928084116200000f57366023850112156200000f57836004013590811162001076575b8060051b93604051946020926200101a84830188620002f9565b8652602483870191830101913683116200000f57602401905b8282106200106657620002b26200104c8888886200134c565b6040516001600160a01b0390911681529081906020820190565b8135815290830190830162001033565b62001080620002b6565b62001000565b6000546001600160a01b031633036200109b57565b606460405162461bcd60e51b815260206004820152602060248201527f4f776e61626c653a2063616c6c6572206973206e6f7420746865206f776e65726044820152fd5b15620010e757565b60405162461bcd60e51b815260206004820152601f60248201527f696e76616c696420617267756d656e74202d207a65726f2061646472657373006044820152606490fd5b60005b838110620011405750506000910152565b81810151838201526020016200112f565b604091602082526200117381518092816020860152602086860191016200112c565b601f01601f1916010190565b156200118757565b60405162461bcd60e51b815260206004820152601f60248201527f696e76616c696420617267756d656e74202d20656d70747920737472696e67006044820152606490fd5b906200120a602360405180946213d25160ea1b6020830152620011f981518092602086860191016200112c565b8101036003810185520183620002f9565b565b6020620012279181604051938285809451938492016200112c565b8101600281520301902090565b156200123c57565b60405162461bcd60e51b815260206004820152601260248201527139b0b63a1030b63932b0b23c903a30b5b2b760711b6044820152606490fd5b156200127e57565b60405162461bcd60e51b8152602060048201526024808201527f77616c6c657420616c7265616479206c696e6b656420746f20616e206964656e6044820152637469747960e01b6064820152608490fd5b50634e487b7160e01b600052603260045260246000fd5b805482101562001300575b60005260206000200190600090565b6200130a620012cf565b620012f1565b906200093a6200120a92805490680100000000000000008210156200133c575b600182018155620012e6565b62001346620002b6565b62001330565b92916200135862001086565b6001600160a01b038481169390919062001374851515620010df565b604095865191620013dd60209662000ae28886018662001395848362001151565b0396620013ab601f1998898101835282620002f9565b5190208b518a810190620004a881620013d08460409060208152600060208201520190565b038a8101835282620002f9565b96620013f5620004d5620004d1620002998b6200120c565b6200141e62000b2962000511620005048660018060a01b03166000526003602052604060002090565b6200142c8551151562001685565b62001459307f00000000000000000000000000000000000000000000000000000000000000008a62001b71565b906000968216965b86518110156200155e578060008a620014fb8b8f620014cc868e620014c68f8f6200049b620014bb62001499620015149f8762001716565b5189516001600160a01b03909416848e01908152909490939283906020860190565b51902014156200173c565b62001716565b5190519485809481936274e04960e61b8352600483016040600191939293606081019481528260208201520152565b03925af180156200154e575b6200151a575b50620016f7565b62001461565b6200153e908b3d8d1162001546575b620015358183620002f9565b810190620017af565b50386200150d565b503d62001529565b62001558620017c9565b62001507565b5095966200162a9550620015ca8162000553949b620015e796979b949b8151620015a084820192826200049b3086919091602081019260018060a01b03169052565b51902090516353d413c560e01b815260048101919091526001602482015291829081906044820190565b038160008d5af1801562001675575b62001652575b50506200120c565b6001600160a01b03811660009081526003602052604090206200160c90869062000580565b6001600160a01b038516600090815260046020526040902062001310565b7f8e0c709111388f5480579514d86663489ab1f206fe6da1a0c4d03ac8c318b3c6600080a390565b816200166c92903d106200154657620015358183620002f9565b503880620015df565b6200167f620017c9565b620015d9565b156200168d57565b60405162461bcd60e51b815260206004820152602560248201527f696e76616c696420617267756d656e74202d20656d707479206c697374206f66604482015264206b65797360d81b6064820152608490fd5b50634e487b7160e01b600052601160045260246000fd5b600190600019811462001708570190565b62001712620016e0565b0190565b60209181518110156200172c575b60051b010190565b62001736620012cf565b62001724565b156200174457565b60405162461bcd60e51b815260206004820152603b60248201527f696e76616c696420617267756d656e74202d2077616c6c657420697320616c7360448201527f6f206c697374656420696e206d616e6167656d656e74206b65797300000000006064820152608490fd5b908160209103126200000f575180151581036200000f5790565b506040513d6000823e3d90fd5b15620017de57565b60405162461bcd60e51b815260206004820152601e60248201527f6f6e6c7920466163746f7279206f72206f776e65722063616e2063616c6c00006044820152606490fd5b906200120a60256040518094642a37b5b2b760d91b60208301526200185281518092602086860191016200112c565b8101036005810185520183620002f9565b156200186b57565b60405162461bcd60e51b815260206004820152602360248201527f746f6b656e20616c7265616479206c696e6b656420746f20616e206964656e7460448201526269747960e81b6064820152608490fd5b15620018c457565b60405162461bcd60e51b815260206004820152602960248201527f77616c6c6574206e6f74206c696e6b656420746f20616e206964656e746974796044820152680818dbdb9d1c9858dd60ba1b6064820152608490fd5b156200192357565b60405162461bcd60e51b815260206004820152601960248201527f6e65772077616c6c657420616c7265616479206c696e6b6564000000000000006044820152606490fd5b156200197057565b606460405162461bcd60e51b815260206004820152602060248201527f696e76616c696420617267756d656e74202d20746f6b656e20616464726573736044820152fd5b15620019bc57565b60405162461bcd60e51b815260206004820152602560248201527f6d617820616d6f756e74206f662077616c6c6574732070657220494420657863604482015264195959195960da1b6064820152608490fd5b1562001a1757565b60405162461bcd60e51b815260206004820152602260248201527f63616e6e6f742062652063616c6c6564206f6e2073656e646572206164647265604482015261737360f01b6064820152608490fd5b1562001a6f57565b60405162461bcd60e51b815260206004820152601f60248201527f6f6e6c792061206c696e6b65642077616c6c65742063616e20756e6c696e6b006044820152606490fd5b60001981019190821162001ac457565b6200120a620016e0565b8054801562001afe57600019019062001ae88282620012e6565b81549060018060a01b039060031b1b1916905555565b634e487b7160e01b600052603160045260246000fd5b6001600160a01b0390811660008181526005602052604090205482161562001b485760005260056020526040600020541690565b5060036020526040600020541690565b6020908260405193849283378101600281520301902090565b9062001be19161041f62001bfe60409182516020958262001b968880950184620002f9565b8083528383019062001c68823962001bf18651918583019360018060a01b039c8d8092168652168884015287835262001bcf83620002cd565b87519a8b95518092888801906200112c565b840191518093868401906200112c565b01038087520185620002f9565b5162001c2983828162001c1b81830196878151938492016200112c565b8101038084520182620002f9565b51902091805191016000f590813b156200000f5781167ff40fcec21964ffb566044d083b4073f29f7f7929110ea19e1b3ebe375d89055e600080a29056fe6080604090808252346101d457818161041f803803809161002082856101d9565b8339810103126101d457806004610039610046936101fc565b91602093848092016101fc565b6001600160a01b038481169161005d831515610210565b169361006a851515610210565b7f821f3e4d3d679f19eacc940c87acf846ea6eae24a63058ea750304437a62aafc55855163557887a160e11b815292839182905afa9081156101c957600091610191575b50835163189acdbd60e31b8482019081526024808301949094529281526001600160401b03929091606083019184831184841017610175576000938493885251915af4903d1561018b573d90811161017557835190610116601f8201601f19168501836101d9565b81526000833d92013e5b156101335750516101c2908161025d8239f35b606491519062461bcd60e51b82526004820152601660248201527f496e697469616c697a6174696f6e206661696c65642e000000000000000000006044820152fd5b634e487b7160e01b600052604160045260246000fd5b50610120565b908382813d83116101c2575b6101a781836101d9565b810103126101bf57506101b9906101fc565b386100ae565b80fd5b503d61019d565b84513d6000823e3d90fd5b600080fd5b601f909101601f19168101906001600160401b0382119082101761017557604052565b51906001600160a01b03821682036101d457565b1561021757565b60405162461bcd60e51b815260206004820152601f60248201527f696e76616c696420617267756d656e74202d207a65726f2061646472657373006044820152606490fdfe60808060405260043610156100c1575b7f821f3e4d3d679f19eacc940c87acf846ea6eae24a63058ea750304437a62aafc546000918291602090829060049082906001600160a01b031663557887a160e11b82525afa9081156100b4575b8291610087575b503682803781369161270f195a01f43d90816000803e15610083576000f35b6000fd5b6100a691506020903d82116100ac575b6100a08261011f565b01610158565b38610064565b3d9150610097565b6100bc61017f565b61005d565b6000803560e01c632307f882146100d8575061000f565b903461011b578160031936011261011b577f821f3e4d3d679f19eacc940c87acf846ea6eae24a63058ea750304437a62aafc546001600160a01b03168152602090f35b5080fd5b601f80199101166080016080811067ffffffffffffffff82111761014257604052565b634e487b7160e01b600052604160045260246000fd5b602090607f19011261017a576080516001600160a01b038116810361017a5790565b600080fd5b506040513d6000823e3d90fdfea26469706673582212205c46bf090f954d23fd507ccc51ea25cb6065c74e5730e2220d1361bdb7f6135564736f6c63430008110033a2646970667358221220678f0a3d9c48cf582e3ecee8958529bc273d08343b426dc0913d142ac4b4815864736f6c63430008110033","linkReferences":{}},"methodIdentifiers":{"addTokenFactory(address)":"9ce19365","createIdentity(address,string)":"8e952bfe","createIdentityWithManagementKeys(address,string,bytes32[])":"fe5cd59a","createTokenIdentity(address,address,string)":"3d56ff66","getIdentity(address)":"2fea7b81","getToken(address)":"59770438","getWallets(address)":"422c29a4","implementationAuthority()":"2307f882","isSaltTaken(string)":"3a500451","isTokenFactory(address)":"3e3bc3d7","linkWallet(address)":"b8bb8126","owner()":"8da5cb5b","removeTokenFactory(address)":"937529ef","renounceOwnership()":"715018a6","transferOwnership(address)":"f2fde38b","unlinkWallet(address)":"5027dbe2"},"id":18}