{"abi":[{"type":"function","name":"addAgent","inputs":[{"name":"_agent","type":"address","internalType":"address"}],"outputs":[],"stateMutability":"nonpayable"},{"type":"function","name":"batchRegisterIdentity","inputs":[{"name":"_userAddresses","type":"address[]","internalType":"address[]"},{"name":"_identities","type":"address[]","internalType":"contract IIdentity[]"},{"name":"_countries","type":"uint16[]","internalType":"uint16[]"}],"outputs":[],"stateMutability":"nonpayable"},{"type":"function","name":"contains","inputs":[{"name":"_userAddress","type":"address","internalType":"address"}],"outputs":[{"name":"","type":"bool","internalType":"bool"}],"stateMutability":"view"},{"type":"function","name":"deleteIdentity","inputs":[{"name":"_userAddress","type":"address","internalType":"address"}],"outputs":[],"stateMutability":"nonpayable"},{"type":"function","name":"identity","inputs":[{"name":"_userAddress","type":"address","internalType":"address"}],"outputs":[{"name":"","type":"address","internalType":"contract IIdentity"}],"stateMutability":"view"},{"type":"function","name":"identityStorage","inputs":[],"outputs":[{"name":"","type":"address","internalType":"contract IIdentityRegistryStorage"}],"stateMutability":"view"},{"type":"function","name":"init","inputs":[{"name":"_trustedIssuersRegistry","type":"address","internalType":"address"},{"name":"_claimTopicsRegistry","type":"address","internalType":"address"},{"name":"_identityStorage","type":"address","internalType":"address"}],"outputs":[],"stateMutability":"nonpayable"},{"type":"function","name":"investorCountry","inputs":[{"name":"_userAddress","type":"address","internalType":"address"}],"outputs":[{"name":"","type":"uint16","internalType":"uint16"}],"stateMutability":"view"},{"type":"function","name":"isAgent","inputs":[{"name":"_agent","type":"address","internalType":"address"}],"outputs":[{"name":"","type":"bool","internalType":"bool"}],"stateMutability":"view"},{"type":"function","name":"isVerified","inputs":[{"name":"_userAddress","type":"address","internalType":"address"}],"outputs":[{"name":"","type":"bool","internalType":"bool"}],"stateMutability":"view"},{"type":"function","name":"issuersRegistry","inputs":[],"outputs":[{"name":"","type":"address","internalType":"contract ITrustedIssuersRegistry"}],"stateMutability":"view"},{"type":"function","name":"owner","inputs":[],"outputs":[{"name":"","type":"address","internalType":"address"}],"stateMutability":"view"},{"type":"function","name":"registerIdentity","inputs":[{"name":"_userAddress","type":"address","internalType":"address"},{"name":"_identity","type":"address","internalType":"contract IIdentity"},{"name":"_country","type":"uint16","internalType":"uint16"}],"outputs":[],"stateMutability":"nonpayable"},{"type":"function","name":"removeAgent","inputs":[{"name":"_agent","type":"address","internalType":"address"}],"outputs":[],"stateMutability":"nonpayable"},{"type":"function","name":"renounceOwnership","inputs":[],"outputs":[],"stateMutability":"nonpayable"},{"type":"function","name":"setClaimTopicsRegistry","inputs":[{"name":"_claimTopicsRegistry","type":"address","internalType":"address"}],"outputs":[],"stateMutability":"nonpayable"},{"type":"function","name":"setIdentityRegistryStorage","inputs":[{"name":"_identityRegistryStorage","type":"address","internalType":"address"}],"outputs":[],"stateMutability":"nonpayable"},{"type":"function","name":"setTrustedIssuersRegistry","inputs":[{"name":"_trustedIssuersRegistry","type":"address","internalType":"address"}],"outputs":[],"stateMutability":"nonpayable"},{"type":"function","name":"topicsRegistry","inputs":[],"outputs":[{"name":"","type":"address","internalType":"contract IClaimTopicsRegistry"}],"stateMutability":"view"},{"type":"function","name":"transferOwnership","inputs":[{"name":"newOwner","type":"address","internalType":"address"}],"outputs":[],"stateMutability":"nonpayable"},{"type":"function","name":"updateCountry","inputs":[{"name":"_userAddress","type":"address","internalType":"address"},{"name":"_country","type":"uint16","internalType":"uint16"}],"outputs":[],"stateMutability":"nonpayable"},{"type":"function","name":"updateIdentity","inputs":[{"name":"_userAddress","type":"address","internalType":"address"},{"name":"_identity","type":"address","internalType":"contract IIdentity"}],"outputs":[],"stateMutability":"nonpayable"},{"type":"event","name":"AgentAdded","inputs":[{"name":"_agent","type":"address","indexed":true,"internalType":"address"}],"anonymous":false},{"type":"event","name":"AgentRemoved","inputs":[{"name":"_agent","type":"address","indexed":true,"internalType":"address"}],"anonymous":false},{"type":"event","name":"ClaimTopicsRegistrySet","inputs":[{"name":"claimTopicsRegistry","type":"address","indexed":true,"internalType":"address"}],"anonymous":false},{"type":"event","name":"CountryUpdated","inputs":[{"name":"investorAddress","type":"address","indexed":true,"internalType":"address"},{"name":"country","type":"uint16","indexed":true,"internalType":"uint16"}],"anonymous":false},{"type":"event","name":"IdentityRegistered","inputs":[{"name":"investorAddress","type":"address","indexed":true,"internalType":"address"},{"name":"identity","type":"address","indexed":true,"internalType":"contract IIdentity"}],"anonymous":false},{"type":"event","name":"IdentityRemoved","inputs":[{"name":"investorAddress","type":"address","indexed":true,"internalType":"address"},{"name":"identity","type":"address","indexed":true,"internalType":"contract IIdentity"}],"anonymous":false},{"type":"event","name":"IdentityStorageSet","inputs":[{"name":"identityStorage","type":"address","indexed":true,"internalType":"address"}],"anonymous":false},{"type":"event","name":"IdentityUpdated","inputs":[{"name":"oldIdentity","type":"address","indexed":true,"internalType":"contract IIdentity"},{"name":"newIdentity","type":"address","indexed":true,"internalType":"contract IIdentity"}],"anonymous":false},{"type":"event","name":"Initialized","inputs":[{"name":"version","type":"uint8","indexed":false,"internalType":"uint8"}],"anonymous":false},{"type":"event","name":"OwnershipTransferred","inputs":[{"name":"previousOwner","type":"address","indexed":true,"internalType":"address"},{"name":"newOwner","type":"address","indexed":true,"internalType":"address"}],"anonymous":false},{"type":"event","name":"TrustedIssuersRegistrySet","inputs":[{"name":"trustedIssuersRegistry","type":"address","indexed":true,"internalType":"address"}],"anonymous":false}],"bytecode":{"object":"0x60808060405234610016576117f1908161001c8239f35b600080fdfe6080604081815260048036101561001557600080fd5b600092833560e01c908163184b955914610b95575080631ffbb06414610b6f57806326d941ae14610b075780633b239a7f14610a455780633b3e12f414610a1c578063454a03e0146109485780635dbe47e814610922578063653dc9f1146107ad578063670af6a914610745578063715018a6146106e75780637e42683b1461063757806384e79842146105635780638da5cb5b1461053a5780638e098ca11461047457806397a6278e14610398578063a8d29d1d146102d0578063b4f3fcb7146102a7578063b9209e3314610278578063e744d7891461020d578063f0eb5e54146101d6578063f11abfd8146101a95763f2fde38b1461011557600080fd5b346101a55760203660031901126101a55761012e610dbf565b9161013761171a565b6001600160a01b03831615610153578361015084611772565b80f35b906020608492519162461bcd60e51b8352820152602660248201527f4f776e61626c653a206e6577206f776e657220697320746865207a65726f206160448201526564647265737360d01b6064820152fd5b8280fd5b5050346101d257816003193601126101d25760685490516001600160a01b039091168152602090f35b5080fd5b5050346101d25760203660031901126101d2576020906101fc6101f7610dbf565b6115bd565b90516001600160a01b039091168152f35b833461027557602036600319011261027557610227610dbf565b61022f61171a565b606780546001600160a01b0319166001600160a01b039290921691821790557f1b98cb79e6f73020175fe87333f1b91ad6a881519c0afe30340c2599b2b4bde08280a280f35b80fd5b5050346101d25760203660031901126101d25760209061029e610299610dbf565b61103a565b90519015158152f35b5050346101d257816003193601126101d25760675490516001600160a01b039091168152602090f35b5090346101a55760203660031901126101a5576102eb610dbf565b6102fc6102f733611647565b610eb3565b83610306826115bd565b6068546001600160a01b039491939085169190823b1561038b578560248592838551968794859363cf191bcd60e01b855216809c8401525af190811561038f5750610377575b505016907f59d6590e225b81befe259af056324092801080acbb7feab310eb34678871f3278380a380f35b61038090610f16565b61038b57833861034c565b8380fd5b513d84823e3d90fd5b50346101a55760203660031901126101a5576103b2610dbf565b906103bb61171a565b6001600160a01b038216926103d1841515610e1c565b6103da83611647565b156104275750506001600160a01b03166000908152606560205260409020805460ff191690557fed9c8ad8d5a0a66898ea49d2956929c93ae2e8bd50281b2ed897c5d1a6737e0b8280a280f35b906020608492519162461bcd60e51b8352820152602160248201527f526f6c65733a206163636f756e7420646f6573206e6f74206861766520726f6c6044820152606560f81b6064820152fd5b50346101a557816003193601126101a55761048d610dbf565b9183610497610dd5565b926104a46102f733611647565b6104ad856115bd565b9260018060a01b0394856068541696873b1561053657604487918683819587519889968795637402e7c360e11b87521690850152169a8b60248401525af190811561038f5750610522575b5050167fe98082932c8056a0f514da9104e4a66bc2cbaef102ad59d90c4b24220ebf60108380a380f35b61052b90610f16565b61038b5783386104f8565b8480fd5b5050346101d257816003193601126101d25760335490516001600160a01b039091168152602090f35b50346101a55760203660031901126101a55761057d610dbf565b9061058661171a565b6001600160a01b0382169261059c841515610e1c565b6105a583611647565b6105f45750506001600160a01b03166000908152606560205260409020805460ff191660011790557ff68e73cec97f2d70aa641fb26e87a4383686e2efacb648f2165aeb02ac562ec58280a280f35b906020606492519162461bcd60e51b8352820152601f60248201527f526f6c65733a206163636f756e7420616c72656164792068617320726f6c65006044820152fd5b5090346101a557602092836003193601126102755783610655610dbf565b6068548451631c9f84ef60e21b81526001600160a01b039283169681019690965285916024918391165afa9283156106db57819361069b575b505061ffff905191168152f35b909192508381813d83116106d4575b6106b48183610f40565b810103126101d257519061ffff8216820361027557509061ffff3861068e565b503d6106aa565b509051903d90823e3d90fd5b833461027557806003193601126102755761070061171a565b603380546001600160a01b031981169091556000906001600160a01b03167f8be0079c531659141344cd1fd0a4f28419497f9722a3daafe3b4186f6b6457e08280a380f35b83346102755760203660031901126102755761075f610dbf565b61076761171a565b606680546001600160a01b0319166001600160a01b039290921691821790557f7170bf15b246e880b2369cd7c67d057760d8a35149e8c64dde91efa22bcc76d08280a280f35b50346101a55760603660031901126101a55767ffffffffffffffff908035828111610536576107df9036908301610deb565b9290938560249283358181116101a5576107fc9036908701610deb565b956044928335908111610536576108169036908301610deb565b9098855b818110610825578680f35b61083081838e610e8d565b356001600160a01b03818116929183900361090c57610850828d89610e8d565b359080821680920361091e57610868838f8890610e8d565b359061ffff821680920361091a576108826102f733611647565b6068541690813b1561091a57846064898f948f908f958f89889451998a98899763a53410dd60e01b89528801528601528401525af1801561091057908a916108f8575b50927f6ae73635c50d24a45af6fbd5e016ac4bed179addbc8bf24e04ff0fcc6d33af19846108f395a3610e68565b61081a565b61090190610f16565b61090c5788386108c5565b8880fd5b8b513d8c823e3d90fd5b8a80fd5b8980fd5b5050346101d25760203660031901126101d25760209061029e610943610dbf565b61159b565b50346101a55760603660031901126101a557610962610dbf565b61096a610dd5565b6044359361ffff8516809503610a175785926109886102f733611647565b6068546001600160a01b03908116803b15610a1357859283606492848751988996879563a53410dd60e01b875216809c860152169a8b602485015260448401525af190811561038f57506109ff575b50807f6ae73635c50d24a45af6fbd5e016ac4bed179addbc8bf24e04ff0fcc6d33af1991a380f35b610a0890610f16565b6101a55782386109d7565b8580fd5b600080fd5b5050346101d257816003193601126101d25760665490516001600160a01b039091168152602090f35b50346101a557816003193601126101a557610a5e610dbf565b6024359261ffff841680940361053657610a7a6102f733611647565b6068546001600160a01b0390811692869190843b156101a5576044908385519687948593639f3418d560e01b85521680998401528960248401525af1908115610afe5750610aeb575b507f04ed3b726495c2dca1ff1215d9ca54e1a4030abb5e82b0f6ce55702416cee8538380a380f35b610af790939193610f16565b9138610ac3565b513d86823e3d90fd5b833461027557602036600319011261027557610b21610dbf565b610b2961171a565b606880546001600160a01b0319166001600160a01b039290921691821790557f2fa8b95c1db7afe99e3398f3792f008135cedc1fa26b0bb2ecd2352cd166d53c8280a280f35b5050346101d25760203660031901126101d25760209061029e610b90610dbf565b611647565b90503461038b57606036600319011261038b57610bb0610dbf565b90610bb9610dd5565b906044359260018060a01b0391828516809503610dbb5787549060ff8260081c161596878098610dae575b8015610d97575b15610d3f57505060ff198116600117885582919086610d2e575b50169182151580610d23575b80610d1a575b610c2090610e1c565b16826bffffffffffffffffffffffff60a01b828160665416176066558381606754161760675560685416176068557f7170bf15b246e880b2369cd7c67d057760d8a35149e8c64dde91efa22bcc76d08680a27f1b98cb79e6f73020175fe87333f1b91ad6a881519c0afe30340c2599b2b4bde08580a27f2fa8b95c1db7afe99e3398f3792f008135cedc1fa26b0bb2ecd2352cd166d53c8480a2610cd360ff845460081c16610cce816116ba565b6116ba565b610cdc33611772565b610ce4575080f35b60207f7f26b83ff96e1f2b6a682f133852f6798a09c465da95921460cefb38474024989161ff001984541684555160018152a180f35b50831515610c17565b508181161515610c11565b61ffff191661010117885538610c05565b62461bcd60e51b8252602090820152602e60248201527f496e697469616c697a61626c653a20636f6e747261637420697320616c72656160448201526d191e481a5b9a5d1a585b1a5e995960921b6064820152608490fd5b50303b158015610beb5750600160ff841614610beb565b50600160ff841610610be4565b8780fd5b600435906001600160a01b0382168203610a1757565b602435906001600160a01b0382168203610a1757565b9181601f84011215610a175782359167ffffffffffffffff8311610a17576020808501948460051b010111610a1757565b15610e2357565b60405162461bcd60e51b815260206004820152601f60248201527f696e76616c696420617267756d656e74202d207a65726f2061646472657373006044820152606490fd5b6000198114610e775760010190565b634e487b7160e01b600052601160045260246000fd5b9190811015610e9d5760051b0190565b634e487b7160e01b600052603260045260246000fd5b15610eba57565b60405162461bcd60e51b815260206004820152602e60248201527f4167656e74526f6c653a2063616c6c657220646f6573206e6f7420686176652060448201526d746865204167656e7420726f6c6560901b6064820152608490fd5b67ffffffffffffffff8111610f2a57604052565b634e487b7160e01b600052604160045260246000fd5b90601f8019910116810190811067ffffffffffffffff821117610f2a57604052565b67ffffffffffffffff8111610f2a5760051b60200190565b8051821015610e9d5760209160051b010190565b60005b838110610fa15750506000910152565b8181015183820152602001610f91565b9092919267ffffffffffffffff8111610f2a5760405191610fdc601f8301601f191660200184610f40565b829482845282820111610a17576020610ff6930190610f8e565b565b9080601f83011215610a1757815161101292602001610fb1565b90565b9060209161102e81518092818552858086019101610f8e565b601f01601f1916010190565b6001600160a01b03918261104d836115bd565b161561159357826066541660408051809581936337c2758160e21b835260009283916004998a915afa9384156115895782946114f7575b508351156114eb5781908060675416955b85518310156114dd576110a88387610f7a565b51908551916352c111d160e01b83528a83015284826024818b5afa9182156114d3578592611434575b508151978815611426576110e489610f62565b986110f188519a8b610f40565b808a52611100601f1991610f62565b013660208b0137855b8351811015611184578461111d8286610f7a565b5116611129878b610f7a565b51895190602082019283528a8201528981526060810181811067ffffffffffffffff821117611171578a5251902061116c9190611166828d610f7a565b52610e68565b611109565b634e487b7160e01b8a5260418f5260248afd5b50909994979592989150875b865181101561140c57896111a3846115bd565b16896111af838a610f7a565b51602487518094819363c9100bcb60e01b83528c8301525afa8015611402578786928d8d8d898c968384968592611341575b506111ec8985610f7a565b510361131b5761123e859461120f60209a611209611250966115bd565b96610f7a565b519a519a8b998a98899763604b4d3760e11b895216908701526024860152608060448601526084850190611015565b83810360031901606485015290611015565b0392165afa8a91816112de575b506112a55750865160001981019081116112925781146112855761128090610e68565b611190565b5050505050505050905090565b634e487b7160e01b8a526011875260248afd5b806112d5575b15806112bf575b6112855761128090610e68565b50865160001981019081116112925781146112b2565b875191506112ab565b9091506020813d602011611313575b816112fa60209383610f40565b8101031261091a5751801515810361091a57903861125d565b3d91506112ed565b505050505050505050865160001981019081116112925781146112855761128090610e68565b99505050505050505050503d808b833e61135b8183610f40565b81019060c08183031261091a57805186820151908d821682036113fe5760608301519367ffffffffffffffff948581116113f6578161139b918601610ff8565b9460808501518181116113fa57826113b4918701610ff8565b9460a08101519182116113fa570181601f820112156113f657938f91898f91958c98958f978f99908160206113eb93519101610fb1565b5090959390386111e1565b8e80fd5b8f80fd5b8c80fd5b85513d8c823e3d90fd5b509261141f919892955098969398610e68565b9195611095565b509850505050935050505090565b9091503d8086833e6114468183610f40565b81019060209081818403126114cf5780519067ffffffffffffffff8211610dbb57019180601f840112156114cf57825161147f81610f62565b9361148c8a519586610f40565b818552838086019260051b82010192831161090c578301905b8282106114b7575050505090386110d1565b8151878116810361091e5781529083019083016114a5565b8680fd5b86513d87823e3d90fd5b975050505050505050600190565b50505050915050600190565b9093503d8083833e6115098183610f40565b810190602090818184031261038b5780519067ffffffffffffffff821161053657019180601f8401121561038b57825161154281610f62565b9361154f87519586610f40565b818552838086019260051b820101928311610a13578301905b82821061157a57505050509238611084565b81518152908301908301611568565b83513d84823e3d90fd5b915050600090565b6001600160a01b03906115ad906115bd565b16156115b857600190565b600090565b606854604051637988d3a560e01b81526001600160a01b039283166004820152906020908290602490829086165afa90811561163b57600091611601575b50905090565b6020813d8211611633575b8161161960209383610f40565b810103126101d257519182168203610275575080386115fb565b3d915061160c565b6040513d6000823e3d90fd5b6001600160a01b0316801561166a57600052606560205260ff6040600020541690565b60405162461bcd60e51b815260206004820152602260248201527f526f6c65733a206163636f756e7420697320746865207a65726f206164647265604482015261737360f01b6064820152608490fd5b156116c157565b60405162461bcd60e51b815260206004820152602b60248201527f496e697469616c697a61626c653a20636f6e7472616374206973206e6f74206960448201526a6e697469616c697a696e6760a81b6064820152608490fd5b6033546001600160a01b0316330361172e57565b606460405162461bcd60e51b815260206004820152602060248201527f4f776e61626c653a2063616c6c6572206973206e6f7420746865206f776e65726044820152fd5b603380546001600160a01b039283166001600160a01b0319821681179092559091167f8be0079c531659141344cd1fd0a4f28419497f9722a3daafe3b4186f6b6457e0600080a356fea2646970667358221220953cd489efcfa1d76e0c428bf0af47682d9de8ee55787e5ea3f740ff145d7e3b64736f6c63430008110033","linkReferences":{}},"methodIdentifiers":{"addAgent(address)":"84e79842","batchRegisterIdentity(address[],address[],uint16[])":"653dc9f1","contains(address)":"5dbe47e8","deleteIdentity(address)":"a8d29d1d","identity(address)":"f0eb5e54","identityStorage()":"f11abfd8","init(address,address,address)":"184b9559","investorCountry(address)":"7e42683b","isAgent(address)":"1ffbb064","isVerified(address)":"b9209e33","issuersRegistry()":"b4f3fcb7","owner()":"8da5cb5b","registerIdentity(address,address,uint16)":"454a03e0","removeAgent(address)":"97a6278e","renounceOwnership()":"715018a6","setClaimTopicsRegistry(address)":"670af6a9","setIdentityRegistryStorage(address)":"26d941ae","setTrustedIssuersRegistry(address)":"e744d789","topicsRegistry()":"3b3e12f4","transferOwnership(address)":"f2fde38b","updateCountry(address,uint16)":"3b239a7f","updateIdentity(address,address)":"8e098ca1"},"id":19}