{
  "_format": "hh-sol-artifact-1",
  "contractName": "IdentityRegistry",
  "sourceName": "contracts/registry/IdentityRegistry.sol",
  "abi": [
    {
      "inputs": [
        {
          "internalType": "contract IClaimIssuersRegistry",
          "name": "_claimIssuersRegistry",
          "type": "address"
        },
        {
          "internalType": "contract IClaimTopicsRegistry",
          "name": "_claimTopicsRegistry",
          "type": "address"
        },
        {
          "internalType": "contract IIdentityRegistryStorage",
          "name": "_identityStorage",
          "type": "address"
        }
      ],
      "stateMutability": "nonpayable",
      "type": "constructor"
    },
    {
      "anonymous": false,
      "inputs": [
        {
          "indexed": true,
          "internalType": "contract IClaimIssuersRegistry",
          "name": "claimIssuersRegistry",
          "type": "address"
        }
      ],
      "name": "ClaimIssuersRegistrySet",
      "type": "event"
    },
    {
      "anonymous": false,
      "inputs": [
        {
          "indexed": true,
          "internalType": "contract IClaimTopicsRegistry",
          "name": "claimTopicsRegistry",
          "type": "address"
        }
      ],
      "name": "ClaimTopicsRegistrySet",
      "type": "event"
    },
    {
      "anonymous": false,
      "inputs": [
        {
          "indexed": true,
          "internalType": "address",
          "name": "investorAddress",
          "type": "address"
        },
        {
          "indexed": true,
          "internalType": "uint16",
          "name": "country",
          "type": "uint16"
        }
      ],
      "name": "CountryUpdated",
      "type": "event"
    },
    {
      "anonymous": false,
      "inputs": [
        {
          "indexed": true,
          "internalType": "address",
          "name": "investorAddress",
          "type": "address"
        },
        {
          "indexed": true,
          "internalType": "contract IIdentity",
          "name": "identity",
          "type": "address"
        }
      ],
      "name": "IdentityRegistered",
      "type": "event"
    },
    {
      "anonymous": false,
      "inputs": [
        {
          "indexed": true,
          "internalType": "address",
          "name": "investorAddress",
          "type": "address"
        },
        {
          "indexed": true,
          "internalType": "contract IIdentity",
          "name": "identity",
          "type": "address"
        }
      ],
      "name": "IdentityRemoved",
      "type": "event"
    },
    {
      "anonymous": false,
      "inputs": [
        {
          "indexed": true,
          "internalType": "contract IIdentityRegistryStorage",
          "name": "identityStorage",
          "type": "address"
        }
      ],
      "name": "IdentityStorageSet",
      "type": "event"
    },
    {
      "anonymous": false,
      "inputs": [
        {
          "indexed": true,
          "internalType": "contract IIdentity",
          "name": "oldIdentity",
          "type": "address"
        },
        {
          "indexed": true,
          "internalType": "contract IIdentity",
          "name": "newIdentity",
          "type": "address"
        }
      ],
      "name": "IdentityUpdated",
      "type": "event"
    },
    {
      "anonymous": false,
      "inputs": [
        {
          "indexed": true,
          "internalType": "bytes32",
          "name": "role",
          "type": "bytes32"
        },
        {
          "indexed": true,
          "internalType": "bytes32",
          "name": "previousAdminRole",
          "type": "bytes32"
        },
        {
          "indexed": true,
          "internalType": "bytes32",
          "name": "newAdminRole",
          "type": "bytes32"
        }
      ],
      "name": "RoleAdminChanged",
      "type": "event"
    },
    {
      "anonymous": false,
      "inputs": [
        {
          "indexed": true,
          "internalType": "bytes32",
          "name": "role",
          "type": "bytes32"
        },
        {
          "indexed": true,
          "internalType": "address",
          "name": "account",
          "type": "address"
        },
        {
          "indexed": true,
          "internalType": "address",
          "name": "sender",
          "type": "address"
        }
      ],
      "name": "RoleGranted",
      "type": "event"
    },
    {
      "anonymous": false,
      "inputs": [
        {
          "indexed": true,
          "internalType": "bytes32",
          "name": "role",
          "type": "bytes32"
        },
        {
          "indexed": true,
          "internalType": "address",
          "name": "account",
          "type": "address"
        },
        {
          "indexed": true,
          "internalType": "address",
          "name": "sender",
          "type": "address"
        }
      ],
      "name": "RoleRevoked",
      "type": "event"
    },
    {
      "inputs": [],
      "name": "AGENT_ROLE",
      "outputs": [
        {
          "internalType": "bytes32",
          "name": "",
          "type": "bytes32"
        }
      ],
      "stateMutability": "view",
      "type": "function"
    },
    {
      "inputs": [],
      "name": "DEFAULT_ADMIN_ROLE",
      "outputs": [
        {
          "internalType": "bytes32",
          "name": "",
          "type": "bytes32"
        }
      ],
      "stateMutability": "view",
      "type": "function"
    },
    {
      "inputs": [],
      "name": "OWNER_ROLE",
      "outputs": [
        {
          "internalType": "bytes32",
          "name": "",
          "type": "bytes32"
        }
      ],
      "stateMutability": "view",
      "type": "function"
    },
    {
      "inputs": [
        {
          "internalType": "address[]",
          "name": "_userAddresses",
          "type": "address[]"
        },
        {
          "internalType": "contract IIdentity[]",
          "name": "_identities",
          "type": "address[]"
        },
        {
          "internalType": "uint16[]",
          "name": "_countries",
          "type": "uint16[]"
        }
      ],
      "name": "batchRegisterIdentity",
      "outputs": [],
      "stateMutability": "nonpayable",
      "type": "function"
    },
    {
      "inputs": [
        {
          "internalType": "address",
          "name": "_userAddress",
          "type": "address"
        }
      ],
      "name": "contains",
      "outputs": [
        {
          "internalType": "bool",
          "name": "",
          "type": "bool"
        }
      ],
      "stateMutability": "view",
      "type": "function"
    },
    {
      "inputs": [
        {
          "internalType": "address",
          "name": "_userAddress",
          "type": "address"
        }
      ],
      "name": "deleteIdentity",
      "outputs": [],
      "stateMutability": "nonpayable",
      "type": "function"
    },
    {
      "inputs": [
        {
          "internalType": "bytes32",
          "name": "role",
          "type": "bytes32"
        }
      ],
      "name": "getRoleAdmin",
      "outputs": [
        {
          "internalType": "bytes32",
          "name": "",
          "type": "bytes32"
        }
      ],
      "stateMutability": "view",
      "type": "function"
    },
    {
      "inputs": [
        {
          "internalType": "bytes32",
          "name": "role",
          "type": "bytes32"
        },
        {
          "internalType": "address",
          "name": "account",
          "type": "address"
        }
      ],
      "name": "grantRole",
      "outputs": [],
      "stateMutability": "nonpayable",
      "type": "function"
    },
    {
      "inputs": [
        {
          "internalType": "bytes32",
          "name": "role",
          "type": "bytes32"
        },
        {
          "internalType": "address",
          "name": "account",
          "type": "address"
        }
      ],
      "name": "hasRole",
      "outputs": [
        {
          "internalType": "bool",
          "name": "",
          "type": "bool"
        }
      ],
      "stateMutability": "view",
      "type": "function"
    },
    {
      "inputs": [
        {
          "internalType": "address",
          "name": "_userAddress",
          "type": "address"
        }
      ],
      "name": "identity",
      "outputs": [
        {
          "internalType": "contract IIdentity",
          "name": "",
          "type": "address"
        }
      ],
      "stateMutability": "view",
      "type": "function"
    },
    {
      "inputs": [],
      "name": "identityStorage",
      "outputs": [
        {
          "internalType": "contract IIdentityRegistryStorage",
          "name": "",
          "type": "address"
        }
      ],
      "stateMutability": "view",
      "type": "function"
    },
    {
      "inputs": [
        {
          "internalType": "address",
          "name": "_userAddress",
          "type": "address"
        }
      ],
      "name": "investorCountry",
      "outputs": [
        {
          "internalType": "uint16",
          "name": "",
          "type": "uint16"
        }
      ],
      "stateMutability": "view",
      "type": "function"
    },
    {
      "inputs": [
        {
          "internalType": "address",
          "name": "_userAddress",
          "type": "address"
        }
      ],
      "name": "isVerified",
      "outputs": [
        {
          "internalType": "bool",
          "name": "",
          "type": "bool"
        }
      ],
      "stateMutability": "view",
      "type": "function"
    },
    {
      "inputs": [],
      "name": "issuersRegistry",
      "outputs": [
        {
          "internalType": "contract IClaimIssuersRegistry",
          "name": "",
          "type": "address"
        }
      ],
      "stateMutability": "view",
      "type": "function"
    },
    {
      "inputs": [
        {
          "internalType": "address",
          "name": "_userAddress",
          "type": "address"
        },
        {
          "internalType": "contract IIdentity",
          "name": "_identity",
          "type": "address"
        },
        {
          "internalType": "uint16",
          "name": "_country",
          "type": "uint16"
        }
      ],
      "name": "registerIdentity",
      "outputs": [],
      "stateMutability": "nonpayable",
      "type": "function"
    },
    {
      "inputs": [
        {
          "internalType": "bytes32",
          "name": "role",
          "type": "bytes32"
        },
        {
          "internalType": "address",
          "name": "account",
          "type": "address"
        }
      ],
      "name": "renounceRole",
      "outputs": [],
      "stateMutability": "nonpayable",
      "type": "function"
    },
    {
      "inputs": [
        {
          "internalType": "bytes32",
          "name": "role",
          "type": "bytes32"
        },
        {
          "internalType": "address",
          "name": "account",
          "type": "address"
        }
      ],
      "name": "revokeRole",
      "outputs": [],
      "stateMutability": "nonpayable",
      "type": "function"
    },
    {
      "inputs": [
        {
          "internalType": "contract IClaimIssuersRegistry",
          "name": "_claimIssuersRegistry",
          "type": "address"
        }
      ],
      "name": "setClaimIssuersRegistry",
      "outputs": [],
      "stateMutability": "nonpayable",
      "type": "function"
    },
    {
      "inputs": [
        {
          "internalType": "contract IClaimTopicsRegistry",
          "name": "_claimTopicsRegistry",
          "type": "address"
        }
      ],
      "name": "setClaimTopicsRegistry",
      "outputs": [],
      "stateMutability": "nonpayable",
      "type": "function"
    },
    {
      "inputs": [
        {
          "internalType": "contract IIdentityRegistryStorage",
          "name": "_identityRegistryStorage",
          "type": "address"
        }
      ],
      "name": "setIdentityRegistryStorage",
      "outputs": [],
      "stateMutability": "nonpayable",
      "type": "function"
    },
    {
      "inputs": [
        {
          "internalType": "bytes4",
          "name": "interfaceId",
          "type": "bytes4"
        }
      ],
      "name": "supportsInterface",
      "outputs": [
        {
          "internalType": "bool",
          "name": "",
          "type": "bool"
        }
      ],
      "stateMutability": "view",
      "type": "function"
    },
    {
      "inputs": [],
      "name": "topicsRegistry",
      "outputs": [
        {
          "internalType": "contract IClaimTopicsRegistry",
          "name": "",
          "type": "address"
        }
      ],
      "stateMutability": "view",
      "type": "function"
    },
    {
      "inputs": [
        {
          "internalType": "address",
          "name": "_userAddress",
          "type": "address"
        },
        {
          "internalType": "uint16",
          "name": "_country",
          "type": "uint16"
        }
      ],
      "name": "updateCountry",
      "outputs": [],
      "stateMutability": "nonpayable",
      "type": "function"
    },
    {
      "inputs": [
        {
          "internalType": "address",
          "name": "_userAddress",
          "type": "address"
        },
        {
          "internalType": "contract IIdentity",
          "name": "_identity",
          "type": "address"
        }
      ],
      "name": "updateIdentity",
      "outputs": [],
      "stateMutability": "nonpayable",
      "type": "function"
    }
  ],
  "bytecode": "0x60806040523480156200001157600080fd5b5060405162001ce938038062001ce9833981016040819052620000349162000283565b6001600160a01b038316158015906200005557506001600160a01b03821615155b80156200006a57506001600160a01b03811615155b620000bb5760405162461bcd60e51b815260206004820152601e60248201527f4552432d333634333a20496e76616c6964207a65726f20616464726573730000604482015260640160405180910390fd5b620000c8600033620001c9565b620000f47fb19546dff01e856fb3f010c267a7b1c60363cf8a4664e21cc89c26224620214e33620001c9565b600180546001600160a01b038085166001600160a01b031992831681179093556002805487831690841617905560038054918516919092161790556040517f7170bf15b246e880b2369cd7c67d057760d8a35149e8c64dde91efa22bcc76d090600090a26040516001600160a01b038416907f811d3016da8008875247af93af072ec7801e39d9f4c686fec82ab600d8e555e890600090a26040516001600160a01b038216907f2fa8b95c1db7afe99e3398f3792f008135cedc1fa26b0bb2ecd2352cd166d53c90600090a2505050620002d7565b6000828152602081815260408083206001600160a01b038516845290915290205460ff1662000266576000828152602081815260408083206001600160a01b03851684529091529020805460ff19166001179055620002253390565b6001600160a01b0316816001600160a01b0316837f2f8788117e7eff1d82e926ec794901d17c78024a50270940304540a733656f0d60405160405180910390a45b5050565b6001600160a01b03811681146200028057600080fd5b50565b6000806000606084860312156200029957600080fd5b8351620002a6816200026a565b6020850151909350620002b9816200026a565b6040850151909250620002cc816200026a565b809150509250925092565b611a0280620002e76000396000f3fe608060405234801561001057600080fd5b50600436106101585760003560e01c80636bc72c90116100c3578063b4f3fcb71161007c578063b4f3fcb714610304578063b9209e3314610315578063d547741f14610328578063e58378bb1461033b578063f0eb5e5414610350578063f11abfd81461036357600080fd5b80636bc72c901461028a5780637e42683b1461029d5780638e098ca1146102c357806391d14854146102d6578063a217fddf146102e9578063a8d29d1d146102f157600080fd5b80633b239a7f116101155780633b239a7f146102065780633b3e12f414610219578063454a03e01461023e5780635dbe47e814610251578063653dc9f114610264578063670af6a91461027757600080fd5b806301ffc9a71461015d57806322459e1814610185578063248a9ca3146101a857806326d941ae146101cb5780632f2ff15d146101e057806336568abe146101f3575b600080fd5b61017061016b366004611266565b610374565b60405190151581526020015b60405180910390f35b61019a6000805160206119ad83398151915281565b60405190815260200161017c565b61019a6101b6366004611290565b60009081526020819052604090206001015490565b6101de6101d93660046112be565b6103ab565b005b6101de6101ee3660046112db565b61040e565b6101de6102013660046112db565b610438565b6101de61021436600461131b565b6104bb565b6001546001600160a01b03165b6040516001600160a01b03909116815260200161017c565b6101de61024c366004611349565b61057b565b61017061025f3660046112be565b6105a4565b6101de6102723660046113e0565b6105cd565b6101de6102853660046112be565b61071f565b6101de6102983660046112be565b610782565b6102b06102ab3660046112be565b6107e5565b60405161ffff909116815260200161017c565b6101de6102d136600461147a565b610854565b6101706102e43660046112db565b61091e565b61019a600081565b6101de6102ff3660046112be565b610947565b6002546001600160a01b0316610226565b6101706103233660046112be565b610a08565b6101de6103363660046112db565b610b13565b61019a60008051602061198d83398151915281565b61022661035e3660046112be565b610b38565b6003546001600160a01b0316610226565b60006001600160e01b03198216637965db0b60e01b14806103a557506301ffc9a760e01b6001600160e01b03198316145b92915050565b60008051602061198d8339815191526103c381610ba7565b600380546001600160a01b0319166001600160a01b0384169081179091556040517f2fa8b95c1db7afe99e3398f3792f008135cedc1fa26b0bb2ecd2352cd166d53c90600090a25050565b60008281526020819052604090206001015461042981610ba7565b6104338383610bb4565b505050565b6001600160a01b03811633146104ad5760405162461bcd60e51b815260206004820152602f60248201527f416363657373436f6e74726f6c3a2063616e206f6e6c792072656e6f756e636560448201526e103937b632b9903337b91039b2b63360891b60648201526084015b60405180910390fd5b6104b78282610c38565b5050565b6000805160206119ad8339815191526104d381610ba7565b600354604051639f3418d560e01b81526001600160a01b03858116600483015261ffff8516602483015290911690639f3418d590604401600060405180830381600087803b15801561052457600080fd5b505af1158015610538573d6000803e3d6000fd5b505060405161ffff851692506001600160a01b03861691507f04ed3b726495c2dca1ff1215d9ca54e1a4030abb5e82b0f6ce55702416cee85390600090a3505050565b6000805160206119ad83398151915261059381610ba7565b61059e848484610c9d565b50505050565b6000806105b083610b38565b6001600160a01b0316146105c55760016103a5565b600092915050565b6000805160206119ad8339815191526105e581610ba7565b858481146106355760405162461bcd60e51b815260206004820152601d60248201527f4552432d333634333a2041727261792073697a65206d69736d6174636800000060448201526064016104a4565b8083146106845760405162461bcd60e51b815260206004820152601d60248201527f4552432d333634333a2041727261792073697a65206d69736d6174636800000060448201526064016104a4565b60005b818110156107145761070c8989838181106106a4576106a46114a8565b90506020020160208101906106b991906112be565b8888848181106106cb576106cb6114a8565b90506020020160208101906106e091906112be565b8787858181106106f2576106f26114a8565b905060200201602081019061070791906114be565b610c9d565b600101610687565b505050505050505050565b60008051602061198d83398151915261073781610ba7565b600180546001600160a01b0319166001600160a01b0384169081179091556040517f7170bf15b246e880b2369cd7c67d057760d8a35149e8c64dde91efa22bcc76d090600090a25050565b60008051602061198d83398151915261079a81610ba7565b600280546001600160a01b0319166001600160a01b0384169081179091556040517f811d3016da8008875247af93af072ec7801e39d9f4c686fec82ab600d8e555e890600090a25050565b600354604051631c9f84ef60e21b81526001600160a01b038381166004830152600092169063727e13bc90602401602060405180830381865afa158015610830573d6000803e3d6000fd5b505050506040513d601f19601f820116820180604052508101906103a591906114db565b6000805160206119ad83398151915261086c81610ba7565b600061087784610b38565b600354604051637402e7c360e11b81526001600160a01b038781166004830152868116602483015292935091169063e805cf8690604401600060405180830381600087803b1580156108c857600080fd5b505af11580156108dc573d6000803e3d6000fd5b50506040516001600160a01b038087169350841691507fe98082932c8056a0f514da9104e4a66bc2cbaef102ad59d90c4b24220ebf601090600090a350505050565b6000918252602082815260408084206001600160a01b0393909316845291905290205460ff1690565b6000805160206119ad83398151915261095f81610ba7565b600061096a83610b38565b60035460405163cf191bcd60e01b81526001600160a01b03868116600483015292935091169063cf191bcd90602401600060405180830381600087803b1580156109b357600080fd5b505af11580156109c7573d6000803e3d6000fd5b50506040516001600160a01b038085169350861691507f59d6590e225b81befe259af056324092801080acbb7feab310eb34678871f32790600090a3505050565b600080610a1483610b38565b90506001600160a01b038116610a2d5750600092915050565b600154604080516337c2758160e21b815290516000926001600160a01b03169163df09d60491600480830192869291908290030181865afa158015610a76573d6000803e3d6000fd5b505050506040513d6000823e601f3d908101601f19168201604052610a9e9190810190611563565b80519091506000819003610ab757506001949350505050565b60005b81811015610b0757610ae584848381518110610ad857610ad86114a8565b6020026020010151610d4b565b610af55750600095945050505050565b80610aff8161160f565b915050610aba565b50600195945050505050565b600082815260208190526040902060010154610b2e81610ba7565b6104338383610c38565b600354604051637988d3a560e01b81526001600160a01b0383811660048301526000921690637988d3a590602401602060405180830381865afa158015610b83573d6000803e3d6000fd5b505050506040513d601f19601f820116820180604052508101906103a59190611628565b610bb18133610fd2565b50565b610bbe828261091e565b6104b7576000828152602081815260408083206001600160a01b03851684529091529020805460ff19166001179055610bf43390565b6001600160a01b0316816001600160a01b0316837f2f8788117e7eff1d82e926ec794901d17c78024a50270940304540a733656f0d60405160405180910390a45050565b610c42828261091e565b156104b7576000828152602081815260408083206001600160a01b0385168085529252808320805460ff1916905551339285917ff6391f5c32d9c69d2a47ea670b442974b53935d1edc7fd64eb21e047a839171b9190a45050565b60035460405163a53410dd60e01b81526001600160a01b038581166004830152848116602483015261ffff841660448301529091169063a53410dd90606401600060405180830381600087803b158015610cf657600080fd5b505af1158015610d0a573d6000803e3d6000fd5b50506040516001600160a01b038086169350861691507f6ae73635c50d24a45af6fbd5e016ac4bed179addbc8bf24e04ff0fcc6d33af1990600090a3505050565b600254604051636b2c56bd60e01b81526004810183905260009182916001600160a01b0390911690636b2c56bd90602401600060405180830381865afa158015610d99573d6000803e3d6000fd5b505050506040513d6000823e601f3d908101601f19168201604052610dc19190810190611645565b80519091506000819003610dda576000925050506103a5565b60008167ffffffffffffffff811115610df557610df56114f8565b604051908082528060200260200182016040528015610e1e578160200160208202803683370190505b50905060005b82811015610eb157838181518110610e3e57610e3e6114a8565b602002602001015186604051602001610e6c9291906001600160a01b03929092168252602082015260400190565b60405160208183030381529060405280519060200120828281518110610e9457610e946114a8565b602090810291909101015280610ea98161160f565b915050610e24565b5060005b8151811015610fc5576000806000808a6001600160a01b031663c9100bcb878781518110610ee557610ee56114a8565b60200260200101516040518263ffffffff1660e01b8152600401610f0b91815260200190565b600060405180830381865afa158015610f28573d6000803e3d6000fd5b505050506040513d6000823e601f3d908101601f19168201604052610f509190810190611767565b50945094509450509350898403610f8957610f6e8b848c858561102b565b15610f84576001985050505050505050506103a5565b610fae565b60018651610f979190611829565b8503610fae576000985050505050505050506103a5565b505050508080610fbd9061160f565b915050610eb5565b5060009695505050505050565b610fdc828261091e565b6104b757610fe9816110b1565b610ff48360206110c3565b60405160200161100592919061183c565b60408051601f198184030181529082905262461bcd60e51b82526104a4916004016118dd565b60405163604b4d3760e11b81526000906001600160a01b0386169063c0969a6e906110609089908890889088906004016118f0565b602060405180830381865afa925050508015611099575060408051601f3d908101601f1916820190925261109691810190611929565b60015b6110a5575060006110a8565b90505b95945050505050565b60606103a56001600160a01b03831660145b606060006110d283600261194b565b6110dd906002611962565b67ffffffffffffffff8111156110f5576110f56114f8565b6040519080825280601f01601f19166020018201604052801561111f576020820181803683370190505b509050600360fc1b8160008151811061113a5761113a6114a8565b60200101906001600160f81b031916908160001a905350600f60fb1b81600181518110611169576111696114a8565b60200101906001600160f81b031916908160001a905350600061118d84600261194b565b611198906001611962565b90505b6001811115611210576f181899199a1a9b1b9c1cb0b131b232b360811b85600f16601081106111cc576111cc6114a8565b1a60f81b8282815181106111e2576111e26114a8565b60200101906001600160f81b031916908160001a90535060049490941c9361120981611975565b905061119b565b50831561125f5760405162461bcd60e51b815260206004820181905260248201527f537472696e67733a20686578206c656e67746820696e73756666696369656e7460448201526064016104a4565b9392505050565b60006020828403121561127857600080fd5b81356001600160e01b03198116811461125f57600080fd5b6000602082840312156112a257600080fd5b5035919050565b6001600160a01b0381168114610bb157600080fd5b6000602082840312156112d057600080fd5b813561125f816112a9565b600080604083850312156112ee57600080fd5b823591506020830135611300816112a9565b809150509250929050565b61ffff81168114610bb157600080fd5b6000806040838503121561132e57600080fd5b8235611339816112a9565b915060208301356113008161130b565b60008060006060848603121561135e57600080fd5b8335611369816112a9565b92506020840135611379816112a9565b915060408401356113898161130b565b809150509250925092565b60008083601f8401126113a657600080fd5b50813567ffffffffffffffff8111156113be57600080fd5b6020830191508360208260051b85010111156113d957600080fd5b9250929050565b600080600080600080606087890312156113f957600080fd5b863567ffffffffffffffff8082111561141157600080fd5b61141d8a838b01611394565b9098509650602089013591508082111561143657600080fd5b6114428a838b01611394565b9096509450604089013591508082111561145b57600080fd5b5061146889828a01611394565b979a9699509497509295939492505050565b6000806040838503121561148d57600080fd5b8235611498816112a9565b91506020830135611300816112a9565b634e487b7160e01b600052603260045260246000fd5b6000602082840312156114d057600080fd5b813561125f8161130b565b6000602082840312156114ed57600080fd5b815161125f8161130b565b634e487b7160e01b600052604160045260246000fd5b604051601f8201601f1916810167ffffffffffffffff81118282101715611537576115376114f8565b604052919050565b600067ffffffffffffffff821115611559576115596114f8565b5060051b60200190565b6000602080838503121561157657600080fd5b825167ffffffffffffffff81111561158d57600080fd5b8301601f8101851361159e57600080fd5b80516115b16115ac8261153f565b61150e565b81815260059190911b820183019083810190878311156115d057600080fd5b928401925b828410156115ee578351825292840192908401906115d5565b979650505050505050565b634e487b7160e01b600052601160045260246000fd5b600060018201611621576116216115f9565b5060010190565b60006020828403121561163a57600080fd5b815161125f816112a9565b6000602080838503121561165857600080fd5b825167ffffffffffffffff81111561166f57600080fd5b8301601f8101851361168057600080fd5b805161168e6115ac8261153f565b81815260059190911b820183019083810190878311156116ad57600080fd5b928401925b828410156115ee5783516116c5816112a9565b825292840192908401906116b2565b60005b838110156116ef5781810151838201526020016116d7565b50506000910152565b600067ffffffffffffffff831115611712576117126114f8565b611725601f8401601f191660200161150e565b905082815283838301111561173957600080fd5b61125f8360208301846116d4565b600082601f83011261175857600080fd5b61125f838351602085016116f8565b60008060008060008060c0878903121561178057600080fd5b86519550602087015194506040870151611799816112a9565b606088015190945067ffffffffffffffff808211156117b757600080fd5b6117c38a838b01611747565b945060808901519150808211156117d957600080fd5b6117e58a838b01611747565b935060a08901519150808211156117fb57600080fd5b508701601f8101891361180d57600080fd5b61181c898251602084016116f8565b9150509295509295509295565b818103818111156103a5576103a56115f9565b7f416363657373436f6e74726f6c3a206163636f756e74200000000000000000008152600083516118748160178501602088016116d4565b7001034b99036b4b9b9b4b733903937b6329607d1b60179184019182015283516118a58160288401602088016116d4565b01602801949350505050565b600081518084526118c98160208601602086016116d4565b601f01601f19169290920160200192915050565b60208152600061125f60208301846118b1565b60018060a01b038516815283602082015260806040820152600061191760808301856118b1565b82810360608401526115ee81856118b1565b60006020828403121561193b57600080fd5b8151801515811461125f57600080fd5b80820281158282048414176103a5576103a56115f9565b808201808211156103a5576103a56115f9565b600081611984576119846115f9565b50600019019056feb19546dff01e856fb3f010c267a7b1c60363cf8a4664e21cc89c26224620214ecab5a0bfe0b79d2c4b1c2e02599fa044d115b7511f9659307cb4276950967709a26469706673582212201300ffc5c3dd8bef92ac1fff08c07b367f354772c8fa51b51a00914efc228a2a64736f6c63430008110033",
  "linkReferences": {},
  "deployedLinkReferences": {}
}