{"abi":[{"type":"function","name":"addModule","inputs":[{"name":"_module","type":"address","internalType":"address"}],"outputs":[],"stateMutability":"nonpayable"},{"type":"function","name":"bindToken","inputs":[{"name":"_token","type":"address","internalType":"address"}],"outputs":[],"stateMutability":"nonpayable"},{"type":"function","name":"callModuleFunction","inputs":[{"name":"callData","type":"bytes","internalType":"bytes"},{"name":"_module","type":"address","internalType":"address"}],"outputs":[],"stateMutability":"nonpayable"},{"type":"function","name":"canTransfer","inputs":[{"name":"_from","type":"address","internalType":"address"},{"name":"_to","type":"address","internalType":"address"},{"name":"_value","type":"uint256","internalType":"uint256"}],"outputs":[{"name":"","type":"bool","internalType":"bool"}],"stateMutability":"view"},{"type":"function","name":"created","inputs":[{"name":"_to","type":"address","internalType":"address"},{"name":"_value","type":"uint256","internalType":"uint256"}],"outputs":[],"stateMutability":"nonpayable"},{"type":"function","name":"destroyed","inputs":[{"name":"_from","type":"address","internalType":"address"},{"name":"_value","type":"uint256","internalType":"uint256"}],"outputs":[],"stateMutability":"nonpayable"},{"type":"function","name":"getModules","inputs":[],"outputs":[{"name":"","type":"address[]","internalType":"address[]"}],"stateMutability":"view"},{"type":"function","name":"getTokenBound","inputs":[],"outputs":[{"name":"","type":"address","internalType":"address"}],"stateMutability":"view"},{"type":"function","name":"init","inputs":[],"outputs":[],"stateMutability":"nonpayable"},{"type":"function","name":"isModuleBound","inputs":[{"name":"_module","type":"address","internalType":"address"}],"outputs":[{"name":"","type":"bool","internalType":"bool"}],"stateMutability":"view"},{"type":"function","name":"owner","inputs":[],"outputs":[{"name":"","type":"address","internalType":"address"}],"stateMutability":"view"},{"type":"function","name":"removeModule","inputs":[{"name":"_module","type":"address","internalType":"address"}],"outputs":[],"stateMutability":"nonpayable"},{"type":"function","name":"renounceOwnership","inputs":[],"outputs":[],"stateMutability":"nonpayable"},{"type":"function","name":"transferOwnership","inputs":[{"name":"newOwner","type":"address","internalType":"address"}],"outputs":[],"stateMutability":"nonpayable"},{"type":"function","name":"transferred","inputs":[{"name":"_from","type":"address","internalType":"address"},{"name":"_to","type":"address","internalType":"address"},{"name":"_value","type":"uint256","internalType":"uint256"}],"outputs":[],"stateMutability":"nonpayable"},{"type":"function","name":"unbindToken","inputs":[{"name":"_token","type":"address","internalType":"address"}],"outputs":[],"stateMutability":"nonpayable"},{"type":"event","name":"Initialized","inputs":[{"name":"version","type":"uint8","indexed":false,"internalType":"uint8"}],"anonymous":false},{"type":"event","name":"ModuleAdded","inputs":[{"name":"_module","type":"address","indexed":true,"internalType":"address"}],"anonymous":false},{"type":"event","name":"ModuleInteraction","inputs":[{"name":"target","type":"address","indexed":true,"internalType":"address"},{"name":"selector","type":"bytes4","indexed":false,"internalType":"bytes4"}],"anonymous":false},{"type":"event","name":"ModuleRemoved","inputs":[{"name":"_module","type":"address","indexed":true,"internalType":"address"}],"anonymous":false},{"type":"event","name":"OwnershipTransferred","inputs":[{"name":"previousOwner","type":"address","indexed":true,"internalType":"address"},{"name":"newOwner","type":"address","indexed":true,"internalType":"address"}],"anonymous":false},{"type":"event","name":"TokenBound","inputs":[{"name":"_token","type":"address","indexed":false,"internalType":"address"}],"anonymous":false},{"type":"event","name":"TokenUnbound","inputs":[{"name":"_token","type":"address","indexed":false,"internalType":"address"}],"anonymous":false}],"bytecode":{"object":"0x60808060405234610016576115d6908161001c8239f35b600080fdfe60806040526004361015610013575b600080fd5b60003560e01c80631ed86f19146101535780633ff5aa021461014a57806340db3b50146101415780635f8dead3146101385780636a3edf281461012f578063715018a6146101265780638baf29b41461011d5780638d2ea772146101145780638da5cb5b1461010b578063a063246114610102578063a446d49f146100f9578063b2494df3146100f0578063e1c7392a146100e7578063e46638e6146100de578063efb22d33146100d55763f2fde38b146100cd57600080fd5b61000e610c75565b5061000e610c0b565b5061000e610be7565b5061000e610b03565b5061000e610a3b565b5061000e6109fb565b5061000e610883565b5061000e610859565b5061000e6107af565b5061000e6106ed565b5061000e610656565b5061000e61062c565b5061000e61051b565b5061000e610429565b5061000e610373565b5061000e610172565b600435906001600160a01b038216820361000e57565b503461000e5760208060031936011261000e5761018d61015c565b6101956114ff565b6001600160a01b038116916101ab831515610db2565b6101e06101db6101d76101d08560018060a01b03166000526067602052604060002090565b5460ff1690565b1590565b610dfe565b6101ef60186066541115610e41565b60405163e6f5e80760e01b81528181600481875afa908115610366575b600091610349575b50156102d2575b50813b1561000e576040516312a4c95160e21b8152306004820152610285916102789160008160248183895af180156102c5575b6102ac575b5061025e81610fd1565b6001600160a01b0316600090815260676020526040902090565b805460ff19166001179055565b7fead6a006345da1073a106d5f32372d2d2204f46cb0b4bca8f5ebafcbbed12b8a600080a2005b806102b96102bf92610ea4565b80610621565b38610254565b6102cd610eff565b61024f565b60405163bcc2105360e01b815230600482015261030991908181602481885afa91821561033c575b60009261030f575b5050610f0c565b3861021b565b61032e9250803d10610335575b6103268183610ec5565b810190610ee7565b3880610302565b503d61031c565b610344610eff565b6102fa565b6103609150823d8411610335576103268183610ec5565b38610214565b61036e610eff565b61020c565b503461000e57602036600319011261000e577f2de35142b19ed5a07796cf30791959c592018f70b1d2d7c460eef8ffe713692b61040c6103b161015c565b6033546001600160a01b0390811633148015610411575b6103d190610d66565b81166103de811515610db2565b606580546001600160a01b0319169190911790556040516001600160a01b0390911681529081906020820190565b0390a1005b5080606554161580156103c8575033828216146103c8565b503461000e57602036600319011261000e5761044361015c565b6033546001600160a01b0390811633148015610510575b61046390610d66565b606554828216911681036104cb577f28a4ca7134a3b3f9aff286e79ad3daadb4a06d1b43d037a3a98bdc074edd9b7a916104a161040c921515610db2565b606580546001600160a01b03191690556040516001600160a01b0390911681529081906020820190565b60405162461bcd60e51b815260206004820152601760248201527f5468697320746f6b656e206973206e6f7420626f756e640000000000000000006044820152606490fd5b50338282161461045a565b503461000e5760408060031936011261000e5761053661015c565b906024359161055d60018060a01b036105548160655416331461115d565b82161515610db2565b610568831515611233565b6066549160005b83811061057857005b6105ab61059f61059f61058a84610f8c565b905460039190911b1c6001600160a01b031690565b6001600160a01b031690565b90813b1561000e57825163f104a8c960e01b81526001600160a01b0385166004820152602481018790526105fc926000908290818381604481015b03925af18015610614575b610601575b506110ac565b61056f565b806102b961060e92610ea4565b386105f6565b61061c610eff565b6105f1565b600091031261000e57565b503461000e57600036600319011261000e576065546040516001600160a01b039091168152602090f35b503461000e576000806003193601126106b5576106716114ff565b603380546001600160a01b0319811690915581906001600160a01b03167f8be0079c531659141344cd1fd0a4f28419497f9722a3daafe3b4186f6b6457e08280a380f35b80fd5b606090600319011261000e576001600160a01b0390600435828116810361000e5791602435908116810361000e579060443590565b503461000e576106fc366106b8565b919061072960018060a01b036107178160655416331461115d565b808416151590816107a3575b50610db2565b6107348315156111db565b6066549160005b83811061074457005b61075661059f61059f61058a84610f8c565b90813b1561000e57604051630b2df87b60e21b81526001600160a01b038085166004830152851660248201526044810187905261079e926000908290818381606481016105e6565b61073b565b90508216151538610723565b503461000e5760408060031936011261000e576107ca61015c565b90602435916107e860018060a01b036105548160655416331461115d565b6107f383151561127e565b6066549160005b83811061080357005b61081561059f61059f61058a84610f8c565b90813b1561000e578251631b9248d160e11b81526001600160a01b038516600482015260248101879052610854926000908290818381604481016105e6565b6107fa565b503461000e57600036600319011261000e576033546040516001600160a01b039091168152602090f35b503461000e57602036600319011261000e5761089d61015c565b6108a56114ff565b6001600160a01b038116906108bb821515610db2565b6001600160a01b03811660009081526067602052604090206108e5906108e0906101d0565b611056565b60665460005b8181106108f457005b8361090461059f61058a84610f8c565b1461091757610912906110ac565b6108eb565b9091833b1561000e57604051630694a5fb60e01b81523060048201526109b4936109aa936109a292909161097e916109789161058a9161097391906000818d8183816024810103925af180156109ee575b6109db575b506110c8565b610f8c565b91610f8c565b90919082549060031b9160018060a01b039283811b93849216901b16911916179055565b61025e6110e1565b805460ff19169055565b7f0a1ee69f55c33d8467c69ca59ce2007a737a88603d75392972520bf67cb513b8600080a2005b806102b96109e892610ea4565b3861096d565b6109f6610eff565b610968565b503461000e57602036600319011261000e576001600160a01b03610a1d61015c565b166000526067602052602060ff604060002054166040519015158152f35b503461000e576000806003193601126106b55760405180916066549081835260208093018092606683527f46501879b8ca8525e8c2fd519e2fbfcfa2ebea26501294aa02cbfcfb12e9435490835b818110610ae65750505084610a9f910385610ec5565b60405193838594850191818652518092526040850193925b828110610ac657505050500390f35b83516001600160a01b031685528695509381019392810192600101610ab7565b82546001600160a01b031684529286019260019283019201610a89565b503461000e576000806003193601126106b5578054610b3960ff8260081c161580928193610bd9575b8115610bb9575b50610d03565b80610b4c600160ff196000541617600055565b610ba0575b610b596114dc565b610b605780f35b610b7061ff001960005416600055565b604051600181527f7f26b83ff96e1f2b6a682f133852f6798a09c465da95921460cefb384740249890602090a180f35b610bb461010061ff00196000541617600055565b610b51565b303b15915081610bcb575b5038610b33565b6001915060ff161438610bc4565b600160ff8216109150610b2c565b503461000e576020610c01610bfb366106b8565b916113a6565b6040519015158152f35b503461000e57604036600319011261000e5760043567ffffffffffffffff80821161000e573660238301121561000e57816004013590811161000e57366024828401011161000e57602435906001600160a01b038216820361000e576024610c7393016112c9565b005b503461000e57602036600319011261000e57610c8f61015c565b610c976114ff565b6001600160a01b03811615610caf57610c7390611557565b60405162461bcd60e51b815260206004820152602660248201527f4f776e61626c653a206e6577206f776e657220697320746865207a65726f206160448201526564647265737360d01b6064820152608490fd5b15610d0a57565b60405162461bcd60e51b815260206004820152602e60248201527f496e697469616c697a61626c653a20636f6e747261637420697320616c72656160448201526d191e481a5b9a5d1a585b1a5e995960921b6064820152608490fd5b15610d6d57565b60405162461bcd60e51b815260206004820152601c60248201527f6f6e6c79206f776e6572206f7220746f6b656e2063616e2063616c6c000000006044820152606490fd5b15610db957565b60405162461bcd60e51b815260206004820152601f60248201527f696e76616c696420617267756d656e74202d207a65726f2061646472657373006044820152606490fd5b15610e0557565b60405162461bcd60e51b81526020600482015260146024820152731b5bd91d5b1948185b1c9958591e48189bdd5b9960621b6044820152606490fd5b15610e4857565b60405162461bcd60e51b815260206004820152601f60248201527f63616e6e6f7420616464206d6f7265207468616e203235206d6f64756c6573006044820152606490fd5b50634e487b7160e01b600052604160045260246000fd5b67ffffffffffffffff8111610eb857604052565b610ec0610e8d565b604052565b90601f8019910116810190811067ffffffffffffffff821117610eb857604052565b9081602091031261000e5751801515810361000e5790565b506040513d6000823e3d90fd5b15610f1357565b60405162461bcd60e51b815260206004820152603460248201527f636f6d706c69616e6365206973206e6f74207375697461626c6520666f722062604482015273696e64696e6720746f20746865206d6f64756c6560601b6064820152608490fd5b50634e487b7160e01b600052603260045260246000fd5b606654811015610fc4575b60666000527f46501879b8ca8525e8c2fd519e2fbfcfa2ebea26501294aa02cbfcfb12e943540190600090565b610fcc610f75565b610f97565b60665468010000000000000000811015611049575b600181018060665581101561103c575b60666000527f46501879b8ca8525e8c2fd519e2fbfcfa2ebea26501294aa02cbfcfb12e943540180546001600160a01b0319166001600160a01b03909216919091179055565b611044610f75565b610ff6565b611051610e8d565b610fe6565b1561105d57565b60405162461bcd60e51b815260206004820152601060248201526f1b5bd91d5b19481b9bdd08189bdd5b9960821b6044820152606490fd5b50634e487b7160e01b600052601160045260246000fd5b60019060001981146110bc570190565b6110c4611095565b0190565b6000198101919082116110d757565b6110df611095565b565b6066548015611147577f46501879b8ca8525e8c2fd519e2fbfcfa2ebea26501294aa02cbfcfb12e943536000198201918083101561113a575b6066600052016bffffffffffffffffffffffff60a01b8154169055606655565b611142610f75565b61111a565b634e487b7160e01b600052603160045260246000fd5b1561116457565b60a460405162461bcd60e51b815260206004820152604460248201527f6572726f72203a20746869732061646472657373206973206e6f74206120746f60448201527f6b656e20626f756e6420746f2074686520636f6d706c69616e636520636f6e746064820152631c9858dd60e21b6084820152fd5b156111e257565b60405162461bcd60e51b8152602060048201526024808201527f696e76616c696420617267756d656e74202d206e6f2076616c7565207472616e60448201526339b332b960e11b6064820152608490fd5b1561123a57565b606460405162461bcd60e51b815260206004820152602060248201527f696e76616c696420617267756d656e74202d206e6f2076616c7565206d696e746044820152fd5b1561128557565b606460405162461bcd60e51b815260206004820152602060248201527f696e76616c696420617267756d656e74202d206e6f2076616c7565206275726e6044820152fd5b6112d16114ff565b6001600160a01b0383166000818152606760205260408120549194909160ff161561136157818481928260405191838884375af11561135957506113397f20d79de70adcc6e9353d8a9a5646b46dc352710d0a310b1ad1f67faeca7ef8919261135492611468565b6040516001600160e01b031990911681529081906020820190565b0390a2565b3d81803e3d90fd5b60405162461bcd60e51b815260206004820152601960248201527f63616c6c206f6e6c79206f6e20626f756e64206d6f64756c65000000000000006044820152606490fd5b606654929160005b8481106113bf575050505050600190565b6113d161059f61059f61058a84610f8c565b604051624edf3960e21b81526001600160a01b03858116600483015284166024820152604481018690523060648201526020918290829060849082905afa91821561145b575b60009261143e575b5050156114345761142f906110ac565b6113ae565b5050505050600090565b6114549250803d10610335576103268183610ec5565b388061141f565b611463610eff565b611417565b60009291600411156114775750565b359150565b1561148357565b60405162461bcd60e51b815260206004820152602b60248201527f496e697469616c697a61626c653a20636f6e7472616374206973206e6f74206960448201526a6e697469616c697a696e6760a81b6064820152608490fd5b6114f660ff60005460081c166114f18161147c565b61147c565b6110df33611557565b6033546001600160a01b0316330361151357565b606460405162461bcd60e51b815260206004820152602060248201527f4f776e61626c653a2063616c6c6572206973206e6f7420746865206f776e65726044820152fd5b603380546001600160a01b039283166001600160a01b0319821681179092559091167f8be0079c531659141344cd1fd0a4f28419497f9722a3daafe3b4186f6b6457e0600080a356fea264697066735822122003326acf8206f37f3718835745ed12d26bb5d25ad05bb288f91c129cac35f6ad64736f6c63430008110033","linkReferences":{}},"methodIdentifiers":{"addModule(address)":"1ed86f19","bindToken(address)":"3ff5aa02","callModuleFunction(bytes,address)":"efb22d33","canTransfer(address,address,uint256)":"e46638e6","created(address,uint256)":"5f8dead3","destroyed(address,uint256)":"8d2ea772","getModules()":"b2494df3","getTokenBound()":"6a3edf28","init()":"e1c7392a","isModuleBound(address)":"a446d49f","owner()":"8da5cb5b","removeModule(address)":"a0632461","renounceOwnership()":"715018a6","transferOwnership(address)":"f2fde38b","transferred(address,address,uint256)":"8baf29b4","unbindToken(address)":"40db3b50"},"id":2}