{"abi":[{"type":"function","name":"deployTREXSuite","inputs":[{"name":"_salt","type":"string","internalType":"string"},{"name":"_tokenDetails","type":"tuple","internalType":"struct ITREXFactory.TokenDetails","components":[{"name":"owner","type":"address","internalType":"address"},{"name":"name","type":"string","internalType":"string"},{"name":"symbol","type":"string","internalType":"string"},{"name":"decimals","type":"uint8","internalType":"uint8"},{"name":"irs","type":"address","internalType":"address"},{"name":"ONCHAINID","type":"address","internalType":"address"},{"name":"irAgents","type":"address[]","internalType":"address[]"},{"name":"tokenAgents","type":"address[]","internalType":"address[]"},{"name":"complianceModules","type":"address[]","internalType":"address[]"},{"name":"complianceSettings","type":"bytes[]","internalType":"bytes[]"}]},{"name":"_claimDetails","type":"tuple","internalType":"struct ITREXFactory.ClaimDetails","components":[{"name":"claimTopics","type":"uint256[]","internalType":"uint256[]"},{"name":"issuers","type":"address[]","internalType":"address[]"},{"name":"issuerClaims","type":"uint256[][]","internalType":"uint256[][]"}]}],"outputs":[],"stateMutability":"nonpayable"},{"type":"function","name":"tokenDeployed","inputs":[{"name":"","type":"string","internalType":"string"}],"outputs":[{"name":"","type":"address","internalType":"address"}],"stateMutability":"view"}],"bytecode":{"object":"0x6080806040523461001657615f69908161001c8239f35b600080fdfe6080604052600436101562000014575b600080fd5b6000803560e01c908163cf753d371462000043575063fb88d79c146200003957600080fd5b6200000f620002a5565b34620000ee577ffffffffffffffffffffffffffffffffffffffffffffffffffffffffffffffffc606081360112620000ea5767ffffffffffffffff90600435828111620000e2576200009a9036906004016200021e565b60243591838311620000e657610140818436030112620000e657604435938411620000e6576060908436030112620000e257620000df92600401916004019062000983565b80f35b8380fd5b8480fd5b5080fd5b80fd5b507f4e487b7100000000000000000000000000000000000000000000000000000000600052604160045260246000fd5b67ffffffffffffffff81116200013657604052565b62000140620000f1565b604052565b6040810190811067ffffffffffffffff8211176200013657604052565b90601f7fffffffffffffffffffffffffffffffffffffffffffffffffffffffffffffffe0910116810190811067ffffffffffffffff8211176200013657604052565b92919267ffffffffffffffff82116200020e575b60405191620001f060207fffffffffffffffffffffffffffffffffffffffffffffffffffffffffffffffe0601f840116018462000162565b8294818452818301116200000f578281602093846000960137010152565b62000218620000f1565b620001b8565b9080601f830112156200000f578160206200023c93359101620001a4565b90565b60005b838110620002535750506000910152565b818101518382015260200162000242565b9062000279602092828151948592016200023f565b0190565b6020620002989181604051938285809451938492016200023f565b8101600281520301902090565b50346200000f5760207ffffffffffffffffffffffffffffffffffffffffffffffffffffffffffffffffc3601126200000f5760043567ffffffffffffffff81116200000f5773ffffffffffffffffffffffffffffffffffffffff6200032a602062000316819436906004016200021e565b81604051938285809451938492016200023f565b810160028152030190205416604051908152f35b156200034657565b60646040517f08c379a000000000000000000000000000000000000000000000000000000000815260206004820152601660248201527f746f6b656e20616c7265616479206465706c6f796564000000000000000000006044820152fd5b9035907fffffffffffffffffffffffffffffffffffffffffffffffffffffffffffffffe1813603018212156200000f570180359067ffffffffffffffff82116200000f57602001918160051b360383136200000f57565b156200040357565b60646040517f08c379a000000000000000000000000000000000000000000000000000000000815260206004820152601760248201527f636c61696d207061747465726e206e6f742076616c69640000000000000000006044820152fd5b156200046957565b60646040517f08c379a000000000000000000000000000000000000000000000000000000000815260206004820152601360248201527f6d6178203520636c61696d2069737375657273000000000000000000000000006044820152fd5b15620004cf57565b60646040517f08c379a000000000000000000000000000000000000000000000000000000000815260206004820152601260248201527f6d6178203520636c61696d20746f7069637300000000000000000000000000006044820152fd5b156200053557565b60646040517f08c379a000000000000000000000000000000000000000000000000000000000815260206004820152600c60248201527f6d61782035206167656e747300000000000000000000000000000000000000006044820152fd5b156200059b57565b60646040517f08c379a000000000000000000000000000000000000000000000000000000000815260206004820152600e60248201527f6d6178203330206d6f64756c65730000000000000000000000000000000000006044820152fd5b156200060157565b60646040517f08c379a000000000000000000000000000000000000000000000000000000000815260206004820152601a60248201527f696e76616c696420636f6d706c69616e6365207061747465726e0000000000006044820152fd5b73ffffffffffffffffffffffffffffffffffffffff8116036200000f57565b356200023c816200065f565b9035907fffffffffffffffffffffffffffffffffffffffffffffffffffffffffffffffe1813603018212156200000f570180359067ffffffffffffffff82116200000f576020019181360383136200000f57565b3560ff811681036200000f5790565b908160209103126200000f57516200023c816200065f565b907fffffffffffffffffffffffffffffffffffffffffffffffffffffffffffffffe0601f60209362000743815180928187528780880191016200023f565b0116010190565b6060916200023c949373ffffffffffffffffffffffffffffffffffffffff8092168352166020820152816040820152019062000705565b506040513d6000823e3d90fd5b60009103126200000f57565b7fffffffffffffffffffffffffffffffffffffffffffffffffffffffffffffffff8114620007c85760010190565b7f4e487b7100000000000000000000000000000000000000000000000000000000600052601160045260246000fd5b507f4e487b7100000000000000000000000000000000000000000000000000000000600052603260045260246000fd5b919081101562000839575b60051b0190565b62000843620007f7565b62000832565b9091620008659281101562000869575b60051b810190620003a4565b9091565b62000873620007f7565b62000859565b9073ffffffffffffffffffffffffffffffffffffffff168152604060208201528260408201527f07ffffffffffffffffffffffffffffffffffffffffffffffffffffffffffffff83116200000f5760609260051b809284830137010190565b908160209103126200000f575180151581036200000f5790565b909162000865928110156200090e575b60051b8101906200068a565b62000918620007f7565b62000902565b9160607fffffffffffffffffffffffffffffffffffffffffffffffffffffffffffffffe0601f8373ffffffffffffffffffffffffffffffffffffffff94602096999899604089528160408a015285890137600084828901015201168401019416910152565b92919092620009d173ffffffffffffffffffffffffffffffffffffffff620009c9620009af846200027d565b5473ffffffffffffffffffffffffffffffffffffffff1690565b16156200033e565b620009ff620009e46020840184620003a4565b9050620009f56040850185620003a4565b91905014620003fb565b62000a1e600562000a146020850185620003a4565b9050111562000461565b62000a3a600562000a308480620003a4565b90501115620004c7565b600562000a4b60c0860186620003a4565b905011158062001a12575b62000a61906200052d565b62000a81601e62000a77610100870187620003a4565b9050111562000593565b62000ab262000a95610100860186620003a4565b905062000aa7610120870187620003a4565b9190501015620005f9565b62000afa62000ae162000ada60005473ffffffffffffffffffffffffffffffffffffffff1690565b8362001a34565b73ffffffffffffffffffffffffffffffffffffffff1690565b9062000b2a62000ae162000b2360005473ffffffffffffffffffffffffffffffffffffffff1690565b8362001b10565b9462000b5a62000ae162000b5360005473ffffffffffffffffffffffffffffffffffffffff1690565b8462001b76565b906080810162000b6e62000ae1826200067e565b620019fc575062000ba362000ae162000b9c60005473ffffffffffffffffffffffffffffffffffffffff1690565b8562001bdc565b925b62000c1c62000ae162000bcd60005473ffffffffffffffffffffffffffffffffffffffff1690565b73ffffffffffffffffffffffffffffffffffffffff87169073ffffffffffffffffffffffffffffffffffffffff8c169073ffffffffffffffffffffffffffffffffffffffff8a16908662001c42565b9262000cd762000ae162000c9f8562000c4a60005473ffffffffffffffffffffffffffffffffffffffff1690565b62000c9662000c5d60208401846200068a565b949062000c6e60408601866200068a565b93909162000c8d60a062000c8560608a01620006de565b98016200067e565b973691620001a4565b923691620001a4565b9173ffffffffffffffffffffffffffffffffffffffff88169073ffffffffffffffffffffffffffffffffffffffff8c16908a62001d4c565b9162000cea62000ae160a086016200067e565b156200187c575b60005b62000d008980620003a4565b905081101562000de45762000d228162000d1b8b80620003a4565b9062000827565b359073ffffffffffffffffffffffffffffffffffffffff8c163b156200000f576040517fc7b22551000000000000000000000000000000000000000000000000000000008152600481019290925262000db0916000818e818373ffffffffffffffffffffffffffffffffffffffff82602481015b0393165af1801562000dd4575b62000db6575b506200079a565b62000cf4565b8062000dc662000dcd9262000121565b806200078e565b3862000da9565b62000dde62000781565b62000da3565b5091939598979092949760005b62000e0060208a018a620003a4565b905081101562000ecc5780898c62000e608362000e5962000e4d62000ae162000e4773ffffffffffffffffffffffffffffffffffffffff9962000d1b60208a018a620003a4565b6200067e565b946040810190620003a4565b9062000849565b949091163b156200000f5762000ec6938e6000928373ffffffffffffffffffffffffffffffffffffffff62000d9696604051978896879586937f9f63ea980000000000000000000000000000000000000000000000000000000085526004850162000879565b62000df1565b509193959897909294965073ffffffffffffffffffffffffffffffffffffffff81163b156200000f576040517f690a49f900000000000000000000000000000000000000000000000000000000815273ffffffffffffffffffffffffffffffffffffffff8a811660048301529091600091839160249183918591165af180156200186c575b62001855575b5073ffffffffffffffffffffffffffffffffffffffff88163b156200000f576040517f84e7984200000000000000000000000000000000000000000000000000000000815273ffffffffffffffffffffffffffffffffffffffff86811660048301526000908290602490829084908e165af1801562001845575b6200182e575b5060005b62000fea60c0880188620003a4565b90508110156200108f576200100c62000e478262000d1b60c08b018b620003a4565b9073ffffffffffffffffffffffffffffffffffffffff8a163b156200000f576040517f84e7984200000000000000000000000000000000000000000000000000000000815273ffffffffffffffffffffffffffffffffffffffff9283166004820152620010899260009082908d9082908490826024810162000d96565b62000fdb565b5090919293969560005b620010a860e0880188620003a4565b90508110156200114d57620010ca62000e478262000d1b60e08b018b620003a4565b9073ffffffffffffffffffffffffffffffffffffffff8a163b156200000f576040517f84e7984200000000000000000000000000000000000000000000000000000000815273ffffffffffffffffffffffffffffffffffffffff9283166004820152620011479260009082908d9082908490826024810162000d96565b62001099565b509193969590929560005b62001168610100880188620003a4565b9050811015620014445773ffffffffffffffffffffffffffffffffffffffff6020620011f98b620011a762000e478662000d1b6101008f018f620003a4565b6040519485809481937fa446d49f0000000000000000000000000000000000000000000000000000000083526004830191909173ffffffffffffffffffffffffffffffffffffffff6020820193169052565b0392165afa90811562001434575b600091620013fe575b501562001337575b62001228610120880188620003a4565b9050811062001243575b6200123d906200079a565b62001158565b6200125f81620012586101208a018a620003a4565b90620008f2565b91906200127a62000e478362000d1b6101008d018d620003a4565b9273ffffffffffffffffffffffffffffffffffffffff8c163b156200000f576200123d938c6000928373ffffffffffffffffffffffffffffffffffffffff620012f496604051978896879586937fefb22d33000000000000000000000000000000000000000000000000000000008552600485016200091e565b0393165af1801562001327575b62001310575b50905062001232565b8062000dc6620013209262000121565b3862001307565b6200133162000781565b62001301565b6200135062000e478262000d1b6101008b018b620003a4565b73ffffffffffffffffffffffffffffffffffffffff8a163b156200000f576040517f1ed86f1900000000000000000000000000000000000000000000000000000000815273ffffffffffffffffffffffffffffffffffffffff9182166004820152906000908290602490829084908f165af18015620013ee575b620013d7575b5062001218565b8062000dc6620013e79262000121565b38620013d0565b620013f862000781565b620013ca565b62001425915060203d6020116200142c575b6200141c818362000162565b810190620008d8565b3862001210565b503d62001410565b6200143e62000781565b62001207565b5090919294939695620014b3906200147373ffffffffffffffffffffffffffffffffffffffff8416916200027d565b9073ffffffffffffffffffffffffffffffffffffffff167fffffffffffffffffffffffff0000000000000000000000000000000000000000825416179055565b620014be846200067e565b9073ffffffffffffffffffffffffffffffffffffffff81163b156200000f576040517ff2fde38b00000000000000000000000000000000000000000000000000000000815273ffffffffffffffffffffffffffffffffffffffff928316600482015291600091839160249183918591165af180156200181e575b62001807575b506200154a836200067e565b9073ffffffffffffffffffffffffffffffffffffffff81163b156200000f576040517ff2fde38b00000000000000000000000000000000000000000000000000000000815273ffffffffffffffffffffffffffffffffffffffff928316600482015291600091839160249183918591165af18015620017f7575b620017e0575b50620015d6826200067e565b9073ffffffffffffffffffffffffffffffffffffffff81163b156200000f576040517ff2fde38b00000000000000000000000000000000000000000000000000000000815273ffffffffffffffffffffffffffffffffffffffff928316600482015291600091839160249183918591165af18015620017d0575b620017b9575b5062001662816200067e565b73ffffffffffffffffffffffffffffffffffffffff83163b156200000f576040517ff2fde38b00000000000000000000000000000000000000000000000000000000815273ffffffffffffffffffffffffffffffffffffffff9182166004820152620016ee939091600091839160249183918591165af18015620017a9575b62001792575b506200067e565b9073ffffffffffffffffffffffffffffffffffffffff81163b156200000f576040517ff2fde38b00000000000000000000000000000000000000000000000000000000815273ffffffffffffffffffffffffffffffffffffffff928316600482015291600091839160249183918591165af1801562001782575b620017705750565b8062000dc6620017809262000121565b565b6200178c62000781565b62001768565b8062000dc6620017a29262000121565b38620016e7565b620017b362000781565b620016e1565b8062000dc6620017c99262000121565b3862001656565b620017da62000781565b62001650565b8062000dc6620017f09262000121565b38620015ca565b6200180162000781565b620015c4565b8062000dc6620018179262000121565b386200153e565b6200182862000781565b62001538565b8062000dc66200183e9262000121565b3862000fd7565b6200184f62000781565b62000fd1565b8062000dc6620018659262000121565b3862000f57565b6200187662000781565b62000f51565b62001907620018a862000ae162000ae160015473ffffffffffffffffffffffffffffffffffffffff1690565b60208373ffffffffffffffffffffffffffffffffffffffff871692620018ce896200067e565b60006040518097819582947f3d56ff6600000000000000000000000000000000000000000000000000000000845289600485016200074a565b03925af1918215620019ec575b600092620019b4575b50803b156200000f576040517f3d1ddc5b00000000000000000000000000000000000000000000000000000000815273ffffffffffffffffffffffffffffffffffffffff9290921660048301526000908290602490829084905af18015620019a4575b6200198d575b5062000cf1565b8062000dc66200199d9262000121565b3862001986565b620019ae62000781565b62001980565b620019dc91925060203d602011620019e4575b620019d3818362000162565b810190620006ed565b90386200191d565b503d620019c7565b620019f662000781565b62001914565b62000ae162001a0b916200067e565b9262000ba5565b5062000a61600562001a2860e0870187620003a4565b90501115905062000a56565b62001aad9062001aca6200023c93610a2b906040519060209262001a5b8482018462000162565b8083528383019062005509823962001abd6040519173ffffffffffffffffffffffffffffffffffffffff8684019416845285835262001a9a8362000145565b604051988995518092888801906200023f565b840191518093868401906200023f565b0103808552018362000162565b60405162001af86020828162001aea81830196878151938492016200023f565b810103808452018262000162565b519020906020815191016000f5803b156200000f5790565b62001aad9062001aca6200023c93610a2b906040519060209262001b378482018462000162565b8083528383019062001e4d823962001abd6040519173ffffffffffffffffffffffffffffffffffffffff8684019416845285835262001a9a8362000145565b62001aad9062001aca6200023c93610a2b906040519060209262001b9d8482018462000162565b8083528383019062003d73823962001abd6040519173ffffffffffffffffffffffffffffffffffffffff8684019416845285835262001a9a8362000145565b62001aad9062001aca6200023c93610a2b906040519060209262001c038482018462000162565b8083528383019062003348823962001abd6040519173ffffffffffffffffffffffffffffffffffffffff8684019416845285835262001a9a8362000145565b9162001aca919362001d0e60c06200023c977fffffffffffffffffffffffffffffffffffffffffffffffffffffffffffffff6094610ad0916040519962001c8d602085018c62000162565b838b5260208b01936200287885396040519673ffffffffffffffffffffffffffffffffffffffff80948180941660208b01521660408901521660608701521660808501526080845262001d0460a0850198858a1067ffffffffffffffff8b111762001d3c575b89604052518092848701906200023f565b8301018262000264565b037fffffffffffffffffffffffffffffffffffffffffffffffffffffffffffffff4081018552018362000162565b62001d46620000f1565b62001cf3565b94929062001e2762001e3f9262001e389862001aca97956200023c9b60ff62001e0d62001ddb610d6b9a6040519b62001d8a8d602083019062000162565b808d526200479e60208e0139604051998a9873ffffffffffffffffffffffffffffffffffffffff80988180941660208d01521660408b015216606089015260e0608089015261010088019062000705565b7fffffffffffffffffffffffffffffffffffffffffffffffffffffffffffffffe09b8c8883030160a089015262000705565b931660c08501521660e08301520385810183528262000162565b604051968793602085019062000264565b9062000264565b039081018452836200016256fe6080604090808252346102105761002c90610a2b80380380916100228285610215565b833981019061024e565b6001600160a01b0381169081156101cc577f821f3e4d3d679f19eacc940c87acf846ea6eae24a63058ea750304437a62aafc5581519081600091807f3b1074392ed8e8424715d0dda2197eede67080b377fc8370e26f3e882207f6b88480a2636ff6e83f60e01b825281600460209586935afa9081156101c2578291610195575b5083516370e39c9560e11b848201908152600482526001600160401b039291808701848111828210176101815787525184928392905af4913d1561017a573d91821161016657845191610109601f8201601f1916860184610215565b8252833d92013e5b156101245750516107bd908161026e8239f35b606491519062461bcd60e51b82526004820152601660248201527f496e697469616c697a6174696f6e206661696c65642e000000000000000000006044820152fd5b634e487b7160e01b81526041600452602490fd5b5050610111565b634e487b7160e01b86526041600452602486fd5b6101b59150833d85116101bb575b6101ad8183610215565b81019061024e565b386100ad565b503d6101a3565b84513d84823e3d90fd5b825162461bcd60e51b815260206004820152601f60248201527f696e76616c696420617267756d656e74202d207a65726f2061646472657373006044820152606490fd5b600080fd5b601f909101601f19168101906001600160401b0382119082101761023857604052565b634e487b7160e01b600052604160045260246000fd5b9081602091031261021057516001600160a01b0381168103610210579056fe60406080815260048036101561001a575b6100186106a1565b005b600091823560e01c80632d5f118714610421576392dd9d651461003d5750610010565b3461041d57602091827ffffffffffffffffffffffffffffffffffffffffffffffffffffffffffffffffc3601126104195761015661017a9282359261008184610494565b6100c96100c27f821f3e4d3d679f19eacc940c87acf846ea6eae24a63058ea750304437a62aafc5473ffffffffffffffffffffffffffffffffffffffff1690565b33146104b7565b73ffffffffffffffffffffffffffffffffffffffff808516966100ed881515610542565b8184517f709bc7f3000000000000000000000000000000000000000000000000000000008152828186818d5afa90811561040c575b8b916103ef575b50161515928361037d575b8361030b575b83610299575b83610227575b836101a1575b505050905061063c565b7f821f3e4d3d679f19eacc940c87acf846ea6eae24a63058ea750304437a62aafc55565b7f3b1074392ed8e8424715d0dda2197eede67080b377fc8370e26f3e882207f6b88280a280f35b91938193505180927ffedcc052000000000000000000000000000000000000000000000000000000008252818a5afa91821561021a575b88926101ed575b50501615158038808061014c565b61020c9250803d10610213575b61020481836105a7565b810190610617565b38806101df565b503d6101fa565b61022261062f565b6101d8565b92508184517f61f89825000000000000000000000000000000000000000000000000000000008152828186818d5afa90811561028c575b8b9161026f575b5016151592610146565b6102869150833d85116102135761020481836105a7565b38610265565b61029461062f565b61025e565b92508184517f9e3e7bb9000000000000000000000000000000000000000000000000000000008152828186818d5afa9081156102fe575b8b916102e1575b5016151592610140565b6102f89150833d85116102135761020481836105a7565b386102d7565b61030661062f565b6102d0565b92508184517f1ee9ce8b000000000000000000000000000000000000000000000000000000008152828186818d5afa908115610370575b8b91610353575b501615159261013a565b61036a9150833d85116102135761020481836105a7565b38610349565b61037861062f565b610342565b92508184517f6ff6e83f000000000000000000000000000000000000000000000000000000008152828186818d5afa9081156103e2575b8b916103c5575b5016151592610134565b6103dc9150833d85116102135761020481836105a7565b386103bb565b6103ea61062f565b6103b4565b6104069150833d85116102135761020481836105a7565b38610129565b61041461062f565b610122565b8380fd5b8280fd5b833461049157807ffffffffffffffffffffffffffffffffffffffffffffffffffffffffffffffffc3601126104915773ffffffffffffffffffffffffffffffffffffffff7f821f3e4d3d679f19eacc940c87acf846ea6eae24a63058ea750304437a62aafc541660805260206080f35b80fd5b73ffffffffffffffffffffffffffffffffffffffff8116036104b257565b600080fd5b156104be57565b60846040517f08c379a000000000000000000000000000000000000000000000000000000000815260206004820152602d60248201527f6f6e6c792063757272656e7420696d706c656d656e746174696f6e417574686f60448201527f726974792063616e2063616c6c000000000000000000000000000000000000006064820152fd5b1561054957565b60646040517f08c379a000000000000000000000000000000000000000000000000000000000815260206004820152601f60248201527f696e76616c696420617267756d656e74202d207a65726f2061646472657373006044820152fd5b90601f7fffffffffffffffffffffffffffffffffffffffffffffffffffffffffffffffe0910116810190811067ffffffffffffffff8211176105e857604052565b7f4e487b7100000000000000000000000000000000000000000000000000000000600052604160045260246000fd5b908160209103126104b2575161062c81610494565b90565b506040513d6000823e3d90fd5b1561064357565b60646040517f08c379a000000000000000000000000000000000000000000000000000000000815260206004820152602060248201527f696e76616c696420496d706c656d656e746174696f6e20417574686f726974796044820152fd5b506000806004602073ffffffffffffffffffffffffffffffffffffffff7f821f3e4d3d679f19eacc940c87acf846ea6eae24a63058ea750304437a62aafc5416604051928380927f6ff6e83f0000000000000000000000000000000000000000000000000000000082525afa90811561077a575b829161075c575b50368280378136917fffffffffffffffffffffffffffffffffffffffffffffffffffffffffffffd8f05a01f43d90816000803e15610758576000f35b6000fd5b610774915060203d81116102135761020481836105a7565b3861071c565b61078261062f565b61071556fea2646970667358221220ab517e3506b79f3c07c8b22229c0abafd1bc91e2992df3eb0ddc416b87ad0f7264736f6c63430008110033608060409080825234620002be5760808162000ad08038038091620000258285620002c3565b833981010312620002be576200003b81620002fd565b6020916200004b838201620002fd565b6200006660606200005e878501620002fd565b9301620002fd565b6001600160a01b038481169491929185151580620002b2575b80620002a6575b806200029a575b1562000256577f821f3e4d3d679f19eacc940c87acf846ea6eae24a63058ea750304437a62aafc558651928684600481600099807f3b1074392ed8e8424715d0dda2197eede67080b377fc8370e26f3e882207f6b88c80a2631ee9ce8b60e01b82525afa9384156200024c57869462000209575b50875163184b955960e01b888201908152938316602482015294821660448601521660648085019190915283526001600160401b039260a0810184811182821017620001f55787525184928392905af4913d15620001ed573d918211620001d9578451916200017a601f8201601f1916860184620002c3565b8252833d92013e5b15620001975750516107bd9081620003138239f35b606491519062461bcd60e51b82526004820152601660248201527f496e697469616c697a6174696f6e206661696c65642e000000000000000000006044820152fd5b634e487b7160e01b81526041600452602490fd5b505062000182565b634e487b7160e01b86526041600452602486fd5b9093508681813d831162000244575b620002248183620002c3565b8101031262000240576200023890620002fd565b923862000101565b8580fd5b503d62000218565b88513d88823e3d90fd5b875162461bcd60e51b815260048101889052601f60248201527f696e76616c696420617267756d656e74202d207a65726f2061646472657373006044820152606490fd5b5081841615156200008d565b50818516151562000086565b5081831615156200007f565b600080fd5b601f909101601f19168101906001600160401b03821190821017620002e757604052565b634e487b7160e01b600052604160045260246000fd5b51906001600160a01b0382168203620002be5756fe60406080815260048036101561001a575b6100186106a1565b005b600091823560e01c80632d5f118714610421576392dd9d651461003d5750610010565b3461041d57602091827ffffffffffffffffffffffffffffffffffffffffffffffffffffffffffffffffc3601126104195761015661017a9282359261008184610494565b6100c96100c27f821f3e4d3d679f19eacc940c87acf846ea6eae24a63058ea750304437a62aafc5473ffffffffffffffffffffffffffffffffffffffff1690565b33146104b7565b73ffffffffffffffffffffffffffffffffffffffff808516966100ed881515610542565b8184517f709bc7f3000000000000000000000000000000000000000000000000000000008152828186818d5afa90811561040c575b8b916103ef575b50161515928361037d575b8361030b575b83610299575b83610227575b836101a1575b505050905061063c565b7f821f3e4d3d679f19eacc940c87acf846ea6eae24a63058ea750304437a62aafc55565b7f3b1074392ed8e8424715d0dda2197eede67080b377fc8370e26f3e882207f6b88280a280f35b91938193505180927ffedcc052000000000000000000000000000000000000000000000000000000008252818a5afa91821561021a575b88926101ed575b50501615158038808061014c565b61020c9250803d10610213575b61020481836105a7565b810190610617565b38806101df565b503d6101fa565b61022261062f565b6101d8565b92508184517f61f89825000000000000000000000000000000000000000000000000000000008152828186818d5afa90811561028c575b8b9161026f575b5016151592610146565b6102869150833d85116102135761020481836105a7565b38610265565b61029461062f565b61025e565b92508184517f9e3e7bb9000000000000000000000000000000000000000000000000000000008152828186818d5afa9081156102fe575b8b916102e1575b5016151592610140565b6102f89150833d85116102135761020481836105a7565b386102d7565b61030661062f565b6102d0565b92508184517f1ee9ce8b000000000000000000000000000000000000000000000000000000008152828186818d5afa908115610370575b8b91610353575b501615159261013a565b61036a9150833d85116102135761020481836105a7565b38610349565b61037861062f565b610342565b92508184517f6ff6e83f000000000000000000000000000000000000000000000000000000008152828186818d5afa9081156103e2575b8b916103c5575b5016151592610134565b6103dc9150833d85116102135761020481836105a7565b386103bb565b6103ea61062f565b6103b4565b6104069150833d85116102135761020481836105a7565b38610129565b61041461062f565b610122565b8380fd5b8280fd5b833461049157807ffffffffffffffffffffffffffffffffffffffffffffffffffffffffffffffffc3601126104915773ffffffffffffffffffffffffffffffffffffffff7f821f3e4d3d679f19eacc940c87acf846ea6eae24a63058ea750304437a62aafc541660805260206080f35b80fd5b73ffffffffffffffffffffffffffffffffffffffff8116036104b257565b600080fd5b156104be57565b60846040517f08c379a000000000000000000000000000000000000000000000000000000000815260206004820152602d60248201527f6f6e6c792063757272656e7420696d706c656d656e746174696f6e417574686f60448201527f726974792063616e2063616c6c000000000000000000000000000000000000006064820152fd5b1561054957565b60646040517f08c379a000000000000000000000000000000000000000000000000000000000815260206004820152601f60248201527f696e76616c696420617267756d656e74202d207a65726f2061646472657373006044820152fd5b90601f7fffffffffffffffffffffffffffffffffffffffffffffffffffffffffffffffe0910116810190811067ffffffffffffffff8211176105e857604052565b7f4e487b7100000000000000000000000000000000000000000000000000000000600052604160045260246000fd5b908160209103126104b2575161062c81610494565b90565b506040513d6000823e3d90fd5b1561064357565b60646040517f08c379a000000000000000000000000000000000000000000000000000000000815260206004820152602060248201527f696e76616c696420496d706c656d656e746174696f6e20417574686f726974796044820152fd5b506000806004602073ffffffffffffffffffffffffffffffffffffffff7f821f3e4d3d679f19eacc940c87acf846ea6eae24a63058ea750304437a62aafc5416604051928380927f1ee9ce8b0000000000000000000000000000000000000000000000000000000082525afa90811561077a575b829161075c575b50368280378136917fffffffffffffffffffffffffffffffffffffffffffffffffffffffffffffd8f05a01f43d90816000803e15610758576000f35b6000fd5b610774915060203d81116102135761020481836105a7565b3861071c565b61078261062f565b61071556fea2646970667358221220147d4e29d13fdfd4d51585687c611e5d098b02b4c67ba60ccd26c0bc1203073864736f6c634300081100336080604090808252346102105761002c90610a2b80380380916100228285610215565b833981019061024e565b6001600160a01b0381169081156101cc577f821f3e4d3d679f19eacc940c87acf846ea6eae24a63058ea750304437a62aafc5581519081600091807f3b1074392ed8e8424715d0dda2197eede67080b377fc8370e26f3e882207f6b88480a2639e3e7bb960e01b825281600460209586935afa9081156101c2578291610195575b5083516370e39c9560e11b848201908152600482526001600160401b039291808701848111828210176101815787525184928392905af4913d1561017a573d91821161016657845191610109601f8201601f1916860184610215565b8252833d92013e5b156101245750516107bd908161026e8239f35b606491519062461bcd60e51b82526004820152601660248201527f496e697469616c697a6174696f6e206661696c65642e000000000000000000006044820152fd5b634e487b7160e01b81526041600452602490fd5b5050610111565b634e487b7160e01b86526041600452602486fd5b6101b59150833d85116101bb575b6101ad8183610215565b81019061024e565b386100ad565b503d6101a3565b84513d84823e3d90fd5b825162461bcd60e51b815260206004820152601f60248201527f696e76616c696420617267756d656e74202d207a65726f2061646472657373006044820152606490fd5b600080fd5b601f909101601f19168101906001600160401b0382119082101761023857604052565b634e487b7160e01b600052604160045260246000fd5b9081602091031261021057516001600160a01b0381168103610210579056fe60406080815260048036101561001a575b6100186106a1565b005b600091823560e01c80632d5f118714610421576392dd9d651461003d5750610010565b3461041d57602091827ffffffffffffffffffffffffffffffffffffffffffffffffffffffffffffffffc3601126104195761015661017a9282359261008184610494565b6100c96100c27f821f3e4d3d679f19eacc940c87acf846ea6eae24a63058ea750304437a62aafc5473ffffffffffffffffffffffffffffffffffffffff1690565b33146104b7565b73ffffffffffffffffffffffffffffffffffffffff808516966100ed881515610542565b8184517f709bc7f3000000000000000000000000000000000000000000000000000000008152828186818d5afa90811561040c575b8b916103ef575b50161515928361037d575b8361030b575b83610299575b83610227575b836101a1575b505050905061063c565b7f821f3e4d3d679f19eacc940c87acf846ea6eae24a63058ea750304437a62aafc55565b7f3b1074392ed8e8424715d0dda2197eede67080b377fc8370e26f3e882207f6b88280a280f35b91938193505180927ffedcc052000000000000000000000000000000000000000000000000000000008252818a5afa91821561021a575b88926101ed575b50501615158038808061014c565b61020c9250803d10610213575b61020481836105a7565b810190610617565b38806101df565b503d6101fa565b61022261062f565b6101d8565b92508184517f61f89825000000000000000000000000000000000000000000000000000000008152828186818d5afa90811561028c575b8b9161026f575b5016151592610146565b6102869150833d85116102135761020481836105a7565b38610265565b61029461062f565b61025e565b92508184517f9e3e7bb9000000000000000000000000000000000000000000000000000000008152828186818d5afa9081156102fe575b8b916102e1575b5016151592610140565b6102f89150833d85116102135761020481836105a7565b386102d7565b61030661062f565b6102d0565b92508184517f1ee9ce8b000000000000000000000000000000000000000000000000000000008152828186818d5afa908115610370575b8b91610353575b501615159261013a565b61036a9150833d85116102135761020481836105a7565b38610349565b61037861062f565b610342565b92508184517f6ff6e83f000000000000000000000000000000000000000000000000000000008152828186818d5afa9081156103e2575b8b916103c5575b5016151592610134565b6103dc9150833d85116102135761020481836105a7565b386103bb565b6103ea61062f565b6103b4565b6104069150833d85116102135761020481836105a7565b38610129565b61041461062f565b610122565b8380fd5b8280fd5b833461049157807ffffffffffffffffffffffffffffffffffffffffffffffffffffffffffffffffc3601126104915773ffffffffffffffffffffffffffffffffffffffff7f821f3e4d3d679f19eacc940c87acf846ea6eae24a63058ea750304437a62aafc541660805260206080f35b80fd5b73ffffffffffffffffffffffffffffffffffffffff8116036104b257565b600080fd5b156104be57565b60846040517f08c379a000000000000000000000000000000000000000000000000000000000815260206004820152602d60248201527f6f6e6c792063757272656e7420696d706c656d656e746174696f6e417574686f60448201527f726974792063616e2063616c6c000000000000000000000000000000000000006064820152fd5b1561054957565b60646040517f08c379a000000000000000000000000000000000000000000000000000000000815260206004820152601f60248201527f696e76616c696420617267756d656e74202d207a65726f2061646472657373006044820152fd5b90601f7fffffffffffffffffffffffffffffffffffffffffffffffffffffffffffffffe0910116810190811067ffffffffffffffff8211176105e857604052565b7f4e487b7100000000000000000000000000000000000000000000000000000000600052604160045260246000fd5b908160209103126104b2575161062c81610494565b90565b506040513d6000823e3d90fd5b1561064357565b60646040517f08c379a000000000000000000000000000000000000000000000000000000000815260206004820152602060248201527f696e76616c696420496d706c656d656e746174696f6e20417574686f726974796044820152fd5b506000806004602073ffffffffffffffffffffffffffffffffffffffff7f821f3e4d3d679f19eacc940c87acf846ea6eae24a63058ea750304437a62aafc5416604051928380927f9e3e7bb90000000000000000000000000000000000000000000000000000000082525afa90811561077a575b829161075c575b50368280378136917fffffffffffffffffffffffffffffffffffffffffffffffffffffffffffffd8f05a01f43d90816000803e15610758576000f35b6000fd5b610774915060203d81116102135761020481836105a7565b3861071c565b61078261062f565b61071556fea2646970667358221220015d29eba475187e743234e2ecbccec0bb536e6b6db6e3a3ae699d18f57560d664736f6c634300081100336080604090808252346102105761002c90610a2b80380380916100228285610215565b833981019061024e565b6001600160a01b0381169081156101cc577f821f3e4d3d679f19eacc940c87acf846ea6eae24a63058ea750304437a62aafc5581519081600091807f3b1074392ed8e8424715d0dda2197eede67080b377fc8370e26f3e882207f6b88480a26361f8982560e01b825281600460209586935afa9081156101c2578291610195575b5083516370e39c9560e11b848201908152600482526001600160401b039291808701848111828210176101815787525184928392905af4913d1561017a573d91821161016657845191610109601f8201601f1916860184610215565b8252833d92013e5b156101245750516107bd908161026e8239f35b606491519062461bcd60e51b82526004820152601660248201527f496e697469616c697a6174696f6e206661696c65642e000000000000000000006044820152fd5b634e487b7160e01b81526041600452602490fd5b5050610111565b634e487b7160e01b86526041600452602486fd5b6101b59150833d85116101bb575b6101ad8183610215565b81019061024e565b386100ad565b503d6101a3565b84513d84823e3d90fd5b825162461bcd60e51b815260206004820152601f60248201527f696e76616c696420617267756d656e74202d207a65726f2061646472657373006044820152606490fd5b600080fd5b601f909101601f19168101906001600160401b0382119082101761023857604052565b634e487b7160e01b600052604160045260246000fd5b9081602091031261021057516001600160a01b0381168103610210579056fe60406080815260048036101561001a575b6100186106a1565b005b600091823560e01c80632d5f118714610421576392dd9d651461003d5750610010565b3461041d57602091827ffffffffffffffffffffffffffffffffffffffffffffffffffffffffffffffffc3601126104195761015661017a9282359261008184610494565b6100c96100c27f821f3e4d3d679f19eacc940c87acf846ea6eae24a63058ea750304437a62aafc5473ffffffffffffffffffffffffffffffffffffffff1690565b33146104b7565b73ffffffffffffffffffffffffffffffffffffffff808516966100ed881515610542565b8184517f709bc7f3000000000000000000000000000000000000000000000000000000008152828186818d5afa90811561040c575b8b916103ef575b50161515928361037d575b8361030b575b83610299575b83610227575b836101a1575b505050905061063c565b7f821f3e4d3d679f19eacc940c87acf846ea6eae24a63058ea750304437a62aafc55565b7f3b1074392ed8e8424715d0dda2197eede67080b377fc8370e26f3e882207f6b88280a280f35b91938193505180927ffedcc052000000000000000000000000000000000000000000000000000000008252818a5afa91821561021a575b88926101ed575b50501615158038808061014c565b61020c9250803d10610213575b61020481836105a7565b810190610617565b38806101df565b503d6101fa565b61022261062f565b6101d8565b92508184517f61f89825000000000000000000000000000000000000000000000000000000008152828186818d5afa90811561028c575b8b9161026f575b5016151592610146565b6102869150833d85116102135761020481836105a7565b38610265565b61029461062f565b61025e565b92508184517f9e3e7bb9000000000000000000000000000000000000000000000000000000008152828186818d5afa9081156102fe575b8b916102e1575b5016151592610140565b6102f89150833d85116102135761020481836105a7565b386102d7565b61030661062f565b6102d0565b92508184517f1ee9ce8b000000000000000000000000000000000000000000000000000000008152828186818d5afa908115610370575b8b91610353575b501615159261013a565b61036a9150833d85116102135761020481836105a7565b38610349565b61037861062f565b610342565b92508184517f6ff6e83f000000000000000000000000000000000000000000000000000000008152828186818d5afa9081156103e2575b8b916103c5575b5016151592610134565b6103dc9150833d85116102135761020481836105a7565b386103bb565b6103ea61062f565b6103b4565b6104069150833d85116102135761020481836105a7565b38610129565b61041461062f565b610122565b8380fd5b8280fd5b833461049157807ffffffffffffffffffffffffffffffffffffffffffffffffffffffffffffffffc3601126104915773ffffffffffffffffffffffffffffffffffffffff7f821f3e4d3d679f19eacc940c87acf846ea6eae24a63058ea750304437a62aafc541660805260206080f35b80fd5b73ffffffffffffffffffffffffffffffffffffffff8116036104b257565b600080fd5b156104be57565b60846040517f08c379a000000000000000000000000000000000000000000000000000000000815260206004820152602d60248201527f6f6e6c792063757272656e7420696d706c656d656e746174696f6e417574686f60448201527f726974792063616e2063616c6c000000000000000000000000000000000000006064820152fd5b1561054957565b60646040517f08c379a000000000000000000000000000000000000000000000000000000000815260206004820152601f60248201527f696e76616c696420617267756d656e74202d207a65726f2061646472657373006044820152fd5b90601f7fffffffffffffffffffffffffffffffffffffffffffffffffffffffffffffffe0910116810190811067ffffffffffffffff8211176105e857604052565b7f4e487b7100000000000000000000000000000000000000000000000000000000600052604160045260246000fd5b908160209103126104b2575161062c81610494565b90565b506040513d6000823e3d90fd5b1561064357565b60646040517f08c379a000000000000000000000000000000000000000000000000000000000815260206004820152602060248201527f696e76616c696420496d706c656d656e746174696f6e20417574686f726974796044820152fd5b506000806004602073ffffffffffffffffffffffffffffffffffffffff7f821f3e4d3d679f19eacc940c87acf846ea6eae24a63058ea750304437a62aafc5416604051928380927f61f898250000000000000000000000000000000000000000000000000000000082525afa90811561077a575b829161075c575b50368280378136917fffffffffffffffffffffffffffffffffffffffffffffffffffffffffffffd8f05a01f43d90816000803e15610758576000f35b6000fd5b610774915060203d81116102135761020481836105a7565b3861071c565b61078261062f565b61071556fea2646970667358221220c7437c6bd3ac23c983c6f06183b66ba12e19f2b271283e9eb83ada17e59810ef64736f6c634300081100336080604081815234620004885762000d6b8038038091620000218286620004bf565b8439820160e08382031262000488576200003b83620004e3565b6020916200004b838601620004e3565b62000058858701620004e3565b60608701519096906001600160401b03908181116200048857846200007f91840162000539565b93608083015191821162000488576200009a91830162000539565b9060a08101519060ff8216809203620004885760c0620000bb9101620004e3565b6001600160a01b0386811695909390861515806200047c575b8062000470575b156200042c57899a8a999a51988b8a018c81528a620000fd8d82018662000586565b039a62000113601f199c8d8101835282620004bf565b5190208c8c5181810191825260009d8e81830152815262000134816200048d565b519020141580620003d5575b156200039157601286116200034d577f3b1074392ed8e8424715d0dda2197eede67080b377fc8370e26f3e882207f6b860048c8f8f94908d917f821f3e4d3d679f19eacc940c87acf846ea6eae24a63058ea750304437a62aafc55519c8d94838694a263709bc7f360e01b82525afa9788156200034357918a9897969593918d8d96948b9a620002cd575b508a9b9593620002138994856200023f9a98956200022695519c8d9a8b019e8f633e46d86760e21b90521660248b015216604489015260c0606489015260e488019062000586565b8681036023190160848801529062000586565b9260a48501521660c483015203908101835282620004bf565b51915af4903d15620002c6573d906200025882620004f8565b916200026786519384620004bf565b8252833d92013e5b15620002845750516107bd9081620005ae8239f35b606491519062461bcd60e51b82526004820152601660248201527f496e697469616c697a6174696f6e206661696c65642e000000000000000000006044820152fd5b506200026f565b93969295989b9950509295985081813d83116200033b575b620002f18183620004bf565b81010312620003375794878095620002266200023f968f9a968f96908f9e9b9d8f9e92620003236200021394620004e3565b9e955095989a505094505093959b620001cb565b8980fd5b503d620002e5565b8c513d8c823e3d90fd5b8c5162461bcd60e51b8152600481018d9052601960248201527f646563696d616c73206265747765656e203020616e64203138000000000000006044820152606490fd5b8c5162461bcd60e51b8152600481018d9052601f60248201527f696e76616c696420617267756d656e74202d20656d70747920737472696e67006044820152606490fd5b508c8c8c8c8351620004038482019285845282620003f68882018d62000586565b03908101835282620004bf565b5190209280519183830193845281830152815262000421816200048d565b519020141562000140565b895162461bcd60e51b8152600481018a9052601f60248201527f696e76616c696420617267756d656e74202d207a65726f2061646472657373006044820152606490fd5b50848b161515620000db565b508486161515620000d4565b600080fd5b606081019081106001600160401b03821117620004a957604052565b634e487b7160e01b600052604160045260246000fd5b601f909101601f19168101906001600160401b03821190821017620004a957604052565b51906001600160a01b03821682036200048857565b6001600160401b038111620004a957601f01601f191660200190565b60005b838110620005285750506000910152565b818101518382015260200162000517565b81601f82011215620004885780516200055281620004f8565b92620005626040519485620004bf565b81845260208284010111620004885762000583916020808501910162000514565b90565b90602091620005a18151809281855285808601910162000514565b601f01601f191601019056fe60406080815260048036101561001a575b6100186106a1565b005b600091823560e01c80632d5f118714610421576392dd9d651461003d5750610010565b3461041d57602091827ffffffffffffffffffffffffffffffffffffffffffffffffffffffffffffffffc3601126104195761015661017a9282359261008184610494565b6100c96100c27f821f3e4d3d679f19eacc940c87acf846ea6eae24a63058ea750304437a62aafc5473ffffffffffffffffffffffffffffffffffffffff1690565b33146104b7565b73ffffffffffffffffffffffffffffffffffffffff808516966100ed881515610542565b8184517f709bc7f3000000000000000000000000000000000000000000000000000000008152828186818d5afa90811561040c575b8b916103ef575b50161515928361037d575b8361030b575b83610299575b83610227575b836101a1575b505050905061063c565b7f821f3e4d3d679f19eacc940c87acf846ea6eae24a63058ea750304437a62aafc55565b7f3b1074392ed8e8424715d0dda2197eede67080b377fc8370e26f3e882207f6b88280a280f35b91938193505180927ffedcc052000000000000000000000000000000000000000000000000000000008252818a5afa91821561021a575b88926101ed575b50501615158038808061014c565b61020c9250803d10610213575b61020481836105a7565b810190610617565b38806101df565b503d6101fa565b61022261062f565b6101d8565b92508184517f61f89825000000000000000000000000000000000000000000000000000000008152828186818d5afa90811561028c575b8b9161026f575b5016151592610146565b6102869150833d85116102135761020481836105a7565b38610265565b61029461062f565b61025e565b92508184517f9e3e7bb9000000000000000000000000000000000000000000000000000000008152828186818d5afa9081156102fe575b8b916102e1575b5016151592610140565b6102f89150833d85116102135761020481836105a7565b386102d7565b61030661062f565b6102d0565b92508184517f1ee9ce8b000000000000000000000000000000000000000000000000000000008152828186818d5afa908115610370575b8b91610353575b501615159261013a565b61036a9150833d85116102135761020481836105a7565b38610349565b61037861062f565b610342565b92508184517f6ff6e83f000000000000000000000000000000000000000000000000000000008152828186818d5afa9081156103e2575b8b916103c5575b5016151592610134565b6103dc9150833d85116102135761020481836105a7565b386103bb565b6103ea61062f565b6103b4565b6104069150833d85116102135761020481836105a7565b38610129565b61041461062f565b610122565b8380fd5b8280fd5b833461049157807ffffffffffffffffffffffffffffffffffffffffffffffffffffffffffffffffc3601126104915773ffffffffffffffffffffffffffffffffffffffff7f821f3e4d3d679f19eacc940c87acf846ea6eae24a63058ea750304437a62aafc541660805260206080f35b80fd5b73ffffffffffffffffffffffffffffffffffffffff8116036104b257565b600080fd5b156104be57565b60846040517f08c379a000000000000000000000000000000000000000000000000000000000815260206004820152602d60248201527f6f6e6c792063757272656e7420696d706c656d656e746174696f6e417574686f60448201527f726974792063616e2063616c6c000000000000000000000000000000000000006064820152fd5b1561054957565b60646040517f08c379a000000000000000000000000000000000000000000000000000000000815260206004820152601f60248201527f696e76616c696420617267756d656e74202d207a65726f2061646472657373006044820152fd5b90601f7fffffffffffffffffffffffffffffffffffffffffffffffffffffffffffffffe0910116810190811067ffffffffffffffff8211176105e857604052565b7f4e487b7100000000000000000000000000000000000000000000000000000000600052604160045260246000fd5b908160209103126104b2575161062c81610494565b90565b506040513d6000823e3d90fd5b1561064357565b60646040517f08c379a000000000000000000000000000000000000000000000000000000000815260206004820152602060248201527f696e76616c696420496d706c656d656e746174696f6e20417574686f726974796044820152fd5b506000806004602073ffffffffffffffffffffffffffffffffffffffff7f821f3e4d3d679f19eacc940c87acf846ea6eae24a63058ea750304437a62aafc5416604051928380927f709bc7f30000000000000000000000000000000000000000000000000000000082525afa90811561077a575b829161075c575b50368280378136917fffffffffffffffffffffffffffffffffffffffffffffffffffffffffffffd8f05a01f43d90816000803e15610758576000f35b6000fd5b610774915060203d81116102135761020481836105a7565b3861071c565b61078261062f565b61071556fea264697066735822122012a5ce01de49f70209db06ee53c3ebe4fbf0bed76208941be9372b171dafc35a64736f6c634300081100336080604090808252346102105761002c90610a2b80380380916100228285610215565b833981019061024e565b6001600160a01b0381169081156101cc577f821f3e4d3d679f19eacc940c87acf846ea6eae24a63058ea750304437a62aafc5581519081600091807f3b1074392ed8e8424715d0dda2197eede67080b377fc8370e26f3e882207f6b88480a2637f6e602960e11b825281600460209586935afa9081156101c2578291610195575b5083516370e39c9560e11b848201908152600482526001600160401b039291808701848111828210176101815787525184928392905af4913d1561017a573d91821161016657845191610109601f8201601f1916860184610215565b8252833d92013e5b156101245750516107bd908161026e8239f35b606491519062461bcd60e51b82526004820152601660248201527f496e697469616c697a6174696f6e206661696c65642e000000000000000000006044820152fd5b634e487b7160e01b81526041600452602490fd5b5050610111565b634e487b7160e01b86526041600452602486fd5b6101b59150833d85116101bb575b6101ad8183610215565b81019061024e565b386100ad565b503d6101a3565b84513d84823e3d90fd5b825162461bcd60e51b815260206004820152601f60248201527f696e76616c696420617267756d656e74202d207a65726f2061646472657373006044820152606490fd5b600080fd5b601f909101601f19168101906001600160401b0382119082101761023857604052565b634e487b7160e01b600052604160045260246000fd5b9081602091031261021057516001600160a01b0381168103610210579056fe60406080815260048036101561001a575b6100186106a1565b005b600091823560e01c80632d5f118714610421576392dd9d651461003d5750610010565b3461041d57602091827ffffffffffffffffffffffffffffffffffffffffffffffffffffffffffffffffc3601126104195761015661017a9282359261008184610494565b6100c96100c27f821f3e4d3d679f19eacc940c87acf846ea6eae24a63058ea750304437a62aafc5473ffffffffffffffffffffffffffffffffffffffff1690565b33146104b7565b73ffffffffffffffffffffffffffffffffffffffff808516966100ed881515610542565b8184517f709bc7f3000000000000000000000000000000000000000000000000000000008152828186818d5afa90811561040c575b8b916103ef575b50161515928361037d575b8361030b575b83610299575b83610227575b836101a1575b505050905061063c565b7f821f3e4d3d679f19eacc940c87acf846ea6eae24a63058ea750304437a62aafc55565b7f3b1074392ed8e8424715d0dda2197eede67080b377fc8370e26f3e882207f6b88280a280f35b91938193505180927ffedcc052000000000000000000000000000000000000000000000000000000008252818a5afa91821561021a575b88926101ed575b50501615158038808061014c565b61020c9250803d10610213575b61020481836105a7565b810190610617565b38806101df565b503d6101fa565b61022261062f565b6101d8565b92508184517f61f89825000000000000000000000000000000000000000000000000000000008152828186818d5afa90811561028c575b8b9161026f575b5016151592610146565b6102869150833d85116102135761020481836105a7565b38610265565b61029461062f565b61025e565b92508184517f9e3e7bb9000000000000000000000000000000000000000000000000000000008152828186818d5afa9081156102fe575b8b916102e1575b5016151592610140565b6102f89150833d85116102135761020481836105a7565b386102d7565b61030661062f565b6102d0565b92508184517f1ee9ce8b000000000000000000000000000000000000000000000000000000008152828186818d5afa908115610370575b8b91610353575b501615159261013a565b61036a9150833d85116102135761020481836105a7565b38610349565b61037861062f565b610342565b92508184517f6ff6e83f000000000000000000000000000000000000000000000000000000008152828186818d5afa9081156103e2575b8b916103c5575b5016151592610134565b6103dc9150833d85116102135761020481836105a7565b386103bb565b6103ea61062f565b6103b4565b6104069150833d85116102135761020481836105a7565b38610129565b61041461062f565b610122565b8380fd5b8280fd5b833461049157807ffffffffffffffffffffffffffffffffffffffffffffffffffffffffffffffffc3601126104915773ffffffffffffffffffffffffffffffffffffffff7f821f3e4d3d679f19eacc940c87acf846ea6eae24a63058ea750304437a62aafc541660805260206080f35b80fd5b73ffffffffffffffffffffffffffffffffffffffff8116036104b257565b600080fd5b156104be57565b60846040517f08c379a000000000000000000000000000000000000000000000000000000000815260206004820152602d60248201527f6f6e6c792063757272656e7420696d706c656d656e746174696f6e417574686f60448201527f726974792063616e2063616c6c000000000000000000000000000000000000006064820152fd5b1561054957565b60646040517f08c379a000000000000000000000000000000000000000000000000000000000815260206004820152601f60248201527f696e76616c696420617267756d656e74202d207a65726f2061646472657373006044820152fd5b90601f7fffffffffffffffffffffffffffffffffffffffffffffffffffffffffffffffe0910116810190811067ffffffffffffffff8211176105e857604052565b7f4e487b7100000000000000000000000000000000000000000000000000000000600052604160045260246000fd5b908160209103126104b2575161062c81610494565b90565b506040513d6000823e3d90fd5b1561064357565b60646040517f08c379a000000000000000000000000000000000000000000000000000000000815260206004820152602060248201527f696e76616c696420496d706c656d656e746174696f6e20417574686f726974796044820152fd5b506000806004602073ffffffffffffffffffffffffffffffffffffffff7f821f3e4d3d679f19eacc940c87acf846ea6eae24a63058ea750304437a62aafc5416604051928380927ffedcc0520000000000000000000000000000000000000000000000000000000082525afa90811561077a575b829161075c575b50368280378136917fffffffffffffffffffffffffffffffffffffffffffffffffffffffffffffd8f05a01f43d90816000803e15610758576000f35b6000fd5b610774915060203d81116102135761020481836105a7565b3861071c565b61078261062f565b61071556fea26469706673582212202e19263919af6cb6d7da58de140760f312799b78856bfccf437f899a3ce0cdb764736f6c63430008110033a264697066735822122062f94446814c0d1cbe04fe89b6cdab1010d1590bd60d3c0d50bc9f8480e831f764736f6c63430008110033","linkReferences":{}},"methodIdentifiers":{"deployTREXSuite(string,(address,string,string,uint8,address,address,address[],address[],address[],bytes[]),(uint256[],address[],uint256[][]))":"cf753d37","tokenDeployed(string)":"fb88d79c"},"id":2}