{"abi":[{"type":"constructor","inputs":[{"name":"implementationAuthority_","type":"address","internalType":"address"},{"name":"idFactory_","type":"address","internalType":"address"}],"stateMutability":"nonpayable"},{"type":"function","name":"deployTREXSuite","inputs":[{"name":"_salt","type":"string","internalType":"string"},{"name":"_tokenDetails","type":"tuple","internalType":"struct ITREXFactory.TokenDetails","components":[{"name":"owner","type":"address","internalType":"address"},{"name":"name","type":"string","internalType":"string"},{"name":"symbol","type":"string","internalType":"string"},{"name":"decimals","type":"uint8","internalType":"uint8"},{"name":"irs","type":"address","internalType":"address"},{"name":"ONCHAINID","type":"address","internalType":"address"},{"name":"irAgents","type":"address[]","internalType":"address[]"},{"name":"tokenAgents","type":"address[]","internalType":"address[]"},{"name":"complianceModules","type":"address[]","internalType":"address[]"},{"name":"complianceSettings","type":"bytes[]","internalType":"bytes[]"}]},{"name":"_claimDetails","type":"tuple","internalType":"struct ITREXFactory.ClaimDetails","components":[{"name":"claimTopics","type":"uint256[]","internalType":"uint256[]"},{"name":"issuers","type":"address[]","internalType":"address[]"},{"name":"issuerClaims","type":"uint256[][]","internalType":"uint256[][]"}]}],"outputs":[],"stateMutability":"nonpayable"},{"type":"function","name":"getIdFactory","inputs":[],"outputs":[{"name":"","type":"address","internalType":"address"}],"stateMutability":"view"},{"type":"function","name":"getImplementationAuthority","inputs":[],"outputs":[{"name":"","type":"address","internalType":"address"}],"stateMutability":"view"},{"type":"function","name":"getToken","inputs":[{"name":"_salt","type":"string","internalType":"string"}],"outputs":[{"name":"","type":"address","internalType":"address"}],"stateMutability":"view"},{"type":"function","name":"owner","inputs":[],"outputs":[{"name":"","type":"address","internalType":"address"}],"stateMutability":"view"},{"type":"function","name":"recoverContractOwnership","inputs":[{"name":"_contract","type":"address","internalType":"address"},{"name":"_newOwner","type":"address","internalType":"address"}],"outputs":[],"stateMutability":"nonpayable"},{"type":"function","name":"renounceOwnership","inputs":[],"outputs":[],"stateMutability":"nonpayable"},{"type":"function","name":"setIdFactory","inputs":[{"name":"idFactory_","type":"address","internalType":"address"}],"outputs":[],"stateMutability":"nonpayable"},{"type":"function","name":"setImplementationAuthority","inputs":[{"name":"implementationAuthority_","type":"address","internalType":"address"}],"outputs":[],"stateMutability":"nonpayable"},{"type":"function","name":"tokenDeployed","inputs":[{"name":"","type":"string","internalType":"string"}],"outputs":[{"name":"","type":"address","internalType":"address"}],"stateMutability":"view"},{"type":"function","name":"transferOwnership","inputs":[{"name":"newOwner","type":"address","internalType":"address"}],"outputs":[],"stateMutability":"nonpayable"},{"type":"event","name":"Deployed","inputs":[{"name":"_addr","type":"address","indexed":true,"internalType":"address"}],"anonymous":false},{"type":"event","name":"IdFactorySet","inputs":[{"name":"_idFactory","type":"address","indexed":false,"internalType":"address"}],"anonymous":false},{"type":"event","name":"ImplementationAuthoritySet","inputs":[{"name":"_implementationAuthority","type":"address","indexed":false,"internalType":"address"}],"anonymous":false},{"type":"event","name":"OwnershipTransferred","inputs":[{"name":"previousOwner","type":"address","indexed":true,"internalType":"address"},{"name":"newOwner","type":"address","indexed":true,"internalType":"address"}],"anonymous":false},{"type":"event","name":"TREXSuiteDeployed","inputs":[{"name":"_token","type":"address","indexed":true,"internalType":"address"},{"name":"_ir","type":"address","indexed":false,"internalType":"address"},{"name":"_irs","type":"address","indexed":false,"internalType":"address"},{"name":"_tir","type":"address","indexed":false,"internalType":"address"},{"name":"_ctr","type":"address","indexed":false,"internalType":"address"},{"name":"_mc","type":"address","indexed":false,"internalType":"address"},{"name":"_salt","type":"string","indexed":true,"internalType":"string"}],"anonymous":false}],"bytecode":{"object":"0x60806040818152346200047757808262005abe80380380916200002382856200047c565b83398101031262000477576200003982620004b6565b91620000496020809201620004b6565b60008054336001600160a01b031980831682178455929692936001600160a01b0393909284929083167f8be0079c531659141344cd1fd0a4f28419497f9722a3daafe3b4186f6b6457e08a80a3620000a062000518565b16620000ae811515620004cb565b855163709bc7f360e01b81526004979086818a81865afa908115620002d157908591839162000437575b501615159081620003c3575b816200034f575b81620002db575b8162000259575b81620001d5575b501562000194577fae81f4fee1b2d830e39ae449967642aaa0e5a1771aa200d0a50853010992242c95965084817f3b1074392ed8e8424715d0dda2197eede67080b377fc8370e26f3e882207f6b8928660015416176001558851908152a16200016862000518565b16809162000178821515620004cb565b60025416176002558351908152a15161554c9081620005728239f35b606487868089519262461bcd60e51b845283015260248201527f696e76616c696420496d706c656d656e746174696f6e20417574686f726974796044820152fd5b8751637f6e602960e11b815290915086818a81865afa9182156200024e579081869362000209575b50501615153862000100565b915091508682813d831162000246575b6200022581836200047c565b810103126200024357506200023b8491620004b6565b3880620001fd565b80fd5b503d62000219565b8851903d90823e3d90fd5b87516361f8982560e01b815290915086818a81865afa908115620002d15790859183916200028d575b5016151590620000f9565b809250888092503d8311620002c9575b620002a981836200047c565b81010312620002c557620002be8591620004b6565b3862000282565b5080fd5b503d6200029d565b88513d84823e3d90fd5b8751639e3e7bb960e01b815290915086818a81865afa908115620002d15790859183916200030f575b5016151590620000f2565b809250888092503d831162000347575b6200032b81836200047c565b81010312620002c557620003408591620004b6565b3862000304565b503d6200031f565b8751631ee9ce8b60e01b815290915086818a81865afa908115620002d157908591839162000383575b5016151590620000eb565b809250888092503d8311620003bb575b6200039f81836200047c565b81010312620002c557620003b48591620004b6565b3862000378565b503d62000393565b8751636ff6e83f60e01b815290915086818a81865afa908115620002d1579085918391620003f7575b5016151590620000e4565b809250888092503d83116200042f575b6200041381836200047c565b81010312620002c557620004288591620004b6565b38620003ec565b503d62000407565b809250888092503d83116200046f575b6200045381836200047c565b81010312620002c557620004688591620004b6565b38620000d8565b503d62000447565b600080fd5b601f909101601f19168101906001600160401b03821190821017620004a057604052565b634e487b7160e01b600052604160045260246000fd5b51906001600160a01b03821682036200047757565b15620004d357565b60405162461bcd60e51b815260206004820152601f60248201527f696e76616c696420617267756d656e74202d207a65726f2061646472657373006044820152606490fd5b6000546001600160a01b031633036200052d57565b606460405162461bcd60e51b815260206004820152602060248201527f4f776e61626c653a2063616c6c6572206973206e6f7420746865206f776e65726044820152fdfe6080604052600436101562000014575b600080fd5b60003560e01c80632d5f1187146200010f57806350b0183814620001045780635f2773a514620000f9578063715018a614620000ee5780638da5cb5b14620000e357806392dd9d6514620000d8578063c1733f6814620000cd578063ccd41cce14620000c2578063cf753d3714620000b7578063f2fde38b14620000ac5763fb88d79c14620000a257600080fd5b6200000f620009ca565b506200000f62000895565b506200000f62000814565b506200000f6200069c565b506200000f6200060c565b506200000f620002c2565b506200000f62000296565b506200000f62000236565b506200000f6200020a565b506200000f62000164565b506200000f62000126565b60009103126200000f57565b50346200000f5760003660031901126200000f576001546040516001600160a01b039091168152602090f35b6001600160a01b038116036200000f57565b50346200000f57600060403660031901126200020757600435620001888162000152565b8160243591620001988362000152565b620001a262002010565b6001600160a01b0390811692833b15620002035760249083604051958694859363f2fde38b60e01b85521660048401525af18015620001f3575b620001e5575080f35b620001f09062000733565b80f35b620001fd62001a4d565b620001dc565b8280fd5b80fd5b50346200000f5760003660031901126200000f576002546040516001600160a01b039091168152602090f35b50346200000f5760008060031936011262000207576200025562002010565b80546001600160a01b03198116825581906001600160a01b03167f8be0079c531659141344cd1fd0a4f28419497f9722a3daafe3b4186f6b6457e08280a380f35b50346200000f5760003660031901126200000f576000546040516001600160a01b039091168152602090f35b50346200000f576020806003193601126200000f57620003c57f3b1074392ed8e8424715d0dda2197eede67080b377fc8370e26f3e882207f6b89160049062000392823592620003128462000152565b6200031c62002010565b6001600160a01b0384811691906200033683151562001bde565b60409481865163709bc7f360e01b815282818681895afa908115620005fc575b600091620005da575b50161515928362000575575b8362000510575b83620004ab575b8362000446575b83620003ca575b505050905062001c2b565b600180546001600160a01b0319166001600160a01b038416179055516001600160a01b0390911681529081906020820190565b0390a1005b9193819350865192838092637f6e602960e11b82525afa91821562000436575b60009262000402575b50501615158038808062000387565b620004269250803d106200042e575b6200041d818362000774565b810190620019e3565b3880620003f3565b503d62000411565b6200044062001a4d565b620003ea565b92508186516361f8982560e01b815282818681895afa9081156200049b575b60009162000479575b501615159262000380565b620004949150833d85116200042e576200041d818362000774565b386200046e565b620004a562001a4d565b62000465565b9250818651639e3e7bb960e01b815282818681895afa90811562000500575b600091620004de575b501615159262000379565b620004f99150833d85116200042e576200041d818362000774565b38620004d3565b6200050a62001a4d565b620004ca565b9250818651631ee9ce8b60e01b815282818681895afa90811562000565575b60009162000543575b501615159262000372565b6200055e9150833d85116200042e576200041d818362000774565b3862000538565b6200056f62001a4d565b6200052f565b9250818651636ff6e83f60e01b815282818681895afa908115620005ca575b600091620005a8575b50161515926200036b565b620005c39150833d85116200042e576200041d818362000774565b386200059d565b620005d462001a4d565b62000594565b620005f59150833d85116200042e576200041d818362000774565b386200035f565b6200060662001a4d565b62000356565b50346200000f5760203660031901126200000f5760043567ffffffffffffffff8082116200000f57366023830112156200000f5781600401359081116200000f5736602482840101116200000f57620006716200067e91602462000698940162001bc5565b546001600160a01b031690565b6040516001600160a01b0390911681529081906020820190565b0390f35b50346200000f5760203660031901126200000f577fae81f4fee1b2d830e39ae449967642aaa0e5a1771aa200d0a50853010992242c6020600435620006e18162000152565b620006eb62002010565b6001600160a01b03166200070181151562001bde565b600280546001600160a01b03191682179055604051908152a1005b50634e487b7160e01b600052604160045260246000fd5b67ffffffffffffffff81116200074857604052565b620007526200071c565b604052565b6040810190811067ffffffffffffffff8211176200074857604052565b90601f8019910116810190811067ffffffffffffffff8211176200074857604052565b92919267ffffffffffffffff8211620007e3575b60405191620007c5601f8201601f19166020018462000774565b8294818452818301116200000f578281602093846000960137010152565b620007ed6200071c565b620007ab565b9080601f830112156200000f57816020620008119335910162000797565b90565b50346200000f576003196060368201126200000f5767ffffffffffffffff906004358281116200000f576200084e903690600401620007f3565b602435918383116200000f576101408184360301126200000f576044359384116200000f5760609084360301126200000f576200089392600401916004019062000a3b565b005b50346200000f5760203660031901126200000f57600435620008b78162000152565b620008c162002010565b6001600160a01b0390811680156200091057600080546001600160a01b03198116831782559092167f8be0079c531659141344cd1fd0a4f28419497f9722a3daafe3b4186f6b6457e08380a380f35b60405162461bcd60e51b815260206004820152602660248201527f4f776e61626c653a206e6577206f776e657220697320746865207a65726f206160448201526564647265737360d01b6064820152608490fd5b60005b838110620009785750506000910152565b818101518382015260200162000967565b906200099e6020928281519485920162000964565b0190565b6020620009bd91816040519382858094519384920162000964565b8101600381520301902090565b50346200000f5760203660031901126200000f5760043567ffffffffffffffff81116200000f5762000a036020913690600401620007f3565b8162000a19604051928381519384920162000964565b600390820190815281900382019020546040516001600160a01b039091168152f35b92919062000a4862002010565b62000a6b6001600160a01b0362000a636200067187620009a2565b161562001730565b62000a9962000a7e602084018462001776565b905062000a8f604085018562001776565b91905014620017af565b62000ab8600562000aae602085018562001776565b90501115620017fc565b62000ad4600562000aca848062001776565b9050111562001853565b600562000ae560c083018362001776565b90501115806200170e575b62000afb906200189f565b62000b1b601e62000b1161010084018462001776565b90501115620018ec565b62000b4c62000b2f61010083018362001776565b905062000b4161012084018462001776565b919050101562001945565b60015462000b759062000b69906001600160a01b03168662001c77565b6001600160a01b031690565b60015490919062000b959062000b69906001600160a01b03168762001d74565b60015490959062000bb59062000b69906001600160a01b03168362001dcc565b906080830162000bc962000b698262001992565b620016f8575060015462000bec9062000b69906001600160a01b03168362001e24565b925b60015462000c1e9062000b69906001600160a01b03166001600160a01b03878116918c8216918a16908762001e7c565b60015490939062000ca79062000b69906001600160a01b031662000c4660208601866200199e565b9162000c8f62000c5a60408901896200199e565b919062000c8662000c6e60608c01620019d4565b9562000c7d60a08d0162001992565b97369162000797565b92369162000797565b916001600160a01b0388811691908c16908b62001f3c565b9062000cba62000b6960a0850162001992565b15620015d3575b60005b62000cd0898062001776565b905081101562000d815762000cf28162000ceb8b8062001776565b9062001a97565b35906001600160a01b038c163b156200000f5760405163c7b2255160e01b8152600481019290925262000d4d916000818e818381602481015b03926001600160a01b03165af1801562000d71575b62000d53575b5062001a5a565b62000cc4565b8062000d6362000d6a9262000733565b806200011a565b3862000d46565b62000d7b62001a4d565b62000d40565b5090929497989193959860005b62000d9d60208a018a62001776565b905081101562000e2b5762000dc962000b6962000dc38362000ceb60208e018e62001776565b62001992565b9062000de58162000dde60408d018d62001776565b9062001ab9565b92906001600160a01b038e163b156200000f5762000e25938e6000928362000d2b95604051968795869485936313ec7d5360e31b85526004850162001ae9565b62000d8e565b50959894979396509194909391926001600160a01b0381163b156200000f5760405163690a49f960e01b81526001600160a01b038a16600482015260008180602481010381836001600160a01b0387165af18015620015c3575b620015ac575b506001600160a01b0389163b156200000f57604051634273cc2160e11b81526001600160a01b03871660048201526000818b8183816024810103926001600160a01b03165af180156200159c575b62001585575b5060005b62000ef260c089018962001776565b905081101562000f5f5762000f1462000dc38262000ceb60c08c018c62001776565b906001600160a01b038b163b156200000f57604051634273cc2160e11b81526001600160a01b03909216600483015262000f59916000818d8183816024810162000d2b565b62000ee3565b50909192939594979660005b60e0870162000f7b818962001776565b905082101562000fe55762000dc38262000ceb62000f9a938b62001776565b906001600160a01b038b163b156200000f57604051634273cc2160e11b81526001600160a01b03909216600483015262000fdf916000818d8183816024810162000d2b565b62000f6b565b505092969194959790939760005b6200100361010089018962001776565b90508110156200124d576200105960206200102c62000dc38462000ceb6101008e018e62001776565b60405163a446d49f60e01b81526001600160a01b0390911660048201529182908d90829081906024820190565b03916001600160a01b03165afa9081156200123d575b60009162001207575b50156200116c575b6200109061012089018962001776565b90508110620010ab575b620010a59062001a5a565b62000ff3565b620010c781620010c06101208b018b62001776565b9062001b3e565b9190620010e262000dc38362000ceb6101008e018e62001776565b926001600160a01b038d163b156200000f57620010a5938d6000928362001121956040519687958694859363efb22d3360e01b85526004850162001b6a565b03926001600160a01b03165af180156200115c575b62001145575b5090506200109a565b8062000d63620011559262000733565b386200113c565b6200116662001a4d565b62001136565b6200118562000dc38262000ceb6101008c018c62001776565b6001600160a01b038b163b156200000f57604051631ed86f1960e01b81526001600160a01b0390911660048201526000818c8183816024810103926001600160a01b03165af18015620011f7575b620011e0575b5062001080565b8062000d63620011f09262000733565b38620011d9565b6200120162001a4d565b620011d3565b6200122e915060203d60201162001235575b62001225818362000774565b81019062001b24565b3862001078565b503d62001219565b6200124762001a4d565b6200106f565b5090929497959193966200128d60018060a01b0385166200126e88620009a2565b80546001600160a01b0319166001600160a01b03909216919091179055565b620012988362001992565b926001600160a01b0385163b156200000f5760405163f2fde38b60e01b8082526001600160a01b03909516600482015260008180602481010381836001600160a01b038b165af1801562001575575b6200155e575b50620012f98162001992565b6001600160a01b0387163b156200000f576040518581526001600160a01b03909116600482015260008180602481010381836001600160a01b038c165af180156200154e575b62001537575b50620013518162001992565b6001600160a01b0383163b156200000f576040518581526001600160a01b03909116600482015260008180602481010381836001600160a01b0388165af1801562001527575b62001510575b50620013a98162001992565b906001600160a01b0384163b156200000f576040518581526001600160a01b039092166004830152620014029160008180602481010381836001600160a01b038a165af1801562001500575b620014e9575b5062001992565b926001600160a01b0388163b156200000f576040519081526001600160a01b0393841660048201527f057adae5fa3e9caa8a0d584edff60f61558d33f073412ec2d66d558b739e0a4196620014bd946200147c92906000908290602490829084908f165af18015620014d9575b620014c2575b5062001ba3565b604080516001600160a01b03978816815299871660208b015291861691890191909152908416606088015294831660808701529394911692819060a0820190565b0390a3565b8062000d63620014d29262000733565b3862001475565b620014e362001a4d565b6200146f565b8062000d63620014f99262000733565b38620013fb565b6200150a62001a4d565b620013f5565b8062000d63620015209262000733565b386200139d565b6200153162001a4d565b62001397565b8062000d63620015479262000733565b3862001345565b6200155862001a4d565b6200133f565b8062000d636200156e9262000733565b38620012ed565b6200157f62001a4d565b620012e7565b8062000d63620015959262000733565b3862000edf565b620015a662001a4d565b62000ed9565b8062000d63620015bc9262000733565b3862000e8b565b620015cd62001a4d565b62000e85565b6200162c602085620015f462000b6962000b6960025460018060a01b031690565b620015ff8762001992565b604051631eab7fb360e11b81529485938492600092849290916001600160a01b038c166004850162001a22565b03925af1908115620016e8575b600091620016c4575b506001600160a01b0383163b156200000f57604051633d1ddc5b60e01b81526001600160a01b03909116600482015260008180602481010381836001600160a01b0388165af18015620016b4575b6200169d575b5062000cc1565b8062000d63620016ad9262000733565b3862001696565b620016be62001a4d565b62001690565b620016e1915060203d6020116200042e576200041d818362000774565b3862001642565b620016f262001a4d565b62001639565b62000b69620017079162001992565b9262000bee565b5062000afb60056200172460e084018462001776565b90501115905062000af0565b156200173857565b60405162461bcd60e51b81526020600482015260166024820152751d1bdad95b88185b1c9958591e4819195c1b1bde595960521b6044820152606490fd5b903590601e19813603018212156200000f570180359067ffffffffffffffff82116200000f57602001918160051b360383136200000f57565b15620017b757565b60405162461bcd60e51b815260206004820152601760248201527f636c61696d207061747465726e206e6f742076616c69640000000000000000006044820152606490fd5b156200180457565b60405162461bcd60e51b815260206004820152602160248201527f6d6178203520636c61696d2069737375657273206174206465706c6f796d656e6044820152601d60fa1b6064820152608490fd5b156200185b57565b606460405162461bcd60e51b815260206004820152602060248201527f6d6178203520636c61696d20746f70696373206174206465706c6f796d656e746044820152fd5b15620018a757565b60405162461bcd60e51b815260206004820152601a60248201527f6d61782035206167656e7473206174206465706c6f796d656e740000000000006044820152606490fd5b15620018f457565b60405162461bcd60e51b815260206004820152602360248201527f6d6178203330206d6f64756c6520616374696f6e73206174206465706c6f796d604482015262195b9d60ea1b6064820152608490fd5b156200194d57565b60405162461bcd60e51b815260206004820152601a60248201527f696e76616c696420636f6d706c69616e6365207061747465726e0000000000006044820152606490fd5b35620008118162000152565b903590601e19813603018212156200000f570180359067ffffffffffffffff82116200000f576020019181360383136200000f57565b3560ff811681036200000f5790565b908160209103126200000f5751620008118162000152565b9060209162001a168151809281855285808601910162000964565b601f01601f1916010190565b6001600160a01b039182168152911660208201526060604082018190526200081192910190620019fb565b506040513d6000823e3d90fd5b600019811462001a6a5760010190565b634e487b7160e01b600052601160045260246000fd5b50634e487b7160e01b600052603260045260246000fd5b919081101562001aa9575b60051b0190565b62001ab362001a80565b62001aa2565b909162001ad59281101562001ad9575b60051b81019062001776565b9091565b62001ae362001a80565b62001ac9565b6001600160a01b03909116815260406020820181905281018390526001600160fb1b0383116200000f5760609260051b809284830137010190565b908160209103126200000f575180151581036200000f5790565b909162001ad59281101562001b5a575b60051b8101906200199e565b62001b6462001a80565b62001b4e565b918060609160209396959660408652816040870152838601376000828286010152601f80199101168301019360018060a01b0316910152565b62001bbd9060206040519282848094519384920162000964565b810103902090565b6020908260405193849283378101600381520301902090565b1562001be657565b60405162461bcd60e51b815260206004820152601f60248201527f696e76616c696420617267756d656e74202d207a65726f2061646472657373006044820152606490fd5b1562001c3357565b606460405162461bcd60e51b815260206004820152602060248201527f696e76616c696420496d706c656d656e746174696f6e20417574686f726974796044820152fd5b62001ce29062001cff6200081193610828906040519060209262001c9e8482018462000774565b8083528383019062004cef823962001cf2604051918583019360018060a01b0316845285835262001ccf8362000757565b6040519889955180928888019062000964565b8401915180938684019062000964565b0103808552018362000774565b60405162001d2d6020828162001d1f818301968781519384920162000964565b810103808452018262000774565b519020908051906020016000f5803b156200000f576001600160a01b0381167ff40fcec21964ffb566044d083b4073f29f7f7929110ea19e1b3ebe375d89055e600080a290565b62001ce29062001cff6200081193610828906040519060209262001d9b8482018462000774565b808352838301906200206a823962001cf2604051918583019360018060a01b0316845285835262001ccf8362000757565b62001ce29062001cff6200081193610828906040519060209262001df38482018462000774565b808352838301906200395f823962001cf2604051918583019360018060a01b0316845285835262001ccf8362000757565b62001ce29062001cff6200081193610828906040519060209262001e4b8482018462000774565b8083528383019062003137823962001cf2604051918583019360018060a01b0316845285835262001ccf8362000757565b919262001f1960c0620008119662001cff94966108a5916040519862001ea6602085018b62000774565b838a5260208a01936200289285396040519660018060a01b0380948180941660208b01521660408901521660608701521660808501526080845262001f0f60a085019785891067ffffffffffffffff8a111762001f2c575b886040525180928487019062000964565b8301018262000989565b0360bf1981018452609f19018362000774565b62001f366200071c565b62001efe565b94929062001feb620020039262001ffc9862001cff9795620008119b60ff62001fd162001fbd610b689a6040519b62001f7a8d602083019062000774565b808d526200418760208e0139604051998a9860018060a01b0380988180941660208d01521660408b015216606089015260e06080890152610100880190620019fb565b601f199b8c8883030160a0890152620019fb565b931660c08501521660e08301520385810183528262000774565b604051968793602085019062000989565b9062000989565b0390810184528362000774565b6000546001600160a01b031633036200202557565b606460405162461bcd60e51b815260206004820152602060248201527f4f776e61626c653a2063616c6c6572206973206e6f7420746865206f776e65726044820152fdfe6080604090808252346102105761002c9061082880380380916100228285610215565b833981019061024e565b6001600160a01b0381169081156101cc577f821f3e4d3d679f19eacc940c87acf846ea6eae24a63058ea750304437a62aafc5581519081600091807f3b1074392ed8e8424715d0dda2197eede67080b377fc8370e26f3e882207f6b88480a2636ff6e83f60e01b825281600460209586935afa9081156101c2578291610195575b5083516370e39c9560e11b848201908152600482526001600160401b039291808701848111828210176101815787525184928392905af4913d1561017a573d91821161016657845191610109601f8201601f1916860184610215565b8252833d92013e5b156101245750516105ba908161026e8239f35b606491519062461bcd60e51b82526004820152601660248201527f496e697469616c697a6174696f6e206661696c65642e000000000000000000006044820152fd5b634e487b7160e01b81526041600452602490fd5b5050610111565b634e487b7160e01b86526041600452602486fd5b6101b59150833d85116101bb575b6101ad8183610215565b81019061024e565b386100ad565b503d6101a3565b84513d84823e3d90fd5b825162461bcd60e51b815260206004820152601f60248201527f696e76616c696420617267756d656e74202d207a65726f2061646472657373006044820152606490fd5b600080fd5b601f909101601f19168101906001600160401b0382119082101761023857604052565b634e487b7160e01b600052604160045260246000fd5b9081602091031261021057516001600160a01b0381168103610210579056fe60406080815260048036101561001a575b6100186104ce565b005b600091823560e01c80632d5f11871461032b576392dd9d651461003d5750610010565b346103275760209182600319360112610323576100ef6101019282359261006384610362565b60008051602061056583398151915254610087906001600160a01b03163314610378565b6001600160a01b038481169661009e8815156103da565b835163709bc7f360e01b81528290828186818d5afa908115610316575b8b916102f9575b5016151592836102a0575b83610247575b836101ee575b83610195575b83610128575b5050509050610483565b60008051602061056583398151915255565b7f3b1074392ed8e8424715d0dda2197eede67080b377fc8370e26f3e882207f6b88280a280f35b9193819350518092637f6e602960e11b8252818a5afa918215610188575b889261015b575b5050161515803880806100e5565b61017a9250803d10610181575b6101728183610426565b81019061045e565b388061014d565b503d610168565b610190610476565b610146565b92508184516361f8982560e01b8152828186818d5afa9081156101e1575b8b916101c4575b50161515926100df565b6101db9150833d8511610181576101728183610426565b386101ba565b6101e9610476565b6101b3565b9250818451639e3e7bb960e01b8152828186818d5afa90811561023a575b8b9161021d575b50161515926100d9565b6102349150833d8511610181576101728183610426565b38610213565b610242610476565b61020c565b9250818451631ee9ce8b60e01b8152828186818d5afa908115610293575b8b91610276575b50161515926100d3565b61028d9150833d8511610181576101728183610426565b3861026c565b61029b610476565b610265565b9250818451636ff6e83f60e01b8152828186818d5afa9081156102ec575b8b916102cf575b50161515926100cd565b6102e69150833d8511610181576101728183610426565b386102c5565b6102f4610476565b6102be565b6103109150833d8511610181576101728183610426565b386100c2565b61031e610476565b6100bb565b8380fd5b8280fd5b833461035f578060031936011261035f57600080516020610565833981519152546001600160a01b03166080908152602090f35b80fd5b6001600160a01b0381160361037357565b600080fd5b1561037f57565b60405162461bcd60e51b815260206004820152602d60248201527f6f6e6c792063757272656e7420696d706c656d656e746174696f6e417574686f60448201526c1c9a5d1e4818d85b8818d85b1b609a1b6064820152608490fd5b156103e157565b60405162461bcd60e51b815260206004820152601f60248201527f696e76616c696420617267756d656e74202d207a65726f2061646472657373006044820152606490fd5b90601f8019910116810190811067ffffffffffffffff82111761044857604052565b634e487b7160e01b600052604160045260246000fd5b90816020910312610373575161047381610362565b90565b506040513d6000823e3d90fd5b1561048a57565b606460405162461bcd60e51b815260206004820152602060248201527f696e76616c696420496d706c656d656e746174696f6e20417574686f726974796044820152fd5b5060008051602061056583398151915254604051636ff6e83f60e01b8152600091829190602090829060049082906001600160a01b03165afa908115610557575b8291610539575b503682803781369161270f195a01f43d90816000803e15610535576000f35b6000fd5b610551915060203d8111610181576101728183610426565b38610516565b61055f610476565b61050f56fe821f3e4d3d679f19eacc940c87acf846ea6eae24a63058ea750304437a62aafca264697066735822122055739652a3f10a47c7f5efd801d559948f74d6619375c6bc35babb071ef2403864736f6c63430008110033608060409080825234610298576080816108a58038038091610021828561029d565b83398101031261029857610034816102d6565b6020916100428382016102d6565b61005960606100528785016102d6565b93016102d6565b6001600160a01b03848116949192918515158061028d575b80610282575b80610277575b15610233577f821f3e4d3d679f19eacc940c87acf846ea6eae24a63058ea750304437a62aafc558651928684600481600099807f3b1074392ed8e8424715d0dda2197eede67080b377fc8370e26f3e882207f6b88c80a2631ee9ce8b60e01b82525afa9384156102295786946101ee575b50875163184b955960e01b888201908152938316602482015294821660448601521660648085019190915283526001600160401b039260a08101848111828210176101da5787525184928392905af4913d156101d3573d9182116101bf57845191610162601f8201601f191686018461029d565b8252833d92013e5b1561017d5750516105ba90816102eb8239f35b606491519062461bcd60e51b82526004820152601660248201527f496e697469616c697a6174696f6e206661696c65642e000000000000000000006044820152fd5b634e487b7160e01b81526041600452602490fd5b505061016a565b634e487b7160e01b86526041600452602486fd5b9093508681813d8311610222575b610206818361029d565b8101031261021e57610217906102d6565b92386100ee565b8580fd5b503d6101fc565b88513d88823e3d90fd5b875162461bcd60e51b815260048101889052601f60248201527f696e76616c696420617267756d656e74202d207a65726f2061646472657373006044820152606490fd5b50818416151561007d565b508185161515610077565b508183161515610071565b600080fd5b601f909101601f19168101906001600160401b038211908210176102c057604052565b634e487b7160e01b600052604160045260246000fd5b51906001600160a01b03821682036102985756fe60406080815260048036101561001a575b6100186104ce565b005b600091823560e01c80632d5f11871461032b576392dd9d651461003d5750610010565b346103275760209182600319360112610323576100ef6101019282359261006384610362565b60008051602061056583398151915254610087906001600160a01b03163314610378565b6001600160a01b038481169661009e8815156103da565b835163709bc7f360e01b81528290828186818d5afa908115610316575b8b916102f9575b5016151592836102a0575b83610247575b836101ee575b83610195575b83610128575b5050509050610483565b60008051602061056583398151915255565b7f3b1074392ed8e8424715d0dda2197eede67080b377fc8370e26f3e882207f6b88280a280f35b9193819350518092637f6e602960e11b8252818a5afa918215610188575b889261015b575b5050161515803880806100e5565b61017a9250803d10610181575b6101728183610426565b81019061045e565b388061014d565b503d610168565b610190610476565b610146565b92508184516361f8982560e01b8152828186818d5afa9081156101e1575b8b916101c4575b50161515926100df565b6101db9150833d8511610181576101728183610426565b386101ba565b6101e9610476565b6101b3565b9250818451639e3e7bb960e01b8152828186818d5afa90811561023a575b8b9161021d575b50161515926100d9565b6102349150833d8511610181576101728183610426565b38610213565b610242610476565b61020c565b9250818451631ee9ce8b60e01b8152828186818d5afa908115610293575b8b91610276575b50161515926100d3565b61028d9150833d8511610181576101728183610426565b3861026c565b61029b610476565b610265565b9250818451636ff6e83f60e01b8152828186818d5afa9081156102ec575b8b916102cf575b50161515926100cd565b6102e69150833d8511610181576101728183610426565b386102c5565b6102f4610476565b6102be565b6103109150833d8511610181576101728183610426565b386100c2565b61031e610476565b6100bb565b8380fd5b8280fd5b833461035f578060031936011261035f57600080516020610565833981519152546001600160a01b03166080908152602090f35b80fd5b6001600160a01b0381160361037357565b600080fd5b1561037f57565b60405162461bcd60e51b815260206004820152602d60248201527f6f6e6c792063757272656e7420696d706c656d656e746174696f6e417574686f60448201526c1c9a5d1e4818d85b8818d85b1b609a1b6064820152608490fd5b156103e157565b60405162461bcd60e51b815260206004820152601f60248201527f696e76616c696420617267756d656e74202d207a65726f2061646472657373006044820152606490fd5b90601f8019910116810190811067ffffffffffffffff82111761044857604052565b634e487b7160e01b600052604160045260246000fd5b90816020910312610373575161047381610362565b90565b506040513d6000823e3d90fd5b1561048a57565b606460405162461bcd60e51b815260206004820152602060248201527f696e76616c696420496d706c656d656e746174696f6e20417574686f726974796044820152fd5b5060008051602061056583398151915254604051631ee9ce8b60e01b8152600091829190602090829060049082906001600160a01b03165afa908115610557575b8291610539575b503682803781369161270f195a01f43d90816000803e15610535576000f35b6000fd5b610551915060203d8111610181576101728183610426565b38610516565b61055f610476565b61050f56fe821f3e4d3d679f19eacc940c87acf846ea6eae24a63058ea750304437a62aafca2646970667358221220b7a6832da522f9ba87a6a7dfd1e46b24c9fbc54e9955323fb515350c2e1dcaf264736f6c634300081100336080604090808252346102105761002c9061082880380380916100228285610215565b833981019061024e565b6001600160a01b0381169081156101cc577f821f3e4d3d679f19eacc940c87acf846ea6eae24a63058ea750304437a62aafc5581519081600091807f3b1074392ed8e8424715d0dda2197eede67080b377fc8370e26f3e882207f6b88480a2639e3e7bb960e01b825281600460209586935afa9081156101c2578291610195575b5083516370e39c9560e11b848201908152600482526001600160401b039291808701848111828210176101815787525184928392905af4913d1561017a573d91821161016657845191610109601f8201601f1916860184610215565b8252833d92013e5b156101245750516105ba908161026e8239f35b606491519062461bcd60e51b82526004820152601660248201527f496e697469616c697a6174696f6e206661696c65642e000000000000000000006044820152fd5b634e487b7160e01b81526041600452602490fd5b5050610111565b634e487b7160e01b86526041600452602486fd5b6101b59150833d85116101bb575b6101ad8183610215565b81019061024e565b386100ad565b503d6101a3565b84513d84823e3d90fd5b825162461bcd60e51b815260206004820152601f60248201527f696e76616c696420617267756d656e74202d207a65726f2061646472657373006044820152606490fd5b600080fd5b601f909101601f19168101906001600160401b0382119082101761023857604052565b634e487b7160e01b600052604160045260246000fd5b9081602091031261021057516001600160a01b0381168103610210579056fe60406080815260048036101561001a575b6100186104ce565b005b600091823560e01c80632d5f11871461032b576392dd9d651461003d5750610010565b346103275760209182600319360112610323576100ef6101019282359261006384610362565b60008051602061056583398151915254610087906001600160a01b03163314610378565b6001600160a01b038481169661009e8815156103da565b835163709bc7f360e01b81528290828186818d5afa908115610316575b8b916102f9575b5016151592836102a0575b83610247575b836101ee575b83610195575b83610128575b5050509050610483565b60008051602061056583398151915255565b7f3b1074392ed8e8424715d0dda2197eede67080b377fc8370e26f3e882207f6b88280a280f35b9193819350518092637f6e602960e11b8252818a5afa918215610188575b889261015b575b5050161515803880806100e5565b61017a9250803d10610181575b6101728183610426565b81019061045e565b388061014d565b503d610168565b610190610476565b610146565b92508184516361f8982560e01b8152828186818d5afa9081156101e1575b8b916101c4575b50161515926100df565b6101db9150833d8511610181576101728183610426565b386101ba565b6101e9610476565b6101b3565b9250818451639e3e7bb960e01b8152828186818d5afa90811561023a575b8b9161021d575b50161515926100d9565b6102349150833d8511610181576101728183610426565b38610213565b610242610476565b61020c565b9250818451631ee9ce8b60e01b8152828186818d5afa908115610293575b8b91610276575b50161515926100d3565b61028d9150833d8511610181576101728183610426565b3861026c565b61029b610476565b610265565b9250818451636ff6e83f60e01b8152828186818d5afa9081156102ec575b8b916102cf575b50161515926100cd565b6102e69150833d8511610181576101728183610426565b386102c5565b6102f4610476565b6102be565b6103109150833d8511610181576101728183610426565b386100c2565b61031e610476565b6100bb565b8380fd5b8280fd5b833461035f578060031936011261035f57600080516020610565833981519152546001600160a01b03166080908152602090f35b80fd5b6001600160a01b0381160361037357565b600080fd5b1561037f57565b60405162461bcd60e51b815260206004820152602d60248201527f6f6e6c792063757272656e7420696d706c656d656e746174696f6e417574686f60448201526c1c9a5d1e4818d85b8818d85b1b609a1b6064820152608490fd5b156103e157565b60405162461bcd60e51b815260206004820152601f60248201527f696e76616c696420617267756d656e74202d207a65726f2061646472657373006044820152606490fd5b90601f8019910116810190811067ffffffffffffffff82111761044857604052565b634e487b7160e01b600052604160045260246000fd5b90816020910312610373575161047381610362565b90565b506040513d6000823e3d90fd5b1561048a57565b606460405162461bcd60e51b815260206004820152602060248201527f696e76616c696420496d706c656d656e746174696f6e20417574686f726974796044820152fd5b5060008051602061056583398151915254604051639e3e7bb960e01b8152600091829190602090829060049082906001600160a01b03165afa908115610557575b8291610539575b503682803781369161270f195a01f43d90816000803e15610535576000f35b6000fd5b610551915060203d8111610181576101728183610426565b38610516565b61055f610476565b61050f56fe821f3e4d3d679f19eacc940c87acf846ea6eae24a63058ea750304437a62aafca26469706673582212202d11bb820e28f30a7b61f497a8db6ed1874b4f0c26b3570a27a44be6144fa35e64736f6c634300081100336080604090808252346102105761002c9061082880380380916100228285610215565b833981019061024e565b6001600160a01b0381169081156101cc577f821f3e4d3d679f19eacc940c87acf846ea6eae24a63058ea750304437a62aafc5581519081600091807f3b1074392ed8e8424715d0dda2197eede67080b377fc8370e26f3e882207f6b88480a26361f8982560e01b825281600460209586935afa9081156101c2578291610195575b5083516370e39c9560e11b848201908152600482526001600160401b039291808701848111828210176101815787525184928392905af4913d1561017a573d91821161016657845191610109601f8201601f1916860184610215565b8252833d92013e5b156101245750516105ba908161026e8239f35b606491519062461bcd60e51b82526004820152601660248201527f496e697469616c697a6174696f6e206661696c65642e000000000000000000006044820152fd5b634e487b7160e01b81526041600452602490fd5b5050610111565b634e487b7160e01b86526041600452602486fd5b6101b59150833d85116101bb575b6101ad8183610215565b81019061024e565b386100ad565b503d6101a3565b84513d84823e3d90fd5b825162461bcd60e51b815260206004820152601f60248201527f696e76616c696420617267756d656e74202d207a65726f2061646472657373006044820152606490fd5b600080fd5b601f909101601f19168101906001600160401b0382119082101761023857604052565b634e487b7160e01b600052604160045260246000fd5b9081602091031261021057516001600160a01b0381168103610210579056fe60406080815260048036101561001a575b6100186104ce565b005b600091823560e01c80632d5f11871461032b576392dd9d651461003d5750610010565b346103275760209182600319360112610323576100ef6101019282359261006384610362565b60008051602061056583398151915254610087906001600160a01b03163314610378565b6001600160a01b038481169661009e8815156103da565b835163709bc7f360e01b81528290828186818d5afa908115610316575b8b916102f9575b5016151592836102a0575b83610247575b836101ee575b83610195575b83610128575b5050509050610483565b60008051602061056583398151915255565b7f3b1074392ed8e8424715d0dda2197eede67080b377fc8370e26f3e882207f6b88280a280f35b9193819350518092637f6e602960e11b8252818a5afa918215610188575b889261015b575b5050161515803880806100e5565b61017a9250803d10610181575b6101728183610426565b81019061045e565b388061014d565b503d610168565b610190610476565b610146565b92508184516361f8982560e01b8152828186818d5afa9081156101e1575b8b916101c4575b50161515926100df565b6101db9150833d8511610181576101728183610426565b386101ba565b6101e9610476565b6101b3565b9250818451639e3e7bb960e01b8152828186818d5afa90811561023a575b8b9161021d575b50161515926100d9565b6102349150833d8511610181576101728183610426565b38610213565b610242610476565b61020c565b9250818451631ee9ce8b60e01b8152828186818d5afa908115610293575b8b91610276575b50161515926100d3565b61028d9150833d8511610181576101728183610426565b3861026c565b61029b610476565b610265565b9250818451636ff6e83f60e01b8152828186818d5afa9081156102ec575b8b916102cf575b50161515926100cd565b6102e69150833d8511610181576101728183610426565b386102c5565b6102f4610476565b6102be565b6103109150833d8511610181576101728183610426565b386100c2565b61031e610476565b6100bb565b8380fd5b8280fd5b833461035f578060031936011261035f57600080516020610565833981519152546001600160a01b03166080908152602090f35b80fd5b6001600160a01b0381160361037357565b600080fd5b1561037f57565b60405162461bcd60e51b815260206004820152602d60248201527f6f6e6c792063757272656e7420696d706c656d656e746174696f6e417574686f60448201526c1c9a5d1e4818d85b8818d85b1b609a1b6064820152608490fd5b156103e157565b60405162461bcd60e51b815260206004820152601f60248201527f696e76616c696420617267756d656e74202d207a65726f2061646472657373006044820152606490fd5b90601f8019910116810190811067ffffffffffffffff82111761044857604052565b634e487b7160e01b600052604160045260246000fd5b90816020910312610373575161047381610362565b90565b506040513d6000823e3d90fd5b1561048a57565b606460405162461bcd60e51b815260206004820152602060248201527f696e76616c696420496d706c656d656e746174696f6e20417574686f726974796044820152fd5b50600080516020610565833981519152546040516361f8982560e01b8152600091829190602090829060049082906001600160a01b03165afa908115610557575b8291610539575b503682803781369161270f195a01f43d90816000803e15610535576000f35b6000fd5b610551915060203d8111610181576101728183610426565b38610516565b61055f610476565b61050f56fe821f3e4d3d679f19eacc940c87acf846ea6eae24a63058ea750304437a62aafca2646970667358221220d431d6e60dacb0af37ba3918f6cf12c91e475066ba9f07136461d65fe5b091ea64736f6c634300081100336080604081815234620004885762000b688038038091620000218286620004bf565b8439820160e08382031262000488576200003b83620004e3565b6020916200004b838601620004e3565b62000058858701620004e3565b60608701519096906001600160401b03908181116200048857846200007f91840162000539565b93608083015191821162000488576200009a91830162000539565b9060a08101519060ff8216809203620004885760c0620000bb9101620004e3565b6001600160a01b0386811695909390861515806200047c575b8062000470575b156200042c57899a8a999a51988b8a018c81528a620000fd8d82018662000586565b039a62000113601f199c8d8101835282620004bf565b5190208c8c5181810191825260009d8e81830152815262000134816200048d565b519020141580620003d5575b156200039157601286116200034d577f3b1074392ed8e8424715d0dda2197eede67080b377fc8370e26f3e882207f6b860048c8f8f94908d917f821f3e4d3d679f19eacc940c87acf846ea6eae24a63058ea750304437a62aafc55519c8d94838694a263709bc7f360e01b82525afa9788156200034357918a9897969593918d8d96948b9a620002cd575b508a9b9593620002138994856200023f9a98956200022695519c8d9a8b019e8f633e46d86760e21b90521660248b015216604489015260c0606489015260e488019062000586565b8681036023190160848801529062000586565b9260a48501521660c483015203908101835282620004bf565b51915af4903d15620002c6573d906200025882620004f8565b916200026786519384620004bf565b8252833d92013e5b15620002845750516105ba9081620005ae8239f35b606491519062461bcd60e51b82526004820152601660248201527f496e697469616c697a6174696f6e206661696c65642e000000000000000000006044820152fd5b506200026f565b93969295989b9950509295985081813d83116200033b575b620002f18183620004bf565b81010312620003375794878095620002266200023f968f9a968f96908f9e9b9d8f9e92620003236200021394620004e3565b9e955095989a505094505093959b620001cb565b8980fd5b503d620002e5565b8c513d8c823e3d90fd5b8c5162461bcd60e51b8152600481018d9052601960248201527f646563696d616c73206265747765656e203020616e64203138000000000000006044820152606490fd5b8c5162461bcd60e51b8152600481018d9052601f60248201527f696e76616c696420617267756d656e74202d20656d70747920737472696e67006044820152606490fd5b508c8c8c8c8351620004038482019285845282620003f68882018d62000586565b03908101835282620004bf565b5190209280519183830193845281830152815262000421816200048d565b519020141562000140565b895162461bcd60e51b8152600481018a9052601f60248201527f696e76616c696420617267756d656e74202d207a65726f2061646472657373006044820152606490fd5b50848b161515620000db565b508486161515620000d4565b600080fd5b606081019081106001600160401b03821117620004a957604052565b634e487b7160e01b600052604160045260246000fd5b601f909101601f19168101906001600160401b03821190821017620004a957604052565b51906001600160a01b03821682036200048857565b6001600160401b038111620004a957601f01601f191660200190565b60005b838110620005285750506000910152565b818101518382015260200162000517565b81601f82011215620004885780516200055281620004f8565b92620005626040519485620004bf565b81845260208284010111620004885762000583916020808501910162000514565b90565b90602091620005a18151809281855285808601910162000514565b601f01601f191601019056fe60406080815260048036101561001a575b6100186104ce565b005b600091823560e01c80632d5f11871461032b576392dd9d651461003d5750610010565b346103275760209182600319360112610323576100ef6101019282359261006384610362565b60008051602061056583398151915254610087906001600160a01b03163314610378565b6001600160a01b038481169661009e8815156103da565b835163709bc7f360e01b81528290828186818d5afa908115610316575b8b916102f9575b5016151592836102a0575b83610247575b836101ee575b83610195575b83610128575b5050509050610483565b60008051602061056583398151915255565b7f3b1074392ed8e8424715d0dda2197eede67080b377fc8370e26f3e882207f6b88280a280f35b9193819350518092637f6e602960e11b8252818a5afa918215610188575b889261015b575b5050161515803880806100e5565b61017a9250803d10610181575b6101728183610426565b81019061045e565b388061014d565b503d610168565b610190610476565b610146565b92508184516361f8982560e01b8152828186818d5afa9081156101e1575b8b916101c4575b50161515926100df565b6101db9150833d8511610181576101728183610426565b386101ba565b6101e9610476565b6101b3565b9250818451639e3e7bb960e01b8152828186818d5afa90811561023a575b8b9161021d575b50161515926100d9565b6102349150833d8511610181576101728183610426565b38610213565b610242610476565b61020c565b9250818451631ee9ce8b60e01b8152828186818d5afa908115610293575b8b91610276575b50161515926100d3565b61028d9150833d8511610181576101728183610426565b3861026c565b61029b610476565b610265565b9250818451636ff6e83f60e01b8152828186818d5afa9081156102ec575b8b916102cf575b50161515926100cd565b6102e69150833d8511610181576101728183610426565b386102c5565b6102f4610476565b6102be565b6103109150833d8511610181576101728183610426565b386100c2565b61031e610476565b6100bb565b8380fd5b8280fd5b833461035f578060031936011261035f57600080516020610565833981519152546001600160a01b03166080908152602090f35b80fd5b6001600160a01b0381160361037357565b600080fd5b1561037f57565b60405162461bcd60e51b815260206004820152602d60248201527f6f6e6c792063757272656e7420696d706c656d656e746174696f6e417574686f60448201526c1c9a5d1e4818d85b8818d85b1b609a1b6064820152608490fd5b156103e157565b60405162461bcd60e51b815260206004820152601f60248201527f696e76616c696420617267756d656e74202d207a65726f2061646472657373006044820152606490fd5b90601f8019910116810190811067ffffffffffffffff82111761044857604052565b634e487b7160e01b600052604160045260246000fd5b90816020910312610373575161047381610362565b90565b506040513d6000823e3d90fd5b1561048a57565b606460405162461bcd60e51b815260206004820152602060248201527f696e76616c696420496d706c656d656e746174696f6e20417574686f726974796044820152fd5b506000805160206105658339815191525460405163709bc7f360e01b8152600091829190602090829060049082906001600160a01b03165afa908115610557575b8291610539575b503682803781369161270f195a01f43d90816000803e15610535576000f35b6000fd5b610551915060203d8111610181576101728183610426565b38610516565b61055f610476565b61050f56fe821f3e4d3d679f19eacc940c87acf846ea6eae24a63058ea750304437a62aafca2646970667358221220d6bd10b0734d65556c64b284ee37095d448070dbca65237f077448b5de9bc11d64736f6c634300081100336080604090808252346102105761002c9061082880380380916100228285610215565b833981019061024e565b6001600160a01b0381169081156101cc577f821f3e4d3d679f19eacc940c87acf846ea6eae24a63058ea750304437a62aafc5581519081600091807f3b1074392ed8e8424715d0dda2197eede67080b377fc8370e26f3e882207f6b88480a2637f6e602960e11b825281600460209586935afa9081156101c2578291610195575b5083516370e39c9560e11b848201908152600482526001600160401b039291808701848111828210176101815787525184928392905af4913d1561017a573d91821161016657845191610109601f8201601f1916860184610215565b8252833d92013e5b156101245750516105ba908161026e8239f35b606491519062461bcd60e51b82526004820152601660248201527f496e697469616c697a6174696f6e206661696c65642e000000000000000000006044820152fd5b634e487b7160e01b81526041600452602490fd5b5050610111565b634e487b7160e01b86526041600452602486fd5b6101b59150833d85116101bb575b6101ad8183610215565b81019061024e565b386100ad565b503d6101a3565b84513d84823e3d90fd5b825162461bcd60e51b815260206004820152601f60248201527f696e76616c696420617267756d656e74202d207a65726f2061646472657373006044820152606490fd5b600080fd5b601f909101601f19168101906001600160401b0382119082101761023857604052565b634e487b7160e01b600052604160045260246000fd5b9081602091031261021057516001600160a01b0381168103610210579056fe60406080815260048036101561001a575b6100186104ce565b005b600091823560e01c80632d5f11871461032b576392dd9d651461003d5750610010565b346103275760209182600319360112610323576100ef6101019282359261006384610362565b60008051602061056583398151915254610087906001600160a01b03163314610378565b6001600160a01b038481169661009e8815156103da565b835163709bc7f360e01b81528290828186818d5afa908115610316575b8b916102f9575b5016151592836102a0575b83610247575b836101ee575b83610195575b83610128575b5050509050610483565b60008051602061056583398151915255565b7f3b1074392ed8e8424715d0dda2197eede67080b377fc8370e26f3e882207f6b88280a280f35b9193819350518092637f6e602960e11b8252818a5afa918215610188575b889261015b575b5050161515803880806100e5565b61017a9250803d10610181575b6101728183610426565b81019061045e565b388061014d565b503d610168565b610190610476565b610146565b92508184516361f8982560e01b8152828186818d5afa9081156101e1575b8b916101c4575b50161515926100df565b6101db9150833d8511610181576101728183610426565b386101ba565b6101e9610476565b6101b3565b9250818451639e3e7bb960e01b8152828186818d5afa90811561023a575b8b9161021d575b50161515926100d9565b6102349150833d8511610181576101728183610426565b38610213565b610242610476565b61020c565b9250818451631ee9ce8b60e01b8152828186818d5afa908115610293575b8b91610276575b50161515926100d3565b61028d9150833d8511610181576101728183610426565b3861026c565b61029b610476565b610265565b9250818451636ff6e83f60e01b8152828186818d5afa9081156102ec575b8b916102cf575b50161515926100cd565b6102e69150833d8511610181576101728183610426565b386102c5565b6102f4610476565b6102be565b6103109150833d8511610181576101728183610426565b386100c2565b61031e610476565b6100bb565b8380fd5b8280fd5b833461035f578060031936011261035f57600080516020610565833981519152546001600160a01b03166080908152602090f35b80fd5b6001600160a01b0381160361037357565b600080fd5b1561037f57565b60405162461bcd60e51b815260206004820152602d60248201527f6f6e6c792063757272656e7420696d706c656d656e746174696f6e417574686f60448201526c1c9a5d1e4818d85b8818d85b1b609a1b6064820152608490fd5b156103e157565b60405162461bcd60e51b815260206004820152601f60248201527f696e76616c696420617267756d656e74202d207a65726f2061646472657373006044820152606490fd5b90601f8019910116810190811067ffffffffffffffff82111761044857604052565b634e487b7160e01b600052604160045260246000fd5b90816020910312610373575161047381610362565b90565b506040513d6000823e3d90fd5b1561048a57565b606460405162461bcd60e51b815260206004820152602060248201527f696e76616c696420496d706c656d656e746174696f6e20417574686f726974796044820152fd5b5060008051602061056583398151915254604051637f6e602960e11b8152600091829190602090829060049082906001600160a01b03165afa908115610557575b8291610539575b503682803781369161270f195a01f43d90816000803e15610535576000f35b6000fd5b610551915060203d8111610181576101728183610426565b38610516565b61055f610476565b61050f56fe821f3e4d3d679f19eacc940c87acf846ea6eae24a63058ea750304437a62aafca26469706673582212200cad523429d750ec8f22ab3bf738e4d32aad078518a4ea4a7d244e8bfdb444a364736f6c63430008110033a2646970667358221220a8031e610fbaa9dd5a17f6e71e5737cad592e86d23be0bc8d8fdb85aaf30178a64736f6c63430008110033","linkReferences":{}},"methodIdentifiers":{"deployTREXSuite(string,(address,string,string,uint8,address,address,address[],address[],address[],bytes[]),(uint256[],address[],uint256[][]))":"cf753d37","getIdFactory()":"5f2773a5","getImplementationAuthority()":"2d5f1187","getToken(string)":"c1733f68","owner()":"8da5cb5b","recoverContractOwnership(address,address)":"50b01838","renounceOwnership()":"715018a6","setIdFactory(address)":"ccd41cce","setImplementationAuthority(address)":"92dd9d65","tokenDeployed(string)":"fb88d79c","transferOwnership(address)":"f2fde38b"},"id":5}