{"abi":[{"type":"constructor","inputs":[{"name":"implementationAuthority_","type":"address","internalType":"address"},{"name":"idFactory_","type":"address","internalType":"address"}],"stateMutability":"nonpayable"},{"type":"function","name":"deployTREXSuite","inputs":[{"name":"_salt","type":"string","internalType":"string"},{"name":"_tokenDetails","type":"tuple","internalType":"struct ITREXFactory.TokenDetails","components":[{"name":"owner","type":"address","internalType":"address"},{"name":"name","type":"string","internalType":"string"},{"name":"symbol","type":"string","internalType":"string"},{"name":"decimals","type":"uint8","internalType":"uint8"},{"name":"irs","type":"address","internalType":"address"},{"name":"ONCHAINID","type":"address","internalType":"address"},{"name":"irAgents","type":"address[]","internalType":"address[]"},{"name":"tokenAgents","type":"address[]","internalType":"address[]"},{"name":"complianceModules","type":"address[]","internalType":"address[]"},{"name":"complianceSettings","type":"bytes[]","internalType":"bytes[]"}]},{"name":"_claimDetails","type":"tuple","internalType":"struct ITREXFactory.ClaimDetails","components":[{"name":"claimTopics","type":"uint256[]","internalType":"uint256[]"},{"name":"issuers","type":"address[]","internalType":"address[]"},{"name":"issuerClaims","type":"uint256[][]","internalType":"uint256[][]"}]}],"outputs":[],"stateMutability":"nonpayable"},{"type":"function","name":"deployer","inputs":[],"outputs":[{"name":"","type":"address","internalType":"address"}],"stateMutability":"view"},{"type":"function","name":"getIdFactory","inputs":[],"outputs":[{"name":"","type":"address","internalType":"address"}],"stateMutability":"view"},{"type":"function","name":"getImplementationAuthority","inputs":[],"outputs":[{"name":"","type":"address","internalType":"address"}],"stateMutability":"view"},{"type":"function","name":"owner","inputs":[],"outputs":[{"name":"","type":"address","internalType":"address"}],"stateMutability":"view"},{"type":"function","name":"renounceOwnership","inputs":[],"outputs":[],"stateMutability":"nonpayable"},{"type":"function","name":"setDeployer","inputs":[{"name":"_deployer","type":"address","internalType":"address"}],"outputs":[],"stateMutability":"nonpayable"},{"type":"function","name":"setIdFactory","inputs":[{"name":"idFactory_","type":"address","internalType":"address"}],"outputs":[],"stateMutability":"nonpayable"},{"type":"function","name":"setImplementationAuthority","inputs":[{"name":"implementationAuthority_","type":"address","internalType":"address"}],"outputs":[],"stateMutability":"nonpayable"},{"type":"function","name":"tokenDeployed","inputs":[{"name":"","type":"string","internalType":"string"}],"outputs":[{"name":"","type":"address","internalType":"address"}],"stateMutability":"view"},{"type":"function","name":"transferOwnership","inputs":[{"name":"newOwner","type":"address","internalType":"address"}],"outputs":[],"stateMutability":"nonpayable"},{"type":"event","name":"Deployed","inputs":[{"name":"_addr","type":"address","indexed":true,"internalType":"address"}],"anonymous":false},{"type":"event","name":"IdFactorySet","inputs":[{"name":"_idFactory","type":"address","indexed":false,"internalType":"address"}],"anonymous":false},{"type":"event","name":"ImplementationAuthoritySet","inputs":[{"name":"_implementationAuthority","type":"address","indexed":false,"internalType":"address"}],"anonymous":false},{"type":"event","name":"OwnershipTransferred","inputs":[{"name":"previousOwner","type":"address","indexed":true,"internalType":"address"},{"name":"newOwner","type":"address","indexed":true,"internalType":"address"}],"anonymous":false},{"type":"event","name":"TREXSuiteDeployed","inputs":[{"name":"_token","type":"address","indexed":true,"internalType":"address"},{"name":"_ir","type":"address","indexed":false,"internalType":"address"},{"name":"_irs","type":"address","indexed":false,"internalType":"address"},{"name":"_tir","type":"address","indexed":false,"internalType":"address"},{"name":"_ctr","type":"address","indexed":false,"internalType":"address"},{"name":"_mc","type":"address","indexed":false,"internalType":"address"},{"name":"_salt","type":"string","indexed":true,"internalType":"string"}],"anonymous":false}],"bytecode":{"object":"0x6080346101a7576111a590601f38839003908101601f19168201906001600160401b038211838310176101ac57808391604095869485528339810103126101a757610055602061004e836101c2565b92016101c2565b60008054336001600160a01b031980831682178455946001600160a01b03949385939192918416907f8be0079c531659141344cd1fd0a4f28419497f9722a3daafe3b4186f6b6457e09080a36100a96101d6565b16801561016e576020817f3b1074392ed8e8424715d0dda2197eede67080b377fc8370e26f3e882207f6b8928660015416176001558651908152a16100ec6101d6565b1690811561013557817fae81f4fee1b2d830e39ae449967642aaa0e5a1771aa200d0a50853010992242c9260209260025416176002558351908152a151610f76908161022f8239f35b825162461bcd60e51b8152602060048201526012602482015271696e76616c696420494420666163746f727960701b6044820152606490fd5b845162461bcd60e51b8152602060048201526012602482015271696e76616c6964204941206164647265737360701b6044820152606490fd5b600080fd5b634e487b7160e01b600052604160045260246000fd5b51906001600160a01b03821682036101a757565b6000546001600160a01b031633036101ea57565b606460405162461bcd60e51b815260206004820152602060248201527f4f776e61626c653a2063616c6c6572206973206e6f7420746865206f776e65726044820152fdfe608080604052600436101561001357600080fd5b60003560e01c9081632d5f118714610ba8575080635f2773a514610b56578063715018a614610aba5780638da5cb5b14610a6857806392dd9d651461095857806396214735146108d5578063ccd41cce146107c5578063cf753d37146102b5578063d5f3948814610263578063f2fde38b1461012e5763fb88d79c1461009857600080fd5b346101295760207ffffffffffffffffffffffffffffffffffffffffffffffffffffffffffffffffc3601126101295760043567ffffffffffffffff81116101295773ffffffffffffffffffffffffffffffffffffffff610115602061010281943690600401610ce5565b8160405193828580945193849201610d2c565b810160038152030190205416604051908152f35b600080fd5b346101295760207ffffffffffffffffffffffffffffffffffffffffffffffffffffffffffffffffc36011261012957610165610bf7565b61016d610ec1565b73ffffffffffffffffffffffffffffffffffffffff8091169081156101df57600054827fffffffffffffffffffffffff0000000000000000000000000000000000000000821617600055167f8be0079c531659141344cd1fd0a4f28419497f9722a3daafe3b4186f6b6457e0600080a3005b60846040517f08c379a000000000000000000000000000000000000000000000000000000000815260206004820152602660248201527f4f776e61626c653a206e6577206f776e657220697320746865207a65726f206160448201527f64647265737300000000000000000000000000000000000000000000000000006064820152fd5b346101295760007ffffffffffffffffffffffffffffffffffffffffffffffffffffffffffffffffc36011261012957602073ffffffffffffffffffffffffffffffffffffffff60045416604051908152f35b34610129577ffffffffffffffffffffffffffffffffffffffffffffffffffffffffffffffffc6060813601126101295767ffffffffffffffff60043581811161012957610306903690600401610ce5565b90602435908082116101295781600401936101409485828536030112610129576044359283116101295760608360040192843603011261012957610348610ec1565b73ffffffffffffffffffffffffffffffffffffffff9384600454169687156107675761041b7fffffffffffffffffffffffffffffffffffffffffffffffffffffffffffffffe0601f60a46103dc604051809c7fcf753d370000000000000000000000000000000000000000000000000000000060208301526060602483015260208151948386608481960152019101610d2c565b011688019160808984030160448a0152876103f686610c1a565b1660a48401526104096024850186610d4f565b909160c48501526101e4840191610d9f565b9561045e61042c6044850186610d4f565b7fffffffffffffffffffffffffffffffffffffffffffffffffffffffffffffff5c99918a8684030160e4870152610d9f565b9360648401359160ff831680930361012957919092939697946101049182860152826084890161048d90610c1a565b1692610124938487015260a489016104a490610c1a565b166101448601526104b860c4890185610dde565b86830388016101648801526104cd9291610e31565b6104da60e4890185610dde565b86830388016101848801526104ef9291610e31565b9087016104fc9084610dde565b85830387016101a48701526105119291610e31565b950161051c91610dde565b91909281860301906101c4015280845260208401938160051b810160200194836000925b84841061070e575050505050506105be907fffffffffffffffffffffffffffffffffffffffffffffffffffffffffffffffdc85840301606486015260446105b661059b61058d8480610dde565b606088526060880191610e84565b6105a86024880185610dde565b908783036020890152610e31565b940190610dde565b90916040818503910152808352602083019260208260051b82010193836000925b8484106106b857600080898b61061c828c037fffffffffffffffffffffffffffffffffffffffffffffffffffffffffffffffe08101845283610c3b565b602082519201905af43d156106b3573d61063581610cab565b906106436040519283610c3b565b8152600060203d92013e5b1561065557005b60646040517f08c379a000000000000000000000000000000000000000000000000000000000815260206004820152601760248201527f4465706c6f796d656e74206c6f676963206661696c65640000000000000000006044820152fd5b61064e565b9091929394956020806106fe837fffffffffffffffffffffffffffffffffffffffffffffffffffffffffffffffe086600196030188526106f88b88610dde565b90610e84565b98019401940192949391906105df565b90919293949796602080610755837fffffffffffffffffffffffffffffffffffffffffffffffffffffffffffffffe0866001960301885261074f8d88610d4f565b90610d9f565b999a0196959190910193019190610540565b60646040517f08c379a000000000000000000000000000000000000000000000000000000000815260206004820152601060248201527f4465706c6f796572206e6f7420736574000000000000000000000000000000006044820152fd5b346101295760207ffffffffffffffffffffffffffffffffffffffffffffffffffffffffffffffffc3601126101295773ffffffffffffffffffffffffffffffffffffffff610811610bf7565b610819610ec1565b168015610877576020817fae81f4fee1b2d830e39ae449967642aaa0e5a1771aa200d0a50853010992242c927fffffffffffffffffffffffff00000000000000000000000000000000000000006002541617600255604051908152a1005b60646040517f08c379a000000000000000000000000000000000000000000000000000000000815260206004820152601260248201527f696e76616c696420494420666163746f727900000000000000000000000000006044820152fd5b346101295760207ffffffffffffffffffffffffffffffffffffffffffffffffffffffffffffffffc3601126101295773ffffffffffffffffffffffffffffffffffffffff610921610bf7565b610929610ec1565b167fffffffffffffffffffffffff00000000000000000000000000000000000000006004541617600455600080f35b346101295760207ffffffffffffffffffffffffffffffffffffffffffffffffffffffffffffffffc3601126101295773ffffffffffffffffffffffffffffffffffffffff6109a4610bf7565b6109ac610ec1565b168015610a0a576020817f3b1074392ed8e8424715d0dda2197eede67080b377fc8370e26f3e882207f6b8927fffffffffffffffffffffffff00000000000000000000000000000000000000006001541617600155604051908152a1005b60646040517f08c379a000000000000000000000000000000000000000000000000000000000815260206004820152601260248201527f696e76616c6964204941206164647265737300000000000000000000000000006044820152fd5b346101295760007ffffffffffffffffffffffffffffffffffffffffffffffffffffffffffffffffc36011261012957602073ffffffffffffffffffffffffffffffffffffffff60005416604051908152f35b346101295760007ffffffffffffffffffffffffffffffffffffffffffffffffffffffffffffffffc36011261012957610af1610ec1565b600073ffffffffffffffffffffffffffffffffffffffff81547fffffffffffffffffffffffff000000000000000000000000000000000000000081168355167f8be0079c531659141344cd1fd0a4f28419497f9722a3daafe3b4186f6b6457e08280a3005b346101295760007ffffffffffffffffffffffffffffffffffffffffffffffffffffffffffffffffc36011261012957602073ffffffffffffffffffffffffffffffffffffffff60025416604051908152f35b346101295760007ffffffffffffffffffffffffffffffffffffffffffffffffffffffffffffffffc3601126101295760209073ffffffffffffffffffffffffffffffffffffffff600154168152f35b6004359073ffffffffffffffffffffffffffffffffffffffff8216820361012957565b359073ffffffffffffffffffffffffffffffffffffffff8216820361012957565b90601f7fffffffffffffffffffffffffffffffffffffffffffffffffffffffffffffffe0910116810190811067ffffffffffffffff821117610c7c57604052565b7f4e487b7100000000000000000000000000000000000000000000000000000000600052604160045260246000fd5b67ffffffffffffffff8111610c7c57601f017fffffffffffffffffffffffffffffffffffffffffffffffffffffffffffffffe01660200190565b81601f8201121561012957803590610cfc82610cab565b92610d0a6040519485610c3b565b8284526020838301011161012957816000926020809301838601378301015290565b60005b838110610d3f5750506000910152565b8181015183820152602001610d2f565b90357fffffffffffffffffffffffffffffffffffffffffffffffffffffffffffffffe18236030181121561012957016020813591019167ffffffffffffffff821161012957813603831361012957565b601f82602094937fffffffffffffffffffffffffffffffffffffffffffffffffffffffffffffffe0938186528686013760008582860101520116010190565b90357fffffffffffffffffffffffffffffffffffffffffffffffffffffffffffffffe18236030181121561012957016020813591019167ffffffffffffffff8211610129578160051b3603831361012957565b91908082526020809201929160005b828110610e4e575050505090565b90919293828060019273ffffffffffffffffffffffffffffffffffffffff610e7589610c1a565b16815201950193929101610e40565b90918281527f07ffffffffffffffffffffffffffffffffffffffffffffffffffffffffffffff83116101295760209260051b809284830137010190565b73ffffffffffffffffffffffffffffffffffffffff600054163303610ee257565b60646040517f08c379a000000000000000000000000000000000000000000000000000000000815260206004820152602060248201527f4f776e61626c653a2063616c6c6572206973206e6f7420746865206f776e65726044820152fdfea2646970667358221220bf5e3b194c01c14e04b703aa494121bbb272ff99f330c3ecf30cd521bd465a9b64736f6c63430008110033","linkReferences":{}},"methodIdentifiers":{"deployTREXSuite(string,(address,string,string,uint8,address,address,address[],address[],address[],bytes[]),(uint256[],address[],uint256[][]))":"cf753d37","deployer()":"d5f39488","getIdFactory()":"5f2773a5","getImplementationAuthority()":"2d5f1187","owner()":"8da5cb5b","renounceOwnership()":"715018a6","setDeployer(address)":"96214735","setIdFactory(address)":"ccd41cce","setImplementationAuthority(address)":"92dd9d65","tokenDeployed(string)":"fb88d79c","transferOwnership(address)":"f2fde38b"},"id":3}