{"abi":[{"type":"function","name":"addAgent","inputs":[{"name":"_agent","type":"address","internalType":"address"}],"outputs":[],"stateMutability":"nonpayable"},{"type":"function","name":"allowance","inputs":[{"name":"_owner","type":"address","internalType":"address"},{"name":"_spender","type":"address","internalType":"address"}],"outputs":[{"name":"","type":"uint256","internalType":"uint256"}],"stateMutability":"view"},{"type":"function","name":"approve","inputs":[{"name":"_spender","type":"address","internalType":"address"},{"name":"_amount","type":"uint256","internalType":"uint256"}],"outputs":[{"name":"","type":"bool","internalType":"bool"}],"stateMutability":"nonpayable"},{"type":"function","name":"balanceOf","inputs":[{"name":"_userAddress","type":"address","internalType":"address"}],"outputs":[{"name":"","type":"uint256","internalType":"uint256"}],"stateMutability":"view"},{"type":"function","name":"batchForcedTransfer","inputs":[{"name":"_fromList","type":"address[]","internalType":"address[]"},{"name":"_toList","type":"address[]","internalType":"address[]"},{"name":"_amounts","type":"uint256[]","internalType":"uint256[]"}],"outputs":[],"stateMutability":"nonpayable"},{"type":"function","name":"batchFreezePartialTokens","inputs":[{"name":"_userAddresses","type":"address[]","internalType":"address[]"},{"name":"_amounts","type":"uint256[]","internalType":"uint256[]"}],"outputs":[],"stateMutability":"nonpayable"},{"type":"function","name":"batchSetAddressFrozen","inputs":[{"name":"_userAddresses","type":"address[]","internalType":"address[]"},{"name":"_freeze","type":"bool[]","internalType":"bool[]"}],"outputs":[],"stateMutability":"nonpayable"},{"type":"function","name":"batchTransfer","inputs":[{"name":"_toList","type":"address[]","internalType":"address[]"},{"name":"_amounts","type":"uint256[]","internalType":"uint256[]"}],"outputs":[],"stateMutability":"nonpayable"},{"type":"function","name":"batchUnfreezePartialTokens","inputs":[{"name":"_userAddresses","type":"address[]","internalType":"address[]"},{"name":"_amounts","type":"uint256[]","internalType":"uint256[]"}],"outputs":[],"stateMutability":"nonpayable"},{"type":"function","name":"burn","inputs":[{"name":"_userAddress","type":"address","internalType":"address"},{"name":"_amount","type":"uint256","internalType":"uint256"}],"outputs":[],"stateMutability":"nonpayable"},{"type":"function","name":"compliance","inputs":[],"outputs":[{"name":"","type":"address","internalType":"contract IModularCompliance"}],"stateMutability":"view"},{"type":"function","name":"decimals","inputs":[],"outputs":[{"name":"","type":"uint8","internalType":"uint8"}],"stateMutability":"view"},{"type":"function","name":"decreaseAllowance","inputs":[{"name":"_spender","type":"address","internalType":"address"},{"name":"_subtractedValue","type":"uint256","internalType":"uint256"}],"outputs":[{"name":"","type":"bool","internalType":"bool"}],"stateMutability":"nonpayable"},{"type":"function","name":"forcedTransfer","inputs":[{"name":"_from","type":"address","internalType":"address"},{"name":"_to","type":"address","internalType":"address"},{"name":"_amount","type":"uint256","internalType":"uint256"}],"outputs":[{"name":"","type":"bool","internalType":"bool"}],"stateMutability":"nonpayable"},{"type":"function","name":"freezePartialTokens","inputs":[{"name":"_userAddress","type":"address","internalType":"address"},{"name":"_amount","type":"uint256","internalType":"uint256"}],"outputs":[],"stateMutability":"nonpayable"},{"type":"function","name":"getFrozenTokens","inputs":[{"name":"_userAddress","type":"address","internalType":"address"}],"outputs":[{"name":"","type":"uint256","internalType":"uint256"}],"stateMutability":"view"},{"type":"function","name":"identityRegistry","inputs":[],"outputs":[{"name":"","type":"address","internalType":"contract IIdentityRegistry"}],"stateMutability":"view"},{"type":"function","name":"increaseAllowance","inputs":[{"name":"_spender","type":"address","internalType":"address"},{"name":"_addedValue","type":"uint256","internalType":"uint256"}],"outputs":[{"name":"","type":"bool","internalType":"bool"}],"stateMutability":"nonpayable"},{"type":"function","name":"init","inputs":[{"name":"_identityRegistry","type":"address","internalType":"address"},{"name":"_compliance","type":"address","internalType":"address"},{"name":"_name","type":"string","internalType":"string"},{"name":"_symbol","type":"string","internalType":"string"},{"name":"_decimals","type":"uint8","internalType":"uint8"},{"name":"_onchainID","type":"address","internalType":"address"}],"outputs":[],"stateMutability":"nonpayable"},{"type":"function","name":"isAgent","inputs":[{"name":"_agent","type":"address","internalType":"address"}],"outputs":[{"name":"","type":"bool","internalType":"bool"}],"stateMutability":"view"},{"type":"function","name":"isFrozen","inputs":[{"name":"_userAddress","type":"address","internalType":"address"}],"outputs":[{"name":"","type":"bool","internalType":"bool"}],"stateMutability":"view"},{"type":"function","name":"mint","inputs":[{"name":"_to","type":"address","internalType":"address"},{"name":"_amount","type":"uint256","internalType":"uint256"}],"outputs":[],"stateMutability":"nonpayable"},{"type":"function","name":"name","inputs":[],"outputs":[{"name":"","type":"string","internalType":"string"}],"stateMutability":"view"},{"type":"function","name":"onchainID","inputs":[],"outputs":[{"name":"","type":"address","internalType":"address"}],"stateMutability":"view"},{"type":"function","name":"owner","inputs":[],"outputs":[{"name":"","type":"address","internalType":"address"}],"stateMutability":"view"},{"type":"function","name":"pause","inputs":[],"outputs":[],"stateMutability":"nonpayable"},{"type":"function","name":"paused","inputs":[],"outputs":[{"name":"","type":"bool","internalType":"bool"}],"stateMutability":"view"},{"type":"function","name":"removeAgent","inputs":[{"name":"_agent","type":"address","internalType":"address"}],"outputs":[],"stateMutability":"nonpayable"},{"type":"function","name":"renounceOwnership","inputs":[],"outputs":[],"stateMutability":"nonpayable"},{"type":"function","name":"setAddressFrozen","inputs":[{"name":"_userAddress","type":"address","internalType":"address"},{"name":"_freeze","type":"bool","internalType":"bool"}],"outputs":[],"stateMutability":"nonpayable"},{"type":"function","name":"setCompliance","inputs":[{"name":"_compliance","type":"address","internalType":"address"}],"outputs":[],"stateMutability":"nonpayable"},{"type":"function","name":"setIdentityRegistry","inputs":[{"name":"_identityRegistry","type":"address","internalType":"address"}],"outputs":[],"stateMutability":"nonpayable"},{"type":"function","name":"setName","inputs":[{"name":"_name","type":"string","internalType":"string"}],"outputs":[],"stateMutability":"nonpayable"},{"type":"function","name":"setOnchainID","inputs":[{"name":"_onchainID","type":"address","internalType":"address"}],"outputs":[],"stateMutability":"nonpayable"},{"type":"function","name":"setSymbol","inputs":[{"name":"_symbol","type":"string","internalType":"string"}],"outputs":[],"stateMutability":"nonpayable"},{"type":"function","name":"symbol","inputs":[],"outputs":[{"name":"","type":"string","internalType":"string"}],"stateMutability":"view"},{"type":"function","name":"totalSupply","inputs":[],"outputs":[{"name":"","type":"uint256","internalType":"uint256"}],"stateMutability":"view"},{"type":"function","name":"transfer","inputs":[{"name":"_to","type":"address","internalType":"address"},{"name":"_amount","type":"uint256","internalType":"uint256"}],"outputs":[{"name":"","type":"bool","internalType":"bool"}],"stateMutability":"nonpayable"},{"type":"function","name":"transferFrom","inputs":[{"name":"_from","type":"address","internalType":"address"},{"name":"_to","type":"address","internalType":"address"},{"name":"_amount","type":"uint256","internalType":"uint256"}],"outputs":[{"name":"","type":"bool","internalType":"bool"}],"stateMutability":"nonpayable"},{"type":"function","name":"transferOwnership","inputs":[{"name":"newOwner","type":"address","internalType":"address"}],"outputs":[],"stateMutability":"nonpayable"},{"type":"function","name":"unfreezePartialTokens","inputs":[{"name":"_userAddress","type":"address","internalType":"address"},{"name":"_amount","type":"uint256","internalType":"uint256"}],"outputs":[],"stateMutability":"nonpayable"},{"type":"function","name":"unpause","inputs":[],"outputs":[],"stateMutability":"nonpayable"},{"type":"function","name":"version","inputs":[],"outputs":[{"name":"","type":"string","internalType":"string"}],"stateMutability":"pure"},{"type":"event","name":"AddressFrozen","inputs":[{"name":"_userAddress","type":"address","indexed":true,"internalType":"address"},{"name":"_isFrozen","type":"bool","indexed":true,"internalType":"bool"},{"name":"_owner","type":"address","indexed":true,"internalType":"address"}],"anonymous":false},{"type":"event","name":"AgentAdded","inputs":[{"name":"_agent","type":"address","indexed":true,"internalType":"address"}],"anonymous":false},{"type":"event","name":"AgentRemoved","inputs":[{"name":"_agent","type":"address","indexed":true,"internalType":"address"}],"anonymous":false},{"type":"event","name":"Approval","inputs":[{"name":"owner","type":"address","indexed":true,"internalType":"address"},{"name":"spender","type":"address","indexed":true,"internalType":"address"},{"name":"value","type":"uint256","indexed":false,"internalType":"uint256"}],"anonymous":false},{"type":"event","name":"ComplianceAdded","inputs":[{"name":"_compliance","type":"address","indexed":true,"internalType":"address"}],"anonymous":false},{"type":"event","name":"IdentityRegistryAdded","inputs":[{"name":"_identityRegistry","type":"address","indexed":true,"internalType":"address"}],"anonymous":false},{"type":"event","name":"Initialized","inputs":[{"name":"version","type":"uint8","indexed":false,"internalType":"uint8"}],"anonymous":false},{"type":"event","name":"OwnershipTransferred","inputs":[{"name":"previousOwner","type":"address","indexed":true,"internalType":"address"},{"name":"newOwner","type":"address","indexed":true,"internalType":"address"}],"anonymous":false},{"type":"event","name":"Paused","inputs":[{"name":"_userAddress","type":"address","indexed":false,"internalType":"address"}],"anonymous":false},{"type":"event","name":"RecoverySuccess","inputs":[{"name":"_lostWallet","type":"address","indexed":true,"internalType":"address"},{"name":"_newWallet","type":"address","indexed":true,"internalType":"address"},{"name":"_investorOnchainID","type":"address","indexed":true,"internalType":"address"}],"anonymous":false},{"type":"event","name":"TokensFrozen","inputs":[{"name":"_userAddress","type":"address","indexed":true,"internalType":"address"},{"name":"_amount","type":"uint256","indexed":false,"internalType":"uint256"}],"anonymous":false},{"type":"event","name":"TokensUnfrozen","inputs":[{"name":"_userAddress","type":"address","indexed":true,"internalType":"address"},{"name":"_amount","type":"uint256","indexed":false,"internalType":"uint256"}],"anonymous":false},{"type":"event","name":"Transfer","inputs":[{"name":"from","type":"address","indexed":true,"internalType":"address"},{"name":"to","type":"address","indexed":true,"internalType":"address"},{"name":"value","type":"uint256","indexed":false,"internalType":"uint256"}],"anonymous":false},{"type":"event","name":"Unpaused","inputs":[{"name":"_userAddress","type":"address","indexed":false,"internalType":"address"}],"anonymous":false},{"type":"event","name":"UpdatedTokenInformation","inputs":[{"name":"_newName","type":"string","indexed":true,"internalType":"string"},{"name":"_newSymbol","type":"string","indexed":true,"internalType":"string"},{"name":"_newDecimals","type":"uint8","indexed":false,"internalType":"uint8"},{"name":"_newVersion","type":"string","indexed":false,"internalType":"string"},{"name":"_newOnchainID","type":"address","indexed":true,"internalType":"address"}],"anonymous":false}],"bytecode":{"object":"0x608080604052346100205760ff19606e5416606e5561314890816100268239f35b600080fdfe608080604052600436101561001357600080fd5b600090813560e01c90816306fdde031461206957508063095ea7b314612042578063125c4a3314611f6e578063134e18f414611f41578063158b1a5714611f0857806318160ddd14611eea5780631a7af37914611e395780631fe56f7d14611d515780631ffbb06414611d2d57806323b872dd14611d04578063313ce56714611ce35780633950935114611c9a5780633d1ddc5b14611bf55780633f4ba83a14611b5c57806340c10f19146118d757806342a47abc1461181f5780634710362d1461172757806354fd4d501461170b5780635c975abb146116e85780636290865d146116bf57806370a0823114611686578063715018a6146116285780638456cb59146115c457806384e79842146114f157806388d695b2146114925780638da5cb5b1461146957806395d89b411461139257806397a6278e146112b75780639dc29fac146110a75780639fc1d0e714611081578063a457c2d714611025578063a9059cbb14610fe4578063aba6370514610fb7578063b84c824614610eb3578063c47f002714610d21578063c69c09cf14610c99578063cbf3f86114610c26578063dd62ed3e14610bd7578063e583983614610b98578063f2fde38b14610b07578063f8981789146109fc578063f91b619c146103195763fc7e5fa8146101fa57600080fd5b346103165761020836612195565b929091845b818110610218578580f35b61022b610226828486612770565b612796565b610236828787612770565b359061024961024433612364565b6126bf565b60018060a01b031690818852602090606682526040892054606d908184526102758360408d2054612667565b116102d357918184936102b77fa065e63c631c86f1b9f66a4a2f63f2093bf1c2168d23290259dbd969e0222a459460408e6102ce9a9981528487522054612667565b90858d52835260408c2055604051908152a2612761565b61020d565b6064836040519062461bcd60e51b825280600483015260248201527f416d6f756e74206578636565647320617661696c61626c652062616c616e63656044820152fd5b80fd5b50346103165760c036600319011261031657610333612139565b61033b61214f565b6044356001600160401b0381116109f85761035a9036906004016122c2565b916064356001600160401b0381116109f45761037a9036906004016122c2565b6084359060ff821682036109f05760a4356001600160a01b03811690036109eb5785549460ff8660081c1615958680976109de575b80156109c7575b1561096b5760ff19811660011788558661095a575b506033546001600160a01b031661091f576001600160a01b03841615158061090d575b6103f790612318565b6040516020810190602082526104228161041460408201866120f9565b03601f1981018352826122a1565b519020604051602081019060208252600060408201526040815261044581612286565b5190201415806108bd575b610459906123d7565b601260ff8416116108785761047d60ff885460081c1661047881612fb1565b612fb1565b61048633613069565b8051906001600160401b0382116108645781906104ad826104a8606954612423565b6124bc565b602090601f83116001146107ee5789926107e3575b50508160011b916000199060031b1c1916176069555b8051906001600160401b0382116107cf576104fd826104f8606a54612423565b61245d565b602090601f831160011461075857600193929188918361074d575b5050600019600383901b1c191690831b17606a555b606b546101008360a81b03916affffffffffffffffffffff60a81b918260ff8560a43560081b16931691161717606b55606e54918360ff19841617606e55610573613011565b8460081b1691161717606e5560018060a01b03167fd2be862d755bca7e0d39772b2cab3a5578da9c285f69199f4c063c2294a7f36c8480a26105b3613011565b606f5483906001600160a01b031680610709575b505060018060a01b0316828181606f54826bffffffffffffffffffffffff60a01b821617606f551617803b1561070557818091602460405180948193631ffad50160e11b83523060048401525af180156106fa576106e2575b50807f7f3a888862559648ec01d97deb7b5012bff86dc91e654a1de397170db40e35b691a2606b5461065061251b565b61065861254c565b7f6a1105ac8148a3c319adbc369f9072573e8a11d3a3d195e067e7c40767ec54d16106a16106846125d7565b9360405191829160ff60018060a01b038960081c1698168361264a565b0390a46106ab5780f35b61ff001981541681557f7f26b83ff96e1f2b6a682f133852f6798a09c465da95921460cefb3847402498602060405160018152a180f35b6106eb9061225d565b6106f6578238610620565b8280fd5b6040513d84823e3d90fd5b5080fd5b803b156107055781809160246040518094819363040db3b560e41b83523060048401525af180156106fa57156105c7576107429061225d565b6106f65782386105c7565b015190503880610518565b90606a88526000805160206130f383398151915291885b601f19851681106107b7575091839160019594938694601f1981161061079e575b505050811b01606a5561052d565b015160001960f88460031b161c19169055388080610790565b9192602060018192868501518155019401920161076f565b634e487b7160e01b87526041600452602487fd5b0151905038806104c2565b9250606989526000805160206130d38339815191529089935b601f1984168510610849576001945083601f19811610610830575b505050811b016069556104d8565b015160001960f88460031b161c19169055388080610822565b81810151835560209485019460019093019290910190610807565b634e487b7160e01b88526041600452602488fd5b60405162461bcd60e51b815260206004820152601960248201527f646563696d616c73206265747765656e203020616e64203138000000000000006044820152606490fd5b506104596040516020810190602082526108de8161041460408201886120f9565b519020604051602081019060208252600060408201526040815261090181612286565b51902014159050610450565b506001600160a01b03851615156103ee565b60405162461bcd60e51b8152602060048201526013602482015272185b1c9958591e481a5b9a5d1a585b1a5e9959606a1b6044820152606490fd5b61ffff1916610101178755386103cb565b60405162461bcd60e51b815260206004820152602e60248201527f496e697469616c697a61626c653a20636f6e747261637420697320616c72656160448201526d191e481a5b9a5d1a585b1a5e995960921b6064820152608490fd5b50303b1580156103b65750600160ff8216146103b6565b50600160ff8216106103af565b600080fd5b8580fd5b8480fd5b8380fd5b503461031657602036600319011261031657610a16612139565b610a1e613011565b606f546001600160a01b0391908390831680610ac3575b505016818181606f54826bffffffffffffffffffffffff60a01b821617606f551617803b1561070557818091602460405180948193631ffad50160e11b83523060048401525af180156106fa57610aaf575b50807f7f3a888862559648ec01d97deb7b5012bff86dc91e654a1de397170db40e35b691a280f35b610ab89061225d565b610705578138610a87565b803b156107055781809160246040518094819363040db3b560e41b83523060048401525af180156106fa5715610a3557610afc9061225d565b6106f6578238610a35565b503461031657602036600319011261031657610b21612139565b610b29613011565b6001600160a01b03811615610b4457610b4190613069565b80f35b60405162461bcd60e51b815260206004820152602660248201527f4f776e61626c653a206e6577206f776e657220697320746865207a65726f206160448201526564647265737360d01b6064820152608490fd5b50346103165760203660031901126103165760209060ff906040906001600160a01b03610bc3612139565b168152606c84522054166040519015158152f35b503461031657604036600319011261031657610bf1612139565b6040610bfb61214f565b9260018060a01b03809316815260676020522091166000526020526020604060002054604051908152f35b503461031657602036600319011261031657610c40612139565b610c48613011565b606e8054610100600160a81b031916600883901b610100600160a81b03161790556001600160a01b03167fd2be862d755bca7e0d39772b2cab3a5578da9c285f69199f4c063c2294a7f36c8280a280f35b503461031657604036600319011261031657610cb3612139565b60243590811515908183036109f857610cf890610cd261024433612364565b60018060a01b031692838552606c602052604085209060ff801983541691151516179055565b33917f7fa523c84ab8d7fc5b72f08b9e46dbbf10c39e119a075b3e317002d14bc9f4368480a480f35b503461031657610d3036612214565b610d3b929192613011565b60405192602090610d9382860186610d54868584612697565b0396610d68601f19988981018352826122a1565b519020604051848101908582526000604082015260408152610d8981612286565b51902014156123d7565b6001600160401b038311610e9f57610db0836104a8606954612423565b8391601f8411600114610e2f5750838394955092610e24575b50508160011b916000199060031b1c1916176069555b606b54610dea61251b565b610df261254c565b7f6a1105ac8148a3c319adbc369f9072573e8a11d3a3d195e067e7c40767ec54d1610e1e6106846125d7565b0390a480f35b013590503880610dc9565b9194831694606985526000805160206130d38339815191529285905b878210610e87575050836001959610610e6d575b505050811b01606955610ddf565b0135600019600384901b60f8161c19169055388080610e5f565b80600184968294958701358155019501920190610e4b565b634e487b7160e01b84526041600452602484fd5b503461031657610ec236612214565b610ecd929192613011565b60405192602090610ee682860186610d54868584612697565b6001600160401b038311610e9f57610f03836104f8606a54612423565b8391601f8411600114610f475750838394955092610f3c575b50508160011b916000199060031b1c191617606a55606b54610dea61251b565b013590503880610f1c565b9194831694606a85526000805160206130f38339815191529285905b878210610f9f575050836001959610610f85575b505050811b01606a55610ddf565b0135600019600384901b60f8161c19169055388080610f77565b80600184968294958701358155019501920190610f63565b5034610316578060031936011261031657606b5460405160089190911c6001600160a01b03168152602090f35b503461031657604036600319011261031657602061101b611003612139565b61101260ff606e541615612722565b60243590612a83565b6040519015158152f35b503461031657604036600319011261031657611076906040611045612139565b9133815260676020522060018060a01b03821660005260205261106f60243560406000205461268a565b9033612eaf565b602060405160018152f35b503461031657602061101b611095366121df565b916110a261024433612364565b612c2a565b5034610316576040366003190112610316576110c1612139565b906024356110d161024433612364565b60018060a01b039283811693848452602060668152836040862054106112735785855260668152856111106040872054606d845260408820549061268a565b8281871161122a575b5050156111dc57857fddf252ad1be2c89b69c2b068fc378daa952ba7f163c4a11628f55a4df523b3ef869792879384526066815261115b87604086205461268a565b8385526066825260408520556111738760685461268a565b606855604051878152a3606f541691823b156111d75760405163469753b960e11b81526001600160a01b0392909216600483015260248201529082908290604490829084905af180156106fa576111c75750f35b6111d09061225d565b6103165780f35b505050fd5b6084906040519062461bcd60e51b82526004820152602160248201527f45524332303a206275726e2066726f6d20746865207a65726f206164647265736044820152607360f81b6064820152fd5b6112436000805160206130b3833981519152928861268a565b838952606d82526112588160408b205461268a565b848a52606d835260408a2055604051908152a2853882611119565b6064906040519062461bcd60e51b82526004820152601d60248201527f63616e6e6f74206275726e206d6f7265207468616e2062616c616e63650000006044820152fd5b5034610316576020366003190112610316576112d1612139565b6112d9613011565b6001600160a01b038116906112ef821515612318565b6112f881612364565b15611343576001600160a01b03166000908152606560205260409020805460ff191690557fed9c8ad8d5a0a66898ea49d2956929c93ae2e8bd50281b2ed897c5d1a6737e0b8280a280f35b60405162461bcd60e51b815260206004820152602160248201527f526f6c65733a206163636f756e7420646f6573206e6f74206861766520726f6c6044820152606560f81b6064820152608490fd5b50346103165780600319360112610316576040519080606a546113b481612423565b8085529160019180831690811561143f57506001146113f6575b6113f2856113de818703826122a1565b6040519182916020835260208301906120f9565b0390f35b9250606a83526000805160206130f38339815191525b8284106114275750505081016020016113de826113f26113ce565b8054602085870181019190915290930192810161140c565b8695506113f2969350602092506113de94915060ff191682840152151560051b82010192936113ce565b50346103165780600319360112610316576033546040516001600160a01b039091168152602090f35b5034610316576114a136612195565b9091845b8181106114b0578580f35b806114e66114c56102266114ec94868a612770565b6114d0838789612770565b35906114e160ff606e541615612722565b612a83565b50612761565b6114a5565b50346103165760203660031901126103165761150b612139565b611513613011565b6001600160a01b03811690611529821515612318565b61153281612364565b61157f576001600160a01b03166000908152606560205260409020805460ff191660011790557ff68e73cec97f2d70aa641fb26e87a4383686e2efacb648f2165aeb02ac562ec58280a280f35b60405162461bcd60e51b815260206004820152601f60248201527f526f6c65733a206163636f756e7420616c72656164792068617320726f6c65006044820152606490fd5b50346103165780600319360112610316576115e161024433612364565b6001606e546115f360ff821615612722565b60ff191617606e557f62e78cea01bee320cd4e420270b5ea74000d11b0c9f74754ebdbfc544b05a2586020604051338152a180f35b5034610316578060031936011261031657611641613011565b603380546001600160a01b031981169091556000906001600160a01b03167f8be0079c531659141344cd1fd0a4f28419497f9722a3daafe3b4186f6b6457e08280a380f35b5034610316576020366003190112610316576020906040906001600160a01b036116ae612139565b168152606683522054604051908152f35b5034610316578060031936011261031657606f546040516001600160a01b039091168152602090f35b5034610316578060031936011261031657602060ff606e54166040519015158152f35b50346103165780600319360112610316576113f26113de61251b565b50346103165761173636612195565b929091845b818110611746578580f35b611754610226828486612770565b61175f828787612770565b359061176d61024433612364565b60018060a01b031690818852606d906020918083528160408b2054106117bd57918184936102b76000805160206130b38339815191529460408e6117b89a998152848752205461268a565b61173b565b60405162461bcd60e51b815260048101849052603460248201527f416d6f756e742073686f756c64206265206c657373207468616e206f7220657160448201527375616c20746f2066726f7a656e20746f6b656e7360601b6064820152608490fd5b5034610316576060366003190112610316576001600160401b036004358181116106f657611851903690600401612165565b6024929192358281116109f45761186c903690600401612165565b90926044359081116109f057611886903690600401612165565b919092865b818110611896578780f35b806114e66118ab6102266118d294868c612770565b6118b961022684888c612770565b6118c484898b612770565b35916110a261024433612364565b61188b565b5034610316576040366003190112610316576118f1612139565b90602491823561190361024433612364565b60018060a01b0380606e5460081c1660405163b9209e3360e01b81528083861692836004830152818960209485935afa908115611af1578791611b3f575b5015611afc5760648184606f5416604051928380926372331c7360e11b82528b6004830152878d8301528960448301525afa908115611af1578791611ac4575b5015611a81578115611a3e5790857fddf252ad1be2c89b69c2b068fc378daa952ba7f163c4a11628f55a4df523b3ef8594936119c08397606854612667565b606855838352606681526119d8866040852054612667565b848452606682526040842055604051868152a3606f5416803b156106f657604051635f8dead360e01b81526001600160a01b0394909416600485015260248401919091528290604490829084905af180156106fa57611a35575080f35b610b419061225d565b606490601f886040519262461bcd60e51b845260048401528201527f45524332303a206d696e7420746f20746865207a65726f2061646472657373006044820152fd5b6064906017886040519262461bcd60e51b845260048401528201527f436f6d706c69616e6365206e6f7420666f6c6c6f7765640000000000000000006044820152fd5b611ae49150823d8411611aea575b611adc81836122a1565b81019061282c565b38611981565b503d611ad2565b6040513d89823e3d90fd5b6064906019886040519262461bcd60e51b845260048401528201527f4964656e74697479206973206e6f742076657269666965642e000000000000006044820152fd5b611b569150823d8411611aea57611adc81836122a1565b38611941565b5034610316578060031936011261031657611b7961024433612364565b606e5460ff811615611bb95760ff1916606e557f5db9ee0a495bf2e6ff9c91a7834c1ba4fdd244a5e8aa4e537bd38aeae4b073aa6020604051338152a180f35b60405162461bcd60e51b815260206004820152601460248201527314185d5cd8589b194e881b9bdd081c185d5cd95960621b6044820152606490fd5b503461031657602036600319011261031657611c0f612139565b611c17613011565b606b8054610100600160a81b0319811660089390931b610100600160a81b03169290921790819055611c4761251b565b907f6a1105ac8148a3c319adbc369f9072573e8a11d3a3d195e067e7c40767ec54d160ff611c7361254c565b92610e1e611c7f6125d7565b9560405193849360018060a01b039060081c1698168361264a565b5034610316576040366003190112610316576110769061106f611cbb612139565b9133815260676020526040812060018060a01b03841682526020526040602435912054612667565b5034610316578060031936011261031657602060ff606b5416604051908152f35b503461031657602061101b611d18366121df565b91611d2860ff606e541615612722565b612874565b503461031657602036600319011261031657602061101b611d4c612139565b612364565b503461031657604036600319011261031657611d6b612139565b60243590611d7b61024433612364565b6001600160a01b0316808352606d60205260408320549091908111611dd75760206000805160206130b383398151915291838552606d8252611dc181604087205461268a565b848652606d83526040862055604051908152a280f35b60405162461bcd60e51b815260206004820152603460248201527f416d6f756e742073686f756c64206265206c657373207468616e206f7220657160448201527375616c20746f2066726f7a656e20746f6b656e7360601b6064820152608490fd5b503461031657611e4836612195565b909291845b818110611e58578580f35b611e66610226828487612770565b90611e72818588612770565b35801515808203611ee657611eb6611ee194611e9061024433612364565b60018060a01b031692838b52606c60205260408b209060ff801983541691151516179055565b33917f7fa523c84ab8d7fc5b72f08b9e46dbbf10c39e119a075b3e317002d14bc9f4368a80a4612761565b611e4d565b8880fd5b50346103165780600319360112610316576020606854604051908152f35b5034610316576020366003190112610316576020906040906001600160a01b03611f30612139565b168152606d83522054604051908152f35b5034610316578060031936011261031657606e5460405160089190911c6001600160a01b03168152602090f35b503461031657604036600319011261031657611f88612139565b60243590611f9861024433612364565b60018060a01b031690818352602090606682526040842054606d8352611fc2826040872054612667565b11611fff57907fa065e63c631c86f1b9f66a4a2f63f2093bf1c2168d23290259dbd969e0222a4591838552606d8252611dc1816040872054612667565b6064826040519062461bcd60e51b825280600483015260248201527f416d6f756e74206578636565647320617661696c61626c652062616c616e63656044820152fd5b50346103165760403660031901126103165761107661205f612139565b6024359033612eaf565b82346103165780600319360112610316578060695461208781612423565b8085529160019180831690811561143f57506001146120b0576113f2856113de818703826122a1565b9250606983526000805160206130d38339815191525b8284106120e15750505081016020016113de826113f26113ce565b805460208587018101919091529093019281016120c6565b919082519283825260005b848110612125575050826000602080949584010152601f8019910116010190565b602081830181015184830182015201612104565b600435906001600160a01b03821682036109eb57565b602435906001600160a01b03821682036109eb57565b9181601f840112156109eb578235916001600160401b0383116109eb576020808501948460051b0101116109eb57565b60406003198201126109eb576001600160401b03916004358381116109eb57826121c191600401612165565b939093926024359182116109eb576121db91600401612165565b9091565b60609060031901126109eb576001600160a01b039060043582811681036109eb579160243590811681036109eb579060443590565b9060206003198301126109eb576004356001600160401b03928382116109eb57806023830112156109eb5781600401359384116109eb57602484830101116109eb576024019190565b6001600160401b03811161227057604052565b634e487b7160e01b600052604160045260246000fd5b606081019081106001600160401b0382111761227057604052565b90601f801991011681019081106001600160401b0382111761227057604052565b81601f820112156109eb578035906001600160401b03821161227057604051926122f6601f8401601f1916602001856122a1565b828452602083830101116109eb57816000926020809301838601378301015290565b1561231f57565b60405162461bcd60e51b815260206004820152601f60248201527f696e76616c696420617267756d656e74202d207a65726f2061646472657373006044820152606490fd5b6001600160a01b0316801561238757600052606560205260ff6040600020541690565b60405162461bcd60e51b815260206004820152602260248201527f526f6c65733a206163636f756e7420697320746865207a65726f206164647265604482015261737360f01b6064820152608490fd5b156123de57565b60405162461bcd60e51b815260206004820152601f60248201527f696e76616c696420617267756d656e74202d20656d70747920737472696e67006044820152606490fd5b90600182811c92168015612453575b602083101461243d57565b634e487b7160e01b600052602260045260246000fd5b91607f1691612432565b601f8111612469575050565b600090606a82526000805160206130f3833981519152906020601f850160051c830194106124b2575b601f0160051c01915b8281106124a757505050565b81815560010161249b565b9092508290612492565b601f81116124c8575050565b600090606982526000805160206130d3833981519152906020601f850160051c83019410612511575b601f0160051c01915b82811061250657505050565b8181556001016124fa565b90925082906124f1565b60405190604082018281106001600160401b03821117612270576040526005825264342e312e3360d81b6020830152565b60405180600060695461255e81612423565b906001908181169081156125c0575060011461257d575b505003902090565b606960009081529192506000805160206130d38339815191525b8383106125aa5750505081013880612575565b8054868401528594506020909201918101612597565b60ff19168552505080151502820190503880612575565b604051806000606a546125e981612423565b906001908181169081156125c0575060011461260757505003902090565b606a60009081529192506000805160206130f38339815191525b8383106126345750505081013880612575565b8054868401528594506020909201918101612621565b60409060ff612664949316815281602082015201906120f9565b90565b9190820180921161267457565b634e487b7160e01b600052601160045260246000fd5b9190820391821161267457565b90918060409360208452816020850152848401376000828201840152601f01601f1916010190565b156126c657565b60405162461bcd60e51b815260206004820152602e60248201527f4167656e74526f6c653a2063616c6c657220646f6573206e6f7420686176652060448201526d746865204167656e7420726f6c6560901b6064820152608490fd5b1561272957565b60405162461bcd60e51b815260206004820152601060248201526f14185d5cd8589b194e881c185d5cd95960821b6044820152606490fd5b60001981146126745760010190565b91908110156127805760051b0190565b634e487b7160e01b600052603260045260246000fd5b356001600160a01b03811681036109eb5790565b156127b157565b60405162461bcd60e51b815260206004820152601060248201526f3bb0b63632ba1034b990333937bd32b760811b6044820152606490fd5b156127f057565b60405162461bcd60e51b8152602060048201526014602482015273496e73756666696369656e742042616c616e636560601b6044820152606490fd5b908160209103126109eb575180151581036109eb5790565b6060906020815260156020820152745472616e73666572206e6f7420706f737369626c6560581b60408201520190565b9192909260009260018060a01b0394858116958686526020606c815260409760ff89892054161580612a70575b6128aa906127aa565b82851690818952606683526128d56128cd8b8b2054606d86528c8c20549061268a565b8811156127e9565b8284606e5460081c169160248c518094819363b9209e3360e01b835260048301525afa908115612a49578991612a53575b50806129dc575b61292d57885162461bcd60e51b81528061292960048201612844565b0390fd5b879896975260678152858820903389525261295561294e85878a205461268a565b3385612eaf565b612960848385612d85565b606f541691823b156129d85784516322ebca6d60e21b81526001600160a01b0391821660048201529116602482015260448101929092529293909281908490818381606481015b03925af19182156129ce5750506129bf575b50600190565b6129c89061225d565b386129b9565b51903d90823e3d90fd5b8680fd5b50606f5489516372331c7360e11b81526001600160a01b03878116600483015286166024820152604481018890529083908290606490829088165afa908115612a49578991612a2c575b5061290d565b612a439150833d8511611aea57611adc81836122a1565b38612a26565b8a513d8b823e3d90fd5b612a6a9150833d8511611aea57611adc81836122a1565b38612906565b5084831688528888205460ff16156128a1565b91600060018060a01b039384811694858352602095606c875260409660ff88862054161580612c19575b612ab6906127aa565b33855260668152612ad56128cd89872054606d84528a8820549061268a565b8083606e5460081c169260248a518095819363b9209e3360e01b835260048301525afa918215612bf0578592612bfa575b5081612b82575b50612b2a57855162461bcd60e51b81528061292960048201612844565b612b3985839795969733612d85565b606f541690813b156106f65783516322ebca6d60e21b81523360048201526001600160a01b039091166024820152604481019590955292939281908490818381606481016129a7565b606f5488516372331c7360e11b81523360048201526001600160a01b03861660248201526044810189905291925082908290606490829087165afa918215612bf0578592612bd3575b505038612b0d565b612be99250803d10611aea57611adc81836122a1565b3880612bcb565b88513d87823e3d90fd5b81612c129293503d8411611aea57611adc81836122a1565b9038612b06565b503385528785205460ff1615612aad565b9192909260009260018060a01b039485821695868652602060668152604097858989205410612d485780885260668252612c6f89892054606d84528a8a20549061268a565b82818811612d02575b90506024915083606e5460081c168a519283809263b9209e3360e01b825287891660048301525afa918215612cf8578892612cdb575b5050612ccc57865162461bcd60e51b81528061292960048201612844565b61296084838599979899612d85565b612cf19250803d10611aea57611adc81836122a1565b3880612cae565b89513d8a823e3d90fd5b612d1b6000805160206130b3833981519152928961268a565b838b52606d8252612d2f818d8d205461268a565b848c52606d83528c8c20558b51908152a2388082612c78565b885162461bcd60e51b815260048101839052601660248201527573656e6465722062616c616e636520746f6f206c6f7760501b6044820152606490fd5b6001600160a01b03908116918215612e5c5716918215612e0b5760207fddf252ad1be2c89b69c2b068fc378daa952ba7f163c4a11628f55a4df523b3ef91600084815260668352612dda82604083205461268a565b8582526066845260408220558581526040612df88382842054612667565b91878152606685522055604051908152a3565b60405162461bcd60e51b815260206004820152602360248201527f45524332303a207472616e7366657220746f20746865207a65726f206164647260448201526265737360e81b6064820152608490fd5b60405162461bcd60e51b815260206004820152602560248201527f45524332303a207472616e736665722066726f6d20746865207a65726f206164604482015264647265737360d81b6064820152608490fd5b6001600160a01b03908116918215612f605716918215612f105760207f8c5be1e5ebec7d5bd14f71427d1e84f3dd0314c0f7b2291e5b200ac8c7c3b925918360005260678252604060002085600052825280604060002055604051908152a3565b60405162461bcd60e51b815260206004820152602260248201527f45524332303a20617070726f766520746f20746865207a65726f206164647265604482015261737360f01b6064820152608490fd5b60405162461bcd60e51b8152602060048201526024808201527f45524332303a20617070726f76652066726f6d20746865207a65726f206164646044820152637265737360e01b6064820152608490fd5b15612fb857565b60405162461bcd60e51b815260206004820152602b60248201527f496e697469616c697a61626c653a20636f6e7472616374206973206e6f74206960448201526a6e697469616c697a696e6760a81b6064820152608490fd5b6033546001600160a01b0316330361302557565b606460405162461bcd60e51b815260206004820152602060248201527f4f776e61626c653a2063616c6c6572206973206e6f7420746865206f776e65726044820152fd5b603380546001600160a01b039283166001600160a01b0319821681179092559091167f8be0079c531659141344cd1fd0a4f28419497f9722a3daafe3b4186f6b6457e0600080a356fe9bed35cb62ad0dba04f9d5bfee4b5bc91443e77da8a65c4c84834c51bb08b0d67fb4302e8e91f9110a6554c2c0a24601252c2a42c2220ca988efcfe399914308116fea137db6e131133e7f2bab296045d8f41cc5607279db17b218cab0929a51a26469706673582212208c8853339531cb5edfb1cc52fc95c5b7275190e2e8a0bf16fb6a9188e082d88464736f6c63430008110033","linkReferences":{}},"methodIdentifiers":{"addAgent(address)":"84e79842","allowance(address,address)":"dd62ed3e","approve(address,uint256)":"095ea7b3","balanceOf(address)":"70a08231","batchForcedTransfer(address[],address[],uint256[])":"42a47abc","batchFreezePartialTokens(address[],uint256[])":"fc7e5fa8","batchSetAddressFrozen(address[],bool[])":"1a7af379","batchTransfer(address[],uint256[])":"88d695b2","batchUnfreezePartialTokens(address[],uint256[])":"4710362d","burn(address,uint256)":"9dc29fac","compliance()":"6290865d","decimals()":"313ce567","decreaseAllowance(address,uint256)":"a457c2d7","forcedTransfer(address,address,uint256)":"9fc1d0e7","freezePartialTokens(address,uint256)":"125c4a33","getFrozenTokens(address)":"158b1a57","identityRegistry()":"134e18f4","increaseAllowance(address,uint256)":"39509351","init(address,address,string,string,uint8,address)":"f91b619c","isAgent(address)":"1ffbb064","isFrozen(address)":"e5839836","mint(address,uint256)":"40c10f19","name()":"06fdde03","onchainID()":"aba63705","owner()":"8da5cb5b","pause()":"8456cb59","paused()":"5c975abb","removeAgent(address)":"97a6278e","renounceOwnership()":"715018a6","setAddressFrozen(address,bool)":"c69c09cf","setCompliance(address)":"f8981789","setIdentityRegistry(address)":"cbf3f861","setName(string)":"c47f0027","setOnchainID(address)":"3d1ddc5b","setSymbol(string)":"b84c8246","symbol()":"95d89b41","totalSupply()":"18160ddd","transfer(address,uint256)":"a9059cbb","transferFrom(address,address,uint256)":"23b872dd","transferOwnership(address)":"f2fde38b","unfreezePartialTokens(address,uint256)":"1fe56f7d","unpause()":"3f4ba83a","version()":"54fd4d50"},"id":34}