{
  "_format": "hh-sol-artifact-1",
  "contractName": "FalseCompliance",
  "sourceName": "contracts/_testContracts/FalseCompliance.sol",
  "abi": [
    {
      "inputs": [],
      "stateMutability": "nonpayable",
      "type": "constructor"
    },
    {
      "anonymous": false,
      "inputs": [
        {
          "indexed": true,
          "internalType": "bytes32",
          "name": "role",
          "type": "bytes32"
        },
        {
          "indexed": true,
          "internalType": "bytes32",
          "name": "previousAdminRole",
          "type": "bytes32"
        },
        {
          "indexed": true,
          "internalType": "bytes32",
          "name": "newAdminRole",
          "type": "bytes32"
        }
      ],
      "name": "RoleAdminChanged",
      "type": "event"
    },
    {
      "anonymous": false,
      "inputs": [
        {
          "indexed": true,
          "internalType": "bytes32",
          "name": "role",
          "type": "bytes32"
        },
        {
          "indexed": true,
          "internalType": "address",
          "name": "account",
          "type": "address"
        },
        {
          "indexed": true,
          "internalType": "address",
          "name": "sender",
          "type": "address"
        }
      ],
      "name": "RoleGranted",
      "type": "event"
    },
    {
      "anonymous": false,
      "inputs": [
        {
          "indexed": true,
          "internalType": "bytes32",
          "name": "role",
          "type": "bytes32"
        },
        {
          "indexed": true,
          "internalType": "address",
          "name": "account",
          "type": "address"
        },
        {
          "indexed": true,
          "internalType": "address",
          "name": "sender",
          "type": "address"
        }
      ],
      "name": "RoleRevoked",
      "type": "event"
    },
    {
      "anonymous": false,
      "inputs": [
        {
          "indexed": false,
          "internalType": "address",
          "name": "_token",
          "type": "address"
        }
      ],
      "name": "TokenBound",
      "type": "event"
    },
    {
      "anonymous": false,
      "inputs": [
        {
          "indexed": false,
          "internalType": "address",
          "name": "_token",
          "type": "address"
        }
      ],
      "name": "TokenUnbound",
      "type": "event"
    },
    {
      "inputs": [],
      "name": "ADMIN_ROLE",
      "outputs": [
        {
          "internalType": "bytes32",
          "name": "",
          "type": "bytes32"
        }
      ],
      "stateMutability": "view",
      "type": "function"
    },
    {
      "inputs": [],
      "name": "DEFAULT_ADMIN_ROLE",
      "outputs": [
        {
          "internalType": "bytes32",
          "name": "",
          "type": "bytes32"
        }
      ],
      "stateMutability": "view",
      "type": "function"
    },
    {
      "inputs": [],
      "name": "TOKEN_ROLE",
      "outputs": [
        {
          "internalType": "bytes32",
          "name": "",
          "type": "bytes32"
        }
      ],
      "stateMutability": "view",
      "type": "function"
    },
    {
      "inputs": [
        {
          "internalType": "address",
          "name": "_token",
          "type": "address"
        }
      ],
      "name": "bindToken",
      "outputs": [],
      "stateMutability": "nonpayable",
      "type": "function"
    },
    {
      "inputs": [
        {
          "internalType": "address",
          "name": "",
          "type": "address"
        },
        {
          "internalType": "address",
          "name": "",
          "type": "address"
        },
        {
          "internalType": "uint256",
          "name": "",
          "type": "uint256"
        }
      ],
      "name": "canTransfer",
      "outputs": [
        {
          "internalType": "bool",
          "name": "",
          "type": "bool"
        }
      ],
      "stateMutability": "view",
      "type": "function"
    },
    {
      "inputs": [
        {
          "internalType": "address",
          "name": "_to",
          "type": "address"
        },
        {
          "internalType": "uint256",
          "name": "_value",
          "type": "uint256"
        }
      ],
      "name": "created",
      "outputs": [],
      "stateMutability": "nonpayable",
      "type": "function"
    },
    {
      "inputs": [
        {
          "internalType": "address",
          "name": "_from",
          "type": "address"
        },
        {
          "internalType": "uint256",
          "name": "_value",
          "type": "uint256"
        }
      ],
      "name": "destroyed",
      "outputs": [],
      "stateMutability": "nonpayable",
      "type": "function"
    },
    {
      "inputs": [
        {
          "internalType": "bytes32",
          "name": "role",
          "type": "bytes32"
        }
      ],
      "name": "getRoleAdmin",
      "outputs": [
        {
          "internalType": "bytes32",
          "name": "",
          "type": "bytes32"
        }
      ],
      "stateMutability": "view",
      "type": "function"
    },
    {
      "inputs": [
        {
          "internalType": "bytes32",
          "name": "role",
          "type": "bytes32"
        },
        {
          "internalType": "address",
          "name": "account",
          "type": "address"
        }
      ],
      "name": "grantRole",
      "outputs": [],
      "stateMutability": "nonpayable",
      "type": "function"
    },
    {
      "inputs": [
        {
          "internalType": "bytes32",
          "name": "role",
          "type": "bytes32"
        },
        {
          "internalType": "address",
          "name": "account",
          "type": "address"
        }
      ],
      "name": "hasRole",
      "outputs": [
        {
          "internalType": "bool",
          "name": "",
          "type": "bool"
        }
      ],
      "stateMutability": "view",
      "type": "function"
    },
    {
      "inputs": [
        {
          "internalType": "address",
          "name": "_token",
          "type": "address"
        }
      ],
      "name": "isTokenBound",
      "outputs": [
        {
          "internalType": "bool",
          "name": "",
          "type": "bool"
        }
      ],
      "stateMutability": "view",
      "type": "function"
    },
    {
      "inputs": [
        {
          "internalType": "bytes32",
          "name": "role",
          "type": "bytes32"
        },
        {
          "internalType": "address",
          "name": "account",
          "type": "address"
        }
      ],
      "name": "renounceRole",
      "outputs": [],
      "stateMutability": "nonpayable",
      "type": "function"
    },
    {
      "inputs": [
        {
          "internalType": "bytes32",
          "name": "role",
          "type": "bytes32"
        },
        {
          "internalType": "address",
          "name": "account",
          "type": "address"
        }
      ],
      "name": "revokeRole",
      "outputs": [],
      "stateMutability": "nonpayable",
      "type": "function"
    },
    {
      "inputs": [
        {
          "internalType": "bytes4",
          "name": "interfaceId",
          "type": "bytes4"
        }
      ],
      "name": "supportsInterface",
      "outputs": [
        {
          "internalType": "bool",
          "name": "",
          "type": "bool"
        }
      ],
      "stateMutability": "view",
      "type": "function"
    },
    {
      "inputs": [],
      "name": "tokenBound",
      "outputs": [
        {
          "internalType": "contract IToken",
          "name": "",
          "type": "address"
        }
      ],
      "stateMutability": "view",
      "type": "function"
    },
    {
      "inputs": [
        {
          "internalType": "address",
          "name": "_from",
          "type": "address"
        },
        {
          "internalType": "address",
          "name": "_to",
          "type": "address"
        },
        {
          "internalType": "uint256",
          "name": "_value",
          "type": "uint256"
        }
      ],
      "name": "transferred",
      "outputs": [],
      "stateMutability": "nonpayable",
      "type": "function"
    },
    {
      "inputs": [
        {
          "internalType": "address",
          "name": "_token",
          "type": "address"
        }
      ],
      "name": "unbindToken",
      "outputs": [],
      "stateMutability": "nonpayable",
      "type": "function"
    }
  ],
  "bytecode": "0x608060405234801561001057600080fd5b5061001c60003361004b565b6100467fa49807205ce4d355092ef5a8a18f56e8913cf4a201fbe287825b095693c217753361004b565b6100ea565b6000828152602081815260408083206001600160a01b038516845290915290205460ff166100e6576000828152602081815260408083206001600160a01b03851684529091529020805460ff191660011790556100a53390565b6001600160a01b0316816001600160a01b0316837f2f8788117e7eff1d82e926ec794901d17c78024a50270940304540a733656f0d60405160405180910390a45b5050565b610bad806100f96000396000f3fe608060405234801561001057600080fd5b506004361061010b5760003560e01c80638301057b116100a257806393e62f071161007157806393e62f071461022b578063993e8b9514610256578063a217fddf14610278578063d547741f14610280578063e46638e61461029357600080fd5b80638301057b146101de5780638baf29b4146102055780638d2ea772146101b757806391d148541461021857600080fd5b80633ff5aa02116100de5780633ff5aa021461019157806340db3b50146101a45780635f8dead3146101b757806375b238fc146101c957600080fd5b806301ffc9a714610110578063248a9ca3146101385780632f2ff15d1461016957806336568abe1461017e575b600080fd5b61012361011e3660046108fc565b6102aa565b60405190151581526020015b60405180910390f35b61015b610146366004610926565b60009081526020819052604090206001015490565b60405190815260200161012f565b61017c61017736600461095b565b6102e1565b005b61017c61018c36600461095b565b610306565b61017c61019f366004610987565b610385565b61017c6101b2366004610987565b610470565b61017c6101c53660046109a2565b5050565b61015b600080516020610b5883398151915281565b61015b7fa7197c38d9c4c7450c7f2cd20d0a17cbe7c344190d6c82a6b49a146e62439ae481565b61017c6102133660046109cc565b505050565b61012361022636600461095b565b6105aa565b60025461023e906001600160a01b031681565b6040516001600160a01b03909116815260200161012f565b610123610264366004610987565b6002546001600160a01b0391821691161490565b61015b600081565b61017c61028e36600461095b565b6105d3565b6101236102a13660046109cc565b60009392505050565b60006001600160e01b03198216637965db0b60e01b14806102db57506301ffc9a760e01b6001600160e01b03198316145b92915050565b6000828152602081905260409020600101546102fc816105f8565b6102138383610605565b6001600160a01b038116331461037b5760405162461bcd60e51b815260206004820152602f60248201527f416363657373436f6e74726f6c3a2063616e206f6e6c792072656e6f756e636560448201526e103937b632b9903337b91039b2b63360891b60648201526084015b60405180910390fd5b6101c58282610689565b61039d600080516020610b58833981519152336105aa565b806103bb57506103bb600080516020610b58833981519152336105aa565b806103cf57506002546001600160a01b0316155b61041b5760405162461bcd60e51b815260206004820152601f60248201527f4552432d333634333a2043616c6c6572206e6f7420617574686f72697a6564006044820152606401610372565b600280546001600160a01b0319166001600160a01b0383169081179091556040519081527f2de35142b19ed5a07796cf30791959c592018f70b1d2d7c460eef8ffe713692b906020015b60405180910390a150565b610488600080516020610b58833981519152336105aa565b806104b857506104b87fa7197c38d9c4c7450c7f2cd20d0a17cbe7c344190d6c82a6b49a146e62439ae4336105aa565b6105045760405162461bcd60e51b815260206004820152601f60248201527f4552432d333634333a2043616c6c6572206e6f7420617574686f72697a6564006044820152606401610372565b6002546001600160a01b038281169116146105615760405162461bcd60e51b815260206004820152601960248201527f4552432d333634333a20546f6b656e206e6f7420626f756e64000000000000006044820152606401610372565b600280546001600160a01b03191690556040516001600160a01b03821681527f28a4ca7134a3b3f9aff286e79ad3daadb4a06d1b43d037a3a98bdc074edd9b7a90602001610465565b6000918252602082815260408084206001600160a01b0393909316845291905290205460ff1690565b6000828152602081905260409020600101546105ee816105f8565b6102138383610689565b61060281336106ee565b50565b61060f82826105aa565b6101c5576000828152602081815260408083206001600160a01b03851684529091529020805460ff191660011790556106453390565b6001600160a01b0316816001600160a01b0316837f2f8788117e7eff1d82e926ec794901d17c78024a50270940304540a733656f0d60405160405180910390a45050565b61069382826105aa565b156101c5576000828152602081815260408083206001600160a01b0385168085529252808320805460ff1916905551339285917ff6391f5c32d9c69d2a47ea670b442974b53935d1edc7fd64eb21e047a839171b9190a45050565b6106f882826105aa565b6101c55761070581610747565b610710836020610759565b604051602001610721929190610a2c565b60408051601f198184030181529082905262461bcd60e51b825261037291600401610aa1565b60606102db6001600160a01b03831660145b60606000610768836002610aea565b610773906002610b01565b67ffffffffffffffff81111561078b5761078b610b14565b6040519080825280601f01601f1916602001820160405280156107b5576020820181803683370190505b509050600360fc1b816000815181106107d0576107d0610b2a565b60200101906001600160f81b031916908160001a905350600f60fb1b816001815181106107ff576107ff610b2a565b60200101906001600160f81b031916908160001a9053506000610823846002610aea565b61082e906001610b01565b90505b60018111156108a6576f181899199a1a9b1b9c1cb0b131b232b360811b85600f166010811061086257610862610b2a565b1a60f81b82828151811061087857610878610b2a565b60200101906001600160f81b031916908160001a90535060049490941c9361089f81610b40565b9050610831565b5083156108f55760405162461bcd60e51b815260206004820181905260248201527f537472696e67733a20686578206c656e67746820696e73756666696369656e746044820152606401610372565b9392505050565b60006020828403121561090e57600080fd5b81356001600160e01b0319811681146108f557600080fd5b60006020828403121561093857600080fd5b5035919050565b80356001600160a01b038116811461095657600080fd5b919050565b6000806040838503121561096e57600080fd5b8235915061097e6020840161093f565b90509250929050565b60006020828403121561099957600080fd5b6108f58261093f565b600080604083850312156109b557600080fd5b6109be8361093f565b946020939093013593505050565b6000806000606084860312156109e157600080fd5b6109ea8461093f565b92506109f86020850161093f565b9150604084013590509250925092565b60005b83811015610a23578181015183820152602001610a0b565b50506000910152565b7f416363657373436f6e74726f6c3a206163636f756e7420000000000000000000815260008351610a64816017850160208801610a08565b7001034b99036b4b9b9b4b733903937b6329607d1b6017918401918201528351610a95816028840160208801610a08565b01602801949350505050565b6020815260008251806020840152610ac0816040850160208701610a08565b601f01601f19169190910160400192915050565b634e487b7160e01b600052601160045260246000fd5b80820281158282048414176102db576102db610ad4565b808201808211156102db576102db610ad4565b634e487b7160e01b600052604160045260246000fd5b634e487b7160e01b600052603260045260246000fd5b600081610b4f57610b4f610ad4565b50600019019056fea49807205ce4d355092ef5a8a18f56e8913cf4a201fbe287825b095693c21775a264697066735822122068e15d429445e46114cf3711a18be2c19ff79009d6cfbd8871efe71b2c3ad65a64736f6c63430008110033",
  "linkReferences": {},
  "deployedLinkReferences": {}
}