{
  "_format": "hh-sol-artifact-1",
  "contractName": "ClaimIssuer",
  "sourceName": "contracts/@onchain-id/solidity/contracts/ClaimIssuer.sol",
  "abi": [
    {
      "inputs": [
        {
          "internalType": "address",
          "name": "initialManagementKey",
          "type": "address"
        }
      ],
      "stateMutability": "nonpayable",
      "type": "constructor"
    },
    {
      "anonymous": false,
      "inputs": [
        {
          "indexed": true,
          "internalType": "uint256",
          "name": "executionId",
          "type": "uint256"
        },
        {
          "indexed": false,
          "internalType": "bool",
          "name": "approved",
          "type": "bool"
        }
      ],
      "name": "Approved",
      "type": "event"
    },
    {
      "anonymous": false,
      "inputs": [
        {
          "indexed": true,
          "internalType": "bytes32",
          "name": "claimId",
          "type": "bytes32"
        },
        {
          "indexed": true,
          "internalType": "uint256",
          "name": "topic",
          "type": "uint256"
        },
        {
          "indexed": false,
          "internalType": "uint256",
          "name": "scheme",
          "type": "uint256"
        },
        {
          "indexed": true,
          "internalType": "address",
          "name": "issuer",
          "type": "address"
        },
        {
          "indexed": false,
          "internalType": "bytes",
          "name": "signature",
          "type": "bytes"
        },
        {
          "indexed": false,
          "internalType": "bytes",
          "name": "data",
          "type": "bytes"
        },
        {
          "indexed": false,
          "internalType": "string",
          "name": "uri",
          "type": "string"
        }
      ],
      "name": "ClaimAdded",
      "type": "event"
    },
    {
      "anonymous": false,
      "inputs": [
        {
          "indexed": true,
          "internalType": "bytes32",
          "name": "claimId",
          "type": "bytes32"
        },
        {
          "indexed": true,
          "internalType": "uint256",
          "name": "topic",
          "type": "uint256"
        },
        {
          "indexed": false,
          "internalType": "uint256",
          "name": "scheme",
          "type": "uint256"
        },
        {
          "indexed": true,
          "internalType": "address",
          "name": "issuer",
          "type": "address"
        },
        {
          "indexed": false,
          "internalType": "bytes",
          "name": "signature",
          "type": "bytes"
        },
        {
          "indexed": false,
          "internalType": "bytes",
          "name": "data",
          "type": "bytes"
        },
        {
          "indexed": false,
          "internalType": "string",
          "name": "uri",
          "type": "string"
        }
      ],
      "name": "ClaimChanged",
      "type": "event"
    },
    {
      "anonymous": false,
      "inputs": [
        {
          "indexed": true,
          "internalType": "bytes32",
          "name": "claimId",
          "type": "bytes32"
        },
        {
          "indexed": true,
          "internalType": "uint256",
          "name": "topic",
          "type": "uint256"
        },
        {
          "indexed": false,
          "internalType": "uint256",
          "name": "scheme",
          "type": "uint256"
        },
        {
          "indexed": true,
          "internalType": "address",
          "name": "issuer",
          "type": "address"
        },
        {
          "indexed": false,
          "internalType": "bytes",
          "name": "signature",
          "type": "bytes"
        },
        {
          "indexed": false,
          "internalType": "bytes",
          "name": "data",
          "type": "bytes"
        },
        {
          "indexed": false,
          "internalType": "string",
          "name": "uri",
          "type": "string"
        }
      ],
      "name": "ClaimRemoved",
      "type": "event"
    },
    {
      "anonymous": false,
      "inputs": [
        {
          "indexed": true,
          "internalType": "bytes",
          "name": "signature",
          "type": "bytes"
        }
      ],
      "name": "ClaimRevoked",
      "type": "event"
    },
    {
      "anonymous": false,
      "inputs": [
        {
          "indexed": true,
          "internalType": "uint256",
          "name": "executionId",
          "type": "uint256"
        },
        {
          "indexed": true,
          "internalType": "address",
          "name": "to",
          "type": "address"
        },
        {
          "indexed": true,
          "internalType": "uint256",
          "name": "value",
          "type": "uint256"
        },
        {
          "indexed": false,
          "internalType": "bytes",
          "name": "data",
          "type": "bytes"
        }
      ],
      "name": "Executed",
      "type": "event"
    },
    {
      "anonymous": false,
      "inputs": [
        {
          "indexed": true,
          "internalType": "uint256",
          "name": "executionId",
          "type": "uint256"
        },
        {
          "indexed": true,
          "internalType": "address",
          "name": "to",
          "type": "address"
        },
        {
          "indexed": true,
          "internalType": "uint256",
          "name": "value",
          "type": "uint256"
        },
        {
          "indexed": false,
          "internalType": "bytes",
          "name": "data",
          "type": "bytes"
        }
      ],
      "name": "ExecutionFailed",
      "type": "event"
    },
    {
      "anonymous": false,
      "inputs": [
        {
          "indexed": true,
          "internalType": "uint256",
          "name": "executionId",
          "type": "uint256"
        },
        {
          "indexed": true,
          "internalType": "address",
          "name": "to",
          "type": "address"
        },
        {
          "indexed": true,
          "internalType": "uint256",
          "name": "value",
          "type": "uint256"
        },
        {
          "indexed": false,
          "internalType": "bytes",
          "name": "data",
          "type": "bytes"
        }
      ],
      "name": "ExecutionRequested",
      "type": "event"
    },
    {
      "anonymous": false,
      "inputs": [
        {
          "indexed": true,
          "internalType": "bytes32",
          "name": "key",
          "type": "bytes32"
        },
        {
          "indexed": true,
          "internalType": "uint256",
          "name": "purpose",
          "type": "uint256"
        },
        {
          "indexed": true,
          "internalType": "uint256",
          "name": "keyType",
          "type": "uint256"
        }
      ],
      "name": "KeyAdded",
      "type": "event"
    },
    {
      "anonymous": false,
      "inputs": [
        {
          "indexed": true,
          "internalType": "bytes32",
          "name": "key",
          "type": "bytes32"
        },
        {
          "indexed": true,
          "internalType": "uint256",
          "name": "purpose",
          "type": "uint256"
        },
        {
          "indexed": true,
          "internalType": "uint256",
          "name": "keyType",
          "type": "uint256"
        }
      ],
      "name": "KeyRemoved",
      "type": "event"
    },
    {
      "inputs": [
        {
          "internalType": "uint256",
          "name": "_topic",
          "type": "uint256"
        },
        {
          "internalType": "uint256",
          "name": "_scheme",
          "type": "uint256"
        },
        {
          "internalType": "address",
          "name": "_issuer",
          "type": "address"
        },
        {
          "internalType": "bytes",
          "name": "_signature",
          "type": "bytes"
        },
        {
          "internalType": "bytes",
          "name": "_data",
          "type": "bytes"
        },
        {
          "internalType": "string",
          "name": "_uri",
          "type": "string"
        }
      ],
      "name": "addClaim",
      "outputs": [
        {
          "internalType": "bytes32",
          "name": "claimRequestId",
          "type": "bytes32"
        }
      ],
      "stateMutability": "nonpayable",
      "type": "function"
    },
    {
      "inputs": [
        {
          "internalType": "bytes32",
          "name": "_key",
          "type": "bytes32"
        },
        {
          "internalType": "uint256",
          "name": "_purpose",
          "type": "uint256"
        },
        {
          "internalType": "uint256",
          "name": "_type",
          "type": "uint256"
        }
      ],
      "name": "addKey",
      "outputs": [
        {
          "internalType": "bool",
          "name": "success",
          "type": "bool"
        }
      ],
      "stateMutability": "nonpayable",
      "type": "function"
    },
    {
      "inputs": [
        {
          "internalType": "uint256",
          "name": "_id",
          "type": "uint256"
        },
        {
          "internalType": "bool",
          "name": "_approve",
          "type": "bool"
        }
      ],
      "name": "approve",
      "outputs": [
        {
          "internalType": "bool",
          "name": "success",
          "type": "bool"
        }
      ],
      "stateMutability": "nonpayable",
      "type": "function"
    },
    {
      "inputs": [
        {
          "internalType": "address",
          "name": "_to",
          "type": "address"
        },
        {
          "internalType": "uint256",
          "name": "_value",
          "type": "uint256"
        },
        {
          "internalType": "bytes",
          "name": "_data",
          "type": "bytes"
        }
      ],
      "name": "execute",
      "outputs": [
        {
          "internalType": "uint256",
          "name": "executionId",
          "type": "uint256"
        }
      ],
      "stateMutability": "payable",
      "type": "function"
    },
    {
      "inputs": [
        {
          "internalType": "bytes32",
          "name": "_claimId",
          "type": "bytes32"
        }
      ],
      "name": "getClaim",
      "outputs": [
        {
          "internalType": "uint256",
          "name": "topic",
          "type": "uint256"
        },
        {
          "internalType": "uint256",
          "name": "scheme",
          "type": "uint256"
        },
        {
          "internalType": "address",
          "name": "issuer",
          "type": "address"
        },
        {
          "internalType": "bytes",
          "name": "signature",
          "type": "bytes"
        },
        {
          "internalType": "bytes",
          "name": "data",
          "type": "bytes"
        },
        {
          "internalType": "string",
          "name": "uri",
          "type": "string"
        }
      ],
      "stateMutability": "view",
      "type": "function"
    },
    {
      "inputs": [
        {
          "internalType": "uint256",
          "name": "_topic",
          "type": "uint256"
        }
      ],
      "name": "getClaimIdsByTopic",
      "outputs": [
        {
          "internalType": "bytes32[]",
          "name": "claimIds",
          "type": "bytes32[]"
        }
      ],
      "stateMutability": "view",
      "type": "function"
    },
    {
      "inputs": [
        {
          "internalType": "bytes32",
          "name": "_key",
          "type": "bytes32"
        }
      ],
      "name": "getKey",
      "outputs": [
        {
          "internalType": "uint256[]",
          "name": "purposes",
          "type": "uint256[]"
        },
        {
          "internalType": "uint256",
          "name": "keyType",
          "type": "uint256"
        },
        {
          "internalType": "bytes32",
          "name": "key",
          "type": "bytes32"
        }
      ],
      "stateMutability": "view",
      "type": "function"
    },
    {
      "inputs": [
        {
          "internalType": "bytes32",
          "name": "_key",
          "type": "bytes32"
        }
      ],
      "name": "getKeyPurposes",
      "outputs": [
        {
          "internalType": "uint256[]",
          "name": "_purposes",
          "type": "uint256[]"
        }
      ],
      "stateMutability": "view",
      "type": "function"
    },
    {
      "inputs": [
        {
          "internalType": "uint256",
          "name": "_purpose",
          "type": "uint256"
        }
      ],
      "name": "getKeysByPurpose",
      "outputs": [
        {
          "internalType": "bytes32[]",
          "name": "keys",
          "type": "bytes32[]"
        }
      ],
      "stateMutability": "view",
      "type": "function"
    },
    {
      "inputs": [
        {
          "internalType": "bytes",
          "name": "sig",
          "type": "bytes"
        },
        {
          "internalType": "bytes32",
          "name": "dataHash",
          "type": "bytes32"
        }
      ],
      "name": "getRecoveredAddress",
      "outputs": [
        {
          "internalType": "address",
          "name": "addr",
          "type": "address"
        }
      ],
      "stateMutability": "pure",
      "type": "function"
    },
    {
      "inputs": [
        {
          "internalType": "address",
          "name": "initialManagementKey",
          "type": "address"
        }
      ],
      "name": "initialize",
      "outputs": [],
      "stateMutability": "nonpayable",
      "type": "function"
    },
    {
      "inputs": [
        {
          "internalType": "bytes",
          "name": "_sig",
          "type": "bytes"
        }
      ],
      "name": "isClaimRevoked",
      "outputs": [
        {
          "internalType": "bool",
          "name": "",
          "type": "bool"
        }
      ],
      "stateMutability": "view",
      "type": "function"
    },
    {
      "inputs": [
        {
          "internalType": "contract IIdentity",
          "name": "_identity",
          "type": "address"
        },
        {
          "internalType": "uint256",
          "name": "claimTopic",
          "type": "uint256"
        },
        {
          "internalType": "bytes",
          "name": "sig",
          "type": "bytes"
        },
        {
          "internalType": "bytes",
          "name": "data",
          "type": "bytes"
        }
      ],
      "name": "isClaimValid",
      "outputs": [
        {
          "internalType": "bool",
          "name": "claimValid",
          "type": "bool"
        }
      ],
      "stateMutability": "view",
      "type": "function"
    },
    {
      "inputs": [
        {
          "internalType": "bytes32",
          "name": "_key",
          "type": "bytes32"
        },
        {
          "internalType": "uint256",
          "name": "_purpose",
          "type": "uint256"
        }
      ],
      "name": "keyHasPurpose",
      "outputs": [
        {
          "internalType": "bool",
          "name": "result",
          "type": "bool"
        }
      ],
      "stateMutability": "view",
      "type": "function"
    },
    {
      "inputs": [
        {
          "internalType": "bytes32",
          "name": "_claimId",
          "type": "bytes32"
        }
      ],
      "name": "removeClaim",
      "outputs": [
        {
          "internalType": "bool",
          "name": "success",
          "type": "bool"
        }
      ],
      "stateMutability": "nonpayable",
      "type": "function"
    },
    {
      "inputs": [
        {
          "internalType": "bytes32",
          "name": "_key",
          "type": "bytes32"
        },
        {
          "internalType": "uint256",
          "name": "_purpose",
          "type": "uint256"
        }
      ],
      "name": "removeKey",
      "outputs": [
        {
          "internalType": "bool",
          "name": "success",
          "type": "bool"
        }
      ],
      "stateMutability": "nonpayable",
      "type": "function"
    },
    {
      "inputs": [
        {
          "internalType": "bytes32",
          "name": "_claimId",
          "type": "bytes32"
        },
        {
          "internalType": "address",
          "name": "_identity",
          "type": "address"
        }
      ],
      "name": "revokeClaim",
      "outputs": [
        {
          "internalType": "bool",
          "name": "",
          "type": "bool"
        }
      ],
      "stateMutability": "nonpayable",
      "type": "function"
    },
    {
      "inputs": [
        {
          "internalType": "bytes",
          "name": "signature",
          "type": "bytes"
        }
      ],
      "name": "revokeClaimBySignature",
      "outputs": [],
      "stateMutability": "nonpayable",
      "type": "function"
    },
    {
      "inputs": [
        {
          "internalType": "bytes",
          "name": "",
          "type": "bytes"
        }
      ],
      "name": "revokedClaims",
      "outputs": [
        {
          "internalType": "bool",
          "name": "",
          "type": "bool"
        }
      ],
      "stateMutability": "view",
      "type": "function"
    },
    {
      "inputs": [],
      "name": "version",
      "outputs": [
        {
          "internalType": "string",
          "name": "",
          "type": "string"
        }
      ],
      "stateMutability": "pure",
      "type": "function"
    }
  ],
  "bytecode": "0x60806040526006805461ffff191690553480156200001c57600080fd5b506040516200308c3803806200308c8339810160408190526200003f91620002a3565b8060006001600160a01b0382166200009e5760405162461bcd60e51b815260206004820152601f60248201527f696e76616c696420617267756d656e74202d207a65726f20616464726573730060448201526064015b60405180910390fd5b80620000b557620000af82620000cc565b620000c3565b6006805460ff191660011790555b505050620002d5565b60065460ff161580620000de5750303b155b6200012c5760405162461bcd60e51b815260206004820152601e60248201527f496e697469616c206b65792077617320616c72656164792073657475702e0000604482015260640162000095565b6006805461ffff1916610101179055604080516001600160a01b03831660208201526000910160408051601f1981840301815282825280516020918201206000818152600180845284822060028101849055868501909552808652908290529182905293506200019d929062000237565b506000818152600160208181526040808420830183905560029091527fe90b7bceb6e7df5418fb78d8ee546e97c83a08bbccc01a0644d599ccd2a7c2e0805480840182559084527f7fef4bf8f63cf9dd467136c679c02b5c17fcf6322d9562512bf5eb952cf7cc5301849055519091829184917f480000bb1edad8ca1470381cc334b1917fbd51c6531f3a623ea8e0ec7e38a6e991a45050565b8280548282559060005260206000209081019282156200027a579160200282015b828111156200027a578251829060ff1690559160200191906001019062000258565b50620002889291506200028c565b5090565b5b808211156200028857600081556001016200028d565b600060208284031215620002b657600080fd5b81516001600160a01b0381168114620002ce57600080fd5b9392505050565b612da780620002e56000396000f3fe60806040526004361061011f5760003560e01c80639f7f9edd116100a0578063c4d66de811610064578063c4d66de814610368578063c9100bcb14610388578063d202158d146103ba578063d2345249146103da578063fb307b341461041557600080fd5b80639f7f9edd146102ad578063b1a34e0d146102cf578063b61d27f6146102fd578063c0969a6e14610310578063c3b129e31461033057600080fd5b806354fd4d50116100e757806354fd4d50146101ec57806373c3370814610220578063747442d31461024057806380e9e9e1146102605780639010f7261461028d57600080fd5b806312aaac70146101245780631d3812401461015c5780632646b2641461018c5780634eee424a146101ac57806353d413c5146101cc575b600080fd5b34801561013057600080fd5b5061014461013f3660046121a8565b610442565b604051610153939291906121fc565b60405180910390f35b34801561016857600080fd5b5061017c610177366004612221565b6104bb565b6040519015158152602001610153565b34801561019857600080fd5b5061017c6101a736600461231a565b61071f565b3480156101b857600080fd5b5061017c6101c73660046121a8565b610759565b3480156101d857600080fd5b5061017c6101e736600461234f565b610a18565b3480156101f857600080fd5b5060408051808201825260058152640322e302e360dc1b6020820152905161015391906123c1565b34801561022c57600080fd5b5061017c61023b3660046123e9565b610e08565b34801561024c57600080fd5b5061017c61025b366004612427565b610fe7565b34801561026c57600080fd5b5061028061027b3660046121a8565b6113c4565b604051610153919061244c565b34801561029957600080fd5b506102806102a83660046121a8565b611426565b3480156102b957600080fd5b506102cd6102c8366004612490565b611486565b005b3480156102db57600080fd5b506102ef6102ea366004612502565b6115d4565b604051908152602001610153565b6102ef61030b3660046125c3565b6118a0565b34801561031c57600080fd5b5061017c61032b36600461261c565b6119d2565b34801561033c57600080fd5b5061035061034b36600461269c565b611ad5565b6040516001600160a01b039091168152602001610153565b34801561037457600080fd5b506102cd6103833660046126e1565b611b86565b34801561039457600080fd5b506103a86103a33660046121a8565b611be8565b604051610153969594939291906126fe565b3480156103c657600080fd5b5061017c6103d536600461234f565b611de9565b3480156103e657600080fd5b5061017c6103f536600461231a565b805160208183018101805160388252928201919093012091525460ff1681565b34801561042157600080fd5b506104356104303660046121a8565b611eea565b604051610153919061275e565b6000818152600160208181526040808420928301546002840154845483518186028101860190945280845260609695869590949185918301828280156104a757602002820191906000526020600020905b815481526020019060010190808311610493575b505050505092509250925092509193909250565b60065460009060ff6101009091041615156001146104f45760405162461bcd60e51b81526004016104eb90612771565b60405180910390fd5b3330148061052a57506040805133602082015261052a91015b604051602081830303815290604052805190602001206001611de9565b6105465760405162461bcd60e51b81526004016104eb906127c4565b600084815260016020526040902060020154849003610679576000848152600160209081526040808320805482518185028101850190935280835291929091908301828280156105b557602002820191906000526020600020905b8154815260200190600101908083116105a1575b5050505050905060005b81518110156106525760008282815181106105dc576105dc612814565b6020026020010151905085810361063f5760405162461bcd60e51b815260206004820152602160248201527f436f6e666c6963743a204b657920616c72656164792068617320707572706f736044820152606560f81b60648201526084016104eb565b508061064a81612840565b9150506105bf565b505060008481526001602081815260408320805492830181558352909120018390556106c5565b600084815260016020818152604080842060028101899055815180840190925287825293889052908290526106ae92916120b0565b506000848152600160208190526040909120018290555b60008381526002602090815260408083208054600181018255908452918320909101869055518391859187917f480000bb1edad8ca1470381cc334b1917fbd51c6531f3a623ea8e0ec7e38a6e991a45060015b9392505050565b60006038826040516107319190612859565b9081526040519081900360200190205460ff161561075157506001919050565b506000919050565b60065460009060ff6101009091041615156001146107895760405162461bcd60e51b81526004016104eb90612771565b333014806107bf5750604080513360208201526107bf91015b604051602081830303815290604052805190602001206003611de9565b6107db5760405162461bcd60e51b81526004016104eb90612875565b6000828152600460205260408120549081900361084e5760405162461bcd60e51b815260206004820152602b60248201527f4e6f6e4578697374696e673a205468657265206973206e6f20636c61696d207760448201526a1a5d1a081d1a1a5cc8125160aa1b60648201526084016104eb565b6000818152600560205260408120545b600083815260056020526040902080548691908490811061088157610881612814565b9060005260206000200154146108a6578161089b81612840565b92505080821061085e575b60008381526005602052604090206108bf6001836128c7565b815481106108cf576108cf612814565b90600052602060002001546005600085815260200190815260200160002083815481106108fe576108fe612814565b90600052602060002001819055506005600084815260200190815260200160002080548061092e5761092e6128da565b6000828152602080822083016000199081018390559092019092558682526004908190526040918290206002810154600182015493516001600160a01b039091169387938a937f3cf57863a89432c61c4a27073c6ee39e8a764bff5a05aebfbcdcdc80b2e6130a936109af93926003830192908101916005909101906129a7565b60405180910390a46000858152600460205260408120818155600181018290556002810180546001600160a01b0319169055906109ef60038301826120fb565b6109fd6004830160006120fb565b610a0b6005830160006120fb565b5060019695505050505050565b60065460009060ff610100909104161515600114610a485760405162461bcd60e51b81526004016104eb90612771565b33301480610a65575060408051336020820152610a65910161050d565b610a815760405162461bcd60e51b81526004016104eb906127c4565b6000838152600160205260409020600201548314610aeb5760405162461bcd60e51b815260206004820152602160248201527f4e6f6e4578697374696e673a204b65792069736e2774207265676973746572656044820152601960fa1b60648201526084016104eb565b600083815260016020908152604080832080548251818502810185019093528083529192909190830182828015610b4157602002820191906000526020600020905b815481526020019060010190808311610b2d575b5050505050905060005b83828281518110610b5e57610b5e612814565b602002602001015114610be05780610b7581612840565b91505081518103610bdb5760405162461bcd60e51b815260206004820152602a60248201527f4e6f6e4578697374696e673a204b657920646f65736e27742068617665207375604482015269636820707572706f736560b01b60648201526084016104eb565b610b4b565b8160018351610bef91906128c7565b81518110610bff57610bff612814565b6020026020010151828281518110610c1957610c19612814565b602090810291909101810191909152600086815260018252604090208351610c43928501906120b0565b506000858152600160205260409020805480610c6157610c616128da565b6000828152602080822083016000199081018390559092019092558582526002905260408120545b6000868152600260205260409020805488919084908110610cac57610cac612814565b906000526020600020015414610cd15781610cc681612840565b925050808210610c89575b6000868152600260205260409020610cea6001836128c7565b81548110610cfa57610cfa612814565b9060005260206000200154600260008881526020019081526020016000208381548110610d2957610d29612814565b906000526020600020018190555060026000878152602001908152602001600020805480610d5957610d596128da565b6001900381819060005260206000200160009055905560006001600089815260200190815260200160002060010154905060018551610d9891906128c7565b600003610dc957600088815260016020526040812090610db88282612135565b506000600182018190556002909101555b8087897f585a4aef50f8267a92b32412b331b20f7f8b96f2245b253b9cc50dcc621d339760405160405180910390a46001955050505050505b92915050565b60065460009060ff610100909104161515600114610e385760405162461bcd60e51b81526004016104eb90612771565b33301480610e55575060408051336020820152610e55910161050d565b610e715760405162461bcd60e51b81526004016104eb906127c4565b6000806000606080866001600160a01b031663c9100bcb896040518263ffffffff1660e01b8152600401610ea791815260200190565b600060405180830381865afa158015610ec4573d6000803e3d6000fd5b505050506040513d6000823e601f3d908101601f19168201604052610eec9190810190612a36565b5060405194995092975090955093509150603890610f0b908490612859565b9081526040519081900360200190205460ff1615610f6b5760405162461bcd60e51b815260206004820152601f60248201527f436f6e666c6963743a20436c61696d20616c7265616479207265766f6b65640060448201526064016104eb565b6001603883604051610f7d9190612859565b908152604051908190036020018120805492151560ff1990931692909217909155610fa9908390612859565b604051908190038120907f7f484e37f24c0a92f81dd74afa3027b3ea31f2e9fb6b9fa29fe9865f81ac556990600090a2506001979650505050505050565b60065460009060ff6101009091041615156001146110175760405162461bcd60e51b81526004016104eb90612771565b60005483106110785760405162461bcd60e51b815260206004820152602760248201527f43616e6e6f7420617070726f76652061206e6f6e2d6578697374696e6720657860448201526632b1baba34b7b760c91b60648201526084016104eb565b60008381526003602081905260409091200154610100900460ff16156110e05760405162461bcd60e51b815260206004820152601860248201527f5265717565737420616c7265616479206578656375746564000000000000000060448201526064016104eb565b600083815260036020526040902054306001600160a01b03909116036111715760408051336020820152611114910161050d565b61116c5760405162461bcd60e51b815260206004820152602360248201527f53656e64657220646f6573206e6f742068617665206d616e6167656d656e74206044820152626b657960e81b60648201526084016104eb565b6111ea565b6040805133602082015261119e91015b604051602081830303815290604052805190602001206002611de9565b6111ea5760405162461bcd60e51b815260206004820152601f60248201527f53656e64657220646f6573206e6f74206861766520616374696f6e206b65790060448201526064016104eb565b827fb3932da477fe5d6c8ff2eafef050c0f3a1af18fc07121001482600f36f3715d88360405161121e911515815260200190565b60405180910390a28115156001036113a657600083815260036020819052604091829020908101805460ff1916600190811790915581549082015492516001600160a01b03909116929161127791600290910190612aeb565b60006040518083038185875af1925050503d80600081146112b4576040519150601f19603f3d011682016040523d82523d6000602084013e6112b9565b606091505b5090915050801561133e57600083815260036020819052604091829020908101805461ff00191661010017905560018101548154925190926001600160a01b03169186917f1f920dbda597d7bf95035464170fa58d0a4b57f13a1c315ace6793b9f63688b89161132e91600290910190612b61565b60405180910390a4506001610e02565b6000838152600360205260409081902060018101548154925190926001600160a01b03169186917fe10c49d9f7c71da23262367013434763cfdb2332267641728d25cd712c5c6a689161139691600290910190612b61565b60405180910390a4506000610e02565b50506000908152600360208190526040822001805460ff1916905590565b60008181526005602090815260409182902080548351818402810184019094528084526060939283018282801561141a57602002820191906000526020600020905b815481526020019060010190808311611406575b50505050509050919050565b60008181526002602090815260409182902080548351818402810184019094528084526060939283018282801561141a57602002820191906000526020600020908154815260200190600101908083116114065750505050509050919050565b60065460ff6101009091041615156001146114b35760405162461bcd60e51b81526004016104eb90612771565b333014806114d05750604080513360208201526114d0910161050d565b6114ec5760405162461bcd60e51b81526004016104eb906127c4565b603882826040516114fe929190612b74565b9081526040519081900360200190205460ff161561155e5760405162461bcd60e51b815260206004820152601f60248201527f436f6e666c6963743a20436c61696d20616c7265616479207265766f6b65640060448201526064016104eb565b600160388383604051611572929190612b74565b908152604051908190036020018120805492151560ff19909316929092179091556115a09083908390612b74565b604051908190038120907f7f484e37f24c0a92f81dd74afa3027b3ea31f2e9fb6b9fa29fe9865f81ac556990600090a25050565b60065460009060ff6101009091041615156001146116045760405162461bcd60e51b81526004016104eb90612771565b3330148061162157506040805133602082015261162191016107a2565b61163d5760405162461bcd60e51b81526004016104eb90612875565b6001600160a01b03851630146116fc5760405163604b4d3760e11b81526001600160a01b0386169063c0969a6e9061167f9030908b9089908990600401612b84565b602060405180830381865afa15801561169c573d6000803e3d6000fd5b505050506040513d601f19601f820116820180604052508101906116c09190612bbd565b6116fc5760405162461bcd60e51b815260206004820152600d60248201526c696e76616c696420636c61696d60981b60448201526064016104eb565b604080516001600160a01b038716602082015290810188905260009060600160408051601f198184030181529181528151602092830120600081815260049093529120898155600181018990559091506003016117598682612c29565b506000818152600460208190526040909120016117768582612c29565b5060008181526004602052604090206005016117928482612c29565b506000818152600460205260409020600201546001600160a01b0387811691161461184b57600088815260056020908152604080832080546001810182559084528284200184905583835260049091529081902060020180546001600160a01b0319166001600160a01b0389169081179091559051899083907f46149b18aa084502c3f12bc75e19eda8bda8d102b82cce8474677a6d0d5f43c59061183e908c908b908b908b90612ce9565b60405180910390a4611895565b856001600160a01b031688827f3bab293fc00db832d7619a9299914251b8747c036867ec056cbd506f60135b138a89898960405161188c9493929190612ce9565b60405180910390a45b979650505050505050565b60065460009060ff6101009091041615156001146118d05760405162461bcd60e51b81526004016104eb90612771565b600080548082526003602052604090912080546001600160a01b0319166001600160a01b0387161781556001810185905560020161190e8482612c29565b5060008054908061191e83612840565b919050555083856001600160a01b0316827f8afcfabcb00e47a53a8fc3e9f23ff47ee1926194bb1350dd007c50b412a6cee88660405161195e91906123c1565b60405180910390a46040805133602082015261197a910161050d565b156119905761198a816001610fe7565b506119ca565b6001600160a01b03851630148015906119b85750604080513360208201526119b89101611181565b156119ca576119c8816001610fe7565b505b949350505050565b6000808585846040516020016119ea93929190612d28565b604051602081830303815290604052805190602001209050600081604051602001611a4191907f19457468657265756d205369676e6564204d6573736167653a0a3332000000008152601c810191909152603c0190565b6040516020818303038152906040528051906020012090506000611a658683611ad5565b604080516001600160a01b038316602082015291925060009101604051602081830303815290604052805190602001209050611aa2816003611de9565b8015611ab45750611ab28761071f565b155b15611ac65760019450505050506119ca565b50600098975050505050505050565b6000806000808551604114611af05760009350505050610e02565b50505060208301516040840151606085015160001a601b811015611b1c57611b19601b82612d58565b90505b6040805160008082526020820180845288905260ff841692820192909252606081018590526080810184905260019060a0016020604051602081039080840390855afa158015611b70573d6000803e3d6000fd5b5050604051601f19015198975050505050505050565b6001600160a01b038116611bdc5760405162461bcd60e51b815260206004820152601f60248201527f696e76616c696420617267756d656e74202d207a65726f20616464726573730060448201526064016104eb565b611be581611f4a565b50565b600081815260046020819052604082208054600182015460028301546003840180548796879660609687968796919590946001600160a01b03909216939092908101916005909101908390611c3c906128f0565b80601f0160208091040260200160405190810160405280929190818152602001828054611c68906128f0565b8015611cb55780601f10611c8a57610100808354040283529160200191611cb5565b820191906000526020600020905b815481529060010190602001808311611c9857829003601f168201915b50505050509250818054611cc8906128f0565b80601f0160208091040260200160405190810160405280929190818152602001828054611cf4906128f0565b8015611d415780601f10611d1657610100808354040283529160200191611d41565b820191906000526020600020905b815481529060010190602001808311611d2457829003601f168201915b50505050509150808054611d54906128f0565b80601f0160208091040260200160405190810160405280929190818152602001828054611d80906128f0565b8015611dcd5780601f10611da257610100808354040283529160200191611dcd565b820191906000526020600020905b815481529060010190602001808311611db057829003601f168201915b5050505050905095509550955095509550955091939550919395565b60008281526001602090815260408083208151815460809481028201850190935260608101838152859491938492849190840182828015611e4957602002820191906000526020600020905b815481526020019060010190808311611e35575b505050918352505060018201546020820152600290910154604091820152810151909150600003611e7e576000915050610e02565b60005b815151811015611edf57600082600001518281518110611ea357611ea3612814565b602002602001015190508060011480611ebb57508481145b15611ecc5760019350505050610e02565b5080611ed781612840565b915050611e81565b506000949350505050565b60008181526001602090815260409182902080548351818402810184019094528084526060939283018282801561141a57602002820191906000526020600020908154815260200190600101908083116114065750505050509050919050565b60065460ff161580611f5b5750303b155b611fa75760405162461bcd60e51b815260206004820152601e60248201527f496e697469616c206b65792077617320616c72656164792073657475702e000060448201526064016104eb565b6006805461ffff1916610101179055604080516001600160a01b03831660208201526000910160408051601f1981840301815282825280516020918201206000818152600180845284822060028101849055868501909552808652908290529182905293506120169290612153565b506000818152600160208181526040808420830183905560029091527fe90b7bceb6e7df5418fb78d8ee546e97c83a08bbccc01a0644d599ccd2a7c2e0805480840182559084527f7fef4bf8f63cf9dd467136c679c02b5c17fcf6322d9562512bf5eb952cf7cc5301849055519091829184917f480000bb1edad8ca1470381cc334b1917fbd51c6531f3a623ea8e0ec7e38a6e991a45050565b8280548282559060005260206000209081019282156120eb579160200282015b828111156120eb5782518255916020019190600101906120d0565b506120f7929150612193565b5090565b508054612107906128f0565b6000825580601f10612117575050565b601f016020900490600052602060002090810190611be59190612193565b5080546000825590600052602060002090810190611be59190612193565b8280548282559060005260206000209081019282156120eb579160200282015b828111156120eb578251829060ff16905591602001919060010190612173565b5b808211156120f75760008155600101612194565b6000602082840312156121ba57600080fd5b5035919050565b600081518084526020808501945080840160005b838110156121f1578151875295820195908201906001016121d5565b509495945050505050565b60608152600061220f60608301866121c1565b60208301949094525060400152919050565b60008060006060848603121561223657600080fd5b505081359360208301359350604090920135919050565b634e487b7160e01b600052604160045260246000fd5b604051601f8201601f1916810167ffffffffffffffff8111828210171561228c5761228c61224d565b604052919050565b600067ffffffffffffffff8211156122ae576122ae61224d565b50601f01601f191660200190565b60006122cf6122ca84612294565b612263565b90508281528383830111156122e357600080fd5b828260208301376000602084830101529392505050565b600082601f83011261230b57600080fd5b610718838335602085016122bc565b60006020828403121561232c57600080fd5b813567ffffffffffffffff81111561234357600080fd5b6119ca848285016122fa565b6000806040838503121561236257600080fd5b50508035926020909101359150565b60005b8381101561238c578181015183820152602001612374565b50506000910152565b600081518084526123ad816020860160208601612371565b601f01601f19169290920160200192915050565b6020815260006107186020830184612395565b6001600160a01b0381168114611be557600080fd5b600080604083850312156123fc57600080fd5b82359150602083013561240e816123d4565b809150509250929050565b8015158114611be557600080fd5b6000806040838503121561243a57600080fd5b82359150602083013561240e81612419565b6020808252825182820181905260009190848201906040850190845b8181101561248457835183529284019291840191600101612468565b50909695505050505050565b600080602083850312156124a357600080fd5b823567ffffffffffffffff808211156124bb57600080fd5b818501915085601f8301126124cf57600080fd5b8135818111156124de57600080fd5b8660208285010111156124f057600080fd5b60209290920196919550909350505050565b60008060008060008060c0878903121561251b57600080fd5b86359550602087013594506040870135612534816123d4565b9350606087013567ffffffffffffffff8082111561255157600080fd5b61255d8a838b016122fa565b9450608089013591508082111561257357600080fd5b61257f8a838b016122fa565b935060a089013591508082111561259557600080fd5b508701601f810189136125a757600080fd5b6125b6898235602084016122bc565b9150509295509295509295565b6000806000606084860312156125d857600080fd5b83356125e3816123d4565b925060208401359150604084013567ffffffffffffffff81111561260657600080fd5b612612868287016122fa565b9150509250925092565b6000806000806080858703121561263257600080fd5b843561263d816123d4565b935060208501359250604085013567ffffffffffffffff8082111561266157600080fd5b61266d888389016122fa565b9350606087013591508082111561268357600080fd5b50612690878288016122fa565b91505092959194509250565b600080604083850312156126af57600080fd5b823567ffffffffffffffff8111156126c657600080fd5b6126d2858286016122fa565b95602094909401359450505050565b6000602082840312156126f357600080fd5b8135610718816123d4565b86815285602082015260018060a01b038516604082015260c06060820152600061272b60c0830186612395565b828103608084015261273d8186612395565b905082810360a08401526127518185612395565b9998505050505050505050565b60208152600061071860208301846121c1565b60208082526033908201527f496e746572616374696e67207769746820746865206c69627261727920636f6e6040820152723a3930b1ba1034b9903337b93134b23232b71760691b606082015260800190565b60208082526030908201527f5065726d697373696f6e733a2053656e64657220646f6573206e6f742068617660408201526f65206d616e6167656d656e74206b657960801b606082015260800190565b634e487b7160e01b600052603260045260246000fd5b634e487b7160e01b600052601160045260246000fd5b6000600182016128525761285261282a565b5060010190565b6000825161286b818460208701612371565b9190910192915050565b60208082526032908201527f5065726d697373696f6e733a2053656e64657220646f6573206e6f74206861766040820152716520636c61696d207369676e6572206b657960701b606082015260800190565b81810381811115610e0257610e0261282a565b634e487b7160e01b600052603160045260246000fd5b600181811c9082168061290457607f821691505b60208210810361292457634e487b7160e01b600052602260045260246000fd5b50919050565b60008154612937816128f0565b808552602060018381168015612954576001811461296e5761299c565b60ff1985168884015283151560051b88018301955061299c565b866000528260002060005b858110156129945781548a8201860152908301908401612979565b890184019650505b505050505092915050565b8481526080602082015260006129c0608083018661292a565b82810360408401526129d2818661292a565b90508281036060840152611895818561292a565b60006129f46122ca84612294565b9050828152838383011115612a0857600080fd5b610718836020830184612371565b600082601f830112612a2757600080fd5b610718838351602085016129e6565b60008060008060008060c08789031215612a4f57600080fd5b86519550602087015194506040870151612a68816123d4565b606088015190945067ffffffffffffffff80821115612a8657600080fd5b612a928a838b01612a16565b94506080890151915080821115612aa857600080fd5b612ab48a838b01612a16565b935060a0890151915080821115612aca57600080fd5b508701601f81018913612adc57600080fd5b6125b6898251602084016129e6565b6000808354612af9816128f0565b60018281168015612b115760018114612b2657612b55565b60ff1984168752821515830287019450612b55565b8760005260208060002060005b85811015612b4c5781548a820152908401908201612b33565b50505082870194505b50929695505050505050565b602081526000610718602083018461292a565b8183823760009101908152919050565b60018060a01b0385168152836020820152608060408201526000612bab6080830185612395565b82810360608401526118958185612395565b600060208284031215612bcf57600080fd5b815161071881612419565b601f821115612c2457600081815260208120601f850160051c81016020861015612c015750805b601f850160051c820191505b81811015612c2057828155600101612c0d565b5050505b505050565b815167ffffffffffffffff811115612c4357612c4361224d565b612c5781612c5184546128f0565b84612bda565b602080601f831160018114612c8c5760008415612c745750858301515b600019600386901b1c1916600185901b178555612c20565b600085815260208120601f198616915b82811015612cbb57888601518255948401946001909101908401612c9c565b5085821015612cd95787850151600019600388901b60f8161c191681555b5050505050600190811b01905550565b848152608060208201526000612d026080830186612395565b8281036040840152612d148186612395565b905082810360608401526118958185612395565b60018060a01b0384168152826020820152606060408201526000612d4f6060830184612395565b95945050505050565b60ff8181168382160190811115610e0257610e0261282a56fea2646970667358221220e8b53c9ac2566a74911d202f87b2b63c0d55768cbd4df2cff57a646c1e48e7a364736f6c63430008110033",
  "linkReferences": {},
  "deployedLinkReferences": {}
}